:060000000C94F5060C94BF
:1000060000000C9400000C9400000C9400000C946A
:1000160000000C9400000C9400000C9400000C945A
:1000260000000C9400000C9400000C9400000C944A
:1000360000000C9400000C9400000C94CD090C9464
:1000460000000C9400000C9400000C944D090C94D4
:1000560000000C9441090C9400000C9400000C94D0
:1000660000000C9400000C9400000C9453090C94AE
:1000760000000C9447090A23232323232323232345
:10008600232323232323232323232323232323233A
:10009600232323232323232323232323232323232A
:1000A6000A23204B6E756572722041470A2320523F
:1000B6004D204949202D20496E672E204C2E4D6536
:1000C6006C69636861722C20496E672E20502E4B36
:1000D60065726E646C2000000A23232323232323E6
:1000E60023232323232323232323232323232323DA
:1000F60023232323232323232323232323232323CA
:10010600232300000000010001000100020001009D
:100116000300010004000200060002006200020063
:10012600C6010200C8010400CC010400B2020200AC
:10013600B4020400B80204009E030200A0030400F7
:10014600A4030400010C0200424F41524400000087
:10015600000000000000003E124D4F44554C455330
:100166000000000000000000B212524553554D45F4
:10017600000000000000000000DC12564F4C544105
:100186004745000000000000000045134355525249
:10019600454E5400000000000000007C13504F57ED
:1001A600455200000000000000000000B313504F4D
:1001B600574552464143544F52000000001614451D
:1001C6004E45524759000000000000000000EE13A3
:1001D6000000000000000000000000000000000019
:1001E6000000000000000000000000000000000009
:1001F60000000000000000000000000000000000F9
:1002060000000000000000008080C0606030181C04
:1002160018306060C0808000000000000000000010
:1002260000000000000000000000000000000000C8
:1002360000000000000000000000000000000000B8
:1002460000000000000000000000000000000000A8
:100256000000000000000000000000000000000098
:100266000000000000000000000000000000000088
:100276000000000000000000000000000000000078
:100286000080E070383C1E1F1F9F0C0C0E0EFEFEF9
:10029600FE0E0E0C0C9F1F1F1E3C3870E0800000E7
:1002A6000000000000000000000000000000000048
:1002B6000000000000000000000000000000000038
:1002C6000000000000000000000000000000000028
:1002D6000000000000000000000000000000000018
:1002E6000000000000000000000000000000000008
:1002F6000000000000000000000000000000F0FE0A
:10030600FF07000000F8FEFF010000000000FFFFED
:10031600FF000000000001FFFEF800000007FFFEDE
:10032600F0000000000000000000000000000000D7
:1003360000000000000000000000000000000000B7
:1003460000000000000000000000000000000000A7
:100356000000000000000000000000000000000097
:100366000000000000000000000000000000000087
:100376000000000000000000000000000000010373
:100386000F3E78F0E0E0C78F8E9000000000FFFF80
:10039600FF00000000908E8FC7E0E0F0783E0F036C
:1003A6000100000000000000000000000000000046
:1003B6000000000000000000000000000000000037
:1003C6000000000000000000000000000000000027
:1003D6000000000000000000000000000000000017
:1003E6000000000000000000000000000000000007
:1003F60000000000000000000000000000000000F7
:1004060000000000077FFFF1010303030303030756
:1004160003030303030301F1FF7F0700000000004D
:1004260000000000000000000000000000000000C6
:1004360000000000000000000000000000000000B6
:1004460000000000000000000000000000000000A6
:100456000000000000000000000000000000000096
:100466000000000000000000000000000000000086
:100476000000F0F8FC3E0E0F070707070E3EFCF8DB
:10048600E0C0E0E0E0707F7F7060E0C0C0C0C0C048
:10049600C0C0C0C0E060707F7F70E0E0E0C0E0F800
:1004A600FC3E0E070707070F0E3EFCF8F0000000A3
:1004B6000000000000000000000000000000000036
:1004C6000000000000000000000000000000000026
:1004D6000000000000000000000000000000000016
:1004E6000000000000000000000000000000000006
:1004F60000000000000000000000000000001F1FB8
:100506003F397070E0E0E0C0C0808000000101016A
:10051600010100008080C0C0E0E0E07070393F1F3C
:100526001F000000000000000000000000000000A6
:1005360000000000000000000000000000000000B5
:1005460000000000000000000000000000000000A5
:100556000000000000000000000000000000000095
:100566000000000000000000000000000000000085
:100576000000000000000000000000000000000075
:10058600000000000000010103030707070E0C1C12
:100596000C0E07070703030101000000000000001E
:1005A6000000000000000000000000000000000045
:1005B6000000000000000000000000000000000035
:1005C6000000000000000000000000000000000025
:1005D600000705070000000000000000002F0000D3
:1005E6000007000700147F147F14242A7F2A12C4F0
:1005F600C810264636495522500005030000001C47
:100606002241000041221C0014083E081408083E3E
:100616000808000050300010101010100060600034
:100626000020100804023E5149453E00427F40002A
:1006360042615149462141454B311814127F10271A
:10064600454545393C4A4949300171090503364952
:10065600494936064949291E0036360000005636F5
:10066600000008142241001414141414004122142A
:10067600080201510906324959513E7E1111117E77
:100686007F494949363E414141227F4141221C7FF3
:10069600494949417F090909013E4149497A7F088B
:1006A60008087F00417F41002040413F017F081438
:1006B60022417F404040407F020C027F7F040810A9
:1006C6007F3E4141413E7F090909063E4151215E77
:1006D6007F09192946464949493101017F01013FF0
:1006E6004040403F1F2040201F3F4038403F63149A
:1006F60008146307087008076151494543007F41A4
:100706004100552A552A550041417F000402010245
:1007160004404040404000010204002054545478F4
:100726007F484444383844444420384444487F3859
:1007360054545418087E0901020C5252523E7F0846
:1007460004047800447D40002040443D007F10288A
:10075600440000417F40007C041804787C080404AF
:100766007838444444387C14141408081414187C4B
:100776007C080404084854545420043F4440203C58
:100786004040207C1C2040201C3C4030403C4428FB
:100796001028440C5050503C4464544C44000A23E6
:1007A6002048573A2000436F6D6D4D6F64756C009D
:1007B600207600312E3130000A232053573A20008C
:1007C60054657374487700312E3030000A493A2058
:1007D60053797374656D2073746172742E2E000ADA
:1007E600493A312E62797465202578000A493A32F1
:1007F6002E62797465202578000A493A332E62798B
:100806007465202578000A493A342E627974652089
:100816002578000A493A352E6279746520257800D4
:100826000A493A362E62797465202578000A493AD3
:10083600372E62797465202578000A493A382E6287
:10084600797465202578000A3D3D3D3D3D3D3D3DA1
:100856003D3D3D3D3D3D3D3D3D3D3D3D3D3D3D3DC2
:100866003D3D3D3D3D3D3D3D3D3D3D3D3D3D3D3DB2
:100876003D3D3D3D3D000A45453A206E656A73653E
:100886006D207265616479202578000A45453A2015
:10089600737061746E6120616472657361000A45EC
:1008A600453A20737061746E656A207A616361747B
:1008B600656B00000A6372656174652070726F6310
:1008C600657373206E722E2564202E2E00000100A3
:1008D60001000A493A2053656E6442756666657280
:1008E600662829000A493A205072696A6D75742093
:1008F600737472696E673A20000A453A204E656441
:100906006F7374617465636E79206275666665726D
:100916002C20737472696E673A000A453A20777222
:10092600697465207761736E74207375636365738C
:1009360066756C6C000A453A2077726F6E67206F99
:100946007065726174696F6E2028726561642F77B5
:100956007269746529000A453A676F6F642C206EC8
:1009660065787420737465702030782578000A45A0
:100976003A77726F6E672C206F6E636520616761D0
:10098600696E000A453A2077726974652066616966
:100996006C656421000A453A2053594E4328332E8C
:1009A6006279746529203A202578000A453A204163
:1009B6004444524553532028322E627974652900E7
:1009C6000A3D3D3D3D3D3D3D3D3D3D3D3D000A6DC4
:1009D6006573736D6F64756C206E722E2575000AD3
:1009E60074656D70657261747572653A2025642E42
:1009F6002564B043000A70663A20256C64207C208A
:100A0600256C64207C20256C6400496E69636961ED
:100A16006C697A616365204F4B006672656B76651B
:100A26006E63653A20202564202020202020004E79
:100A3600656A73656D20706F76696E656E2062FDFE
:100A4600742074616B6F76FD2C206A616BFD2062E9
:100A560079636820706F646C65206F737461746E5F
:100A6600ED6368206C6964ED206DEC6C2062FD74AA
:100A76002E204A6520746F206A656A696368206F54
:100A86006D796C2C2061206E65206D6F6A65207310
:100A9600656C68E16EED202D2052696368617264B1
:100AA600204665796E6D616E002020202020202072
:100AB600202020202020202020202025752F25756D
:100AC6000000000317032E0345035C0373038A0328
:100AD600A1032020202020202020202020202020AC
:100AE6002020202020202020000020202020202040
:100AF6002020002020202020203D3D3D3D3D3D3D45
:100B06003D3D3D3D3D20202020002020202020206E
:100B160020202020202020202020202020200020EF
:100B260020202020202020202020202020202020BF
:100B360025752F257500204857207665722E3A2098
:100B460000312E313000205357207665722E3A2020
:100B560000312E3030002020202020202020202090
:100B66002020202020202020202020002049503A2C
:100B7600202533752E2533752E2533752E25337591
:100B8600202020202020202000204D41433A2025EF
:100B960030325825303258253032582530325825D3
:100BA6003032582530325820202000202020204185
:100BB6007661696C61626C653A202575202020207B
:100BC6002020002020202053656C65637465643AFC
:100BD600204D2575202020202020002055206C69DE
:100BE6006E65733A202575202020202020202020A5
:100BF600002049206C696E65733A202575202020F7
:100C060020202020202000202020202020202020FE
:100C160020202020202020202020202020202020CE
:100C26002000204672657175656E63653A202575EC
:100C36002E257520487A202020202020002054656B
:100C46006D70657261747572653A2025752E25750D
:100C5600B04320202020202000202020204C257575
:100C66003A2025752E2575205B565D2020204D25C2
:100C760075202000202020204C25753A2025752E31
:100C860025303275205B415D20204D2575202000E2
:100C9600204C25753A20256C642E2564205B575D13
:100CA600207C20256C642E2564205B56415D002047
:100CB6002020204C25753A20256C642E2564205B67
:100CC600575D2020204D25752020002020204C2512
:100CD600753A2025336C64205B57685D2020204DD3
:100CE60025752000202020204C25753A2025366CBD
:100CF60064202020204D25752020000001000100E1
:100D0600010001000A2D000A2B000A493A62757497
:100D1600746F6E733A206C6F6E67207072657373B2
:100D2600000A493A627574746F6E733A2073686F7D
:100D36007274207072657373000001002D4E414E6F
:100D460000494E46000001007807D40801007907E3
:100D5600D60817000003D80A17001703D80A170089
:100D66002E03D80A17004503D80A17005C03D80AD1
:100D760017007303D80A17008A03D80A1700A103BD
:100D8600D80A0900B803F00A1700C103F90A1500CA
:100D9600D803100B0B00ED033C0B0B00F8034C0BB8
:100DA600160003045C0B160019045C0B16002F04D6
:100DB6005C0B1B0045040D0C160060045C0B170051
:100DC6007604110C17008D04110C1700A404110CE5
:100DD6001700BB04110C1700D204110C0100B30755
:100DE600400D0000F894EE27EFBBF1E0F5BFE5BF3C
:100DF600F8E1A895A4B7A77FA4BFF0936000E0939D
:100E060060008DE0A2E0BB27ED938A95E9F780E0CC
:100E160098E0A0E0B1E0ED930197E9F7ECE4FDE09E
:100E260085919591009761F0A591B59105901590E2
:100E3600BF01F00105900D920197E1F7FB01F0CF9C
:100E4600E0E0EEBBEFEFEDBFE8E0EEBFC0E0D3E0E1
:100E56000C942D070E94B0070E94860A0E94810A00
:100E66000E94C40A0E94680C0E946A11F894E4E683
:100E7600F0E0FA93EA930E94091A0E945909EAEFF0
:100E8600F0E060E070E00E94FD1AE0E1FFE00E9401
:100E96007217E8ECF0E060E070E00E94FD1AE5EA07
:100EA600FAE00E947217EEE1F0E060E070E00E9466
:100EB600FD1AE8E4F4E10E947217E8EEF3E060E060
:100EC60070E00E94FD1AEFE8FAE00E947217E4EF64
:100ED600F1E060E070E00E94FD1AE0E7F1E10E94B7
:100EE6007217E0EDF7E0FA93EA930E94091AE0E040
:100EF600EA93ECE7F0E00E947617E4EAF7E00E9456
:100F06007617ECEAF7E00E947617E6EBF7E00E9428
:100F16007617E9EBF7E00E947617EEEBF7E00E9412
:100F26007617E6ECF7E00E947617E6EBF7E00E940C
:100F36007617EDECF7E00E947617EEEDF0E00E94F2
:100F46007D170E947A09E0E0EA93E2EDF7E00E945D
:100F56007D170E94610FFDCFFFCFE0E8E0936100AF
:100F6600E0E0E0936100E2B9E1B9E5B9E4B9E8B9D6
:100F7600E7B9EBB9EAB9E4BDE5BDE6BDE7BDE8BD55
:100F8600E0938000E0938100E0938500E093840085
:100F9600E0938700E0938600E0938900E093880061
:100FA600E0938B00E0938A00E093B600E093B000F4
:100FB600E093B100E093B200E093B300E093B40095
:100FC600E0936900EDBBE0936800E0936E00E09368
:100FD6006F00E0937000E093C000E8E0E093C1008A
:100FE600E6E0E093C200E0E0E093C500E5E0E093D0
:100FF600C400E0E8E0BFE0E0E0937B000895E8810C
:10100600E03011F40C940A080E94230802C00E94E2
:101016000E08219608950E943908E0E0E093030740
:10102600E0930407E8EDE093C100E1E0E0938B066E
:10103600E0E0E0938D06E0939F06E093A006089516
:101046000E944208E5E0F7E0A0E0B0E0A083B183AB
:10105600E8EDE093C900E1E0E0938C06E0E0E09380
:101066008E06E1EAF6E0A083B1830895EFE8F6E0A4
:10107600FA93EA93E3EAF6E00E9481170895E7E916
:10108600F6E0FA93EA93E3EDF6E00E9481170895FD
:10109600AA81A23010F00C945908EA810E9489179F
:1010A600EA0FFB1FA881B981A083B1832396089517
:1010B6000E94081BEC81E03011F40C947A080E941F
:1010C6008F170E943C1A0E943C1AE050F044674574
:1010D6007F4F7F936F93FF93EF930E949417AF9187
:1010E600BF918F919F910E949D1731E019C00E9478
:1010F6009417E050F04467457F4F7F936F93FF93BB
:10110600EF930E948F17A0E1B0E080E090E00E948C
:10111600461AAF91BF918F919F910E949D1730E023
:10112600E985E03011F40C94A6080093CC001093E6
:10113600CD00E091C000ED7FE093C000A0ECB0E0F0
:101146000E94A5170DC00093C4001093C500E0913E
:10115600C800ED7FE093C800A8ECB0E00E94A51798
:101166000E940F1B2A960895E881F981E491E030E8
:1011760011F40C94DB08EA81E03011F40C94CF08EA
:10118600E091C800E07211F00C94CA08F9CF0E94F1
:10119600AD17E093CE000BC0E091C000E07211F0F5
:1011A6000C94D608F9CF0E94AD17E093C600DCCFA9
:1011B600239608950E94B517E357F94FE081E03072
:1011C60011F40C9417090E94B5170E94351AED56B2
:1011D600F94FDF010E94D61A309711F40C940A09D0
:1011E600E881E03011F40C940109E7E9F6E0FA939E
:1011F600EA930E94380AE093CE0008C0EFE8F6E0D2
:10120600FA93EA930E94380AE093C6000CC00E9443
:10121600B517E357F94FA0E0A0830E94B517E5572D
:10122600F94FA1E0A08306C00E94B517E557F94F14
:10123600A1E0A083219608951A93E981E03011F484
:101246000C9428091091CE0002C01091C600E981C5
:101256000E9489170E94B817309711F40C943E0922
:10126600E9810E9489170E94B817FF93EF931A939A
:10127600EF91FF9109951881229608950E94BD1756
:10128600E0E00E94CB1718950E94BD17E1E00E948E
:10129600CB1718950E94BD17E0E00E94DC17189541
:1012A6000E94BD17E1E00E94DC1718951A93E2E050
:1012B600E4BDE5E0E5BDE0E0E6BDEBE6E7BDE0E088
:1012C600E8BDE2E0E0936E00E2E3F0E0E0930707BA
:1012D600F093080710E01A3010F00C9478090E9479
:1012E600ED17A0E0A0831F5FF6CF199108957894BB
:1012F60008950E94081B10E01A3010F00C94C909DA
:101306000E94ED179F01D901EC91E03011F00C9489
:10131600C709E1E0EC93EC81FD81D9011196ED93CB
:10132600FC930E94F31710F00C949F090E94FF177C
:10133600EE83FF83688779870E94F31710F00C9479
:10134600A909E1E0F0E060E070E002C00E94041844
:10135600D90113960E94E51A0E94F31710F00C9417
:10136600B909E1E0F0E060E070E002C00E94041814
:10137600D90117960E94E51AEAEBF8E00E940D18CB
:101386000E940F1B2A9608951F5FB6CF0E940F1B5F
:101396002A9608950E94BD170E94061BE091070732
:1013A600F0910807309711F40C94E309A7E0B7E031
:1013B600ED91FD913197FE93EE930E941A181895C0
:1013C600E0E0E0936E0010E01A3010F00C94170A7B
:1013D6000E94ED179F01D901AC91A13011F00C9438
:1013E600150AD90117960E94E01A3197604070409D
:1013F6000E94EA1A0E94021B11F00C94150AD901E8
:10140600E2E0EC9311964D915C91FA010995D901B0
:1014160013960E94DA1AD90117960E94E51AD90185
:10142600E1E0EC931F5FD0CFE2E0E0936E000E9414
:101436001A181895F894EA81FB81AC81BD81ED9369
:10144600FC93E881F981AC81BD811296ED93FC9302
:10145600AC81BD8116960E942B18AC81BD81149675
:101466000E942B187894269608951A9310E0F89403
:10147600A981BA8114960E94D61A309711F40C9459
:101486007C0AA981BA810D901C90A981BA81169611
:101496000E94D61AD001AE0FBF1F1C91A981BA8136
:1014A60016960E943018E981FA8106801780A98174
:1014B600BA8112960E94D61A0E161F0610F40C94C4
:1014C600740AE981FA813696BF0100801180E981AC
:1014D600FA81A281B381F001EA1BFB0BDB01ED93DC
:1014E600FC93A981BA811496ED91FD913197FE93F3
:1014F600EE937894E12F1881239608953E98469AA4
:101506003F98479A0895569A5E9A579A5F9A0A9A0A
:1015160012980B9A13980895EBB1A0E8EA27EBB955
:10152600E0917707E03011F40C94A10AEBB1A0E446
:10153600EA27EBB9E0E0E093770703C0E1E0E09348
:101546007707089537990AC0E0917807E03011F4DB
:101556000C94B00AE0E0E093780703C0E1E0E09382
:10156600780736990AC0E0917907E03011F40C94B7
:10157600BF0AE0E0E093790703C0E1E0E093790772
:1015860008951A93EAB1EC7FEAB9EBB1E360EBB9DF
:10159600529AEBB1E360EBB9E1E0EA930E940208EC
:1015A600E1E0EA93E0E8F5E260E070E00E94FD1A0F
:1015B600E0E0EA930E945B08E1E0EA93E6E0FBE004
:1015C600FA93EA930E944B0810E0143010F00C9442
:1015D600F30A0E943618EF57F94F10831F5FF5CFB5
:1015E60010E0163010F00C94010BA5E8B6E00E944E
:1015F6003618EA0FFB1F10831F5FF3CFE0E0E0937E
:10160600AB0719910895E091AA07E03011F00C9408
:10161600180BA881A33511F00C94170BE0E0E093AA
:10162600A907E1E0E093AA075BC0E13011F00C9452
:10163600230BE881E0938507E2E0E093AA0750C018
:10164600E23011F00C942E0BE881E0938607E3E07C
:10165600E093AA0745C0E33011F00C944A0BA88129
:10166600AF3110F40C943B0BE0E0E093AA070EC0F8
:10167600E881E0938907E03011F40C94460BE4E02E
:10168600E093AA0703C0E5E0E093AA0729C0E43087
:1016960011F00C94690BAAE8B7E0E091A907F0E015
:1016A600EA0FFB1FA881A083E091A907EF5FE093F3
:1016B600A907E150A091A907E0918907AE1710F498
:1016C6000C94680BE5E0E093AA070AC0E53011F038
:1016D6000C94730BE881E093A807E6E0E093AA0771
:1016E60021960895249A259A2698279AE3E5ECBD33
:1016F6000895E881EEBDEDB5E07811F00C94840B09
:10170600FACFEEB5219608950E94750B08950E94B2
:10171600061B10E000E0EA85F0E0EF702E2FE98569
:101726005E2FEB85E795E0E0E795AE2FEE81E2953B
:10173600E07FEA2BE22B0E94391888EB8A95F1F7B5
:10174600113C11F00C944D0C5A930E947C0B1E2FE9
:10175600123C11F00C94430CEB85E03011F00C9424
:10176600C80B30E03E3110F00C94C70B84E191E0D9
:101776000197F1F7E0E00E943918113411F00C944A
:10178600C50B02C03F5FEECF01C011E4113411F06A
:101796000C943E0C30E0EE81A1E00E94211A3E1727
:1017A60010F00C94120C88EB8A95F1F7EB85E0307B
:1017B60011F00C94EA0BE0E00E943918E02FAF819B
:1017C600B885F0E0EA0FFB1F10830F5F26C0AB85DC
:1017D600A13011F00C940C0C2197A885B985EE2741
:1017E600A00FBE1F1C911A930E947C0BE8830F5F0B
:1017F600A881A13411F40C940A0CE0E2F9E00E94ED
:101806003E18EFEF21960E940D1B2C960895219607
:1018160004C0EBE3F9E00E943E183F5FBCCFAB8506
:10182600A13011F00C943D0C30E03E3110F00C94D8
:10183600320C88EB8A95F1F7E0E00E9439181E34E5
:1018460011F40C942C0CECE5F9E00E940D1807C07D
:1018560004C0E4E7F9E00E943E183F5FE6CF11348A
:1018660011F40C943D0CE9E8F9E00E943E180E9440
:101876004518089504C0EBE9F9E00E940D1809C067
:10188600E0E0EA93E1EBF9E00E947D170E9445183B
:10189600089503C00E944518089588EB8A95F1F7CC
:1018A600E0E00E940D1B2C960895E0E0EA93EC819F
:1018B600FD81FA93EA93EC81FD81FA93EA93ED8137
:1018C600EA930E948A0B259608951A930E94870B25
:1018D600E9EEF4E0FA93EA93E0E0EA93E7E9F1E06F
:1018E600FA93EA930E941917249A239A229A219A24
:1018F600209A2C9A2B9A2A9A299A289A0000000054
:10190600199108956C97D1500E94061BFE01EE5D59
:10191600FE4FE0810E944A189F01FE013696AF01F4
:101926000E945018E0E0EA93ECE1F1E0FA93EA93C2
:101936000E941917E2E6F0E0FA93EA93FA01389664
:101946000E945518D901EC93AC91AF3F11F00C945D
:10195600AF0C0E945B180895E1E0FCE0FA93EA936D
:10196600FA013A960E945518E8ECF1E0FA93EA93E8
:10197600FA013C960E946318E4EBF2E0FA93EA93CC
:10198600FA0170960E946318E0EAF3E0FA93EA938C
:10199600FA0174960E946318E1E3F8E0FA93EA9379
:1019A600FA01E45AFF4F0E946918E2E3F8E0FA935D
:1019B600EA93FA01EC59FF4F0E946918E4E3F8E054
:1019C600FA93EA93FA01E459FF4F0E946918ECEC86
:1019D600F1E0FA93EA93FA0178960E946318E8EB2D
:1019E600F2E0FA93EA93FA017C960E946318E4EA1D
:1019F600F3E0FA93EA93FA01B0960E946318E1E4E1
:101A0600F8E0FA93EA93FA01E458FF4F0E94691846
:101A1600E2E4F8E0FA93EA93FA01EC57FF4F0E94EA
:101A26006918E4E4F8E0FA93EA93FA01E457FF4F01
:101A36000E946918E6ECF1E0FA93EA93FA01B4968B
:101A46000E945518E2EBF2E0FA93EA93FA01B69691
:101A56000E945518EEE9F3E0FA93EA93FA01B89674
:101A66000E945518E0EDF1E0FA93EA93FA01BC966C
:101A76000E946318ECEBF2E0FA93EA93FA01F0960F
:101A86000E946318E8EAF3E0FA93EA93FA01F496FF
:101A96000E946318E8EDF1E0FA93EA93FA01F896EA
:101AA6000E946318E4ECF2E0FA93EA93FA01FC96DA
:101AB6000E946318E0EBF3E0FA93EA93FA01E05C24
:101AC600FF4F0E946318E1E0F8E0FA93EA93FA0107
:101AD600E456FF4F0E946918E2E0F8E0FA93EA93B1
:101AE600FA01EC55FF4F0E946918E4E0F8E0FA931A
:101AF600EA93FA01E455FF4F0E946918E1E2F8E023
:101B0600FA93EA93FA01E454FF4F0E946918E2E25D
:101B1600F8E0FA93EA93FA01EC53FF4F0E94691832
:101B2600E4E2F8E0FA93EA93FA01E453FF4F0E94E5
:101B36006918E8EEF1E0FA93EA93FA01EC5BFF4FDD
:101B46000E946318E4EDF2E0FA93EA93FA01E85B87
:101B5600FF4F0E946318E0ECF3E0FA93EA93FA0170
:101B6600E45BFF4F0E946318ECEEF1E0FA93EA9310
:101B7600FA01E05BFF4F0E946318E8EDF2E0FA938A
:101B8600EA93FA01EC5AFF4F0E946318E4ECF3E083
:101B9600FA93EA93FA01E85AFF4F0E946318E1E7C5
:101BA600F8E0FA93EA93FA01E452FF4F0E946918AB
:101BB600E2E7F8E0FA93EA93FA01EC51FF4F0E944C
:101BC6006918E4E7F8E0FA93EA93FA01E451FF4F63
:101BD6000E946918E1E7F8E0FA93EA93FA01E45003
:101BE600FF4F0E946918E2E7F8E0FA93EA93FA01D8
:101BF600EC5FFE4F0E946918E4E7F8E0FA93EA9377
:101C0600FA01E45FFE4F0E946918DA0118960E94F5
:101C1600D61AD9011396ED93FC93FA01A285B385E2
:101C2600ECE4F0E00E946B1AD9011196ED93FC9357
:101C360010E0143010F00C940D0F2897DA01A45A16
:101C4600BF4F0E9436180E946F1815960E943618CC
:101C5600EE0FFF1FEA0FFB1FFF93EF93EC81FD8151
:101C66006E817F81ACEABEE180E090E00E94461A78
:101C76000E9480180E947E1AAF91BF91ED93FC934B
:101C8600DA01A458BF4F0E9436180E946F181D969D
:101C96000E943618EE0FFF1FEA0FFB1FFF93EF930C
:101CA600EC81FD816E817F81A9E1B3E080E090E067
:101CB6000E94461ADF01CB01E0E1F7E260E070E046
:101CC6000E947E1AAF91BF91ED93FC93DA01A45660
:101CD600BF4F0E9436180E94871855960E943618E4
:101CE6000E949718FF93EF930E949C180E94A31AD4
:101CF600AF91BF910E94E51AF9013196EC5AFF4F58
:101D0600DF010E9436180E9497180F01DA01949697
:101D16000E9436180E94A518D0010E94411A0E94FE
:101D2600E51ADA01A452BF4F0E9436180E9487189E
:101D3600D5960E9436180E949718FF93EF930E943B
:101D46009C180E94A31AAF91BF910E94E51A0E94A7
:101D5600A8180E94A518749710F00C94B60E0E944D
:101D6600A8180E94AB180E94B0180E94A5183597B3
:101D760010F00C94C20E0E94B0180E94AB18D90144
:101D860055960E9436180E94B3180E94B81814F08F
:101D96000C94D50ED90155960E9436180E94B31898
:101DA6000E94C218D90195960E9436180E94B3184F
:101DB6000E94B81814F00C94E80ED90195960E946A
:101DC60036180E94B3180E94C218D901D5960E94EF
:101DD60036180E94B3180E94B81814F00C94FB0E23
:101DE600D901D5960E9436180E94B3180E94C218CF
:101DF6000E94C9180E94B3180E94B81814F00C94D7
:101E06000A0F0E94C9180E94B3180E94C218289689
:101E16001F5F0FCF0E945B1808951A93E0917E060C
:101E2600EF5FE0937E06E150A0917E06A43011F0AC
:101E36000C94390FE0E0E0937E06E0937D0610E017
:101E4600143010F00C94390FA5E61A9FF001E751F3
:101E5600FB4FA081AF3F11F40C94370FE0917D0644
:101E6600EF5FE0937D06E1501F5FEACFE0917E06CB
:101E7600E03011F00C94410F2B9812C0E13011F0B4
:101E86000C94470F2A980CC0E23011F00C944D0FB9
:101E9600299806C0E33011F00C94530F289800C01F
:101EA600E0917E06EA930E94850C2C9A2B9A2A9A38
:101EB600299A289A0000000019910895E0917F065A
:101EC600E03011F40C94B90F2297E0917E060E943F
:101ED6004A18E883F983E6ECF9E00E943E18E4ED3F
:101EE600F9E0FA93EA93E0917E060E94CF1884E027
:101EF6000E94F3162696E6ECF9E00E943E18E5EEFF
:101F0600F9E0FA93EA93EA81FB810E94D6180E94CF
:101F1600DB18EE81FF810E94D6180E94A81A0E9443
:101F2600E21888E00E94F3162A96EBEFF9E0FA939E
:101F3600EA93EA81FB813196EC5AFF4F0E94EB1837
:101F4600EE81FF813196E85AFF4F0E94EB18EA8531
:101F5600FB853196E45AFF4F0E94EB188CE00E94F5
:101F6600F3162E96E0E0E0937F06229608950E94EF
:101F7600F118133010F00C94CB0F0E94A8180E9491
:101F8600A518309711F40C94C90F0F5F1F5FF1CF9E
:101F9600E02F0E940F1B249608950E94F11813301B
:101FA60010F00C94E10F0E94B0180E94A51830970B
:101FB60011F40C94DF0F0F5F1F5FF1CFE02F0E942B
:101FC6000F1B249608951A93E981E150AA81BB81DB
:101FD600F0E0AE0FBF1FEC91E07811F40C94F50F12
:101FE600E1E001C0E0E01E2F103011F40C94021065
:101FF600AA81BB810E94DA1A0E94191A04C0AA811A
:10200600BB810E94D61A1881249608950A9A099AC5
:10201600249A119888EB8A95F1F7119A2C9A0E94C6
:10202600750B88EB8A95F1F70E94241088EB8A9548
:10203600F1F70E94761088EB8A95F1F70E943C1121
:102046000895E3EAEA930E943411E1EAEA930E94D2
:102056003411E0ECEA930E943411E4E2EA930E9420
:102066003411E1E8EA930E943411EFE2EA930E9408
:102076003411EFE2EA930E943411E7EAEA930E94F0
:1020860034110E9476100E94F818E0EB0E94FC18AA
:10209600E5E0EA930E943411E0E1FAE0FA93EA936C
:1020A6000E940911EFEAEA930E94341108951A93E7
:1020B60010E0183010F00C947310E0E0EA93E1E0C1
:1020C600EA931A930E949710E12FA981BA81F0E052
:1020D6000E94A518FA93EA930E94F7101F5FE9CFB2
:1020E6001881239608951A930A930E94F81810E00F
:1020F600183010F00C949410E12FE06B0E94FC183D
:10210600E1E0EA930E94341100E0043810F00C94E8
:102116009210E0E0EA930E9438110F5FF6CF1F5F3E
:10212600E7CF0991199108950E94F818EA81E061B4
:10213600EA83EA930E943411AA81A03111F00C942B
:10214600A810E981E460E98302C0E981E983E981B5
:10215600EA930E943411E881E06BE883EA930E94D7
:102166003411239608951A9310E0A981A03B11F02B
:102176000C94C010E0E0E9830CC0A981A03210F4F1
:102186000C94CA10AC3710F00C94CA1002C0E0E4EC
:10219600E98310E0153010F00C94F010A981A032FC
:1021A60010F00C94E210E981A5E0EA9FF001EA52F2
:1021B600FA4FDF010E9436180E9403190CC0E9810C
:1021C600E052A5E0EA9FF001E452FA4FDF010E94D7
:1021D60036180E9403191F5FDDCFE0E0EA930E94E4
:1021E6003811188122960895A881B981EC91E030C2
:1021F60011F40C940711EA930E94B610E881F98154
:102206003196E883F983F0CF22960895E881F98123
:10221600E491E03011F40C941C11E881F981E49109
:10222600EA930E94B610E881F9813196E883F98332
:10223600EDCF229608952C98E981E03011F40C94A4
:102246002611129801C0129A85E28A95F1F7E88163
:10225600EA930E947C0B85E28A95F1F72C9A2296E6
:102266000895E1E00E9409190895E0E00E94091925
:1022760008950E94081B20E030E02830E0E03E0789
:1022860010F00C946611E0E0EA93E1E0EA932A93F9
:102296000E94971010E0103810F00C946311A0E81B
:1022A600A29FF001A39FF00DA12FB0E0EA0FFB1F44
:1022B600EA52FE4FE491EA930E9438111F5FEBCF7A
:1022C6002F5F3F4FDACF0E940F1B24960895E0E060
:1022D600E093AC070E9409100895609780E1A0E0A2
:1022E600B0E0E8ECFAE00E94141BE091AC07EA9338
:1022F600FE013196FA93EA930E9416120E94101973
:102306000E945A10609608950E9414190E94911115
:1023160008950E9414190E94A5110895A981BA81F1
:10232600AC91E881AE1710F00C949F11A981BA8187
:10233600EC91EF5FEC9304C0A981BA81E0E0EC93E5
:1023460023960895A981BA81EC91E03011F00C949E
:10235600AF11E881EC9305C0A981BA81EC91E150F7
:10236600EC9323960895A897EAA50E941B190E944C
:102376004B17709710F40C94C211AB9608950E94F7
:102386001019E8EBF3E00E942319ECA50E941B1933
:102396000E942819E3EFFAE00E942B19A8A5B9A517
:1023A6000E942F190E943419E8A5F9A5A281B381CC
:1023B600BA93AA93E1ECF3E00E943C19AB96089518
:1023C600A8971A931CA5173010F00C94F811E12F5A
:1023D600A9A5BAA5F0E00E94A518FA93EA93E8ED3C
:1023E600F3E00E943C191F5FEECFFE013196FA938F
:1023F600EA93E5E2FBE0FA93EA93EFA50E94CF1891
:10240600E8E0F0E060E070E00E944219E9A5FAA574
:10241600A685B785BA93AA93FE0133960E943C1906
:102426001881AD9608951A93EB81EA93EA81FB81B0
:10243600FA93EA930E94B611EB81A1E1EA9FF001BB
:10244600E25BFE4F3F960E94EF1AFF93EF93E981FE
:10245600FA81FA93EA93EF91FF9109951E2F1A9349
:10246600EC81EA93EB81FC81FA93EA930E94E311F3
:10247600188124960895A8970E941019EDEEF3E0AE
:102486000E942319E7E4FBE0FA93EA930E942819D5
:10249600E2EFFAE00E942B190E9449190E943419B2
:1024A6000E941019E8EFF3E00E942319E7E5FBE02C
:1024B600FA93EA930E942819E2EFFAE00E942B1998
:1024C6000E9450190E945719E3E0F4E00E943C195B
:1024D6000E941019E2E7FBE0FA93EA93E091810685
:1024E6000E945E19E09182060E945E19E0918306C1
:1024F6000E945E19E09184060E945E190E9464198A
:102506000E9469190E941019EFE8FBE0FA93EA931A
:10251600E09185060E945E19E09186060E945E198A
:10252600E09187060E945E19E09188060E945E1976
:10253600E09189060E945E19E0918A060E945E1962
:1025460088E10E94B8166C96E8A5F9A5A485B5851C
:10255600BA93AA930E943419E7E0AA960895A89719
:102566000E944919E9E1F4E00E943C190E94101901
:10257600E1EBFBE0FA93EA93E0917D060E945E1997
:102586000E9470190E9450190E945719EFE2F4E058
:102596000E943C190E941019E9ECFBE0FA93EA93B9
:1025A6000E9475190E9470190E946919E6E0AA96A0
:1025B6000895A8971A930A930E9478198F010E948A
:1025C6007B19E1EEFBE0FA93EA930E94BA0F0E94B0
:1025D6005E190E947019EAA5FBA50E9480190E9447
:1025E60085190E947B19E7EFFBE0FA93EA930E94B4
:1025F600D00F0E945E190E947019EAA5FBA5A6815C
:10260600B7810E948819EAA5FBA5A085B185BA9372
:10261600AA93E5E4F4E00E943C190E947B19E8E2E3
:10262600FCE0FA93EA93F801A381B481E8EEF3E0C3
:102636000E94DB18F801A381B481E8EEF3E00E9462
:102646008B19EAA5FBA5A285B3850E9488190E946D
:102656007B19E3E4FCE0FA93EA93F8010E94D618AA
:102666000E94DB18F8010E94D6180E948B19EAA571
:10267600FBA5A485B5850E948819E7E01981088124
:10268600AC9608950E9490190E949419E0E6F4E031
:102696000E943C1920E030E02330E0E03E0710F0D5
:1026A6000C9479130E949819EFE5FCE00E949D199D
:1026B6001596F9010E94A518DF01EAE0F0E00E94F4
:1026C600DB18D8011596F9010E94A518DF01EAE08A
:1026D600F0E00E94A7190E9464190E94AE190E9498
:1026E600B3190E94B6192F5F3F4FD6CF0E94BA1971
:1026F60008950E9490190E949419E6E7F4E00E945A
:102706003C1920E030E02330E0E03E0710F00C9466
:10271600B0130E949819EAE7FCE00E949D191D96E5
:10272600F9010E94A518DF01E4E6F0E00E94DB183B
:10273600D8011D96F9010E94A518DF01E4E6F0E034
:102746000E94A7190E9464190E94AE190E94B3192B
:102756000E94B6192F5F3F4FD6CF0E94BA1908952F
:102766000E9490190E949419E4EAF4E00E943C1930
:1027760020E030E02330E0E03E0710F00C94EB134D
:102786000E949819E5EBFCE00E949D195596F90107
:102796000E94B3180E94BF190E94A31A0E94FD1A34
:1027A600D8015596F9010E94B3180E94BF190E94DC
:1027B600AF1A0E94E2180E9475190E9464190E94BD
:1027C600AE190E94B3190E94B6192F5F3F4FD2CFA0
:1027D6000E94BA1908950E9490190E949419EBEB71
:1027E600F4E00E943C1920E030E02330E0E03E07B0
:1027F60010F00C9413140E949819E1EDFCE00E946D
:102806009D19D596F9010E94B3180E94C4190E9419
:10281600C9190E94B3190E94B6192F5F3F4FE5CF21
:102826000E94BA1908950E9490190E949419E2ED27
:10283600F4E00E943C1920E030E02330E0E03E075F
:1028460010F00C9445140E949819EAEEFCE0FA93F5
:10285600EA93F9013196662777270E94FD1AF80157
:102866003196EC5AFF4FDF01F9010E94B3180E941E
:10287600C4190E94C9190E94B3190E94B6192F5F84
:102886003F4FDBCF0E94BA19089537991EC0E091D9
:10289600B007EF5FE093B007A091B007AF3110F437
:1028A6000C946714E0E1FDE00E943E18E0E0E0933E
:1028B600B007E1E0E093B207E0E8F6E0FA93EA93C6
:1028C600E3E0EA930E94911119C0A091B007A330EA
:1028D60010F40C947514A091B207A03011F00C946A
:1028E600751401C006C0E7E2FDE00E943E180E9492
:1028F6008C11E0E0E093B207E093B007369906C08A
:10290600E091B107EF5FE093B1070BC0A091B1076B
:10291600A33010F40C9491140E948711E0E0E09328
:10292600B1070895E091C000E07211F00C949C1478
:10293600F9CFE881E093C60021960895EA81EA93EB
:102946000E949514A881B9810E9430182396089593
:102956001A930A93AA81BB8112960E94D61A3097BF
:1029660011F40C94E214AA81BB8114960E94D61A23
:102976008F01309711F00C94C1140EC00230E0E0C4
:102986001E0710F40C94E114F80131978F01AA8107
:10299600BB811496ED93FC93AA81BB8112960E948B
:1029A60030183197AC81A083AA81BB810E94D61AC8
:1029B600FF2312F40C94E1140E94301806C0AA8179
:1029C600BB81EFEFFFEFED93FC931981088125960C
:1029D60008952B970E94061B10E0A989BA890E94C8
:1029E6002B18EF89F88D3196EF8BF88F3197E4919C
:1029F6002E2FE03011F40C94B016E12FE03011F0D8
:102A06000C940E15253211F00C940B1511E002C032
:102A16000E94CE19A1C1E13011F00C943015253277
:102A260011F00C941A150E94CE1910E095C112E00F
:102A360040E000E02D3211F00C94231501E08CC12A
:102A46002B3211F00C9429154BE286C1203211F07D
:102A56000C942F1540E280C104C0E23011F00C94B2
:102A66003D1550E013E0203311F00C943C1500683E
:102A760073C104C0E33011F00C945A15203310F4DE
:102A86000C944A152A3310F00C944A1501C007C05D
:102A9600AAE05A9F502DE22FE0535E0F5DC12C36FF
:102AA60011F00C945915026015E056C104C0E530CA
:102AB60011F00C94AF16E22FE33611F00C946D155D
:102AC6000E94D719ED89FE89A481AA930E94DD1977
:102AD60042C104C0E33711F00C947A150E94D7194D
:102AE6000E94E5190E9441171E2F0DC004C0E03751
:102AF60011F00C948C150E94D7190E94E5190E94BA
:102B06004B171E2F08600F77E0E0E88B30E07EC0A1
:102B160004C0E43611F00C94911504C0E93611F0A6
:102B26000C949715046004C0E53711F00C94B015A9
:102B3600EAE0E88B01FF08C0E0E0FAEC6AE97BE333
:102B46000E94EF191AE026C0E0E1F7E260E070E0CB
:102B56000E94EF1915E01EC004C0E83511F00C9470
:102B6600B615086004C0E83711F00C94AE16E0E123
:102B7600E88B01FF08C0E0E0F0E060E070E10E9451
:102B8600EF1918E007C0E0E0F0E160E070E00E94B5
:102B9600EF1914E001FF0AC00E94D719AD89BE895A
:102BA60014960E94DA1A0E94F41919C002FF0CC08A
:102BB6000E94D719AD89BE8914960E94D61A0E9422
:102BC600411A0E94F4190BC00E94D719AD89BE891B
:102BD60014960E94D61A662777270E94F41902FFD8
:102BE60015C0AF85AA2312F00C940216EC85FD855C
:102BF6006E857F850E94191A0E94F4194DE24030B5
:102C060011F40C9408161F5F01C00B7F00FD13C062
:102C1600151710F00C941E1607FF08C002FF04C01B
:102C26000B7F242F115001C020E301C020E20E9437
:102C3600CE195150EDCF312FE889E03011F00C94C8
:102C46003F16303011F40C943E1603FF06C0EE8199
:102C5600FF812591EE83FF8305C0AE81BF812D9153
:102C6600AE83BF830E94CE19503011F40C943C16EB
:102C760051503150E6CF63C00E94F9190E947E1A66
:102C86002E2F2A3010F40C944E1603FF02C0295C36
:102C960001C0295A01C0205D04FF01C02CC02133A8
:102CA60010F00C946516A885B9858A859B85A13098
:102CB600E0E0BE07E0E08E07E0E09E0711F40C942A
:102CC600651601C00CC0531710F40C946D1600FD68
:102CD60001C001C017C020E207FF0DC020E300615C
:102CE60002FF09C00B7F4A930E94DD19503011F490
:102CF6000C947E1651500E94CE19503011F40C944B
:102D06008516515031500E94F9190E94AB1A0E9443
:102D1600F419E889A885B9858A859B85FF276627E2
:102D260077270E947E1A0E94EF19E885F9856A8541
:102D36007B850E94021B11F40C94A2169DCF00FF06
:102D46000AC0503011F40C94AE165150E0E2EA93EA
:102D56000E94DD19F6CF10E044CEA989BA890E94F7
:102D6600D61A0E940D1B69960895FF92F82E269793
:102D76000E94081B0E94021A309711F00C94CA1682
:102D8600EFEFFFEF0E940F1B2A96FF900895DE01DA
:102D960016960E94151A8D010E94021AEE83FF8371
:102DA600E0E0E887E987DE011A960E94151A0E947C
:102DB6002F191A930A93EBEAF4E1FA93EA93FE01C8
:102DC6003A96FA93EA930E94EC149F01AE81BF8172
:102DD600E0E0EC93F9010E940F1B2A96FF900895FC
:102DE600FF92F82E26971A930A93DE0114960E94F4
:102DF600151A8D01E0E0EC83ED83EE83EF83DE01AF
:102E060018960E94151A0E942F191A930A93E1EA3E
:102E1600F4E1FA93EA93FE013896FA93EA930E9454
:102E2600EC14198108812896FF900895B981A8812C
:102E3600109631F0FC81EB816A8161931197E9F775
:102E4600EB81FC8125960895E991F991A991B991B3
:102E5600CD016D916623E9F7119705900D9200203B
:102E6600E1F7FC010895E991F991A991B991CD0194
:102E760061916D936623E1F7FC010895A991B991DB
:102E8600EE27FF276D91662311F03196FBCF08954B
:102E9600AA27BB27E991F9910590002011F0119618
:102EA600FBCFFD0108957991E991F991A991B99125
:102EB600CD01772351F07A9561916D936623C9F719
:102EC600772319F07A956D93FBCFFC010895E9916C
:102ED600F99130971AF4E095F09531960895FA93A2
:102EE600EA930C947C09FA93EA930E94B708E0E00F
:102EF600EA930895FA93EA930C94B708FA93EA933F
:102F0600E0E3F0E0FA93EA930C941D0AA3E0B7E03D
:102F1600F0E0EE0FFF1F0895ED81FE816F81788549
:102F260008950E948F17A8E0B0E080E090E00E942C
:102F3600461A08950E947E1AE150F04060407040A3
:102F46008F0108950A2EAC91E32FEE0FEA2BA02DE8
:102F5600EC930895E881F9813196E883F9833197F6
:102F6600E4910895E881F0E00895AE0FBF1F0E9436
:102F7600D61A08950A921A92FA926A937A938A93C3
:102F86009A93AA93BA93EA93FA93EFB7EA930895BA
:102F9600EA930E94DD08E991EFBFF991E991B991B1
:102FA600A9919991899179916991F99019900990CE
:102FB6000895EA930E941F09E991EFBFF991E991FB
:102FC600B991A9919991899179916991F9901990FD
:102FD60009900895ABE01A9FF001E75FF84F089556
:102FE600AE81BF8188859985AA30E0E0BE07E0E022
:102FF6008E07E0E09E070895EAE0F0E060E070E00A
:103006000895AE81BF81888599850E94FF170E9429
:103016007E1A0895FA93EA93E12FFF27662777270A
:103026000E94FD1A84E00E94F316269608950E94D7
:103036000D1B2696E991EFBFF991E991B991A991F6
:103046009991899179916991F990199009900895CA
:10305600E0E0F0E0ED93FC930895ED91FD9131965B
:10306600FE93EE930895E12FF0E00895EA930E940F
:103076007C0B1E2F0895FA93EA9380E00E94F316C4
:1030860022960895EFEF0E940D1B2C960895A5E653
:10309600EA9FF001E751FB4F0895FE013696FA9339
:1030A600EA930895FA93EA93E1E0EA930C94580CB4
:1030B600E1E0E0937F060E940D1BA396DF5F089573
:1030C600FA93EA93E2E0EA930C94580CFA93EA93A3
:1030D600E3E0EA930C94580C0E94351AAE0FBF1F1A
:1030E6000E94DA1ADF01CB01E8E00E94291AEC837C
:1030F600FD836E837F83D9010895DF01CB01E0EA6A
:10310600F6E861E070E008950E94351AEA0FFB1FA9
:10311600FA93EA93E8E0EA930E94E60F0E94411AC6
:103126000E94F81AD90108950E94371AEA0FFB1F68
:1031360008950E94F31AACE9B1E080E090E00E94A5
:10314600661ADBCFEE0FFF1F10CFD90115968BCF76
:10315600EE0FFF1FAE0FBF1F7BCFD9011D9683CF8A
:103166000E94371AAE0FBF1F08950E94DA1AE23086
:10317600A0E0FA07A0E06A07A0E07A070895E0E079
:10318600F0E060E070E00E94E51A0895F9013196DA
:10319600EC5BFF4FDF0167CFEF5FFF2766277727DF
:1031A6000E94FD1A0895A181B281EAE0F0E0089537
:1031B6000E946B1A662777270E94FD1A0895FA93D4
:1031C600EA930E946A17662777270E94FD1A0895D8
:1031D600DF010E94DA1A0E94FD1A08950E94081B58
:1031E60000E029EE34E010E00895EFE7EA930C944E
:1031F6003411EA930E943411E0E1EA930C943411FD
:10320600EA0FFB1FE491EA930C943811EA93E981E3
:10321600EA930E941E1121960895FE01FA93EA93FD
:103226000895ECEAF7E0FA93EA93E7E0EA93089563
:10323600A1E1EA9FF001E25BFE4FFA93EA9308955B
:10324600FA93EA930E943617E8CF0E942717E5CF34
:10325600FA93EA930C9427170E94D61AFA93EA93E4
:103266000895FE013296FA93EA93E5E1EA930C9407
:103276005617FA93EA93E5E1EA930C9456170E94DF
:10328600FD1A88E00E94B8162C960895E8A5F9A5BF
:10329600A481B581BA93AA930895E8A5F9A5A68154
:1032A600B781BA93AA93DDCFE8A5F9A5A085B18524
:1032B600BA93AA930895FF27662777270E94FD1AD7
:1032C600089580E10E94B81664960895E8A5F9A5C8
:1032D600A285B385BA93AA93C4CF84E00E94B81698
:1032E60028960895E091800657CFE0918006CFCECC
:1032F600FE013296FA93EA930895A481B581BA93B2
:10330600AA930895FE013496B4CFBA93AA93FACF3E
:103316000E94A81A66277727B2CFA8970E94081B93
:10332600E4CF8F01ECA5FDA5E8CFFE013496FA9314
:10333600EA930895FA93EA93F90131966627772777
:103346000E94FD1AD80108950E94A81A66277727B9
:103356000E94FD1AC7CFF9013396ACA5BDA5F2CEE2
:10336600FA93EA939ACEE5E1EA930C945617E6E0CF
:103376000E940F1BAE9608950E94DA1ADF01CB0158
:103386003BCE0E94DA1A0E94FD1AACCF8CE00E9456
:10339600B8166096E0CF2A93EA89FB89FA93EA93F6
:1033A600EE89FF8909950895ED89FE893497ED8B9D
:1033B600FE8B0895EA89FB89FA93EA93EE89FF89E1
:1033C60009950895AD89BE8914960E94D61AEE8392
:1033D600FF83FA93EA930895E887F9876A877B87DC
:1033E6000895EC87FD876E877F870895E885F985C0
:1033F6006A857B85AC85BD858E859F850895DE01B2
:103406001C960E94151A0E94D61A0895E991F99100
:10341600309639F08DEC9AE00197F1F7A89531973F
:10342600C9F708950024AF0DB01D0895F095609575
:103436007095E195FF4F6F4F7F4F0895EE230E2E47
:10344600EA2F19F0EE0F0A94E9F70895EE230E2EEF
:10345600FD01BC0131F076956795F795E7950A94DD
:10346600D1F70895EE0FFF1FEE0FFF1FEE0FFF1FA0
:103476000895EE0FFF1F661F771F08956F2F660FC3
:10348600660B762F08957A9F702D6B9F700DF89FAF
:10349600700DE99F700D6A9F602D710DFB9F600D89
:1034A600711DE89F600D711D8827FA9FF02D610D33
:1034B600781FEB9FF00D611D781FEA9FE02DF10D3F
:1034C600681F781F08955CD0DEDF0EF4AFDF089525
:1034D6000024112490E1AA0FBB1F001C111C0E1A18
:1034E6001F0A18F40E0E1F1E01C0A1609A9599F7C7
:1034F600FD01D00108953F934F935F93002411245B
:103506004427552730E2AA0FBB1F881F991F001CAE
:10351600111C441F551F0E1A1F0A460B570B28F481
:103526000E0E1F1E461F571F01C0A1603A9559F780
:10353600FD01BC01D001CA015F914F913F910895F1
:103546001FD0D9DF0EF472DF0895C2DFFD010895A2
:10355600D2DFFD01BC010895E89497FF09C0A0954C
:10356600B09580959095AF5FBF4F8F4F9F4F6894F2
:1035760077FD5CDFC0DFFD01BC010EF457DF089567
:10358600E89477FF02C052DF689497FF0BC00024CF
:10359600A095B095809590951196801D901D00F888
:1035A600039400FA0895ED91FC9111970895ED9119
:1035B600FD916D917C9113970895ED91FD916D911B
:1035C6007D910895ED93FD936D937C9308957E937D
:1035D6006E93FE93EE9308950590F491E02D089571
:1035E600E881F9816A817B810895E883F9836A839A
:1035F6007B8308957A936A93FA93EA9308953097B2
:103606006040704008955A934A933A932A931A93C6
:103616000A9308955D814C813B812A811981088135
:103626000895AC0FBD1F05900D928A95E1F7089598
:00000001FF
