:0E0000000C9447080C9400000C9400000C9423
:10000E0000000C9400000C9400000C9400000C9462
:10001E0000000C9400000C9400000C9400000C9452
:10002E0000000C9400000C9400000C9400000C9442
:10003E0000000C94540B0C9400000C9400000C94D3
:10004E0000000C94D40A0C9400000C94C80A0C9472
:10005E0000000C9400000C9400000C9400000C9412
:10006E0000000C94DA0A0C9400000C94CE0A0A23B9
:10007E002323232323232323232323232323232342
:10008E002323232323232323232323232323232332
:10009E0023232323232323230A23204B6E756572E8
:1000AE00722041470A2320524D204949202D2049D4
:1000BE006E672E204C2E4D656C69636861722C2024
:1000CE00496E672E20502E4B65726E646C200000B8
:1000DE000A232323232323232323232323232323FB
:1000EE0023232323232323232323232323232323D2
:1000FE002323232323232323232300000000010093
:10010E0001000100020001000300010004000200D2
:10011E000600020062000200C6010200C8010400CF
:10012E00CC010400B2020200B4020400B8020400C2
:10013E009E030200A0030400A4030400010C0200AD
:10014E00424F415244000000000000000000005ADF
:10015E0014524553554D45000000000000000000AC
:10016E00C914564F4C544147450000000000000092
:10017E00001A1543555252454E540000000000001F
:10018E0000007115504F574552000000000000004E
:10019E00000000BE1500000000000000000000007E
:1001AE000000000000000000000000000000000041
:1001BE000000000000000000000000000000000031
:1001CE000000000000000000000000000000808021
:1001DE00C0606030181C18306060C0808000000065
:1001EE000000000000000000000000000000000001
:1001FE0000000000000000000000000000000000F1
:10020E0000000000000000000000000000000000E0
:10021E0000000000000000000000000000000000D0
:10022E0000000000000000000000000000000000C0
:10023E0000000000000000000000000000000000B0
:10024E000000000000000080E070383C1E1F1F9F61
:10025E000C0C0E0EFEFEFE0E0E0C0C9F1F1F1E3CF7
:10026E003870E08000000000000000000000000078
:10027E000000000000000000000000000000000070
:10028E000000000000000000000000000000000060
:10029E000000000000000000000000000000000050
:1002AE000000000000000000000000000000000040
:1002BE000000000000000000000000000000000030
:1002CE0000000000F0FEFF07000000F8FEFF010036
:1002DE0000000000FFFFFF000000000001FFFEF81D
:1002EE0000000007FFFEF00000000000000000000C
:1002FE0000000000000000000000000000000000F0
:10030E0000000000000000000000000000000000DF
:10031E0000000000000000000000000000000000CF
:10032E0000000000000000000000000000000000BF
:10033E0000000000000000000000000000000000AF
:10034E000000000001030F3E78F0E0E0C78F8E90B2
:10035E0000000000FFFFFF00000000908E8FC7E03E
:10036E00E0F0783E0F0301000000000000000000E6
:10037E00000000000000000000000000000000006F
:10038E00000000000000000000000000000000005F
:10039E00000000000000000000000000000000004F
:1003AE00000000000000000000000000000000003F
:1003BE00000000000000000000000000000000002F
:1003CE0000000000000000000000077FFFF10103A5
:1003DE0003030303030703030303030301F1FF7F77
:1003EE0007000000000000000000000000000000F8
:1003FE0000000000000000000000000000000000EF
:10040E0000000000000000000000000000000000DE
:10041E0000000000000000000000000000000000CE
:10042E0000000000000000000000000000000000BE
:10043E000000000000000000F0F8FC3E0E0F070761
:10044E0007070E3EFCF8E0C0E0E0E0707F7F7060D2
:10045E00E0C0C0C0C0C0C0C0C0C0E060707F7F70D0
:10046E00E0E0E0C0E0F8FC3E0E070707070F0E3E87
:10047E00FCF8F0000000000000000000000000008A
:10048E00000000000000000000000000000000005E
:10049E00000000000000000000000000000000004E
:1004AE00000000000000000000000000000000003E
:1004BE00000000000000000000000000000000002E
:1004CE00000000001F1F3F397070E0E0E0C0C080E8
:1004DE00800000010101010100008080C0C0E0E049
:1004EE00E07070393F1F1F00000000000000000088
:1004FE0000000000000000000000000000000000EE
:10050E0000000000000000000000000000000000DD
:10051E0000000000000000000000000000000000CD
:10052E0000000000000000000000000000000000BD
:10053E0000000000000000000000000000000000AD
:10054E000000000000000000000000000101030395
:10055E000707070E0C1C0C0E07070703030101000B
:10056E00000000000000000000000000000000007D
:10057E00000000000000000000000000000000006D
:10058E00000000000000000000000000000000005D
:10059E00000000000000000705070000000000003A
:1005AE000000002F00000007000700147F147F14C6
:1005BE00242A7F2A12C4C8102646364955225000D6
:1005CE0005030000001C2241000041221C001408FB
:1005DE003E081408083E08080000503000101010A5
:1005EE001010006060000020100804023E514945C2
:1005FE003E00427F400042615149462141454B3108
:10060E001814127F1027454545393C4A4949300197
:10061E00710905033649494936064949291E0036EE
:10062E00360000005636000008142241001414143F
:10063E00141400412214080201510906324959517D
:10064E003E7E1111117E7F494949363E414141227C
:10065E007F4141221C7F494949417F090909013ED9
:10066E004149497A7F0808087F00417F41002040B8
:10067E00413F017F081422417F404040407F020CE1
:10068E00027F7F0408107F3E4141413E7F090909E8
:10069E00063E4151215E7F09192946464949493195
:1006AE0001017F01013F4040403F1F2040201F3F7E
:1006BE004038403F631408146307087008076151FF
:1006CE00494543007F414100552A552A5500414175
:1006DE007F00040201020440404040400001020439
:1006EE000020545454787F484444383844444420BD
:1006FE00384444487F3854545418087E0901020C7B
:10070E005252523E7F0804047800447D400020403F
:10071E00443D007F1028440000417F40007C0418B7
:10072E0004787C0804047838444444387C14141447
:10073E0008081414187C7C080404084854545420E7
:10074E00043F4440203C4040207C1C2040201C3C68
:10075E004030403C44281028440C5050503C4464D7
:10076E00544C44000A232048573A2000436F6D6DC5
:10077E004D6F64756C00207600312E3130000A23E7
:10078E002053573A200054657374487700312E3049
:10079E0030000A493A2053797374656D2073746181
:1007AE0072742E2E000A493A312E62797465202514
:1007BE0078000A493A322E62797465202578000A4B
:1007CE00493A332E62797465202578000A493A3405
:1007DE002E62797465202578000A493A352E6279A1
:1007EE007465202578000A493A362E6279746520A0
:1007FE002578000A493A372E6279746520257800EB
:10080E000A493A382E62797465202578000A3D3DF2
:10081E003D3D3D3D3D3D3D3D3D3D3D3D3D3D3D3DFA
:10082E003D3D3D3D3D3D3D3D3D3D3D3D3D3D3D3DEA
:10083E003D3D3D3D3D3D3D3D3D3D3D000A45453A3D
:10084E00206E656A73656D20726561647920257806
:10085E00000A45453A20737061746E6120616472BE
:10086E00657361000A45453A20737061746E656A5E
:10087E00207A61636174656B00000A63726561744E
:10088E00652070726F63657373206E722E256420FF
:10089E002E2E0000010001000A2D000A2B000A492D
:1008AE003A2053656E644275666665726628290045
:1008BE000A493A205072696A6D75742073747269B0
:1008CE006E673A20000A453A204E65646F73746174
:1008DE007465636E79206275666665722C2073741A
:1008EE0072696E673A000A453A207772697465201C
:1008FE007761736E742073756363657366756C6C64
:10090E00000A453A2077726F6E67206F70657261CC
:10091E0074696F6E2028726561642F7772697465D1
:10092E0029000A453A676F6F642C206E6578742033
:10093E00737465702030782578000A453A77726FA7
:10094E006E672C206F6E636520616761696E000AA9
:10095E00453A207772697465206661696C65642119
:10096E00000A453A2053594E4328332E6279746556
:10097E0029203A202578000A453A20414444524520
:10098E0053532028322E6279746529000A3D3D3D6D
:10099E003D3D3D3D3D3D3D3D3D000A6672657175F7
:1009AE00656E63653A202575000A74656D70657213
:1009BE0061747572653A20307825782C2025752E55
:1009CE002575B043000A766F6C746167653A202511
:1009DE006C64207C20256C64207C20256C64000ACD
:1009EE0076726D733A20256C64000A765F783A2031
:1009FE00256C64207C20256C64000A765F783A2092
:100A0E0025782C25782C25782C25782C25782C25C6
:100A1E00782C25782C2578000A765F783A20256C7C
:100A2E0064000A63757272656E743A20256C6420D8
:100A3E007C20256C64207C20256C6400496E6963E3
:100A4E0069616C697A616365204F4B006672656BF4
:100A5E0076656E63653A20202564202020202020B4
:100A6E00004E656A73656D20706F76696E656E20D7
:100A7E0062FD742074616B6F76FD2C206A616BFDD4
:100A8E00206279636820706F646C65206F73746187
:100A9E00746EED6368206C6964ED206DEC6C206201
:100AAE00FD742E204A6520746F206A656A6963683A
:100ABE00206F6D796C2C2061206E65206D6F6A65DC
:100ACE002073656C68E16EED202D205269636861BC
:100ADE007264204665796E6D616E002020202020A4
:100AEE002020202020202020202020202025752F8F
:100AFE0025750000000317032E0345035C037303E3
:100B0E008A03A10320202020202020202020202026
:100B1E002020202020202020202000002020202007
:100B2E002020524D494920424F415244202020203E
:100B3E00200020202020203D3D3D3D3D3D3D3D3DC2
:100B4E003D3D3D2020202000204857207665722E06
:100B5E003A2000312E313000205357207665722E08
:100B6E003A2000312E30300020202020202020205E
:100B7E002020202020202020202020202020202067
:100B8E002020002049503A2025752E25752E2575DA
:100B9E002E257520202020202020202020200020FF
:100BAE004D41433A202530325825303258253032C7
:100BBE0058253032582530325825303258202020D2
:100BCE000020202020202020524553554D45202026
:100BDE002020002055206C696E65733A2025752003
:100BEE002020202020202020002049206C696E65C6
:100BFE00733A202575202020202020202020002040
:100C0E004672657175656E63653A2025752E25757C
:100C1E0020487A202020202020002054656D706509
:100C2E007261747572653A2025752E2575B0432054
:100C3E0020202020200020202020202020564F4C35
:100C4E005441474520202020202020002020202015
:100C5E0020203D3D3D3D3D3D3D3D3D202020202081
:100C6E0020002020202020204C313A2025752E25D2
:100C7E0075205B565D202020200020202020202083
:100C8E004C323A2025752E2575205B565D2020208E
:100C9E0020002020202020204C333A2025752E25A0
:100CAE0075205B565D202020200020202020202053
:100CBE002043555252454E542020202020202020E3
:100CCE00002020202020203D3D3D3D3D3D3D3D3D31
:100CDE0020202020202020002020202020204C31E9
:100CEE003A2025752E25303275205B415D2020205F
:100CFE00202020002020202020204C323A20257554
:100D0E002E25303275205B415D20202020202000D2
:100D1E002020202020204C333A2025752E253032DD
:100D2E0075205B415D2020202020200020202020E7
:100D3E00202020504F5745522020202020202020B8
:100D4E00202000204C313A20256C642E2564205B37
:100D5E00575D207C20256C642E2564205B56415DFA
:100D6E0000202020202041435449564520504F5703
:100D7E0045522020202020002020202020204C31F1
:100D8E003A20256C642E2564205B575D20202000C0
:100D9E002020202020204C323A20256C642E256401
:100DAE00205B575D202020002020202020204C3367
:100DBE003A20256C642E2564205B575D2020200090
:100DCE002020202020202020454E4552475920200B
:100DDE00202020202020002020202020204C313ACE
:100DEE00202575205B57685D2020202020002020C4
:100DFE00202020204C323A202575205B57685D203C
:100E0E0020202020002020202020204C333A202596
:100E1E0075205B57685D2020202020002020202098
:100E2E00202020504F57455220464143544F5220C8
:100E3E002020002020202020203D3D3D3D3D3D3DF9
:100E4E003D3D3D3D3D3D3D202000202020202020E9
:100E5E002056524D532020202020202020202020BC
:100E6E00002020202020204C313A20256C75205B5C
:100E7E00565D2020202020002020202020204C32D3
:100E8E003A20256C75205B565D2020202020002006
:100E9E0020202020204C333A20256C75205B565D97
:100EAE002020202020002020202020202049524DCC
:100EBE005320202020202020202020200020202011
:100ECE002020204C313A20256C75205B415D20207E
:100EDE00202020002020202020204C323A20256C7B
:100EEE0075205B415D202020202000202020202026
:100EFE00204C333A20256C75205B415D202020204C
:100F0E00200020202020202020414354202020207B
:100F1E002020202020202020002020202020204CB7
:100F2E00313A20256C64205B575D20202020200064
:100F3E002020202020204C323A20256C64205B5744
:100F4E005D2020202020002020202020204C333A1D
:100F5E0020256C64205B575D20202020200020205F
:100F6E0020202020204150502020202020202020F2
:100F7E0020202020002020202020204C313A202527
:100F8E006C64205B56415D20202020200020202014
:100F9E002020204C323A20256C64205B56415D2087
:100FAE0020202020002020202020204C333A2025F5
:100FBE006C64205B56415D202020202000202020E4
:100FCE002020204541504F532C2045414E4547206F
:100FDE00202020002020202020203D3D3D3D3D3D75
:100FEE003D3D3D3D3D3D202020200020204C313A0E
:100FFE0020256C64202C20256C64202020202020AD
:10100E00200020204C323A20256C64202C20256CA8
:10101E0064202020202020200020204C333A202540
:10102E006C64202C20256C642020202020202000A1
:10103E0001002D4E414E00494E4600000100B805FC
:10104E00A2080100B905A40817000003120B17002F
:10105E001703120B17002E03120B17004503120B6A
:10106E0017005C03120B17007303120B17008A0391
:10107E00120B1700A103120B0100F1053E10000028
:10108E00F894EE27EFBBF1E0F5BFE5BFF8E1A895C8
:10109E00A4B7A77FA4BFF0936000E09360008DE03B
:1010AE00A2E0BB27ED938A95E9F780E098E0A0E0F7
:1010BE00B1E0ED930197E9F7EAE4F0E185919591BE
:1010CE00009761F0A591B59105901590BF01F001C3
:1010DE0005900D920197E1F7FB01F0CFE0E0EEBB3A
:1010EE00EFEFEDBFE8E0EEBFC0E0D3E00C947F0879
:1010FE000E94FA080E94400C0E943B0C0E948A0C2F
:10110E000E94610F0E94F613F894E4E6F0E0FA9361
:10111E00EA930E947B1B0E94E00A0E94B818ECEC36
:10112E00FCE00E94BF180E94B818E0E5F1E10E94B1
:10113E00BF18E8ECF0E060E070E00E949C1CEFE568
:10114E00FCE00E94BF18E8EEF3E060E070E00E9461
:10115E009C1CE9E4FCE00E94BF18E4EFF1E060E0C3
:10116E0070E00E949C1CEEEFF3E10E94BF18E0EDD0
:10117E00F7E0FA93EA930E947B1BE0E0EA93ECE738
:10118E00F0E00E94C318E2E7F7E00E94C318EAE716
:10119E00F7E00E94C318E4E8F7E00E94C318E7E8FE
:1011AE00F7E00E94C318ECE8F7E00E94C318E4E9E8
:1011BE00F7E00E94C318E4E8F7E00E94C318EBE9D9
:1011CE00F7E00E94C318EEEDF0E00E94CA180E94EC
:1011DE00010BE0E0EA93E0EAF7E00E94CA180E94F1
:1011EE005711FDCFFFCFE0E8E0936100E0E0E09320
:1011FE006100E2B9E1B9E5B9E4B9E8B9E7B9EBB92B
:10120E00EAB9E4BDE5BDE6BDE7BDE8BDE09380000B
:10121E00E0938100E0938500E0938400E0938700E3
:10122E00E0938600E0938900E0938800E0938B00C2
:10123E00E0938A00E093B600E093B000E093B10033
:10124E00E093B200E093B300E093B400E093690042
:10125E00EDBBE0936800E0936E00E0936F00E093C7
:10126E007000E093C000E8E0E093C100E6E0E09398
:10127E00C200E0E0E093C500E5E0E093C400E0E8E2
:10128E00E0BFE0E0E0937B000895E881E03011F4E8
:10129E000C9454090E946D0902C00E9458092196AF
:1012AE0008950E948309E0E0E0934305E09344052E
:1012BE00E8EDE093C100E1E0E093CB04E0E0E093E1
:1012CE00CD04E093DF04E093E00408950E948C09BE
:1012DE00E5E4F5E0A0E0B0E0A083B183E8EDE093B3
:1012EE00C900E1E0E093CC04E0E0E093CE04E1EE4F
:1012FE00F4E0A083B1830895EFECF4E0FA93EA935F
:10130E00E3EEF4E00E94CE180895E7EDF4E0FA93D0
:10131E00EA93E3E1F5E00E94CE180895AA81A23087
:10132E0010F00C94A309EA810E94D618EA0FFB1F55
:10133E00A881B981A083B183239608950E94AC1C25
:10134E00EC81E03011F40C94C4090E94DC180E9468
:10135E00B21B0E94B21BE050F04467457F4F7F9353
:10136E006F93FF93EF930E94E118AF91BF918F910E
:10137E009F910E94EA1831E019C00E94E118E050D6
:10138E00F04467457F4F7F936F93FF93EF930E94D7
:10139E00DC18A0E1B0E080E090E00E94C41BAF91A9
:1013AE00BF918F919F910E94EA1830E0E985E0305D
:1013BE0011F40C94F0090093CC001093CD00E09141
:1013CE00C000ED7FE093C000A0ECB0E00E94F218E8
:1013DE000DC00093C4001093C500E091C800ED7FCE
:1013EE00E093C800A8ECB0E00E94F2180E94B31C73
:1013FE002A9608950E94FA18E553FB4FE081E030DB
:10140E0011F00C940B0AF6CFE981E03011F40C9434
:10141E001B0AE091C800E07211F00C94170AF9CF84
:10142E00E881E093CE000AC0E091C000E07211F0B6
:10143E000C94220AF9CFE881E093C6002296089513
:10144E000E94FA180E94FD18EA81EA930E94040C89
:10145E00229608950E940419A1E0A083E881EA93E0
:10146E000E94FA180E94FD180E94BF0BEA930E9478
:10147E00010A21960895E881F981E491E03011F492
:10148E000C94660AEA81E03011F40C945A0AE09149
:10149E00C800E07211F00C94550AF9CF0E94091998
:1014AE00E093CE000BC0E091C000E07211F00C94FE
:1014BE00610AF9CF0E940919E093C600DCCF23968A
:1014CE0008950E940419E081E03011F40C949E0AF4
:1014DE000E9411190E94AB1BED52FB4FDF010E94BF
:1014EE00751C309711F40C94930AE881E03011F4D6
:1014FE000C948A0AE7EDF4E0FA93EA930E94BF0B8C
:10150E00E093CE0008C0EFECF4E0FA93EA930E9469
:10151E00BF0BE093C6000AC00E940419A0E0A0838E
:10152E000E941119E553FB4FA1E0A08306C00E9453
:10153E001119E553FB4FA1E0A083219608951A934C
:10154E00E981E03011F40C94AF0A1091CE0002C084
:10155E001091C600E9810E94D6180E941419309786
:10156E0011F40C94C50AE9810E94D6180E94141930
:10157E00FF93EF931A93EF91FF910995188122969D
:10158E0008950E941919E0E00E94271918950E94EB
:10159E001919E1E00E94271918950E941919E0E027
:1015AE000E94381918950E941919E1E00E94381905
:1015BE0018951A93E2E0E4BDE5E0E5BDE0E0E6BD96
:1015CE00EBE6E7BDE0E0E8BDE2E0E0936E00E2E3CB
:1015DE00F0E0E0934705F093480510E01A3010F064
:1015EE000C94FF0A0E944919A0E0A0831F5FF6CF5A
:1015FE0019910895789408950E94AC1C10E01A3049
:10160E0010F00C94500B0E9449199F01D901EC91D6
:10161E00E03011F00C944E0BE1E0EC93EC81FD8187
:10162E00D9011196ED93FC930E944F1910F00C9472
:10163E00260B0E945B19EE83FF83688779870E94D1
:10164E004F1910F00C94300BE1E0F0E060E070E028
:10165E0002C00E946019D90113960E94841C0E9438
:10166E004F1910F00C94400BE1E0F0E060E070E0F8
:10167E0002C00E946019D90117960E94841CE8E8E6
:10168E00F8E00E9469190E94B31C2A9608951F5F04
:10169E00B6CF0E94B31C2A9608950E9419190E9473
:1016AE00AA1CE0914705F0914805309711F40C946F
:1016BE006A0BA7E4B5E0ED91FD913197FE93EE93A1
:1016CE000E9476191895E0E0E0936E0010E01A3053
:1016DE0010F00C949E0B0E9449199F01D901AC91F8
:1016EE00A13011F00C949C0BD90117960E947F1C0F
:1016FE003197604070400E94891C0E94A61C11F018
:10170E000C949C0BD901E2E0EC9311964D915C91F7
:10171E00FA010995D90113960E94791CD9011796E1
:10172E000E94841CD901E1E0EC931F5FD0CFE2E070
:10173E00E0936E000E9476191895F894EA81FB8169
:10174E00AC81BD81ED93FC93E881F981AC81BD81C3
:10175E001296ED93FC93AC81BD8116960E9487196B
:10176E00AC81BD8114960E948719789426960895AF
:10177E001A9310E0F894A981BA8114960E94751CF0
:10178E00309711F40C94FF0BA981BA810D901C9027
:10179E00A981BA8116960E94751CD001AE0FBF1F8B
:1017AE001C91A981BA8116960E948C190E949219D9
:1017BE0012960E94751C0E161F0610F40C94F70B51
:1017CE00E981FA813696BF0100801180E981FA81A4
:1017DE00A281B381F001EA1BFB0BDB01ED93FC93BD
:1017EE00A981BA811496ED91FD913197FE93EE93F6
:1017FE007894E12F188123960895F894E981FA815F
:10180E0004801580A981BA8112960E94751C0E164D
:10181E001F0610F00C94370CA981BA810E94751C1A
:10182E00FF93EF930E94921914960E94751C0E0E50
:10183E001F1EA981BA8112960E94751CD0010E94AA
:10184E002B1CAF91BF91EA0FFB1FA881A083A9812A
:10185E00BA8114960E948C197894EFEF239608950E
:10186E007894E0E0239608953E98469A3F98479ADA
:10187E000895569A5E9A579A5F9A0A9A12980B9AF8
:10188E0013980895EBB1A0E8EA27EBB9E091B705FC
:10189E00E03011F40C945B0CEBB1A0E4EA27EBB949
:1018AE00E0E0E093B70503C0E1E0E093B7050895EB
:1018BE00379910C0E091B805E03011F40C94700C1B
:1018CE00E6EAF8E00E9499190E943014E0E0E093F5
:1018DE00B80503C0E1E0E093B805369910C0E09179
:1018EE00B905E03011F40C94850CE9EAF8E00E9499
:1018FE0099190E942B14E0E0E093B90503C0E1E0D2
:10190E00E093B90508951A93EAB1EC7FEAB9EBB109
:10191E00E360EBB9529AEBB1E360EBB9E1E0EA9325
:10192E000E944C09E1E0EA93E0E8F5E260E070E045
:10193E000E949C1CE0E0EA930E94A509E1E0EA9374
:10194E00EFEFFDE0FA93EA930E94950910E0143050
:10195E0010F00C94B90C0E94A019EF53FB4F10839A
:10196E001F5FF5CF10E0163010F00C94C70CA5ECED
:10197E00B4E00E94A019EA0FFB1F10831F5FF3CF84
:10198E00E0E0E093EB0519910895A091EA05A630E9
:10199E0011F00C94D40C0E946E0E0E94D70C089578
:1019AE000E94AC1C08EB13E0E091EC05EF5FE093B6
:1019BE00EC05E150E03011F00C940A0DA0E03799DF
:1019CE00A1E0EA2FEE0FAE2FE0E03699E1E0EA2B30
:1019DE003E2FE0E2EA93EDB7FEB7FA93EA933F9318
:1019EE00E1E0EA930E94B10D3F913AEAE0E1EA9319
:1019FE00EDB7FEB7FA93EA933F93E1E0EA930E94C4
:101A0E00B10D3F9194C0E13011F00C941D0DE0E347
:101A1E00EA93F801E659FF4F0E94A319E1E3EA9316
:101A2E00F801E253FF4F0E94A31981C0E23011F07A
:101A3E000C94370DE0E4EA93F801E053FF4F0E9457
:101A4E00A319E1E4EA93F801EE52FF4F0E94A319A5
:101A5E00E2E4EA93F801EC52FF4F0E94A31967C02B
:101A6E00E33011F00C94510DE3E4EA93F801EA52DD
:101A7E00FF4F0E94A319E4E4EA93F801E852FF4FE6
:101A8E000E94A319E5E4EA93F801E652FF4F0E9483
:101A9E00A3194DC0E43011F00C946B0DE6E4EA93FB
:101AAE00F801E452FF4F0E94A319E7E4EA93F8010C
:101ABE00E052FF4F0E94A319E8E4EA93F801EC51BB
:101ACE00FF4F0E94A31933C0E53011F00C94850D21
:101ADE00E9E4EA93F801EC50FF4F0E94A319EAE4FF
:101AEE00EA93F801E850FF4F0E94A319EBE4EA9342
:101AFE00F801E450FF4F0E94A31919C0E63011F00F
:101B0E000C949E0DECE4EA93F801BE960E94A31984
:101B1E00EDE4EA93F801F2960E94A319EEE4EA933B
:101B2E00F801F6960E94A319E0E0E093EC05E2E0DE
:101B3E00EA93EDB7FEB73197FA93EA934F933F933B
:101B4E00E0E0EA930E94B10D3F914F910E94B31CC9
:101B5E00249608951A930A9303E5E1E0EA93E3E5E8
:101B6E00EA930E94270AE1E0EA93E091EB05EF5F2A
:101B7E00E093EB05EA930E94270AE091EB050E270E
:101B8E00E1E0EA93EE81E068EA930E94270AED8194
:101B9E000E27E1E0EA93EB81EA930E94270AEA819D
:101BAE000E2710E0EA811E1710F00C94F20DE1E002
:101BBE00EA93AC81BD81EE27A10FBE1FEC91EA9393
:101BCE000E94270AAB81BC81EE27A10FBE1FEC91AC
:101BDE000E271F5FE7CFE1E0EA930A930E94270AE0
:101BEE00E1E0EA930E94310A198108812696089550
:101BFE00E091EA05E03011F00C94110EA881A335A6
:101C0E0011F00C94100EE0E0E093E905E1E0E093B2
:101C1E00EA055BC0E13011F00C941C0EE881E093F4
:101C2E00C505E2E0E093EA0550C0E23011F00C94F5
:101C3E00270EE881E093C605E3E0E093EA0545C090
:101C4E00E33011F00C94430EA881AF3110F40C94D4
:101C5E00340EE0E0E093EA050EC0E881E093C9059A
:101C6E00E03011F40C943F0EE4E0E093EA0503C07B
:101C7E00E5E0E093EA0529C0E43011F00C94620E21
:101C8E00AAECB5E0E091E905F0E0EA0FFB1FA881B0
:101C9E00A083E091E905EF5FE093E905E150A091A3
:101CAE00E905E091C905AE1710F40C94610EE5E05C
:101CBE00E093EA050AC0E53011F00C946C0EE88151
:101CCE00E093E805E6E0E093EA0521960895E091B9
:101CDE00C605E23011F00C94780EE0E0E093C505F5
:101CEE0002C0E1E00895E0E00895249A259A26982E
:101CFE00279AE3E5ECBD0895E881EEBDEDB5E078F9
:101D0E0011F00C948B0EFACFEEB5219608950E9429
:101D1E007C0E08950E94AA1C10E000E02B98EA8524
:101D2E00F0E0EF702E2FE9855E2FEB85E795E0E072
:101D3E00E795AE2FEE81E295E07FEA2BE22B0E9433
:101D4E00A91988EB8A95F1F7113C11F00C94480F04
:101D5E005A930E94830E1E2F123C11F00C94420FC8
:101D6E00EB85E03011F00C94D00E30E03E3110F0E7
:101D7E000C94CF0E84E191E00197F1F7E0E00E9420
:101D8E00A919113411F00C94CD0E02C03F5FEECFA5
:101D9E0001C011E4113411F00C943D0F30E0EE81CE
:101DAE00A1E00E94971B3E1710F00C94140F88EBC5
:101DBE008A95F1F7EB85E03011F00C94F20EE0E02D
:101DCE000E94A919E02FAF81B885F0E0EA0FFB1F42
:101DDE0010830F5F20C0AB85A13011F00C940E0F55
:101DEE002197A885B985EE27A00FBE1F1C911A93C7
:101DFE000E94830EE8830F5FA881A13411F40C9426
:101E0E000C0FE4EFF8E00E949919219604C0EFE060
:101E1E00F9E00E9499193F5FC2CFAB85A13011F056
:101E2E000C943C0F30E03E3110F00C94340F88EBE4
:101E3E008A95F1F7E0E00E94A9191E3411F40C9472
:101E4E002E0FE0E3F9E00E94691907C004C0E8E430
:101E5E00F9E00E9499193F5FE6CF113411F40C940A
:101E6E003C0FEDE5F9E00E94991904C0EFE6F9E0A8
:101E7E000E94691906C0E0E0EA93E5E8F9E00E94E5
:101E8E00CA182B9A88EB8A95F1F7E02F0E94B11CA5
:101E9E002C960895E0E0EA93EC81FD81FA93EA93A3
:101EAE00EC81FD81FA93EA93ED81EA930E94910E03
:101EBE00259608952C97E1E0EC83E2E0ED83E3E0D4
:101ECE00EE83E4E0EF83E5E0E887E6E0E987E7E02C
:101EDE00EA87E8E0EB870E94AC1C1FEF103011F48C
:101EEE000C947C0F0E94AE1904C00E94AE190E9481
:101EFE008F1B0E94B31928EB33E00E948E0E239A9B
:101F0E002B9A0E94B31C609608950E94AC1CEC8123
:101F1E00F0E0A9E0B1E00E94BC1BE854FC4F9F0129
:101F2E00E2E6F0E0FA93EA93F901E659FF4F0E94D8
:101F3E00B819E1E0FCE0FA93EA93F901E453FF4F9C
:101F4E000E94B819E8ECF1E0FA93EA93F90176965B
:101F5E000E94BE19E4EBF2E0FA93EA93F9017A9645
:101F6E000E94BE19E0EAF3E0FA93EA93F9017E9635
:101F7E000E94BE19ECECF1E0FA93EA93F901B296E5
:101F8E000E94BE19E8EBF2E0FA93EA93F901B696D5
:101F9E000E94BE19E4EAF3E0FA93EA93F901BA96C5
:101FAE000E94BE19E6ECF1E0FA93EA93F901BE96AF
:101FBE000E94B819E2EBF2E0FA93EA93F901F29675
:101FCE000E94B819EEE9F3E0FA93EA93F901F69656
:101FDE000E94B819E0EDF1E0FA93EA93F901FA964E
:101FEE000E94BE19ECEBF2E0FA93EA93F901FE9629
:101FFE000E94BE19E8EAF3E0FA93EA93F901EE5B68
:10200E00FF4F0E94BE19E8EDF1E0FA93EA93F90151
:10201E00EA5BFF4F0E94BE19E4ECF2E0FA93EA93FA
:10202E00F901E65BFF4F0E94BE19E0EBF3E0FA9375
:10203E00EA93F901E25BFF4F0E94BE19E8EEF1E070
:10204E00FA93EA93F901EE5AFF4F0E94BE19E4ED9E
:10205E00F2E0FA93EA93F901EA5AFF4F0E94BE1991
:10206E00E0ECF3E0FA93EA93F901E65AFF4F0E948F
:10207E00BE19ECEEF1E0FA93EA93F901E25AFF4F42
:10208E000E94BE19E8EDF2E0FA93EA93F901EE59D7
:10209E00FF4F0E94BE19E4ECF3E0FA93EA93F901C4
:1020AE00EA59FF4F0E94BE19E1E7F8E0FA93EA936E
:1020BE00F901EC54FF4F0E94C419E2E7F8E0FA93DD
:1020CE00EA93F901E454FF4F0E94C419E4E7F8E0E3
:1020DE00FA93EA93F901EC53FF4F0E94C419E1E31E
:1020EE00F8E0FA93EA93F901E459FF4F0E94C419FC
:1020FE00D901A453BF4F0E94751CDF01ECE4F0E040
:10210E000E94E91BD901A253BF4FED93FC9310E03F
:10211E00133010F00C9449112897D901A459BF4FD0
:10212E000E94A0190E94CA190E94D919EE0FFF1F12
:10213E00EA0FFB1FFF93EF93EC81FD816E817F8190
:10214E00ACEABEE180E090E00E94C41B0E94DC1964
:10215E000E94011CAF91BF91ED93FC93D901AC5736
:10216E00BF4F0E94A0190E94CA190E94E319EE0FD8
:10217E00FF1FEA0FFB1FFF93EF93EC81FD816E8132
:10218E007F81A9E1B3E080E090E00E94C41BDF01F3
:10219E00CB01E0E1F7E260E070E00E94011CAF913C
:1021AE00BF91ED93FC93D901A456BF4F0E94A01985
:1021BE000E94E6190E94F6190E94AD1BEA0FFB1F42
:1021CE00FF93EF930E94F9190E94261CAF91BF91C5
:1021DE000E94841CD901AC54BF4F0E94A0190E94CA
:1021EE00E619AC50BF4F0E94A0190E94AD1BEA0F1A
:1021FE00FB1FFF93EF930E94F9190E94261CAF91CB
:10220E00BF910E94841CD9010E94D9190E94021A02
:10221E00749710F00C941811D9010E94D9190E94CC
:10222E00051AD9010E94E3190E94021A329710F082
:10223E000C942611D9010E94E3190E94051AD901A6
:10224E000E94F6190E94AD1BAE0FBF1F0E94791C93
:10225E00E230A0E0FA07A0E06A07A0E07A0714F0E7
:10226E000C944611D9010E94F6190E94AD1BAE0FB7
:10227E00BF1FE0E0F0E060E070E00E94841C289652
:10228E001F5F46CFE1E0E093C0040E94B31C259689
:10229E0008952B98E0E0EA930E948C0F2B9A0895F4
:1022AE00E091C004E03011F40C942C122297E8EB6C
:1022BE00F3E0E883F983EAE9F9E00E949919E8EA84
:1022CE00F9E00E940A1A0E940F1A0E94141A0E9424
:1022DE00191AE7EBF9E00E940A1AA453BF4F0E94A5
:1022EE001E1AAE81BF810E94211A0E94291AAA8548
:1022FE00BB850E94211A0E94301A0E94371AE3ED04
:10230E00F9E00E940A1AA053BF4F0E941E1AAE8116
:10231E00BF81AE52BF4F0E941E1AAA85BB85AC521A
:10232E00BF4F0E941E1A0E94371AEDEEF9E0FA9383
:10233E00EA93EA81FB81A689B789808D918D0E94EF
:10234E00A11C0E94191AE8EFF9E00E940A1AA4597A
:10235E00BF4F0E94791C0E949C1CAE81BF81A05968
:10236E00BF4F0E94791C0E949C1C88E00E946A1834
:10237E002A96E8E0FAE00E940A1AA459BF4FEC919F
:10238E000E943C1AEE81FF81E359FF4FE0810E94CB
:10239E003C1AEA85FB85E259FF4FE0810E943C1A08
:1023AE00EE85FF85E159FF4FE0810E943C1AEA89D4
:1023BE00FB89E059FF4FE0810E943C1AEE89FF89AC
:1023CE00EF58FF4FE0810E943C1AEA8DFB8DEE58CC
:1023DE00FF4FE0810E943C1AEE8DFF8DED58FF4FAE
:1023EE00E0810E943C1A80E20E946A18A296E6E200
:1023FE00FAE0FA93EA93EA81FB81E459FF4FFA93EC
:10240E00EA93E8E0EA930E945B120E94B71B0E94D7
:10241E009C1C0E94191AE0E3FAE00E940A1AAA52C2
:10242E00BF4F0E941E1AAE81BF81A852BF4F0E949D
:10243E001E1AAA85BB85A652BF4F0E941E1A0E9465
:10244E00371AE0E0E093C004229608950E94421AE3
:10245E00133010F00C943F12D9010E94D9190E942A
:10246E00021A309711F40C943D120F5F1F5FF0CFDC
:10247E00E02F0E94B31C249608950E94421A133036
:10248E0010F00C945612D9010E94E3190E94021A00
:10249E00309711F40C9454120F5F1F5FF0CFE02FA2
:1024AE000E94B31C249608951A93E981E150AA81E3
:1024BE00BB81F0E0AE0FBF1FEC91E07811F40C94ED
:1024CE006A12E1E001C0E0E01E2F103011F40C940E
:1024DE007712AA81BB810E94791C0E948F1B02C0B9
:1024EE000E94491A1881249608950A9A099A249AE4
:1024FE00119888EB8A95F1F7119A2C9A0E947C0E0E
:10250E0088EB8A95F1F70E94971288EB8A95F1F77E
:10251E000E94041388EB8A95F1F70E94CA1308955E
:10252E00E3EAEA930E94C213E1EAEA930E94C2131D
:10253E00E0ECEA930E94C213E4E2EA930E94C21313
:10254E00E1E8EA930E94C213EFE2EA930E94C213FB
:10255E00EFE2EA930E94C213E7EAEA930E94C213E3
:10256E000E9404130E944E1AE0EB0E94521AE5E0FC
:10257E00EA930E94C213EAE4FAE0FA93EA930E9405
:10258E009713EFEAEA930E94C21308951A9310E08C
:10259E00183010F00C94E4120E94591A1A930E94EB
:1025AE002513E12FA981BA81F0E00E94021AFA9355
:1025BE00EA930E9485131F5FEBCF1881239608952F
:1025CE006597FE01FA93EA93E9EEFAE0FA93EA933D
:1025DE00EA8D0E943C1AED8D0E943C1A0E945E1AF2
:1025EE000E94591AE7E0EA930E942513FE01FA931E
:1025FE00EA930E948513679608951A930A930E9490
:10260E004E1A10E0183010F00C942213E12FE06BEC
:10261E000E94521AE1E0EA930E94C21300E00438CD
:10262E0010F00C942013E0E0EA930E94C6130F5FA3
:10263E00F6CF1F5FE7CF0991199108950E944E1AA8
:10264E00EA81E061EA83EA930E94C213AA81A03173
:10265E0011F00C943613E981E460E98302C0E9813C
:10266E00E983E981EA930E94C213E881E06BE88373
:10267E00EA930E94C213239608951A9310E0A9813B
:10268E00A03B11F00C944E13E0E0E9830CC0A9813D
:10269E00A03210F40C945813AC3710F00C9458135D
:1026AE0002C0E0E4E98310E0153010F00C947E13C4
:1026BE00A981A03210F00C947013E981A5E0EA9F75
:1026CE00F001EC55FA4FDF010E94A0190E94631A27
:1026DE000CC0E981E052A5E0EA9FF001E655FA4F01
:1026EE00DF010E94A0190E94631A1F5FDDCFE0E098
:1026FE00EA930E94C613188122960895A881B98183
:10270E00EC91E03011F40C949513EA930E9444136B
:10271E00E881F9813196E883F983F0CF2296089506
:10272E00E881F981E491E03011F40C94AA13E88168
:10273E00F981E491EA930E944413E881F98131967C
:10274E00E883F983EDCF229608952C98E981E03045
:10275E0011F40C94B413129801C0129A85E28A9562
:10276E00F1F7E881EA930E94830E85E28A95F1F7EC
:10277E002C9A22960895E1E00E94691A0895E0E0ED
:10278E000E94691A08950E94AC1C20E030E02830A7
:10279E00E0E03E0710F00C94F2130E94591A2A93AF
:1027AE000E94251310E0103810F00C94EF13A0E8DF
:1027BE00A29FF001A39FF00DA12FB0E0EA0FFB1F27
:1027CE00EC55FE4FE491EA930E94C6131F5FEBCFC8
:1027DE002F5F3F4FDCCF0E94B31C249608951A93AF
:1027EE00E0E0E093ED050E947C1219910895609748
:1027FE0080E1A0E0B0E0E2E0FBE00E94B81C1A939A
:10280E00E091ED05A1E1EA9FF001E25BFE4F3F96FC
:10281E000E948E1CFF93EF93FE013196FA93EA937A
:10282E00EF91FF910995FE013196FA93EA930E947A
:10283E00CD12E091ED05EF5FEA93E5E0EA930E9499
:10284E00E7121881619608950E94701A0E9435143D
:10285E0008950E94701A0E9449140895A981BA81A0
:10286E00AC91E881AE1710F00C944314A981BA8193
:10287E00EC91EF5FEC9304C0A981BA81E0E0EC9398
:10288E0023960895A981BA81EC91E03011F00C9451
:10289E005314E881EC9305C0A981BA81EC91E15003
:1028AE00EC93239608950E94771AFA93EA93EAE23C
:1028BE00FBE00E947C1A0E94851A0E948C1AE6E5A3
:1028CE00FBE00E947C1A0E948C1AE1E6FBE00E945B
:1028DE00911A0E948C1AEAE3FBE00E94911A0E9460
:1028EE00981AE6E6FBE00E947C1A0E94981AE1E72D
:1028FE00FBE00E94911A0E94981AEAE3FBE00E9404
:10290E00911A0E949D1A0E94A41AE1E9FBE0FA9323
:10291E00EA93E091C1040E943C1AE091C2040E9425
:10292E003C1AE091C3040E943C1AE091C4040E9438
:10293E003C1A80E10E94331864960E94A91AEDEAAF
:10294E00FBE0FA93EA93E091C5040E943C1AE091F1
:10295E00C6040E943C1AE091C7040E943C1AE09102
:10296E00C8040E943C1AE091C9040E943C1AE091EE
:10297E00CA040E943C1A88E10E9433186C960E9489
:10298E00B01A08950E94771AFA93EA93EFECFBE0DF
:10299E000E947C1A0E94851A0E948C1AE1EEFBE0BE
:1029AE00FA93EA930E942D120E943C1A0E94C21AB8
:1029BE000E94981AE7EFFBE0FA93EA930E94441202
:1029CE000E943C1A0E94C21A0E949D1A0E94A41ACA
:1029DE00EDE0FCE0FA93EA93D8010E940F1ADF01B2
:1029EE00E8EEF3E00E94C91AD8010E940F1ADF0127
:1029FE00E8EEF3E00E94CC1A0E945E1A0E94A91A19
:102A0E00E8E2FCE0FA93EA93D8010E94211A0E94B0
:102A1E00291AD8010E94211A0E94301A0E945E1AA9
:102A2E000E94B01A08950E94771AFA93EA93E4E48A
:102A3E00FCE00E947C1A0E94CF1AEAE5FCE00E949C
:102A4E007C1A0E948C1AE9E7FBE00E947C1A0E9415
:102A5E00981AE0E7FCE0FA93EA930E94D41A0E94D7
:102A6E00C91A0E94D41A0E94CC1A0E945E1A0E94A1
:102A7E00DD1AE8E8FCE0FA93EA930E94E41A0E9459
:102A8E00C91A0E94E41A0E94CC1A0E945E1A0E9471
:102A9E00ED1AE0EAFCE0FA93EA93D801AC52BF4F8C
:102AAE000E94751CDF01EAE0F0E00E94C91A0E9444
:102ABE00E41A0E94CC1A0E945E1A0E94A91AE9E733
:102ACE00FBE00E947C1A0E94F01AE9E7FBE00E94EC
:102ADE00F51A08950E94771AFA93EA93E8EBFCE050
:102AEE000E947C1A0E94CF1AEFECFCE00E947C1A26
:102AFE000E948C1A0E94FF1A0E94981AE6EEFCE0C1
:102B0E00FA93EA930E94021B0E94C91A0E94021BAA
:102B1E000E94CC1A0E945E1A0E94DD1AE2E0FDE0CD
:102B2E00FA93EA930E940B1B0E94C91A0E940B1B78
:102B3E000E94CC1A0E945E1A0E94ED1AEEE1FDE090
:102B4E00FA93EA930E94141B0E94C91A0E94141B46
:102B5E000E94CC1A0E945E1A0E94A91A0E94FF1AA5
:102B6E000E94F01AEAE7FBE00E94F51A08950E940F
:102B7E00771AFA93EA93EFE6FDE00E947C1A0E9420
:102B8E00CF1AEFECFCE00E947C1A0E948C1A0E9475
:102B9E00FF1A0E94981AE6E8FDE0FA93EA930E9463
:102BAE001D1B0E94251B0E941D1B0E942A1B0E949A
:102BBE005E1A0E94DD1AEEE9FDE0FA93EA930E9496
:102BCE00311B0E94251B0E94311B0E942A1B0E9452
:102BDE005E1A0E94ED1AE6EBFDE0FA93EA93D80135
:102BEE00AC51BF4F0E94791CDF01CB010E945B19D3
:102BFE000E94251B0E941D1B0E942A1B0E945E1A0A
:102C0E000E94A91A0E94FF1A0E94F01AEAE7FBE03E
:102C1E000E94F51A0895E091C000E07211F00C9434
:102C2E001916F9CFE881E093C60021960895EA813E
:102C3E00EA930E941216A881B9810E948C192396DC
:102C4E0008951A930A93AA81BB8112960E94751C4D
:102C5E00309711F40C945F16AA81BB8114960E94D2
:102C6E00751C8F01309711F00C943E160EC0023079
:102C7E00E0E01E0710F40C945E16F80131978F01F8
:102C8E00AA81BB811496ED93FC93AA81BB81129607
:102C9E000E948C193197AC81A0830E94491AFF23A0
:102CAE0012F40C945E16AA81BB810E948C1906C088
:102CBE00AA81BB81EFEFFFEFED93FC9319810881A1
:102CCE00259608952B970E94AA1C10E0A989BA890F
:102CDE000E948719EF89F88D3196EF8BF88F319717
:102CEE00E4912E2FE03011F40C942B18E12FE030EC
:102CFE0011F00C948B16253211F00C94881611E0FD
:102D0E0002C00E94391B9FC1E13011F00C94AD1628
:102D1E00253211F00C9497160E94391B10E093C1C6
:102D2E0012E040E000E02D3211F00C94A01601E00C
:102D3E008AC12B3211F00C94A6164BE284C12032BC
:102D4E0011F00C94AC1640E27EC104C0E23011F0DA
:102D5E000C94BA1650E013E0203311F00C94B9160F
:102D6E00006871C104C0E33011F00C94D716203303
:102D7E0010F40C94C7162A3310F00C94C71601C029
:102D8E0007C0AAE05A9F502DE22FE0535E0F5BC1A1
:102D9E002C3611F00C94D616026015E054C104C006
:102DAE00E53011F00C942A18E22FE33611F00C9452
:102DBE00EA160E94421BED89FE89A481AA930E9405
:102DCE00481B40C104C0E33711F00C94F7160E9463
:102DDE00421B0E94501B0E949B181E2F0DC004C048
:102DEE00E03711F00C9409170E94421B0E94501BF1
:102DFE000E94A5181E2F08600F77E0E0E88B30E0E8
:102E0E007EC004C0E43611F00C940E1704C0E936EF
:102E1E0011F00C941417046004C0E53711F00C94F3
:102E2E002D17EAE0E88B01FF08C0E0E0FAEC6AE952
:102E3E007BE30E945A1B1AE026C0E0E1F7E260E055
:102E4E0070E00E945A1B15E01EC004C0E83511F058
:102E5E000C943317086004C0E83711F00C9429184D
:102E6E00E0E1E88B01FF08C0E0E0F0E060E070E137
:102E7E000E945A1B18E007C0E0E0F0E160E070E04D
:102E8E000E945A1B14E001FF0AC00E94421BAD892A
:102E9E00BE8914960E94791C0E945F1B19C002FF06
:102EAE000CC00E94421BAD89BE8914960E94751CEF
:102EBE000E94B71B0E945F1B0BC00E94421BAD8974
:102ECE00BE8914960E94751C662777270E945F1B89
:102EDE0002FF15C0AF85AA2312F00C947F17EC8564
:102EEE00FD856E857F850E948F1B0E945F1B4DE2C4
:102EFE00403011F40C9485171F5F01C00B7F00FD4D
:102F0E0013C0151710F00C949B1707FF08C002FF93
:102F1E0004C00B7F242F115001C020E301C020E21A
:102F2E000E94391B5150EDCF312FE889E03011F05E
:102F3E000C94BC17303011F40C94BB1703FF06C071
:102F4E00EE81FF812591EE83FF8305C0AE81BF81A7
:102F5E002D91AE83BF830E94391B503011F40C9417
:102F6E00B91751503150E6CF61C00E94641B0E94C8
:102F7E00011C2E2F2A3010F40C94CB1703FF02C025
:102F8E00295C01C0295A01C0205D04FF01C02CC07C
:102F9E00213310F00C94E217A885B9858A859B859C
:102FAE00A130E0E0BE07E0E08E07E0E09E0711F4FE
:102FBE000C94E21701C00CC0531710F40C94EA17CE
:102FCE0000FD01C001C017C020E207FF0DC020E3C5
:102FDE00006102FF09C00B7F4A930E94481B5030CC
:102FEE0011F40C94FB1751500E94391B503011F400
:102FFE000C940218515031500E94641B0E943C1CCC
:10300E000E945F1BE889A885B9858A859B85FF2765
:10301E00662777270E94011C0E945A1B0E94AE1938
:10302E000E94A61C11F40C941D189FCF00FF0AC01D
:10303E00503011F40C9429185150E0E2EA930E949A
:10304E00481BF6CF10E046CEA989BA890E94751C9E
:10305E000E94B11C69960895FF92F82E26970E9441
:10306E00AC1C0E946B1B309711F00C944518EFEFBF
:10307E00FFEF0E94B31C2A96FF900895DE0116966C
:10308E000E94871B8D010E946B1BEE83FF83E0E085
:10309E00E887E987DE011A960E94721BE8E2F6E1E4
:1030AE00FA93EA93FE013A96FA93EA930E9469160E
:1030BE009F01AE81BF81E0E0EC93F9010E94B31C49
:1030CE002A96FF900895FF92F82E26971A930A9348
:1030DE00DE0114960E94871B8D01E0E0EC83ED83E8
:1030EE00EE83EF83DE0118960E94721BEEE1F6E18D
:1030FE00FA93EA93FE013896FA93EA930E946916C0
:10310E00198108812896FF900895E991F991A99166
:10311E00B991CD016D916623E9F7119705900D9246
:10312E000020E1F7FC010895A991B991EE27FF2740
:10313E006D91662311F03196FBCF0895AA27BB2718
:10314E00E991F9910590002011F01196FBCFFD0148
:10315E000895E991F99130971AF4E095F09531962A
:10316E000895E8EBFBE060E070E00E949C1C08957F
:10317E00FA93EA930C94030BFA93EA930E94420A91
:10318E00E0E0EA930895FA93EA930C94420AFA93D4
:10319E00EA93E0E3F0E0FA93EA930C94A40BA3E431
:1031AE00B5E0F0E0EE0FFF1F0895ED81FE816F8117
:1031BE00788508950E94DC18A8E0B0E080E090E0E9
:1031CE000E94C41B08950E94011CE150F040604013
:1031DE0070408F0108950A2EAC91E32FEE0FEA2B6B
:1031EE00A02DEC930895E981F0E008950E94AB1BA9
:1031FE00E153FB4FFA93EA930895E881F0E0E3532D
:10320E00FB4F0895E881F9813196E883F983319770
:10321E00E4910895E881F0E00895AE0FBF1F0E947B
:10322E00751C08950A921A92FA926A937A938A9367
:10323E009A93AA93BA93EA93FA93EFB7EA930895FF
:10324E00EA930E94680AE991EFBFF991E991B99169
:10325E00A9919991899179916991F9901990099013
:10326E000895EA930E94A60AE991EFBFF991E991B8
:10327E00B991A9919991899179916991F990199042
:10328E0009900895ABE01A9FF001E75BFA4F08959D
:10329E00AE81BF8188859985AA30E0E0BE07E0E067
:1032AE008E07E0E09E070895EAE0F0E060E070E04F
:1032BE000895AE81BF81888599850E945B190E9411
:1032CE00011C0895FA93EA93E12FFF2766277727CB
:1032DE000E949C1C84E00E946A18269608950E9403
:1032EE00B11C2696E991EFBFF991E991B991A99197
:1032FE009991899179916991F99019900990089510
:10330E00E0E0F0E0ED93FC930895ED91FD913196A0
:10331E00FE93EE930895E981FA8106801780A981C4
:10332E00BA810895FA93EA9380E00E946A18229671
:10333E000895E12FF0E00895FA93EA93E2E0EA931C
:10334E000C94B10DEA930E94830E1E2F0895E8850A
:10335E00F9856A857B850895EC83FD836E837F8373
:10336E000895FA93EA93E1E0EA930C94510FFA93DD
:10337E00EA93E2E0EA930C94510FFA93EA93E3E0B6
:10338E00EA930C94510F0E94AB1BAE0FBF1F0E940D
:10339E00791CDF01CB01E8E00E949F1B0E94B3194C
:1033AE00D9010895A053BF4FC4CFDF01CB01E0EA8E
:1033BE00F6E861E070E00895AA52BF4FBACF0E94BE
:1033CE00AB1BEA0FFB1FFA93EA93E8E0EA930E9425
:1033DE005B120E94B71B0E94971CD9010895A4523C
:1033EE00BF4FA7CF0E94921CACE9B1E080E090E005
:1033FE000E94E41BDACFEE0FFF1F0FCFEE0FFF1F61
:10340E00AE0FBF1F7DCFFA93EA93AA81BB810895B9
:10341E00A659BF4F0E94751C0895662777270E94F4
:10342E009C1C089584E00E946A18269608950E94B6
:10343E00751CF3CFA253BF4F0E94751CDF01EAE04B
:10344E00F0E008950E94FC1B0E94B71B0E949C1C7A
:10345E0008950E942E1C0E94B71B0E949C1C08956A
:10346E008CE00E946A182E960895FF27662777270C
:10347E000E949C1C08950E94AC1C00E028EB33E0D7
:10348E0010E00895AA81BB810E94751C0895EFE794
:10349E00EA930C94C213EA930E94C213E0E1EA93FA
:1034AE000C94C213E0E0EA93E1E0EA93089588E019
:1034BE000E9433182C960895EA0FFB1FE491EA93AD
:1034CE000C94C613EA93E981EA930E94AC132196F9
:1034DE000895EDEEF5E0FA93EA93E4E0EA930895A9
:1034EE001A930A9308EB13E0CDCFFA93EA9380E098
:1034FE000E9433182496EA81FB810895A281B3813C
:10350E00BA93AA93E0E4FBE0F0CFA481B581BA931D
:10351E00AA930895FA93EA930E948C18EA81FB818C
:10352E000895A681B781BA93AA930895A085B1850F
:10353E00BA93AA93E6E7FBE0D8CFA285B385BA93F8
:10354E00AA930895EA81FB81A485B585BA93AA93BF
:10355E000895EA81FB81A685B785BA93AA93E6E71B
:10356E00FBE0FA93EA9380E00E94331824961981C7
:10357E0008812496089584E00E9433182896EA81E3
:10358E00FB8108950E94E91B48CF0E942B1C45CF5A
:10359E00A281B381BA93AA930895D801A053BF4FC5
:1035AE000E94751CDF01EAE0F0E00895EA81FB81DC
:1035BE00A085B185BA93AA930895D801AE52BF4F94
:1035CE000E94751CDF01EAE0F0E00895EA81FB81BC
:1035DE00B4CFA685B785BA93AA930895FA93EA93C2
:1035EE0080E00E943318249619810881249608954C
:1035FE00EAE7FBE07ACFD801AA52BF4F0E94751CB2
:10360E00DF01E4E6F0E00895D801A852BF4F0E9412
:10361E00751CDF01E4E6F0E00895D801A652BF4F15
:10362E000E94751CDF01E4E6F0E00895D801A45273
:10363E00BF4F0E94791CDF01CB0136CE0E94261CA3
:10364E000E949C1C08950E94401CFA93EA930E94CB
:10365E00B018E3CED801A052BF4F0E94791CDF01F3
:10366E00CB0122CE2A93EA89FB89FA93EA93EE895B
:10367E00FF8909950895ED89FE893497ED8BFE8BB0
:10368E000895EA89FB89FA93EA93EE89FF890995F1
:10369E000895AD89BE8914960E94751CEE83FF8332
:1036AE00FA93EA930895E887F9876A877B870895E6
:1036BE00EC87FD876E877F8708950E94AE19AC85D3
:1036CE00BD858E859F850895DE011C960E94871B01
:1036DE000E94751C08950E94871B0E94751CFA9308
:1036EE00EA931A930A930895E991F991309639F075
:1036FE008DEC9AE00197F1F7A8953197C9F70895E7
:10370E000024AF0DB01D0895F195E195F040089598
:10371E00F09560957095E195FF4F6F4F7F4F08952F
:10372E00EE230E2EEA2F19F0EE0F0A94E9F7089504
:10373E00EE230E2EFD01BC0131F076956795F795BF
:10374E00E7950A94D1F70895EE0FFF1FEE0FFF1FB6
:10375E00EE0FFF1F0895EE0FFF1F661F771F0895D0
:10376E006F2F660F660B762F0895FA9FF02DEB9F45
:10377E00F00DEA9FE02DF10D08957A9F702D6B9F4D
:10378E00700DF89F700DE99F700D6A9F602D710D81
:10379E00FB9F600D711DE89F600D711D8827FA9FBC
:1037AE00F02D610D781FEB9FF00D611D781FEA9FC4
:1037BE00E02DF10D681F781F08957DD0DEDF0EF429
:1037CE00A7DF08950024112490E1AA0FBB1F001C4F
:1037DE00111C0E1A1F0A18F40E0E1F1E01C0A16036
:1037EE009A9599F7FD01D001089557D0EBDF0EF4AD
:1037FE008BDF08953F934F935F930024112444274A
:10380E00552730E2AA0FBB1F881F991F001C111CE1
:10381E00441F551F0E1A1F0A460B570B28F40E0E87
:10382E001F1E461F571F01C0A1603A9559F7FD0193
:10383E00BC01D001CA015F914F913F9108953BD0D9
:10384E00D9DF0EF465DF0895BDDFFD010895E8941C
:10385E00B7FF04C0A095B09511966894F7FD54DF9C
:10386E00B1DFFD010EF450DF0895C4DFFD01BC0190
:10387E000895E89497FF09C0A095B095809590950E
:10388E00AF5FBF4F8F4F9F4F689477FD41DFB2DF21
:10389E00FD01BC010EF43CDF0895E894F7FF02C071
:1038AE0033DF6894B7FF06C0A095B095119600F867
:1038BE00039400FA0895E89477FF02C029DF689414
:1038CE0097FF0BC00024A095B0958095909511960A
:1038DE00801D901D00F8039400FA0895ED91FC915F
:1038EE0011970895ED91FD916D917C911397089527
:1038FE00ED91FD916D917D910895ED93FD936D93F5
:10390E007C9308957E936E93FE93EE9308950590A7
:10391E00F491E02D0895E881F9816A817B81089503
:10392E00E883F9836A837B8308957A936A93FA9383
:10393E00EA9308959A938A93BA93AA930895309727
:10394E006040704008955A934A933A932A931A937B
:10395E000A9308955D814C813B812A8119810881EA
:10396E000895AC0FBD1F05900D928A95E1F708954D
:00000001FF
