:080000000C9450070C94000061
:100008000C9400000C9400000C9400000C94000068
:100018000C9400000C9400000C9400000C94000058
:100028000C9400000C9400000C9400000C94000048
:100038000C9400000C9400000C94A8080C94000088
:100048000C9400000C9400000C94250A0C940000F9
:100058000C94190A0C9400000C9400000C940000F5
:100068000C9400000C9400000C94290A0C940000D5
:100078000C941F0A0A232323232323232323232324
:100088002323232323232323232323232323232338
:1000980023232323232323232323232323230A2341
:1000A800204B6E756572722041470A2320524D20FD
:1000B8004949202D20496E672E204C2E4D656C69CC
:1000C800636861722C20496E672E20502E4B657232
:1000D8006E646C2000000A23232323232323232375
:1000E80023232323232323232323232323232323D8
:1000F80023232323232323232323232323232323C8
:100108000000424F4152440000000000000000007F
:10011800009E104D4F44554C455300000000000010
:100128000000D510524553554D4500000000000011
:100138000000001011564F4C544147450000000084
:10014800000000007D1143555252454E54000000F6
:100158000000000000B111504F574552464143542A
:100168004F5200000000B312504F574552204143F0
:1001780054000000000000E511504F57455220413F
:1001880050500000000000001E12454E45524759CD
:100198002041435400000000005712454E45524785
:1001A8005920415050000000000083120000000058
:1001B8000000000000000000000000000000000037
:1001C8000000000000000000000000000000000027
:1001D8000000000000000000000000000000000017
:1001E800000000008080C0606030181C183060601B
:1001F800C080800000000000000000000000000037
:1002080000000000000000000000000000000000E6
:1002180000000000000000000000000000000000D6
:1002280000000000000000000000000000000000C6
:1002380000000000000000000000000000000000B6
:1002480000000000000000000000000000000000A6
:100258000000000000000000000000000080E070C6
:10026800383C1E1F1F9F0C0C0E0EFEFEFE0E0E0CC1
:100278000C9F1F1F1E3C3870E0800000000000002B
:100288000000000000000000000000000000000066
:100298000000000000000000000000000000000056
:1002A8000000000000000000000000000000000046
:1002B8000000000000000000000000000000000036
:1002C8000000000000000000000000000000000026
:1002D80000000000000000000000F0FEFF07000022
:1002E80000F8FEFF010000000000FFFFFF00000013
:1002F800000001FFFEF800000007FFFEF00000000C
:1003080000000000000000000000000000000000E5
:1003180000000000000000000000000000000000D5
:1003280000000000000000000000000000000000C5
:1003380000000000000000000000000000000000B5
:1003480000000000000000000000000000000000A5
:100358000000000000000000000001030F3E78F0DC
:10036800E0E0C78F8E9000000000FFFFFF00000054
:1003780000908E8FC7E0E0F0783E0F030100000088
:100388000000000000000000000000000000000065
:100398000000000000000000000000000000000055
:1003A8000000000000000000000000000000000045
:1003B8000000000000000000000000000000000035
:1003C8000000000000000000000000000000000025
:1003D8000000000000000000000000000000000015
:1003E800077FFFF101030303030303070303030369
:1003F800030301F1FF7F0700000000000000000078
:1004080000000000000000000000000000000000E4
:1004180000000000000000000000000000000000D4
:1004280000000000000000000000000000000000C4
:1004380000000000000000000000000000000000B4
:100448000000000000000000000000000000F0F8BC
:10045800FC3E0E0F070707070E3EFCF8E0C0E0E081
:10046800E0707F7F7060E0C0C0C0C0C0C0C0C0C0C6
:10047800E060707F7F70E0E0E0C0E0F8FC3E0E07CF
:100488000707070F0E3EFCF8F00000000000000010
:100498000000000000000000000000000000000054
:1004A8000000000000000000000000000000000044
:1004B8000000000000000000000000000000000034
:1004C8000000000000000000000000000000000024
:1004D800000000000000000000001F1F3F3970707E
:1004E800E0E0E0C0C08080000001010101010000DF
:1004F8008080C0C0E0E0E07070393F1F1F0000003E
:1005080000000000000000000000000000000000E3
:1005180000000000000000000000000000000000D3
:1005280000000000000000000000000000000000C3
:1005380000000000000000000000000000000000B3
:1005480000000000000000000000000000000000A3
:100558000000000000000000000000000000000093
:100568000000010103030707070E0C1C0C0E070708
:100578000703030101000000000000000000000064
:100588000000000000000000000000000000000063
:100598000000000000000000000000000000000053
:1005A8000000000000000000000000000007050730
:1005B8000000000000000000002F000000070007F6
:1005C80000147F147F14242A7F2A12C4C8102646D8
:1005D80036495522500005030000001C2241000046
:1005E80041221C0014083E081408083E08080000B0
:1005F800503000101010101000606000002010082B
:1006080004023E5149453E00427F40004261514943
:10061800462141454B311814127F1027454545396D
:100628003C4A4949300171090503364949493606AA
:100638004949291E003636000000563600000814C5
:100648002241001414141414004122140802015108
:100658000906324959513E7E1111117E7F49494997
:10066800363E414141227F4141221C7F494949414F
:100678007F090909013E4149497A7F0808087F0036
:10068800417F41002040413F017F081422417F40C3
:100698004040407F020C027F7F0408107F3E4141AA
:1006A800413E7F090909063E4151215E7F0919290A
:1006B80046464949493101017F01013F4040403FD9
:1006C8001F2040201F3F4038403F63140814630731
:1006D800087008076151494543007F414100552A88
:1006E800552A550041417F00040201020440404060
:1006F8004040000102040020545454787F48444488
:10070800383844444420384444487F3854545418B2
:10071800087E0901020C5252523E7F0804047800F8
:10072800447D40002040443D007F102844000041A3
:100738007F40007C041804787C080404783844441A
:1007480044387C14141408081414187C7C08040415
:10075800084854545420043F4440203C4040207CE6
:100768001C2040201C3C4030403C44281028440CAD
:100778005050503C4464544C44001905000000009B
:10078800170700000000181E0001030314060001EB
:100798000A0A140600011E1E1906000000001906A8
:1007A800000000000A232048573A2000436F6D6D6F
:1007B8004D6F64756C00207600312E3130000A23AD
:1007C8002053573A200054657374487700312E300F
:1007D80030000A493A2053797374656D2073746147
:1007E80072742E2E000A493A312E627974652025DA
:1007F80078000A493A322E62797465202578000A11
:10080800493A332E62797465202578000A493A34CA
:100818002E62797465202578000A493A352E627966
:100828007465202578000A493A362E627974652065
:100838002578000A493A372E6279746520257800B0
:100848000A493A382E62797465202578000A3D3DB8
:100858003D3D3D3D3D3D3D3D3D3D3D3D3D3D3D3DC0
:100868003D3D3D3D3D3D3D3D3D3D3D3D3D3D3D3DB0
:100878003D3D3D3D3D3D3D3D3D3D3D000A45453A03
:10088800206E656A73656D207265616479202578CC
:10089800000A45453A20737061746E612061647284
:1008A800657361000A45453A20737061746E656A24
:1008B800207A61636174656B00000A637265617414
:1008C800652070726F63657373206E722E256420C5
:1008D8002E2E0000496E696369616C697A616365EF
:1008E800204F4B006672656B76656E63653A202013
:1008F8002564202020202020004E656A73656D2025
:10090800706F76696E656E2062FD742074616B6F1E
:1009180076FD2C206A616BFD206279636820706F18
:10092800646C65206F737461746EED6368206C6924
:1009380064ED206DEC6C2062FD742E204A652074F5
:100948006F206A656A696368206F6D796C2C206115
:10095800206E65206D6F6A652073656C68E16EEDC9
:10096800202D2052696368617264204665796E6D36
:10097800616E002020202020202020202020202000
:10098800202020202025752F257500000A453A20B3
:100998007772697465207761736E74207375636309
:1009A800657366756C6C000A453A2077726F6E67DE
:1009B800206F7065726174696F6E2028726561645A
:1009C8002F777269746529000A453A676F6F642C3E
:1009D800206E6578742073746570203078257800EF
:1009E8000A453A77726F6E672C206F6E63652061D7
:1009F8006761696E000A453A2077726974652066F6
:100A080061696C656421000A453A2053594E4328B0
:100A1800332E6279746529203A202578000A453AF0
:100A280020414444524553532028322E627974653C
:100A380029000A453A20434D4420312E423A2025C8
:100A48007800773A2564000A2564202D20000A3DA5
:100A58003D3D3D3D3D3D3D3D3D3D3D000A6D6573A0
:100A6800736D6F64756C206E722E2575000A74653F
:100A78006D70657261747572653A2025642E2564FF
:100A8800B043000A70663A20256C64207C20256CEF
:100A980064207C20256C6400000317032E034503A3
:100AA8005C0373038A03A103202020202020202038
:100AB800202020202020202020202020202000006E
:100AC8002020202020202020002020202020203D21
:100AD8003D3D3D3D3D3D3D3D3D3D3D2020202000EF
:100AE80020202020202020202020202020202020FE
:100AF800202020200020202020202020202020200E
:100B080020202020202025752F25750020485720DB
:100B18007665722E3A2000312E313000205357204E
:100B28007665722E3A2000312E30300020202020A9
:100B380020202020202020202020202020202020AD
:100B4800200020202020417661696C61626C653A42
:100B58002025752020202020200020202020282546
:100B6800642C25642C25642C256429202020202031
:100B780020002020202053656C65637465643A204A
:100B88004D2575202020202020002055206C696EDE
:100B980065733A2025752020202020202020200061
:100BA8002049206C696E65733A2025752020202025
:100BB800202020202000202020202020202020204D
:100BC800202020202020202020202020202020201D
:100BD80000204672657175656E63653A2025752E2D
:100BE800257520487A202020202020002054656D7B
:100BF80070657261747572653A2025752E2575B019
:100C080043202020202020002025366C752C20250C
:100C1800752E2575205B565D2020204D25752020DA
:100C2800002025366C752C2025752E253032752030
:100C38005B415D204D2575202000204C25753A200C
:100C4800256C642E2564205B575D207C20256C6410
:100C58002E2564205B56415D002025366C642C20CF
:100C6800256C642E2564205B575D204D257520205A
:100C7800002025366C642C2025336C64205B576873
:100C88005D204D257520002025366C642C202536E6
:100C98006C64204D25752020000001000100010032
:100CA80001000A2D000A2B000A493A627574746F14
:100CB8006E733A206C6F6E67207072657373000AEA
:100CC800493A627574746F6E733A2073686F727400
:100CD80020707265737300000A6379636C652D3E3A
:100CE8006475726174696F6E3A202564000A545302
:100CF8003A206B6F6E6563207465737475212028C4
:100D0800737465702025642E29000A6379636C6505
:100D180020737769746368696E673A2073746570C5
:100D2800202564202D3E202564202D2025643A2589
:100D3800303264000A3D3D3D3D3D3D3D3D3D3D3D3C
:100D48003D3D3D3D3D3D3D3D3D3D3D3D3D3D3D3DCB
:100D58003D3D3D3D3D3D3D3D3D3D3D3D3D3D3D3DBB
:100D68003D3D3D3D3D3D3D3D3D3D3D3D3D3D3D3DAB
:100D78003D3D3D3D3D3D3D3D3D3D3D3D3D3D3D3D9B
:100D88003D000A53544550202564202D2074656D7C
:100D9800703A25642C206475726174696F6E3A200C
:100DA80025643A253032642C20706F776572206391
:100DB80079636C653A2025642C20706F7765722002
:100DC8006F6E3A2025642C20706F776572206F66ED
:100DD800663A202564000A73746570202564202D06
:100DE8002025643A253032642C2025642C20256483
:100DF800000A535749544348204F4E000A53574955
:100E0800544348204F4646000A493A205072696ABE
:100E18006D757420737472696E673A20000A453ADA
:100E2800204E65646F7374617465636E79206275B2
:100E3800666665722C20737472696E673A000100E9
:100E480001000A493A2053656E6442756666657208
:100E58006628290001002D4E414E00494E460000EB
:100E680017000003B00A17001703B00A17002E0373
:100E7800B00A17004503B00A17005C03B00A170050
:100E88007303B00A17008A03B00A1700A103B00A57
:100E980001004B085C0E0000F894EE27EFBBF1E070
:100EA800F5BFE5BFF8E1A895A4B7A77FA4BFF09365
:100EB8006000E09360008DE0A2E0BB27ED938A9587
:100EC800E9F780E098E0A0E0B1E0ED930197E9F759
:100ED800E8E6FEE085919591009761F0A591B591BE
:100EE80005901590BF01F00105900D920197E1F76B
:100EF800FB01F0CFE0E0EEBBEFEFEDBFE8E0EEBFC7
:100F0800C0E0D3E00C9488076BD00E9429130E949C
:100F18009C0A0E943E130E94C30C0E94FA0FF89488
:100F2800E4E6F0E0FA93EA930E947818ABD00E94C6
:100F38000816E6E5FFE00E940F16EEE1F0E060E03B
:100F480070E00E947E19E7EEF2E10E940F16E4EFCE
:100F5800F1E060E070E00E947E19E0E0F0E10E94BC
:100F68000F160E940816ECE2F3E10E940F16E0ED5E
:100F7800F7E0FA93EA930E947818E0E0EA93ECE746
:100F8800F0E00E941316ECEAF7E00E941316E4EB77
:100F9800F7E00E941316EEEBF7E00E941316E1EC5F
:100FA800F7E00E941316E6ECF7E00E941316EEEC49
:100FB800F7E00E941316EEEBF7E00E941316E5ED3A
:100FC800F7E00E941316EEEDF0E00E941A1679D0B1
:100FD800E0E0EA93EAEDF7E00E941A16FFCFFFCFB0
:100FE800E0E8E0936100E0E0E0936100E2B9E1B994
:100FF800E5B9E4B9E8B9E7B9EBB9EAB9E4BDE5BDE3
:10100800E6BDE7BDE8BDE0938000E0938100E09392
:101018008500E0938400E0938700E0938600E093E6
:101028008900E0938800E0938B00E0938A00E093C6
:10103800B600E093B000E093B100E093B200E09313
:10104800B300E093B400E0936900EDBBE09368005F
:10105800E0936E00E0936F00E0937000E093C000AF
:10106800E8E0E093C100E6E0E093C200E0E0E0934E
:10107800C500E5E0E093C400E0E8E0BFE0E0E0930D
:101088007B0008951A93E2E0E4BDE5E0E5BDE0E009
:10109800E6BDEBE6E7BDE0E0E8BDE2E0E0936E0028
:1010A800E2E3F0E0E0931A07F0931B0710E01A3030
:1010B80030F40E941E16A0E0A0831F5FF8CF0C94A6
:1010C800E90C789408950E94891910E01A30D8F52F
:1010D8000E941E169F01D901EC91E03091F5E1E0E4
:1010E800EC93EC81FD81D9011196ED93FC930E945C
:1010F800241630F40E943016EE83FF8368877987C0
:101108000E94241628F4E1E0F0E060E070E002C0FC
:101118000E943516D90113960E9466190E9424165A
:1011280028F4E1E0F0E060E070E002C00E943516CB
:10113800D90117960E946619E2ECF8E00E943D1664
:10114800FCC01F5FC3CFF9C00E944A160E948719CE
:10115800E0911A07F0911B07309741F0AAE1B7E038
:10116800ED91FD913197FE93EE932BC010E01A306C
:1011780040F50E941E169F01D901AC91A130F9F4E7
:10118800D90117960E9461193197604070400E94FA
:101198006B190E94831999F4D901E2E0EC93119636
:1011A8004D915C91FA010995D90113960E945B193A
:1011B800D90117960E946619D901E1E0EC931F5FE7
:1011C800D6CF0E948E192696E991EFBFF991E99141
:1011D800B991A9919991899179916991F990199009
:1011E80009901895E881E03011F018D001C002D0BC
:1011F8000C94A80B28D0E0E0E0930208E0930308E1
:10120800E8EDE093C100E1E0E0938A07E0E0E093D5
:101218008C07E0939E07E0939F0708951BD0E4E0B6
:10122800F8E0A0E0B0E0A083B183E8EDE093C90066
:10123800E1E0E0938B07E0E0E0938D07E0EAF7E078
:10124800A083B1830895EEE8F7E0FA93EA93E2EA1F
:10125800F7E006C0E6E9F7E0FA93EA93E2EDF7E093
:10126800FA93EA93E0E3F0E0FA93EA9301D1089560
:10127800AA81A23048F4EA810E945816EA0FFB1F9F
:10128800A881B981A083B1830C94EE0B0E948919BF
:10129800EC81E030C1F00E945E160E94B7180E94EF
:1012A800B718E050F04467457F4F7F936F93FF93E3
:1012B800EF930E946316AF91BF918F919F910E9407
:1012C8006B1631E019C00E946316E050F044674580
:1012D8007F4F7F936F93FF93EF930E945E16A0E179
:1012E800B0E080E090E00E94C718AF91BF918F9165
:1012F8009F910E946B1630E0E985E03061F0009321
:10130800CC001093CD00E091C000ED7FE093C000C9
:10131800A0ECB0E00BC00093C4001093C500E091AE
:10132800C800ED7FE093C800A8ECB0E00A2EAC91AD
:10133800E32FEE0FEA2BA02DEC930E9490192A962A
:101348000895E881F981E491E030A9F0EA81E0307C
:1013580049F0E091C800E072E1F30E947316E0934F
:10136800CE0008C0E091C000E072E1F30E9473165D
:10137800E093C600E6CF0C94EE0B0E947B16E45770
:10138800F84FE081E03059F10E947B160E94B018B6
:10139800EE56F84FDF010E945719309799F0E8810F
:1013A800E03041F0E6E9F7E0FA93EA937CD0E09385
:1013B800CE0007C0EEE8F7E0FA93EA9374D0E09322
:1013C800C6000CC00E947B16E457F84FA0E0A0832B
:1013D8000E947B16E657F84FA1E0A08306C00E9442
:1013E8007B16E657F84FA1E0A0830C94A80B1A933C
:1013F800E981E03019F01091CE0002C01091C600CA
:10140800E9810E9458160E947E16309759F0E981AA
:101418000E9458160E947E16FF93EF931A93EF913D
:10142800FF91099518810C949F0B0E944A16E0E0E1
:10143800EA93A3DF0FC00E944A16E1E0EA939DDF1A
:1014480009C00E944A16E0E003C00E944A16E1E083
:10145800EA93CDDFE991EFBFF991E991B991A991AB
:101468009991899179916991F990199009901895B4
:10147800F894EA81FB81AC81BD81ED93FC93E8810E
:10148800F981AC81BD811296ED93FC93AC81BD814D
:1014980016960E948316AC81BD8114960E9483160D
:1014A8007894269608951A9310E0F894A981BA8141
:1014B80014960E9457193097B1F1A981BA810D90FD
:1014C8001C90A981BA8116960E945719D001AE0FB7
:1014D800BF1F1C91A981BA8116960E948816E981BE
:1014E800FA8106801780A981BA8112960E9457193D
:1014F8000E161F0680F0E981FA813696BF0100803A
:101508001180E981FA81A281B381F001EA1BFB0B0A
:10151800DB01ED93FC93A981BA811496ED91FD91BD
:101528003197FE93EE937894E12F18810C94EE0B8B
:101538003E98469A3F98479A0895569A5E9A579ABF
:101548005F9A0A9A12980B9A139808950E948E1619
:10155800E3E50C94FA0BE881EEBDEDB5E078E9F32C
:10156800EEB5F2C00A9A099A249A119888EB8A95DE
:10157800F1F7119A2C9AEADF88EB8A95F1F709D0EE
:1015880088EB8A95F1F745D088EB8A95F1F7DED09C
:101598000895E3EAEA93D1D0E1EAEA93CED0E0EC09
:1015A800EA93CBD0E4E2EA93C8D0E1E8EA93C5D065
:1015B800EFE2EA93C2D0EFE2EA93BFD0E7EAEA9318
:1015C800BCD027D00E949816E0EB0E949C16E5E05C
:1015D800EA93B3D0ECEDF8E0FA93EA938AD0EFEA15
:1015E800EA93ABD008951A9310E0183080F4E0E045
:1015F800EA93E1E0EA931A9326D0E12FA981BA8110
:101608000E94A316FA93EA9366D01F5FEECF188163
:10161800E1C01A930A930E94981610E0183088F4D3
:10162800E12FE06B0E949C16E1E0EA9386D000E08F
:10163800043828F4E0E0EA9382D00F5FF9CF1F5F07
:10164800EDCF0C94B30F0E949816EA81E061EA830B
:10165800EA9373D0AA81A03119F4E981E46001C04A
:10166800E981E983EA9369D0E881E06BE883EA934A
:1016780064D0B0C01A9310E0A981A03B11F4E0E057
:1016880006C0A981A03210F0AC3710F0E0E4E9837D
:1016980010E01530D8F4A981A03238F4E981A5E02A
:1016A800EA9FF001EC54FA4F07C0E981E052A5E047
:1016B800EA9FF001E654FA4FDF010E94A716EA0FED
:1016C800FB1FE491EA933BD01F5FE3CFE0E0EA938E
:1016D80036D0188130C0A881B981EC91E03041F052
:1016E800EA93C8DFE881F9813196E883F983F3CF7B
:1016F80022C0E881F981E491E03059F0E881F9816C
:10170800E491EA93B7DFE881F9813196E883F983B8
:10171800F0CF11C02C98E981E03011F0129801C087
:10172800129A85E28A95F1F7E881EA9314DF85E257
:101738008A95F1F72C9A22960895E1E001C0E0E03D
:10174800EA93E981EA93E6DF219608950E948919D0
:1017580020E030E02830E0E03E07E0F4E0E0EA9303
:10176800E1E0EA932A936FDF10E0103880F4A0E8F4
:10177800A29FF001A39FF00DA12FB0E0EA0FFB1F7D
:10178800EC54FE4FE491EA93DADF1F5FEECF2F5F50
:101798003F4FE0CF0E9490190C949C10A981BA8108
:1017A800AC91E881AE1728F4A981BA81EC91EF5F7A
:1017B80003C0A981BA81E0E0EC930CC0A981BA8189
:1017C800EC91E03011F4E88104C0A981BA81EC9170
:1017D800E150EC93239608950E94AA0AEDB5EE7F96
:1017E800EDBDECB5ED7FECBDECB5E160ECBD089569
:1017F8000E94871910E000E0EA85F0E0EF702E2FD4
:10180800E9855E2F0E94AA160E94AA160E94AA16AF
:101818000E94AA16EB85E795E0E0E795AE2FEE81EA
:10182800E295E07FEA2BE22B0E94AF160E94AA16EF
:10183800113C11F00C94A70C5A930E94AF0A1E2F6A
:10184800123C11F00C949E0CEB85E03079F430E0FA
:101858003E3158F489E292E00197F1F7E0E00E9406
:10186800AF16113411F03F5FF3CF01C011E411340A
:1018780011F00C94990C30E0EE81A1E00E949018D0
:101888003E1790F50E94AA16EB85E03061F4E0E07F
:101898000E94AF16E02FAF81B885F0E0EA0FFB1F7A
:1018A80010830F5F1FC0AB85A130C1F42197A885B5
:1018B800B985EE27A00FBE1F1C911A930E94AF0A8C
:1018C800E8830F5FA881A13439F0E4E9F9E00E94C8
:1018D800B416EFEF219640C0219604C0EFEAF9E074
:1018E8000E94B4163F5FC8CFAB85A130E9F430E061
:1018F8003E3190F40E94AA16E0E00E94AF161E3412
:1019080029F0E0EDF9E00E943D1606C0E8EEF9E0A6
:101918000E94B4163F5FECCF113431F0EDEFF9E0DF
:101928000E94B416EFEF18C004C0EFE0FAE00E947E
:101938003D1608C0E0E0EA93E5E2FAE00E941A16D4
:10194800EFEF0AC006C0EAE3FAE00E943D16EFEFA7
:1019580003C00E94AA16E0E00E948E192C960895F2
:10196800E0E0EA93EC81FD81FA93EA93EC81FD8152
:10197800FA93EA93ED81EA933BDF0C94DA0F1A931A
:101988002BDFE8EBF3E0FA93EA93E0E0EA93E7E58C
:10199800F3E0FA93EA930E94A315249A239A229AD1
:1019A800219A209A2C9A2B9A2A9A299A289A0000E6
:1019B800000010E0143048F4A5ED1A9FF001E85437
:1019C800FC4FAFEFA0831F5FF5CF19910895EF97F4
:1019D800EF97EF972F970E948719FE0136969F0180
:1019E800FE01EE52FF4FE0810E94BB16AF010E943C
:1019F800C116E0E0EA93ECECF0E0FA93EA930E9477
:101A0800A315E2E6F0E0FA93EA933A932A930E9448
:101A1800C616DA01EC93EAE4FAE0FA93EA93EC9159
:101A28000E94CA1684E00E9476152696DA01AC91C7
:101A3800AF3F09F430C2E1E0FCE0FA93EA93F90120
:101A480032960E94CF16E1E3F8E0FA93EA93F9019F
:101A58003C960E94D216E2E3F8E0FA93EA93F90181
:101A680074960E94D216E4E3F8E0FA93EA93F90137
:101A78007C960E94D216E1E4F8E0FA93EA93F90121
:101A8800BC960E94D216E2E4F8E0FA93EA93F901D0
:101A9800F4960E94D216E4E4F8E0FA93EA93F90186
:101AA800FC960E94D216E6ECF1E0FA93EA93F9016B
:101AB80034960E94CF16E2EBF2E0FA93EA93F9012A
:101AC80036960E94CF16EEE9F3E0FA93EA93F9010D
:101AD80038960E94CF16E1E0F8E0FA93EA93F9010C
:101AE800E45BFF4F0E94D216E2E0F8E0FA93EA9333
:101AF800F901EC5AFF4F0E94D216E4E0F8E0FA939D
:101B0800EA93F901E45AFF4F0E94D216E1E2F8E0A5
:101B1800FA93EA93F901E459FF4F0E94D216E2E2E0
:101B2800F8E0FA93EA93F901EC58FF4F0E94D216B5
:101B3800E4E2F8E0FA93EA93F901E458FF4F0E94CF
:101B4800D216E1E7F8E0FA93EA93F901E457FF4F78
:101B58000E94D216E2E7F8E0FA93EA93F901EC560C
:101B6800FF4F0E94D216E4E7F8E0FA93EA93F901EE
:101B7800E456FF4F0E94D216E1E7F8E0FA93EA93A1
:101B8800F901E455FF4F0E94D216E2E7F8E0FA9314
:101B9800EA93F901EC54FF4F0E94D216E4E7F8E00B
:101BA800FA93EA93F901E454FF4F0E94D216D9013F
:101BB8000E945719DA011396ED93FC93F901A2815B
:101BC800B381ECE4F0E00E94EC18DA011196ED9391
:101BD800FC9310E0143010F00C944C0F2897DA01A5
:101BE800AB59BF4F0E94A7160E94D816FF93EF93D8
:101BF800D9011C960E94A7160E94DD16AF91BF91CD
:101C08000E946619DA01AB58BF4F0E94A7160E94BE
:101C1800D816FF93EF93D9019C960E94A7160E94AD
:101C2800DD16AF91BF910E946619DA01AB57BF4F1D
:101C38000E94A7160E94D816FF93EF93D901A45BC0
:101C4800BF4F0E94A7160E94E916AF91BF910E944C
:101C58006619DA01AB56BF4F0E94A7160E94D81624
:101C6800FF93EF93D901A459BF4F0E94A7160E9472
:101C7800E916AF91BF910E946619DA01AB55BF4FC3
:101C88000E94A7160E94D816FF93EF93D901A45774
:101C9800BF4F0E94A7160E94E916DF01CB01E8E0BA
:101CA8000E949818AF91BF910E946619DA01AB544F
:101CB800BF4F0E94A7160E94D816FF93EF93D90131
:101CC800A455BF4F0E94A7160E94E916DF01CB0159
:101CD800E8E00E949818AF91BF910E946619DA0156
:101CE800AB53BF4F0E94A7160E94D8160E94F31646
:101CF8000E94F8161C960E94A7160E94DD16EC8317
:101D0800FD836E837F83DA0115960E94A716EE0F76
:101D1800FF1FEA0FFB1FFF93EF93EC81FD816E819C
:101D28007F81A2ECB2E080E090E00E94FF16AF91C4
:101D3800BF91ED93FC93D9019C960E94A7160E942F
:101D4800DD16EC83FD836E837F83DA011D960E9486
:101D5800A716EE0FFF1FEA0FFB1FFF93EF93EC810F
:101D6800FD816E817F81A1E9B4E080E090E00E946E
:101D7800FF16AF91BF91ED93FC93D901A45BBF4FC0
:101D88000E94A7160E94E9160E9479190E940A1754
:101D98000E94D816FF93EF930E940D17AF91BF9141
:101DA8000E946619FA013196EC5AFF4FDF010E9432
:101DB800A7160E94D8160E94F3160E94F816A45778
:101DC800BF4F0E94A7160E94E9160E9479190E9427
:101DD8001E170E94D816FF93EF930E940D17AF911C
:101DE800BF910E946619DA011596E12F0E94A31689
:101DF800749730F4DA0115960E94A7160E942117ED
:101E0800DA011D96E12F0E94A316359730F4DA0106
:101E18001D960E94A7160E9421170E940A170E9469
:101E280026170E942B1734F40E940A170E942617BF
:101E38000E943517DA0195960E94A7160E94261768
:101E48000E942B1744F4DA0195960E94A7160E9467
:101E580026170E9435170E941E170E9426170E94F7
:101E68002B1734F40E941E170E9426170E9435175C
:101E78000E943C170E9426170E942B1734F40E94D8
:101E88003C170E9426170E94351728961F5FA2CE7E
:101E9800E1E0E0930E070E948E19EF96EF96EF9619
:101EA80066960895E0EBE4B90E948E16E0910D075E
:101EB800EF5FE0930D07E150A0910D07A23031F4D8
:101EC800E0E0E0930D0739D0E0930C07EFE4FAE087
:101ED800FA93EA93E0910D070E94421784E00E946A
:101EE8007615269684E191E00197F1F7E0910D07C8
:101EF800E03011F42B980BC0E13011F42A9807C098
:101F0800E23011F4299803C0E33009F4289884E1F9
:101F180091E00197F1F7EDB5EE7FEDBDECB5E3602B
:101F2800ECBDE0910D07EA9352DD2C9A2B9A2A9A80
:101F3800299A289A0000000008951A930A9300E04D
:101F480010E0123058F4A5ED1A9FF001E854FC4F48
:101F5800A081AF3F09F00F5F1F5FF3CFE02F09911A
:101F6800199108950E9448179F0110E0133050F40A
:101F7800D9011596E12F0E94A316309709F00F5F3B
:101F88001F5FF4CF10C00E9448179F0110E0133064
:101F980050F4D9011D96E12F0E94A316309709F03D
:101FA8000F5F1F5FF4CFE02F0E94901925960895C8
:101FB8001A93E981E150AA81BB81F0E0AE0FBF1FFF
:101FC800EC91E07811F0E1E001C0E0E01E2F103064
:101FD80039F0AA81BB810E945B190E94881804C04D
:101FE800AA81BB810E945B190C949B10E0E0E093EE
:101FF80006080E94B60A0895609780E1A0E0B0E064
:10200800E0EAFAE00E949519E0910608EA93FE01D9
:102018003196FA93EA9368D00E944D170E94F70A06
:10202800609608950E9451170E94D20B08950E944D
:1020380051170E94E20B0895A897EAA50E94581725
:102048000E94D5157097F8F40E944D17E8ECFAE055
:102058000E946017ECA50E9458170E946517EBECC8
:10206800FAE00E946817A8A5B9A50E946C170E94FB
:102078007117E8A5F9A5A281B381BA93AA93E1EDF6
:10208800FAE00E947917AB960895A8971A931CA5B1
:10209800173068F4E12FA9A5BAA50E94A316FA93F0
:1020A800EA93E8EEFAE00E9479171F5FF1CFFE018C
:1020B8003196FA93EA93EDEFFAE0FA93EA93EFA5F3
:1020C800EF5F0E9442170E9430160E947F17E9A511
:1020D800FAA5A685B785BA93AA93FE0133960E94FE
:1020E80086171881AD9608951A93EB81EA93EA81D1
:1020F800FB81FA93EA93A0DFEB81A1E1EA9FF0016B
:10210800E65FFE4F3F960E947019FF93EF93E981B7
:10211800FA81FA93EA93EF91FF9109951E2F1A938A
:10212800EC81EA93EB81FC81FA93EA93AEDF1881A4
:1021380024960895A8970E944D17E4E1FBE00E94B9
:102148006017EFE1FBE0FA93EA930E946517EAEC67
:10215800FAE00E9468170E948C170E9471170E946B
:102168004D17E4E2FBE00E946017EFE2FBE0FA9310
:10217800EA930E946517EAECFAE00E9468170E9449
:1021880093170E949A170E94A1170E94A417E8A506
:10219800F9A5A485B585BA93AA930E947117E7E0BB
:1021A80039C0A8970E948C170E94A1170E944D174A
:1021B800EAE4FBE0FA93EA93E0910C070E944217E5
:1021C8000E94AB170E9493170E944D17E2E6FBE0AE
:1021D800FA93EA93E091B8030E94CA16E0918D043D
:1021E8000E94CA160E94B0170E94B0170E94B71723
:1021F8000E949A170E9471170E944D17EAE7FBE0A8
:102208000E94BC17EF5F0E9442170E94AB170E9402
:10221800A417E6E0AA960895A8971A930A930E942D
:10222800C1178F010E94C417E2E9FBE00E94BC17A6
:10223800EA930E94B60F0E9442170E94AB17EAA5C4
:10224800FBA50E94C9170E94CE170E94C417E8EA8E
:10225800FBE00E94BC17EA930E94C70F0E94421736
:102268000E94AB17EAA5FBA5A681B7810E94D117EA
:10227800EAA5FBA5A085B185BA93AA93EEEBFBE08E
:102288000E9479170E94C417E9EDFBE0FA93EA93DC
:10229800F801A381B481E8EEF3E00E94D417A3818A
:1022A800B481E8EEF3E00E94DC17EAA5FBA5A2855D
:1022B800B3850E94D1170E94C417E4EFFBE0FA939C
:1022C800EA93F801A181B281EAE0F0E00E94D41714
:1022D800A181B281EAE0F0E00E94DC17EAA5FBA543
:1022E800A485B5850E94D117E7E019810881AC96CD
:1022F80008950E94E1170E94E5170E94A11720E0A7
:1023080030E02330E0E03E0738F50E94E917E0E1CD
:10231800FCE0FA93EA93D801AB59BF4FF9010E9448
:1023280026170E94EE170E94F417DF01EAE0F0E09A
:102338000E94F9170E94F417DF01EAE0F0E00E941A
:1023480001180E94B7170E940B180E9412180E94C9
:1023580015182F5F3F4FD5CF31C10E94E1170E945A
:10236800E5170E94191820E030E02330E0E03E072E
:1023780038F50E94E917E9E2FCE0FA93EA93D801FC
:10238800AB58BF4FF9010E9426170E94EE170E9412
:102398001C18DF01E4E6F0E00E94F9170E941C18FF
:1023A800DF01E4E6F0E00E9401180E94B7170E94DE
:1023B8000B180E9412180E9415182F5F3F4FD5CF97
:1023C800FDC00E94E1170E94E5170E94191820E03D
:1023D80030E02330E0E03E0760F50E94E917E1E6CF
:1023E800FCE0FA93EA93D801AB57BF4FF9010E947A
:1023F80026170E94EE175596F9010E9426170E948B
:1024080021180E9424190E947E19D8015596F901B5
:102418000E9426170E9421180E9426180E94B717AA
:102428000E940B180E9412180E9415182F5F3F4F28
:10243800D0CFC4C00E94E1170E94E5170E94191866
:1024480020E030E02330E0E03E0760F50E94E91725
:10245800E1E6FCE0FA93EA93D801AB56BF4FF901E5
:102468000E9426170E94EE179596F9010E942617DA
:102478000E9421180E9424190E947E19D80195965D
:10248800F9010E9426170E9421180E9426180E940E
:10249800B7170E940B180E9412180E9415182F5F78
:1024A8003F4FD0CF8BC00E94E1170E94E5170E94D2
:1024B800191820E030E02330E0E03E07F8F40E94ED
:1024C800E917E9E7FCE0FA93EA93D801AB55BF4F67
:1024D800F9010E9426170E94EE17D596F9010E946D
:1024E80026170E9434180E9439180E943D180E942D
:1024F80012180E9415182F5F3F4FDDCF5FC00E9452
:10250800E1170E94E5170E94191820E030E02330F7
:10251800E0E03E0718F50E94E917E9E7FCE0FA93C6
:10252800EA93D801AB54BF4FF9010E9426170E94C5
:102538003418F8013196EC5BFF4FDF01F9010E9476
:1025480026170E9434180E9439180E943D180E94CC
:1025580012180E9415182F5F3F4FD9CF2FC00E9425
:10256800E1170E94E5170E94191820E030E0233097
:10257800E0E03E0718F50E94E917EFE8FCE0FA935F
:10258800EA93D801AB53BF4FF9010E9426170E9466
:102598003418F8013196EC5AFF4FDF01F9010E9417
:1025A80026170E9434180E9439180E943D180E946C
:1025B80012180E9415182F5F3F4FD9CFE6E00E94EE
:1025C8009019AE96089537991CC0E0910A08EF5FFC
:1025D800E0930A08A0910A08AF3190F0E0EBFCE024
:1025E8000E94B416E0E0E0930A08E1E0E0930C08EA
:1025F800EFE0F7E0FA93EA93E3E0EA930E94D20B64
:1026080014C0A0910A08A33020F0A0910C08A030B3
:1026180009F006C0E7ECFCE00E94B4160E941B100B
:10262800E0E0E0930C08E0930A08369904C0E091D2
:102638000B08EF5F07C0A0910B08A33010F00E94B1
:102648001610E0E0E0930B0808950E94A10A08958F
:10265800EBB1A0E8EA27EBB9E0910D08E03031F0E2
:10266800EBB1A0E4EA27EBB9E0E001C0E1E0E093D8
:102678000D0808955098589A519A589AE0E0EA93AC
:102688000E94F608E0E0EA93E0E0F2EC61E070E036
:102698000E947E19EA930E944A09E0E0EA93EBE57A
:1026A800F3E1FA93EA930E943C0955240895E091D6
:1026B8002308E030B9F4A881AA3011F0AD3029F42C
:1026C800E1E0E09323080C947F13E52D5394F0E0A8
:1026D800E75EF74FA881A083EAE0E51519F4E2E088
:1026E800E09323080C947F13E091C000E072E1F3BB
:1026F800E881E093C60021960895EA81EA93F4DF21
:10270800A881B9810E948816239608951A930A937E
:10271800AA81BB8112960E945719309729F1AA8184
:10272800BB8114960E9457198F01309761F00230CF
:10273800E0E01E07C0F0F80131978F01AA81BB8144
:102748001496ED93FC93AA81BB8112960E94881679
:102758003197AC81A083AA81BB810E945719FF23BE
:1027680012F00E94881606C0AA81BB81EFEFFFEF26
:10277800ED93FC93198108810C94AF152B970E9457
:10278800871910E0A989BA890E948316EF89F88D04
:102798003196EF8BF88F3197E4912E2FE03011F4BA
:1027A8000C943A15E12FE03039F4253211F411E098
:1027B80002C00E94421859C1E130A9F4253219F427
:1027C8000E94421851C112E040E000E02D3211F49D
:1027D80001E04BC12B3211F44BE247C1203211F416
:1027E80040E243C102C0E23039F450E013E0203344
:1027F80011F400683AC102C0E33091F4203310F0BC
:102808002A3308F007C0AAE05A9F502DE22FE05360
:102818005E0F2BC12C3619F4026015E026C104C0E6
:10282800E53011F00C943915E22FE33649F40E9493
:102838004B18ED89FE89A481AA930E94511814C1EE
:10284800E33741F40E944B180E9459180E94CB1597
:102858001E2F0AC0E03769F40E944B180E945918CD
:102868000E94D5151E2F08600F77E0E0E88B30E056
:102878006FC0E43611F0E93611F4046002C0E537A0
:10288800A1F4EAE0E88B01FF08C0E0E0FAEC6AE9AD
:102898007BE30E9463181AE023C0E0E1F7E260E0FE
:1028A80070E00E94631815E01BC0E83511F4086059
:1028B80004C0E83711F00C943815E0E1E88B01FF0B
:1028C80008C0E0E0F0E060E070E10E94631818E002
:1028D80007C0E0E0F0E160E070E00E94631814E0F7
:1028E80001FF08C00E944B18AD89BE8914960E944A
:1028F8005B1915C002FF0AC00E944B18AD89BE893A
:1029080014960E9457190E94C21809C00E944B18B9
:10291800AD89BE8914960E94571966277727EC87D8
:10292800FD876E877F8702FF13C0AF85AA235AF4FD
:10293800EC85FD856E857F850E948818EC87FD876C
:102948006E877F874DE2403011F01F5F01C00B7F1B
:1029580000FD11C0151778F407FF08C002FF04C076
:102968000B7F242F115001C020E301C020E20E94F8
:1029780042185150EFCF312FE889E030B9F43030A8
:10298800A1F003FF06C0EE81FF812591EE83FF834E
:1029980005C0AE81BF812D91AE83BF830E944218CE
:1029A800503009F051503150EACF54C00E94681895
:1029B8000E94FF182E2F2A3030F003FF02C0295C36
:1029C80001C0295A01C0205D04FD22C0213360F4F2
:1029D800A885B9858A859B85A130E0E0BE07E0E03F
:1029E8008E07E0E09E0709F409C0531710F000FFB6
:1029F80001C013C020E207FF0BC020E3006102FF03
:102A080007C00B7F4A930E945118503009F051506B
:102A18000E944218503009F0515031500E946818F5
:102A28000E942C19EC87FD876E877F87E889A88527
:102A3800B9858A859B85FF27662777270E94FF1817
:102A48000E946318E885F9856A857B850E94831949
:102A580009F0ACCF00FF08C0503031F05150E0E22F
:102A6800EA930E945118F8CF10E090CEA989BA894C
:102A78000E9457190E948E1969960895FF92F82EA0
:102A880026970E9489190E947118309719F4EFEF60
:102A9800FFEF23C0DE0116960E9484188D010E9464
:102AA8007118EE83FF83E0E0E887E987DE011A9674
:102AB8000E9484180E946C171A930A93EAE8F3E1BB
:102AC800FA93EA93FE013A96FA93EA9357DE9F0146
:102AD800AE81BF81E0E0EC93F9010E9490192A963B
:102AE800FF900895FF92F82E26971A930A93DE0115
:102AF80014960E9484188D01E0E0EC83ED83EE8348
:102B0800EF83DE0118960E9484180E946C171A93AE
:102B18000A93E1E8F3E1FA93EA93FE013896FA930F
:102B2800EA932CDE198108812896FF900895E9918F
:102B3800F99130971AF4E095F09531960895B98196
:102B4800A881109631F0FC81EB816A81619311971D
:102B5800E9F7EB81FC8125960895E991F991A9910E
:102B6800B991CD016D916623E9F7119705900D9202
:102B78000020E1F7FC010895E991F991A991B99133
:102B8800CD0105900D920020E1F7FC010895A9916F
:102B9800B991EE27FF276D91662311F03196FBCF8F
:102BA8000895AA27BB27E991F9910590002011F013
:102BB8001196FBCFFD0108957991E991F991A991B9
:102BC800B991CD01772351F07A9561916D93662380
:102BD800C9F7772319F07A956D93FBCFFC01089517
:102BE8006991E991F991A991B991CD01662351F0C3
:102BF8006A9505900D920020C9F7662319F06A9529
:102C08000D92FBCFFC010895E8EEF3E060E070E080
:102C18000E947E190895FA93EA930C946708FA9330
:102C2800EA930E94A509E0E0EA930895FA93EA93EB
:102C38000C94A509ABE01A9FF001E45EF84F0895E3
:102C4800AE81BF8188859985AA30E0E0BE07E0E0C3
:102C58008E07E0E09E070895EAE0F0E060E070E0AB
:102C68000895AE81BF8188859985F6DF0E94FF1897
:102C78000895FA93EA93E12FFF27662777270E94A2
:102C88007E1984E00E947615269608950A921A9273
:102C9800FA926A937A938A939A93AA93BA93EA9345
:102CA800FA93EFB7EA930895A2E0B8E0F0E0EE0FE8
:102CB800FF1F0895ED81FE816F8178850895FADF01
:102CC800A8E0B0E080E090E00E94C71808950E9454
:102CD800FF18E150F040604070408F010895E8818E
:102CE800F9813196E883F9833197E4910895E88171
:102CF800F0E00895AE0FBF1F0E9457190895E0E055
:102D0800F0E0ED93FC930895ED91FD913196FE93DB
:102D1800EE930895209A219A229A239A249A259A22
:102D280026982E9A279A0895EFE7EA930C94A10B18
:102D3800EA930E94A10BE0E1EA930C94A10BF0E066
:102D4800EE0FFF1FD7CFE12FF0E008958CED94E050
:102D58000197F1F70895EA930E94AF0A1E2F08958C
:102D6800FA93EA9380E00E94761522960895A5EDDD
:102D7800EA9FF001E854FC4F0895FE013696FA9355
:102D8800EA930895E1E0EA930C94B40C0E94BC180D
:102D98000E947E190895FA93EA93F4CFFA93EA937E
:102DA800E3E0EA930C94B40C0E94B218EA0FFB1FFC
:102DB80008950E94B018AE0FBF1F0E945B19DF0173
:102DC800CB01E8E00E94A41808950E94B018EA0F09
:102DD800FB1FFA93EA93E8E0EA930C94DC0F0F01E7
:102DE800D9011496E12FABCFD0010E94C2180E94DE
:102DF8006619D90108950E94C718DF01CB01E0E1E7
:102E0800F7E260E070E00E94FF180895DA01559635
:102E18009ACF0E947419ACE9B1E080E090E00E947A
:102E2800E718DF01CB01E0EAF6E861E070E00E9414
:102E380024190895DA01D59686CFEE0FFF1FAE0F3D
:102E4800BF1F5DCF0E94B218AE0FBF1F08950E942A
:102E58005B19E230A0E0FA07A0E06A07A0E07A0771
:102E68000895E0E0F0E060E070E00E9466190895DF
:102E7800FA013196EC5BFF4FDF0165CFFF2766272C
:102E880077270E947E1908950E94891900E0EC8135
:102E98006ECFFE01FA93EA930895E6E0F8E0FA931C
:102EA800EA93E9E0EA930895A1E1EA9FF001E65F79
:102EB800FE4FFA93EA930895FA93EA930E94C01595
:102EC800E8CF0E94B115E5CFFA93EA930C94B115B7
:102ED8000E945719FA93EA930895FE013296FA93DD
:102EE800EA93E5E1EA930C94E015FA93EA93E5E1B5
:102EF800EA930C94F4150E947E1988E00E9442150A
:102F08002C960895FA93EA93E5E1EA930C94E01578
:102F1800E8A5F9A5A481B581BA93AA930895E8A56F
:102F2800F9A5A681B781BA93AA93D7CFE8A5F9A541
:102F3800A085B185BA93AA930895E4E3FBE0D5CFC1
:102F4800E8A5F9A5A285B385BA93AA93C6CF84E06C
:102F58000E94421528960895EFEFFFEF6FEF7FEF7D
:102F68000E947E19089580E10E9442156496089592
:102F7800FA93EA93E0910F070895E0910F07F7CECF
:102F8800FE013296FA93EA930895A481B581BA9323
:102F9800AA930895FE013496B5CFBA93AA93FACFAF
:102FA8000E94EC18662777270E947E19F801089579
:102FB8000E942919662777279ECFA8970E9489190A
:102FC800DCCF8F01ECA5FDA5E0CFFE013496FA9386
:102FD800EA9308950E945B190E947E19D80108950A
:102FE8001596F901EE0FFF1F85CE0E94EC18662793
:102FF80077270E947E19D80108950E94291966270B
:1030080077270E947E19E0910F07EF5F37CFF9010C
:103018003396ACA5BDA5EE0FFF1F6CCEFA93EA93CD
:10302800ACCEE5E1EA930C94E015E2ECFBE05DCF71
:103038001D96F901EE0FFF1F5DCE0E945B19DF019F
:10304800CB010ACE0E943019FA93EA930E949B158D
:10305800662777270E947E19E0910F07EF5F0ECF52
:103068000E945B190E947E190895E0910F07EF5F97
:1030780005CF8CE00E9442156096C9CF2A93EA8951
:10308800FB89FA93EA93EE89FF8909950895ED89FA
:10309800FE893497ED8BFE8B0895EA89FB89FA93B4
:1030A800EA93EE89FF8909950895AD89BE8914963A
:1030B8000E945719EE83FF83FA93EA930895E887ED
:1030C800F9876A877B870895E885F9856A857B850E
:1030D800AC85BD858E859F850895DE011C960E946E
:1030E80084180E9457190895E991F991309639F09A
:1030F8008DEC9AE00197F1F7A8953197C9F70895F3
:103108000024AF0DB01D0895F09560957095E19578
:10311800FF4F6F4F7F4F0895EE230E2EEA2F19F0C1
:10312800EE0F0A94E9F70895EE230E2EFD01BC0177
:1031380031F075956795F795E7950A94D1F7089555
:10314800EE230E2EFD01BC0131F076956795F795BB
:10315800E7950A94D1F70895EE0FFF1FEE0FFF1FB2
:10316800EE0FFF1F0895EE0FFF1F661F771F0895CC
:10317800FE2FFF0FFF0B6F2F7F2F08956F2F660F06
:10318800660B762F08957A9F702D6B9F700DF89FB0
:10319800700DE99F700D6A9F602D710DFB9F600D8A
:1031A800711DE89F600D711D8827FA9FF02D610D34
:1031B800781FEB9FF00D611D781FEA9FE02DF10D40
:1031C800681F781F08955CD0DEDF0EF49DDF089538
:1031D8000024112490E1AA0FBB1F001C111C0E1A19
:1031E8001F0A18F40E0E1F1E01C0A1609A9599F7C8
:1031F800FD01D00108953F934F935F93002411245C
:103208004427552730E2AA0FBB1F881F991F001CAF
:10321800111C441F551F0E1A1F0A460B570B28F482
:103228000E0E1F1E461F571F01C0A1603A9559F781
:10323800FD01BC01D001CA015F914F913F910895F2
:103248001FD0D9DF0EF460DF0895C2DFFD010895B5
:10325800D2DFFD01BC010895E89497FF09C0A0954D
:10326800B09580959095AF5FBF4F8F4F9F4F6894F3
:1032780077FD4ADFC0DFFD01BC010EF445DF08958C
:10328800E89477FF02C040DF689497FF0BC00024E2
:10329800A095B095809590951196801D901D00F889
:1032A800039400FA0895ED91FC9111970895ED911A
:1032B800FD916D917C9113970895ED91FD916D911C
:1032C8007D910895ED93FD936D937C9308957E937E
:1032D8006E93FE93EE9308950590F491E02D089572
:1032E800E881F9816A817B810895E883F9836A839B
:1032F8007B8308957A936A93FA93EA9308953097B3
:103308006040704008955A934A933A932A931A93C7
:103318000A9308955D814C813B812A811981088136
:103328000895AC0FBD1F05900D928A95E1F7089599
:00000001FF
