:040000000C940C0848
:100004000C9400000C9400000C9400000C9400006C
:100014000C9400000C9400000C9400000C9400005C
:100024000C9400000C9400000C9400000C9400004C
:100034000C9400000C9400000C9400000C94190B18
:100044000C9400000C9400000C9400000C94990A89
:100054000C9400000C948D0A0C9400000C94000085
:100064000C9400000C9400000C9400000C949F0A63
:100074000C9400000C94930A0A23232323232323A0
:10008400232323232323232323232323232323233C
:10009400232323232323232323232323232323232C
:1000A40023230A23204B6E756572722041470A236D
:1000B40020524D204949202D20496E672E204C2E78
:1000C4004D656C69636861722C20496E672E2050FF
:1000D4002E4B65726E646C2000000A2323232323B5
:1000E40023232323232323232323232323232323DC
:1000F40023232323232323232323232323232323CC
:10010400232323230000000001000100010002005A
:100114000100030001000400020006000200620066
:100124000200C6010200C8010400CC010400B202AE
:100134000200B4020400B80204009E030200A003FB
:100144000400A4030400010C0200424F4152440085
:100154000000000000000000002613524553554DD6
:10016400450000000000000000009513564F4C5459
:100174004147450000000000000000EA13435552C7
:1001840052454E5400000000000000004314504F3C
:1001940057455200000000000000000000901400C9
:1001A400000000000000000000000000000000004B
:1001B400000000000000000000000000000000003B
:1001C400000000000000000000000000000000002B
:1001D40000000000000000008080C0606030181C37
:1001E40018306060C0808000000000000000000043
:1001F40000000000000000000000000000000000FB
:1002040000000000000000000000000000000000EA
:1002140000000000000000000000000000000000DA
:1002240000000000000000000000000000000000CA
:1002340000000000000000000000000000000000BA
:1002440000000000000000000000000000000000AA
:100254000080E070383C1E1F1F9F0C0C0E0EFEFE2B
:10026400FE0E0E0C0C9F1F1F1E3C3870E080000019
:10027400000000000000000000000000000000007A
:10028400000000000000000000000000000000006A
:10029400000000000000000000000000000000005A
:1002A400000000000000000000000000000000004A
:1002B400000000000000000000000000000000003A
:1002C4000000000000000000000000000000F0FE3C
:1002D400FF07000000F8FEFF010000000000FFFF20
:1002E400FF000000000001FFFEF800000007FFFE11
:1002F400F00000000000000000000000000000000A
:1003040000000000000000000000000000000000E9
:1003140000000000000000000000000000000000D9
:1003240000000000000000000000000000000000C9
:1003340000000000000000000000000000000000B9
:1003440000000000000000000000000000000103A5
:100354000F3E78F0E0E0C78F8E9000000000FFFFB2
:10036400FF00000000908E8FC7E0E0F0783E0F039E
:100374000100000000000000000000000000000078
:100384000000000000000000000000000000000069
:100394000000000000000000000000000000000059
:1003A4000000000000000000000000000000000049
:1003B4000000000000000000000000000000000039
:1003C4000000000000000000000000000000000029
:1003D40000000000077FFFF1010303030303030789
:1003E40003030303030301F1FF7F07000000000080
:1003F40000000000000000000000000000000000F9
:1004040000000000000000000000000000000000E8
:1004140000000000000000000000000000000000D8
:1004240000000000000000000000000000000000C8
:1004340000000000000000000000000000000000B8
:100444000000F0F8FC3E0E0F070707070E3EFCF80D
:10045400E0C0E0E0E0707F7F7060E0C0C0C0C0C07A
:10046400C0C0C0C0E060707F7F70E0E0E0C0E0F832
:10047400FC3E0E070707070F0E3EFCF8F0000000D5
:100484000000000000000000000000000000000068
:100494000000000000000000000000000000000058
:1004A4000000000000000000000000000000000048
:1004B4000000000000000000000000000000000038
:1004C40000000000000000000000000000001F1FEA
:1004D4003F397070E0E0E0C0C0808000000101019D
:1004E400010100008080C0C0E0E0E07070393F1F6F
:1004F4001F000000000000000000000000000000D9
:1005040000000000000000000000000000000000E7
:1005140000000000000000000000000000000000D7
:1005240000000000000000000000000000000000C7
:1005340000000000000000000000000000000000B7
:1005440000000000000000000000000000000000A7
:10055400000000000000010103030707070E0C1C44
:100564000C0E070707030301010000000000000050
:100574000000000000000000000000000000000077
:100584000000000000000000000000000000000067
:100594000000000000000000000000000000000057
:1005A400000705070000000000000000002F000005
:1005B4000007000700147F147F14242A7F2A12C422
:1005C400C810264636495522500005030000001C79
:1005D4002241000041221C0014083E081408083E71
:1005E4000808000050300010101010100060600067
:1005F4000020100804023E5149453E00427F40005D
:1006040042615149462141454B311814127F10274C
:10061400454545393C4A4949300171090503364984
:10062400494936064949291E003636000000563627
:10063400000008142241001414141414004122145C
:10064400080201510906324959513E7E1111117EA9
:100654007F494949363E414141227F4141221C7F25
:10066400494949417F090909013E4149497A7F08BD
:1006740008087F00417F41002040413F017F08146A
:1006840022417F404040407F020C027F7F040810DB
:100694007F3E4141413E7F090909063E4151215EA9
:1006A4007F09192946464949493101017F01013F22
:1006B4004040403F1F2040201F3F4038403F6314CC
:1006C40008146307087008076151494543007F41D6
:1006D4004100552A552A550041417F000402010278
:1006E4000440404040400001020400205454547827
:1006F4007F484444383844444420384444487F388C
:1007040054545418087E0901020C5252523E7F0878
:1007140004047800447D40002040443D007F1028BC
:10072400440000417F40007C041804787C080404E1
:100734007838444444387C14141408081414187C7D
:100744007C080404084854545420043F4440203C8A
:100754004040207C1C2040201C3C4030403C44282D
:100764001028440C5050503C4464544C44000A2318
:100774002048573A2000436F6D6D4D6F64756C00CF
:10078400207600312E3130000A232053573A2000BE
:1007940054657374487700312E3030000A493A208A
:1007A40053797374656D2073746172742E2E000A0C
:1007B400493A312E62797465202578000A493A3223
:1007C4002E62797465202578000A493A332E6279BD
:1007D4007465202578000A493A342E6279746520BC
:1007E4002578000A493A352E627974652025780007
:1007F4000A493A362E62797465202578000A493A06
:10080400372E62797465202578000A493A382E62B9
:10081400797465202578000A3D3D3D3D3D3D3D3DD3
:100824003D3D3D3D3D3D3D3D3D3D3D3D3D3D3D3DF4
:100834003D3D3D3D3D3D3D3D3D3D3D3D3D3D3D3DE4
:100844003D3D3D3D3D000A45453A206E656A736570
:100854006D207265616479202578000A45453A2047
:10086400737061746E6120616472657361000A451E
:10087400453A20737061746E656A207A61636174AD
:10088400656B00000A6372656174652070726F6342
:10089400657373206E722E2564202E2E00000100D5
:1008A40001000A2D000A2B000A493A2053656E64A0
:1008B400427566666572662829000A493A205072B4
:1008C400696A6D757420737472696E673A20000AE0
:1008D400453A204E65646F7374617465636E792064
:1008E4006275666665722C20737472696E673A006D
:1008F4000A453A207772697465207761736E7420B3
:1009040073756363657366756C6C000A453A20778A
:10091400726F6E67206F7065726174696F6E2028E4
:10092400726561642F777269746529000A453A67B4
:100934006F6F642C206E657874207374657020303A
:10094400782578000A453A77726F6E672C206F6EAF
:10095400636520616761696E000A453A20777269B0
:100964007465206661696C656421000A453A205308
:10097400594E4328332E6279746529203A2025780C
:10098400000A453A20414444524553532028322E0C
:100994006279746529000A3D3D3D3D3D3D3D3D3D47
:1009A4003D3D3D000A6672657175656E63653A206A
:1009B4002575000A74656D70657261747572653AA7
:1009C40020307825782C2025752E2575B043000A13
:1009D400766F6C746167653A20256C64207C2025F1
:1009E4006C64207C20256C64000A63757272656EE9
:1009F400743A20256C64207C20256C64207C20259E
:100A04006C640000496E696369616C697A6163654D
:100A1400204F4B006672656B76656E63653A2020E5
:100A24002564202020202020004E656A73656D20F7
:100A3400706F76696E656E2062FD742074616B6FF1
:100A440076FD2C206A616BFD206279636820706FEB
:100A5400646C65206F737461746EED6368206C69F7
:100A640064ED206DEC6C2062FD742E204A652074C8
:100A74006F206A656A696368206F6D796C2C2061E8
:100A8400206E65206D6F6A652073656C68E16EED9C
:100A9400202D2052696368617264204665796E6D09
:100AA400616E0020202020202020202020202020D3
:100AB400202020202025752F257500000003170312
:100AC4002E0345035C0373038A03A1032020202023
:100AD4002020202020202020202020202020202012
:100AE40020200000202020202020524D494920426F
:100AF4004F41524420202020200020202020203D4F
:100B04003D3D3D3D3D3D3D3D3D3D3D2020202000C2
:100B1400204857207665722E3A2000312E3130005D
:100B2400205357207665722E3A2000312E30300043
:100B340020202020202020202020202020202020B1
:100B440020202020202020202020002049503A204E
:100B540025752E25752E25752E25752020202020FF
:100B640020202020202000204D41433A20253032EF
:100B740058253032582530325825303258253032F5
:100B840058253032582020200020202020202020EA
:100B9400524553554D4520202020002055206C6996
:100BA4006E65733A202575202020202020202020E7
:100BB400002049206C696E65733A20257520202039
:100BC40020202020202000204672657175656E6308
:100BD400653A2025752E257520487A20202020206E
:100BE40020002054656D70657261747572653A20D9
:100BF40025752E2575B0432020202020200020209C
:100C04002020202020564F4C5441474520202020AE
:100C1400202020002020202020203D3D3D3D3D3D42
:100C24003D3D3D2020202020200020202020202089
:100C34004C313A2025752E2575205B565D202020E9
:100C440020002020202020204C323A2025752E25FB
:100C540075205B565D2020202000202020202020AD
:100C64004C333A2025752E2575205B565D202020B7
:100C740020002020202020202043555252454E544D
:100C84002020202020202020002020202020203D63
:100C94003D3D3D3D3D3D3D3D202020202020200088
:100CA4002020202020204C313A2025752E2530325A
:100CB40075205B415D202020202020002020202062
:100CC40020204C323A2025752E25303275205B4188
:100CD4005D202020202020002020202020204C33B4
:100CE4003A2025752E25303275205B415D20202069
:100CF400202020002020202020202020504F574555
:100D040052202020202020202020002020202020CD
:100D1400204C313A20256C642E2564205B575D20DD
:100D24002020002020202020204C323A20256C64F2
:100D34002E2564205B575D202020002020202020C9
:100D4400204C333A20256C642E2564205B575D20AB
:100D54002020002020202020202020454E455247DE
:100D64005920202020202020200020202020202066
:100D74004C313A202575205B57685D2020202020C7
:100D8400002020202020204C323A202575205B575B
:100D9400685D2020202020002020202020204C33AB
:100DA4003A202575205B57685D20202020200020F4
:100DB400202020202020504F5745522046414354A4
:100DC4004F52202020002020202020203D3D3D3D6A
:100DD4003D3D3D3D3D3D3D3D3D3D2020002020200D
:100DE4002020202056524D53202020202020202037
:100DF400202020002020202020204C313A20256C67
:100E040075205B565D2020202020002020202020FB
:100E1400204C323A20256C75205B565D2020202022
:100E240020002020202020204C333A20256C7520DF
:100E34005B565D2020202020002020202020202020
:100E440049524D5320202020202020202020200003
:100E54002020202020204C313A20256C75205B4135
:100E64005D2020202020002020202020204C323A09
:100E740020256C75205B415D20202020200020204F
:100E8400202020204C333A20256C75205B415D20C6
:100E940020202020002020202020202041435420F6
:100EA400202020202020202020202000202020205E
:100EB40020204C313A20256C64205B575D20202093
:100EC4002020002020202020204C323A20256C6451
:100ED400205B575D2020202020002020202020207F
:100EE4004C333A20256C64205B575D202020202061
:100EF400002020202020202041505020202020208D
:100F040020202020202020002020202020204C31C0
:100F14003A20256C64205B56415D2020202020006F
:100F24002020202020204C323A20256C64205B565F
:100F3400415D2020202020002020202020204C3330
:100F44003A20256C64205B56415D2020202020003F
:100F54002020202020204541504F532C2045414E35
:100F6400454720202020002020202020203D3D3DFA
:100F74003D3D3D3D3D3D3D3D3D2020202000202088
:100F84004C313A20256C64202C20256C64202020D0
:100F9400202020200020204C323A20256C64202C74
:100FA40020256C64202020202020200020204C3389
:100FB4003A20256C64202C20256C642020202020DD
:100FC4002020000001002D4E414E00494E460000F5
:100FD40001008C05A20801008D05A4081700000378
:100FE400D00A17001703D00A17002E03D00A1700DF
:100FF4004503D00A17005C03D00A17007303D00A14
:1010040017008A03D00A1700A103D00A0100C505FE
:10101400C80F0000F894EE27EFBBF1E0F5BFE5BF81
:10102400F8E1A895A4B7A77FA4BFF0936000E0936C
:1010340060008DE0A2E0BB27ED938A95E9F780E09C
:1010440098E0A0E0B1E0ED930197E9F7E4EDFFE06B
:1010540085919591009761F0A591B59105901590B2
:10106400BF01F00105900D920197E1F7FB01F0CF6C
:10107400E0E0EEBBEFEFEDBFE8E0EEBFC0E0D3E0B1
:101084000C9444080E94BF080E94050C0E94000CA6
:101094000E944F0C0E94260F0E94C212F894E4E6AC
:1010A400F0E0FA93EA930E942B1A0E94A50A0E9488
:1010B4008C17E1E9FCE00E9493170E948C17E1EB86
:1010C400F0E10E949317E8ECF0E060E070E00E9429
:1010D4003F1BE4E2FCE00E949317E8EEF3E060E0DB
:1010E40070E00E943F1BEEE0FCE00E949317E4EFE7
:1010F400F1E060E070E00E943F1BEAECF2E10E9444
:101104009317E0EDF7E0FA93EA930E942B1AE0E0DC
:10111400EA93ECE7F0E00E949717E2E7F7E00E9419
:101124009717EAE7F7E00E949717E4E8F7E00E94D0
:101134009717E7E8F7E00E949717ECE8F7E00E94BA
:101144009717E4E9F7E00E949717E4E8F7E00E94B4
:101154009717EBE9F7E00E949717EEEDF0E00E9495
:101164009E170E94C60AE0E0EA93E0EAF7E00E94D4
:101174009E170E94B810FDCFFFCFE0E8E093610016
:10118400E0E0E0936100E2B9E1B9E5B9E4B9E8B9B6
:10119400E7B9EBB9EAB9E4BDE5BDE6BDE7BDE8BD35
:1011A400E0938000E0938100E0938500E093840065
:1011B400E0938700E0938600E0938900E093880041
:1011C400E0938B00E0938A00E093B600E093B000D4
:1011D400E093B100E093B200E093B300E093B40075
:1011E400E0936900EDBBE0936800E0936E00E09348
:1011F4006F00E0937000E093C000E8E0E093C1006A
:10120400E6E0E093C200E0E0E093C500E5E0E093AF
:10121400C400E0E8E0BFE0E0E0937B000895E881EB
:10122400E03011F40C9419090E94320902C00E94A2
:101234001D09219608950E944809E0E0E0931705EE
:10124400E0931805E8EDE093C100E1E0E0939F042A
:10125400E0E0E093A104E093B304E093B4040895C0
:101264000E945109E9E1F5E0A0E0B0E0A083B18378
:10127400E8EDE093C900E1E0E093A004E0E0E0934E
:10128400A204E5EBF4E0A083B1830895E3EAF4E07B
:10129400FA93EA93E7EBF4E00E94A2170895EBEACD
:1012A400F4E0FA93EA93E7EEF4E00E94A2170895BB
:1012B400AA81A23010F00C946809EA810E94AA174E
:1012C400EA0FFB1FA881B981A083B18323960895F7
:1012D4000E94571BEC81E03011F40C9489090E94A0
:1012E400B0170E94671A0E94671AE050F0446745DD
:1012F4007F4F7F936F93FF93EF930E94B517AF9146
:10130400BF918F919F910E94BE1731E019C00E9436
:10131400B517E050F04467457F4F7F936F93FF9379
:10132400EF930E94B017A0E1B0E080E090E00E944B
:10133400711AAF91BF918F919F910E94BE1730E0B7
:10134400E985E03011F40C94B5090093CC001093B6
:10135400CD00E091C000ED7FE093C000A0ECB0E0D0
:101364000E94C6170DC00093C4001093C500E091FD
:10137400C800ED7FE093C800A8ECB0E00E94C61757
:101384000E945E1B2A9608950E94CE17E156FB4FD9
:10139400E081E03011F00C94D009F6CFE981E0301F
:1013A40011F40C94E009E091C800E07211F00C947F
:1013B400DC09F9CFE881E093CE000AC0E091C000D7
:1013C400E07211F00C94E709F9CFE881E093C600CC
:1013D400229608950E94CE170E94D117EA81EA93BB
:1013E4000E94C90B229608950E94D817A1E0A083F9
:1013F400E881EA930E94CE170E94D1170E94840BC1
:10140400EA930E94C60921960895E881F981E4913E
:10141400E03011F40C942B0AEA81E03011F40C94BE
:101424001F0AE091C800E07211F00C941A0AF9CF77
:101434000E94DD17E093CE000BC0E091C000E07283
:1014440011F00C94260AF9CF0E94DD17E093C60030
:10145400DCCF239608950E94D817E081E03011F480
:101464000C94630A0E94E5170E94601AE955FB4F29
:10147400DF010E94221B309711F40C94580AE88172
:10148400E03011F40C944F0AEBEAF4E0FA93EA9397
:101494000E94840BE093CE0008C0E3EAF4E0FA93E0
:1014A400EA930E94840BE093C6000AC00E94D817F6
:1014B400A0E0A0830E94E517E156FB4FA1E0A083C2
:1014C40006C00E94E517E156FB4FA1E0A0832196D8
:1014D40008951A93E981E03011F40C94740A109180
:1014E400CE0002C01091C600E9810E94AA170E9492
:1014F400E817309711F40C948A0AE9810E94AA171C
:101504000E94E817FF93EF931A93EF91FF910995C7
:101514001881229608950E94ED17E0E00E94FB17BF
:1015240018950E94ED17E1E00E94FB1718950E94A0
:10153400ED17E0E00E940C1818950E94ED17E1E009
:101544000E940C1818951A93E2E0E4BDE5E0E5BDAD
:10155400E0E0E6BDEBE6E7BDE0E0E8BDE2E0E09315
:101564006E00E2E3F0E0E0931B05F0931C0510E04D
:101574001A3010F00C94C40A0E941D18A0E0A08335
:101584001F5FF6CF19910895789408950E94571B10
:1015940010E01A3010F00C94150B0E941D189F01D6
:1015A400D901EC91E03011F00C94130BE1E0EC93D1
:1015B400EC81FD81D9011196ED93FC930E942318CF
:1015C40010F00C94EB0A0E942F18EE83FF836887B7
:1015D40079870E94231810F00C94F50AE1E0F0E0FA
:1015E40060E070E002C00E943418D90113960E9492
:1015F400311B0E94231810F00C94050BE1E0F0E07D
:1016040060E070E002C00E943418D90117960E946D
:10161400311BE8E8F8E00E943D180E945E1B2A9600
:1016240008951F5FB6CF0E945E1B2A9608950E94FC
:10163400ED170E94551BE0911B05F0911C05309796
:1016440011F40C942F0BABE1B5E0ED91FD913197C2
:10165400FE93EE930E944A181895E0E0E0936E0022
:1016640010E01A3010F00C94630B0E941D189F01B7
:10167400D901AC91A13011F00C94610BD9011796EA
:101684000E942C1B3197604070400E94361B0E94C0
:10169400511B11F00C94610BD901E2E0EC9311960B
:1016A4004D915C91FA010995D90113960E94261B6C
:1016B400D90117960E94311BD901E1E0EC931F5F19
:1016C400D0CFE2E0E0936E000E944A181895F89497
:1016D400EA81FB81AC81BD81ED93FC93E881F981C2
:1016E400AC81BD811296ED93FC93AC81BD811696BD
:1016F4000E945B18AC81BD8114960E945B1878949B
:10170400269608951A9310E0F894A981BA81149644
:101714000E94221B309711F40C94C40BA981BA8146
:101724000D901C90A981BA8116960E94221BD001AB
:10173400AE0FBF1F1C91A981BA8116960E94601832
:101744000E94661812960E94221B0E161F0610F4A1
:101754000C94BC0BE981FA813696BF01008011809C
:10176400E981FA81A281B381F001EA1BFB0BDB0161
:10177400ED93FC93A981BA811496ED91FD91319773
:10178400FE93EE937894E12F188123960895F894AC
:10179400E981FA8104801580A981BA8112960E9498
:1017A400221B0E161F0610F00C94FC0BA981BA81A3
:1017B4000E94221BFF93EF930E94661814960E94C6
:1017C400221B0E0E1F1EA981BA8112960E94221B93
:1017D400D0010E94D81AAF91BF91EA0FFB1FA881D4
:1017E400A083A981BA8114960E9460187894EFEFBF
:1017F400239608957894E0E0239608953E98469AB7
:101804003F98479A0895569A5E9A579A5F9A0A9A09
:1018140012980B9A13980895EBB1A0E8EA27EBB954
:10182400E0918B05E03011F40C94200CEBB1A0E4B2
:10183400EA27EBB9E0E0E0938B0503C0E1E0E09335
:101844008B050895379910C0E0918C05E03011F4B0
:101854000C94350CE6EAF8E00E946D180E94FC1224
:10186400E0E0E0938C0503C0E1E0E0938C05369959
:1018740010C0E0918D05E03011F40C944A0CE9EAB3
:10188400F8E00E946D180E94F712E0E0E0938D05E5
:1018940003C0E1E0E0938D0508951A93EAB1EC7F6B
:1018A400EAB9EBB1E360EBB9529AEBB1E360EBB99F
:1018B400E1E0EA930E941109E1E0EA93E0E8F5E24D
:1018C40060E070E00E943F1BE0E0EA930E946A0936
:1018D400E1E0EA93E4ECFDE0FA93EA930E945A090A
:1018E40010E0143010F00C947E0C0E947418EB5627
:1018F400FB4F10831F5FF5CF10E0163010F00C94EF
:101904008C0CA9E9B4E00E947418EA0FFB1F108341
:101914001F5FF3CFE0E0E093BF0519910895A09114
:10192400BE05A63011F00C94990C0E94330E0E944F
:101934009C0C08950E94571B08EB13E0E091C0052E
:10194400EF5FE093C005E150E03011F00C94CF0C50
:10195400A0E03799A1E0EA2FEE0FAE2FE0E0369930
:10196400E1E0EA2B3E2FE0E2EA93EDB7FEB7FA930B
:10197400EA933F93E1E0EA930E94760D3F913AEABD
:10198400E0E1EA93EDB7FEB7FA93EA933F93E1E01F
:10199400EA930E94760D3F9194C0E13011F00C94CB
:1019A400E20CE0E3EA93F801E659FF4F0E9477184E
:1019B400E1E3EA93F801EA54FF4F0E94771881C0EB
:1019C400E23011F00C94FC0CE0E4EA93F801E854E2
:1019D400FF4F0E947718E1E4EA93F801E654FF4FC1
:1019E4000E947718E2E4EA93F801E454FF4F0E945E
:1019F400771867C0E33011F00C94160DE3E4EA9312
:101A0400F801E254FF4F0E947718E4E4EA93F801E6
:101A1400E054FF4F0E947718E5E4EA93F801EE538F
:101A2400FF4F0E9477184DC0E43011F00C94300D34
:101A3400E6E4EA93F801EC53FF4F0E947718E7E4D9
:101A4400EA93F801E853FF4F0E947718E8E4EA9319
:101A5400F801E453FF4F0E94771833C0E53011F0CA
:101A64000C944A0DE9E4EA93F801E053FF4F0E9415
:101A74007718EAE4EA93F801EC52FF4F0E947718D2
:101A8400EBE4EA93F801E852FF4F0E94771819C07B
:101A9400E63011F00C94630DECE4EA93F801BE9681
:101AA4000E947718EDE4EA93F801F2960E94771801
:101AB400EEE4EA93F801F6960E947718E0E0E093EA
:101AC400C005E2E0EA93EDB7FEB73197FA93EA93E3
:101AD4004F933F93E0E0EA930E94760D3F914F913C
:101AE4000E945E1B249608951A930A9303E5E1E08D
:101AF400EA93E3E5EA930E94EC09E1E0EA93E091DA
:101B0400BF05EF5FE093BF05EA930E94EC09E09103
:101B1400BF050E27E1E0EA93EE81E068EA930E94B4
:101B2400EC09ED810E27E1E0EA93EB81EA930E9450
:101B3400EC09EA810E2710E0EA811E1710F00C94DC
:101B4400B70DE1E0EA93AC81BD81EE27A10FBE1F82
:101B5400EC91EA930E94EC09AB81BC81EE27A10FC2
:101B6400BE1FEC910E271F5FE7CFE1E0EA930A93D3
:101B74000E94EC09E1E0EA930E94F60919810881C8
:101B840026960895E091BE05E03011F00C94D60D30
:101B9400A881A33511F00C94D50DE0E0E093BD05C8
:101BA400E1E0E093BE055BC0E13011F00C94E10D7F
:101BB400E881E0939905E2E0E093BE0550C0E2308D
:101BC40011F00C94EC0DE881E0939A05E3E0E093C6
:101BD400BE0545C0E33011F00C94080EA881AF3166
:101BE40010F40C94F90DE0E0E093BE050EC0E8811A
:101BF400E0939D05E03011F40C94040EE4E0E093CE
:101C0400BE0503C0E5E0E093BE0529C0E43011F051
:101C14000C94270EAEE9B5E0E091BD05F0E0EA0FC3
:101C2400FB1FA881A083E091BD05EF5FE093BD0594
:101C3400E150A091BD05E0919D05AE1710F40C9400
:101C4400260EE5E0E093BE050AC0E53011F00C94E1
:101C5400310EE881E093BC05E6E0E093BE052196F1
:101C64000895E0919A05E23011F00C943D0EE0E005
:101C7400E093990502C0E1E00895E0E00895249A14
:101C8400259A2698279AE3E5ECBD0895E881EEBDF0
:101C9400EDB5E07811F00C94500EFACFEEB5219624
:101CA40008950E94410E08950E94551B10E000E023
:101CB4002B98EA85F0E0EF702E2FE9855E2FEB85F7
:101CC400E795E0E0E795AE2FEE81E295E07FEA2B21
:101CD400E22B0E947D1888EB8A95F1F7113C11F0F4
:101CE4000C940D0F5A930E94480E1E2F123C11F0B3
:101CF4000C94070FEB85E03011F00C94950E30E056
:101D04003E3110F00C94940E84E191E00197F1F7C8
:101D1400E0E00E947D18113411F00C94920E02C080
:101D24003F5FEECF01C011E4113411F00C94020FA7
:101D340030E0EE81A1E00E944C1A3E1710F00C94A2
:101D4400D90E88EB8A95F1F7EB85E03011F00C940D
:101D5400B70EE0E00E947D18E02FAF81B885F0E077
:101D6400EA0FFB1F10830F5F20C0AB85A13011F079
:101D74000C94D30E2197A885B985EE27A00FBE1F1A
:101D84001C911A930E94480EE8830F5FA881A13426
:101D940011F40C94D10EE4EFF8E00E946D18219632
:101DA40004C0EFE0F9E00E946D183F5FC2CFAB853D
:101DB400A13011F00C94010F30E03E3110F00C947E
:101DC400F90E88EB8A95F1F7E0E00E947D181E3445
:101DD40011F40C94F30EE0E3F9E00E943D1807C0FF
:101DE40004C0E8E4F9E00E946D183F5FE6CF1134C7
:101DF40011F40C94010FEDE5F9E00E946D1804C094
:101E0400EFE6F9E00E943D1806C0E0E0EA93E5E859
:101E1400F9E00E949E172B9A88EB8A95F1F7E02F40
:101E24000E945C1B2C960895E0E0EA93EC81FD810E
:101E3400FA93EA93EC81FD81FA93EA93ED81EA93B4
:101E44000E94560E259608950E9482180E94530EF1
:101E5400239A2B9A0991199108950E94571BEC819A
:101E6400ADEDEA9FF001E854FC4F9F01E2E6F0E09B
:101E7400FA93EA93F901E659FF4F0E948718E1E0CB
:101E8400FCE0FA93EA93F901EC54FF4F0E9487189F
:101E9400E8ECF1E0FA93EA93F90176960E948D1842
:101EA400E4EBF2E0FA93EA93F9017A960E948D1832
:101EB400E0EAF3E0FA93EA93F9017E960E948D1822
:101EC400ECECF1E0FA93EA93F901B2960E948D18D2
:101ED400E8EBF2E0FA93EA93F901B6960E948D18C2
:101EE400E4EAF3E0FA93EA93F901BA960E948D18B2
:101EF400E6ECF1E0FA93EA93F901BE960E948718A2
:101F0400E2EBF2E0FA93EA93F901F2960E94871861
:101F1400EEE9F3E0FA93EA93F901F6960E94871842
:101F2400E0EDF1E0FA93EA93F901FA960E948D1834
:101F3400ECEBF2E0FA93EA93F901FE960E948D1815
:101F4400E8EAF3E0FA93EA93F901EE5BFF4F0E94AB
:101F54008D18E8EEF1E0FA93EA93F901EE5AFF4F97
:101F64000E948D18E4EDF2E0FA93EA93F901EA5A3B
:101F7400FF4F0E948D18E0ECF3E0FA93EA93F90125
:101F8400E65AFF4F0E948D18ECEEF1E0FA93EA93C3
:101F9400F901E25AFF4F0E948D18E8EDF2E0FA933E
:101FA400EA93F901EE59FF4F0E948D18E4ECF3E037
:101FB400FA93EA93F901EA59FF4F0E948D18D90167
:101FC400AC54BF4F0E94221BDF01ECE4F0E00E94FE
:101FD400961AD901AA54BF4FED93FC9310E0133025
:101FE40010F00C94AA100E949318EE0FFF1FEA0F32
:101FF400FB1FFF93EF93D90156960E9474180E9419
:102004009718ACEABEE180E090E00E94711A0E9449
:10201400A3180E94AE1AAF91BF91ED93FC930E9456
:10202400AA18EE0FFF1FEA0FFB1FFF93EF93D901CE
:1020340092960E9474180E949718A9E1B3E080E078
:1020440090E00E94711ADF01CB01E0E1F7E260E069
:1020540070E00E94AE1AAF91BF91ED93FC930E9481
:10206400AE180E94621AEA0FFB1FFF93EF93D90187
:10207400DA960E9474180E94B218ACE9B1E080E0CC
:1020840090E00E94911A0E94A3180E94D31AAF9163
:10209400BF910E94311BD901A053BF4F0E947418F5
:1020A4000E94621AEA0FFB1FFF93EF93D901AE5A05
:1020B400BF4F0E9474180E94B2187F936F93FF93CE
:1020C400EF93D901A25ABF4F0E9474180E94B2180C
:1020D400AF91BF918F919F910E94441B0E943B1A24
:1020E400AF91BF910E94311B0E9493180E94B918AE
:1020F400749714F00C9482100E9493180E94BC18D8
:102104000E94AA180E94B918329714F00C948E10E9
:102114000E94AA180E94BC180E94AE180E94B2180D
:10212400E230A0E0FA07A0E06A07A0E07A0714F022
:102134000C94A8100E94AE180E94621AAE0FBF1F22
:10214400E0E0F0E060E070E00E94311B1F5F47CFE9
:10215400E1E0E09394040E945E1B259608952B9879
:10216400E0E0EA930E942F0F2B9A0895E0919404E3
:10217400E03011F40C941B112297E8EBF3E0E883B0
:10218400F983EAE9F9E00E946D18E8EAF9E00E94AF
:10219400C1180E94C6180E94CB1884E00E943E1702
:1021A4002696E7EBF9E00E94C118AC54BF4F0E9499
:1021B400221B0E94CB18AE81BF810E94D0180E94BE
:1021C400D818AA85BB850E94D0180E94DF180E94E7
:1021D400E618E3EDF9E00E94C1180E94EB180E9492
:1021E400F018AE81BF810E94F5180E94F018AA85EC
:1021F400BB85A454BF4F0E94FA180E94E618EDEE66
:10220400F9E00E94C118A254BF4F0E94FA18AE818F
:10221400BF81A054BF4F0E94FA18AA85BB85AE5354
:10222400BF4F0E94FA180E94E618E0E0E09394047D
:10223400229608950E94FD18133010F00C942D116D
:102244000E9493180E94B918309711F40C942B1122
:102254000F5F1F5FF1CFE02F0E945E1B249608954D
:102264000E94FD18133010F00C9443110E94AA1818
:102274000E94B918309711F40C9441110F5F1F5F3D
:10228400F1CFE02F0E945E1B249608950A9A099AC2
:10229400249A119888EB8A95F1F7119A2C9A0E9446
:1022A400410E88EB8A95F1F70E94631188EB8A95B9
:1022B400F1F70E94D01188EB8A95F1F70E949612EB
:1022C4000895E3EAEA930E948E12E1EAEA930E94F7
:1022D4008E12E0ECEA930E948E12E4E2EA930E94EA
:1022E4008E12E1E8EA930E948E12EFE2EA930E94D2
:1022F4008E12EFE2EA930E948E12E7EAEA930E94BA
:102304008E120E94D0110E940419E0EB0E94081959
:10231400E5E0EA930E948E12E8E0FAE0FA93EA9389
:102324000E946312EFEAEA930E948E1208951A93B0
:1023340010E0183010F00C94B0110E940F191A9389
:102344000E94F111E12FA981BA81F0E00E94B9182D
:10235400FA93EA930E9451121F5FEBCF18812396E0
:1023640008956597FE01FA93EA93E7EAFAE0FA938F
:10237400EA93EA8D0E941419ED8D0E9414190E94AB
:102384001A190E940F19E7E0EA930E94F111FE0165
:10239400FA93EA930E945112679608951A930A9346
:1023A4000E94041910E0183010F00C94EE11E12F83
:1023B400E06B0E940819E1E0EA930E948E1200E0AB
:1023C400043810F00C94EC11E0E0EA930E949212AD
:1023D4000F5FF6CF1F5FE7CF0991199108950E940F
:1023E4000419EA81E061EA83EA930E948E12AA81C9
:1023F400A03111F00C940212E981E460E98302C077
:10240400E981E983E981EA930E948E12E881E06B15
:10241400E883EA930E948E12239608951A9310E09B
:10242400A981A03B11F00C941A12E0E0E9830CC0DE
:10243400A981A03210F40C942412AC3710F00C943F
:10244400241202C0E0E4E98310E0153010F00C948B
:102454004A12A981A03210F00C943C12E981A5E043
:10246400EA9FF001EC55FA4FDF010E9474180E94B4
:102474001F190CC0E981E052A5E0EA9FF001E6557E
:10248400FA4FDF010E9474180E941F191F5FDDCFED
:10249400E0E0EA930E949212188122960895A8819E
:1024A400B981EC91E03011F40C946112EA930E942A
:1024B4001012E881F9813196E883F983F0CF2296EE
:1024C4000895E881F981E491E03011F40C947612D6
:1024D400E881F981E491EA930E941012E881F9817C
:1024E4003196E883F983EDCF229608952C98E981FB
:1024F400E03011F40C948012129801C0129A85E213
:102504008A95F1F7E881EA930E94480E85E28A955C
:10251400F1F72C9A22960895E1E00E942519089576
:10252400E0E00E94251908950E94571B20E030E046
:102534002830E0E03E0710F00C94BE120E940F1900
:102544002A930E94F11110E0103810F00C94BB1281
:10255400A0E8A29FF001A39FF00DA12FB0E0EA0F25
:10256400FB1FEC55FE4FE491EA930E9492121F5F09
:10257400EBCF2F5F3F4FDCCF0E945E1B2496089564
:102584001A93E0E0E093C1050E944811199108955F
:10259400609780E1A0E0B0E0E0ECFAE00E94631B09
:1025A4001A93E091C105A1E1EA9FF001E25BFE4FBD
:1025B4003F960E943B1BFF93EF93FE013196FA93E3
:1025C400EA93EF91FF910995FE013196FA93EA930C
:1025D4000E949911E091C105EF5FEA93E5E0EA9367
:1025E4000E94B3111881619608950E942C190E94CB
:1025F400011308950E942C190E9415130895A981AE
:10260400BA81AC91E881AE1710F00C940F13A98134
:10261400BA81EC91EF5FEC9304C0A981BA81E0E048
:10262400EC9323960895A981BA81EC91E03011F0DE
:102634000C941F13E881EC9305C0A981BA81EC9135
:10264400E150EC93239608950E9482180E94331956
:10265400E8EEFAE00E943A190E9443190E944A19CE
:10266400E4E1FBE00E943A190E944A19EFE1FBE021
:102674000E944F190E944A19E8EFFAE00E944F198C
:102684000E945619E4E2FBE00E943A190E9456198E
:10269400EFE2FBE00E944F190E945619E8EFFAE0BE
:1026A4000E944F190E945B190E946219EFE4FBE03B
:1026B400FA93EA93E09195040E941419E091960428
:1026C4000E941419E09197040E941419E09198044F
:1026D4000E94141980E10E94071764960E946719EA
:1026E400EBE6FBE0FA93EA93E09199040E94141953
:1026F400E0919A040E941419E0919B040E94141919
:10270400E0919C040E941419E0919D040E94141904
:10271400E0919E040E94141988E10E9407176C96A8
:102724000E946E1908950E9482180E943319EDE8E0
:10273400FBE00E943A190E9443190E944A19EFE9EA
:10274400FBE0FA93EA930E941C110E9414190E9460
:1027540080190E945619E5EBFBE0FA93EA930E9474
:1027640032110E9414190E9480190E945B190E9460
:102774006219EBECFBE0FA93EA93D8010E94C618C5
:10278400DF01E8EEF3E00E94961A0E94CB18D8010C
:102794000E94C618DF01E8EEF3E00E94D81A0E94F6
:1027A400CB180E941A190E946719E6EEFBE0FA930F
:1027B400EA93D8010E94D0180E94D818D8010E9428
:1027C400D0180E94DF180E941A190E946E190895E9
:1027D4000E9482180E943319E2E0FCE00E943A1938
:1027E4000E948719E8E1FCE00E943A190E944A1904
:1027F400E7E3FBE00E943A190E945619EEE2FCE07E
:10280400FA93EA93D8010E94EB180E948C19D8011C
:102814000E94EB180E9490190E941A190E949419A0
:10282400E6E4FCE0FA93EA93D8010E94F5180E94CA
:102834008C19D8010E94F5180E9490190E941A1947
:102844000E949B19EEE5FCE0FA93EA93D801A454A4
:10285400BF4F0E94221B0E948C19D8010E94F518B8
:102864000E9490190E941A190E946719E7E3FBE07D
:102874000E943A190E949E19E7E3FBE00E94A31903
:1028840008950E9482180E943319E6E7FCE00E9432
:102894003A190E948719EDE8FCE00E943A190E9457
:1028A4004A190E94AD190E945619E4EAFCE0FA9311
:1028B400EA930E94B0190E94D8180E94B0190E948D
:1028C400DF180E941A190E949419E0ECFCE0FA93B4
:1028D400EA930E94B9190E94D8180E94B9190E945B
:1028E400DF180E941A190E949B19ECEDFCE0FA9380
:1028F400EA930E94C2190E94D8180E94C2190E9429
:10290400DF180E941A190E9467190E94AD190E94CB
:102914009E19E8E3FBE00E94A31908950E9482181F
:102924000E943319E8EFFCE00E943A190E948719CB
:10293400EDE8FCE00E943A190E944A190E94AD1980
:102944000E945619EFE0FDE0FA93EA930E94CB1936
:102954000E94D3190E94CB190E94D8190E941A19F7
:102964000E949419E7E2FDE0FA93EA930E94DF19CA
:102974000E94D3190E94DF190E94D8190E941A19C3
:102984000E949B19EFE3FDE0FA93EA93D801A45364
:10299400BF4F0E94261BDF01CB010E942F180E940B
:1029A400D3190E94CB190E94D8190E941A190E94A7
:1029B40067190E94AD190E949E19E8E3FBE00E948A
:1029C400A3190895E091C000E07211F00C94EB1487
:1029D400F9CFE881E093C60021960895EA81EA934D
:1029E4000E94E414A881B9810E9460182396089576
:1029F4001A930A93AA81BB8112960E94221B3097D4
:102A040011F40C943115AA81BB8114960E94221BE7
:102A14008F01309711F00C9410150EC00230E0E0D5
:102A24001E0710F40C943015F80131978F01AA8118
:102A3400BB811496ED93FC93AA81BB8112960E94EC
:102A440060183197AC81A083AA81BB810E94221BAC
:102A5400FF2312F40C9430150E94601806C0AA815A
:102A6400BB81EFEFFFEFED93FC931981088125966D
:102A740008952B970E94551B10E0A989BA890E94DA
:102A84005B18EF89F88D3196EF8BF88F3197E491CD
:102A94002E2FE03011F40C94FF16E12FE03011F0EA
:102AA4000C945D15253211F00C945A1511E002C0F6
:102AB4000E94E719A1C1E13011F00C947F15253271
:102AC40011F00C9469150E94E71910E095C112E009
:102AD40040E000E02D3211F00C94721501E08CC13D
:102AE4002B3211F00C9478154BE286C1203211F090
:102AF4000C947E1540E280C104C0E23011F00C94C5
:102B04008C1550E013E0203311F00C948B15006801
:102B140073C104C0E33011F00C94A915203310F4F0
:102B24000C9499152A3310F00C94991501C007C020
:102B3400AAE05A9F502DE22FE0535E0F5DC12C3660
:102B440011F00C94A815026015E056C104C0E530DC
:102B540011F00C94FE16E22FE33611F00C94BC1520
:102B64000E94F019ED89FE89A481AA930E94F619A6
:102B740042C104C0E33711F00C94C9150E94F01946
:102B84000E94FE190E946F171E2F0DC004C0E0376B
:102B940011F00C94DB150E94F0190E94FE190E949A
:102BA40079171E2F08600F77E0E0E88B30E07EC0D5
:102BB40004C0E43611F00C94E01504C0E93611F0B9
:102BC4000C94E615046004C0E53711F00C94FF156D
:102BD400EAE0E88B01FF08C0E0E0FAEC6AE97BE395
:102BE4000E94081A1AE026C0E0E1F7E260E070E013
:102BF4000E94081A15E01EC004C0E83511F00C94B8
:102C04000516086004C0E83711F00C94FD16E0E1E5
:102C1400E88B01FF08C0E0E0F0E060E070E10E94B2
:102C2400081A18E007C0E0E0F0E160E070E00E94FC
:102C3400081A14E001FF0AC00E94F019AD89BE8988
:102C440014960E94261B0E940D1A19C002FF0CC084
:102C54000E94F019AD89BE8914960E94221B0E941D
:102C64006C1A0E940D1A0BC00E94F019AD89BE891E
:102C740014960E94221B662777270E940D1A02FFD2
:102C840015C0AF85AA2312F00C945116EC85FD856E
:102C94006E857F850E94441A0E940D1A4DE24030D1
:102CA40011F40C9457161F5F01C00B7F00FD13C075
:102CB400151710F00C946D1607FF08C002FF04C02E
:102CC4000B7F242F115001C020E301C020E20E9499
:102CD400E7195150EDCF312FE889E03011F00C9411
:102CE4008E16303011F40C948D1603FF06C0EE815D
:102CF400FF812591EE83FF8305C0AE81BF812D91B5
:102D0400AE83BF830E94E719503011F40C948B16E4
:102D140051503150E6CF63C00E94121A0E94AE1A7D
:102D24002E2F2A3010F40C949D1603FF02C0295C48
:102D340001C0295A01C0205D04FF01C02CC0213309
:102D440010F00C94B416A885B9858A859B85A130AA
:102D5400E0E0BE07E0E08E07E0E09E0711F40C948B
:102D6400B41601C00CC0531710F40C94BC1600FD2B
:102D740001C001C017C020E207FF0DC020E30061BD
:102D840002FF09C00B7F4A930E94F619503011F4D8
:102D94000C94CD1651500E94E719503011F40C9444
:102DA400D416515031500E94121A0E94E91A0E94FE
:102DB4000D1AE889A885B9858A859B85FF2766272A
:102DC40077270E94AE1A0E94081AE885F9856A8559
:102DD4007B850E94511B11F40C94F1169DCF00FFCA
:102DE4000AC0503011F40C94FD165150E0E2EA93FD
:102DF4000E94F619F6CF10E044CEA989BA890E9440
:102E0400221B0E945C1B69960895FF92F82E269758
:102E14000E94571B0E941B1A309711F00C9419172B
:102E2400EFEFFFEF0E945E1B2A96FF900895DE01EC
:102E340016960E94371A8D010E941B1AEE83FF8397
:102E4400E0E0E887E987DE011A960E94221AEAEF99
:102E5400F4E1FA93EA93FE013A96FA93EA930E9414
:102E64003B159F01AE81BF81E0E0EC93F9010E9424
:102E74005E1B2A96FF900895FF92F82E26971A93C8
:102E84000A93DE0114960E94371A8D01E0E0EC8368
:102E9400ED83EE83EF83DE0118960E94221AE0EFA1
:102EA400F4E1FA93EA93FE013896FA93EA930E94C6
:102EB4003B15198108812896FF900895E991F991AD
:102EC400A991B991CD016D916623E9F71197059008
:102ED4000D920020E1F7FC010895A991B991EE2724
:102EE400FF276D91662311F03196FBCF0895AA2731
:102EF400BB27E991F9910590002011F01196FBCFC1
:102F0400FD010895E991F99130971AF4E095F0954F
:102F140031960895E8EBFBE060E070E00E943F1B0F
:102F24000895FA93EA930C94C80AFA93EA930E94D8
:102F3400070AE0E0EA930895FA93EA930C94070AE7
:102F4400FA93EA93E0E3F0E0FA93EA930C94690BC2
:102F5400A7E1B5E0F0E0EE0FFF1F0895ED81FE81DB
:102F64006F81788508950E94B017A8E0B0E080E0F2
:102F740090E00E94711A08950E94AE1AE150F04048
:102F8400604070408F0108950A2EAC91E32FEE0F3C
:102F9400EA2BA02DEC930895E981F0E008950E94B6
:102FA400601AED55FB4FFA93EA930895E881F0E037
:102FB400EF55FB4F0895E881F9813196E883F98351
:102FC4003197E4910895E881F0E00895AE0FBF1FB2
:102FD4000E94221B08950A921A92FA926A937A9393
:102FE4008A939A93AA93BA93EA93FA93EFB7EA93DC
:102FF4000895EA930E942D0AE991EFBFF991E991AE
:10300400B991A9919991899179916991F9901990BE
:1030140009900895EA930E946B0AE991EFBFF99130
:10302400E991B991A9919991899179916991F990CD
:10303400199009900895ABE01A9FF001E35EFA4FEE
:103044000895AE81BF8188859985AA30E0E0BE07E6
:10305400E0E08E07E0E09E070895EAE0F0E060E03B
:1030640070E00895AE81BF81888599850E942F18EC
:103074000E94AE1A0895FA93EA93E12FFF27662778
:1030840077270E943F1B84E00E943E1726960895EE
:103094000E945C1B2696E991EFBFF991E991B991E1
:1030A400A9919991899179916991F99019900990CF
:1030B4000895E0E0F0E0ED93FC930895ED91FD9127
:1030C4003196FE93EE930895E981FA810680178084
:1030D400A981BA810895FA93EA9380E00E943E1789
:1030E40022960895E12FF0E00895FA93EA93E2E03E
:1030F400EA930C94760DEA930E94480E1E2F0895CD
:103104001A930A9308EB13E00895FA93EA93E1E023
:10311400EA930C94160FFA93EA93E2E0EA930C9480
:10312400160FD901A854BF4FDDCF0E94621AAE0F0B
:10313400BF1F0E94261BDF01CB01E8E00E94541A46
:103144000895DF01CB01E0EAF6E861E070E008955C
:10315400D901A254BF4FC6CFD901AC53BF4FC2CF80
:103164000E94621AAE0FBF1F0E94261B0895EE0F25
:10317400FF1F2CCFEE0FFF1FAE0FBF1F9ACFFA9386
:10318400EA93AA81BB810895A659BF4F0E94221BCE
:103194000895662777270E943F1B0895AA54BF4FBE
:1031A4000E94221BDF01EAE0F0E008950E94A91AC0
:1031B4000E946C1A0E943F1B08950E94DB1A0E9411
:1031C4006C1A0E943F1B08958CE00E943E172E96B5
:1031D4000895A854BF4F0E94221B08950E946C1AA0
:1031E4000E943F1B0895A654BF4F0E94221B0895BE
:1031F4000E94221BF3CF0E94571B00E028EB33E010
:1032040010E00895EFE7EA930C948E12EA930E947B
:103214008E12E0E1EA930C948E12E0E0EA93E1E08E
:10322400EA930895FF27662777270E943F1B089596
:1032340088E00E9407172C960895EA0FFB1FE4917B
:10324400EA930C949212EA93E981EA930E94781229
:1032540021960895E1ECF5E0FA93EA93E4E0EA9329
:103264000895AA81BB810E94221BFA93EA930895D0
:10327400FA93EA9380E00E9407172496EA81FB817F
:103284000895A281B381BA93AA93EEEFFAE0F0CF46
:10329400A481B581BA93AA930895FA93EA930E94FC
:1032A4006017EA81FB810895A681B781BA93AA9336
:1032B4000895A085B185BA93AA93E4E3FBE0D8CF3F
:1032C400A285B385BA93AA930895EA81FB81A48564
:1032D400B585BA93AA930895EA81FB81A685B7853B
:1032E400BA93AA93E4E3FBE0FA93EA9380E00E94A2
:1032F40007172496198108812496089584E00E9472
:1033040007172896EA81FB810895A281B381BA93B5
:10331400AA930895DF01EAE0F0E048CFDF01EAE094
:10332400F0E04BCFEA81FB81A085B185BA93AA93E3
:103334000895EA81FB81C4CFA685B785BA93AA9381
:103344000895FA93EA9380E00E940717249619815E
:10335400088124960895E8E3FBE08ACFD801A254BB
:10336400BF4F0E94221BDF01E4E6F0E00895D8017C
:10337400A054BF4F0E94221BDF01E4E6F0E0089551
:10338400D801AE53BF4F0E94221BDF01E4E6F0E0F8
:103394000895D801AC53BF4F0E94261BDF01CB0117
:1033A4005CCE0E94D31A0E943F1B08950E94ED1A1E
:1033B400FA93EA930E948417ECCED801A853BF4F26
:1033C4000E94261BDF01CB0148CE2A93EA89FB89A0
:1033D400FA93EA93EE89FF8909950895ED89FE89A8
:1033E4003497ED8BFE8B0895EA89FB89FA93EA936F
:1033F400EE89FF8909950895AD89BE8914960E94C6
:10340400221BEE83FF83FA93EA930895E887F987F2
:103414006A877B870895EC87FD876E877F87089589
:10342400E885F9856A857B85AC85BD858E859F8514
:103434000895DE011C960E94371A0E94221B0895EB
:103444000E94371A0E94221BFA93EA931A930A9352
:103454000895E991F991309639F08DEC9AE001974D
:10346400F1F7A8953197C9F708950024AF0DB01D61
:103474000895EA1BFB0B680B790B0895F195E19510
:10348400F0400895F09560957095E195FF4F6F4F6A
:103494007F4F0895EE230E2EEA2F19F0EE0F0A94B3
:1034A400E9F70895EE230E2EFD01BC0131F0769567
:1034B4006795F795E7950A94D1F70895EE0FFF1FE6
:1034C400EE0FFF1FEE0FFF1F0895EE0FFF1F661F85
:1034D400771F08956F2F660F660B762F08957A9FD6
:1034E400702D6B9F700DF89F700DE99F700D6A9F92
:1034F400602D710DFB9F600D711DE89F600D711DA6
:103504008827FA9FF02D610D781FEB9FF00D611D48
:10351400781FEA9FE02DF10D681F781F08957DD074
:10352400DEDF0EF4AFDF08950024112490E1AA0F2A
:10353400BB1F001C111C0E1A1F0A18F40E0E1F1EAE
:1035440001C0A1609A9599F7FD01D001089557D063
:10355400EBDF0EF493DF08953F934F935F930024C2
:1035640011244427552730E2AA0FBB1F881F991F37
:10357400001C111C441F551F0E1A1F0A460B570B23
:1035840028F40E0E1F1E461F571F01C0A1603A9556
:1035940059F7FD01BC01D001CA015F914F913F91E0
:1035A40008953BD0D9DF0EF46DDF0895BDDFFD0132
:1035B4000895E894B7FF04C0A095B0951196689457
:1035C400F7FD5CDFB1DFFD010EF458DF0895C4DFC1
:1035D400FD01BC010895E89497FF09C0A095B0953A
:1035E40080959095AF5FBF4F8F4F9F4F689477FD45
:1035F40049DFB2DFFD01BC010EF444DF0895E89415
:10360400F7FF02C03BDF6894B7FF06C0A095B095F2
:10361400119600F8039400FA0895E89477FF02C025
:1036240031DF689497FF0BC00024A095B095809576
:1036340090951196801D901D00F8039400FA08954A
:10364400ED91FC9111970895ED91FD916D917C910F
:1036540013970895ED91FD916D917D910895ED93EA
:10366400FD936D937C9308957E936E93FE93EE93F6
:1036740008950590F491E02D08957A936A93FA934E
:10368400EA930895182E862F612D192E972F712DE8
:103694001B2EBF2FF12D1A2EAE2FE12D089530973A
:1036A4006040704008955A934A933A932A931A9328
:1036B4000A9308955D814C813B812A811981088197
:1036C4000895AC0FBD1F05900D928A95E1F70895FA
:00000001FF
