:060000000C9409080C94A9
:1000060000000C9400000C9400000C9400000C946A
:1000160000000C9400000C9400000C9400000C945A
:1000260000000C9400000C9400000C9400000C944A
:1000360000000C9400000C9400000C94160B0C9419
:1000460000000C9400000C9400000C94960A0C948A
:1000560000000C948A0A0C9400000C9400000C9486
:1000660000000C9400000C9400000C949C0A0C9464
:1000760000000C94900A0A232323232323232323FB
:10008600232323232323232323232323232323233A
:10009600232323232323232323232323232323232A
:1000A6000A23204B6E756572722041470A2320523F
:1000B6004D204949202D20496E672E204C2E4D6536
:1000C6006C69636861722C20496E672E20502E4B36
:1000D60065726E646C2000000A23232323232323E6
:1000E60023232323232323232323232323232323DA
:1000F60023232323232323232323232323232323CA
:10010600232300000000010001000100020001009D
:100116000300010004000200060002006200020063
:10012600C6010200C8010400CC010400B2020200AC
:10013600B4020400B80204009E030200A0030400F7
:10014600A4030400010C0200424F41524400000087
:10015600000000000000002713524553554D45008E
:1001660000000000000000009613564F4C54414713
:10017600450000000000000000EB134355525245B5
:100186004E5400000000000000004414504F574534
:100196005200000000000000000000911400000062
:1001A6000000000000000000000000000000000049
:1001B6000000000000000000000000000000000039
:1001C6000000000000000000000000000000000029
:1001D6000000000000008080C0606030181C1830ED
:1001E6006060C08080000000000000000000000089
:1001F60000000000000000000000000000000000F9
:1002060000000000000000000000000000000000E8
:1002160000000000000000000000000000000000D8
:1002260000000000000000000000000000000000C8
:1002360000000000000000000000000000000000B8
:100246000000000000000000000000000000008028
:10025600E070383C1E1F1F9F0C0C0E0EFEFEFE0E9D
:100266000E0C0C9F1F1F1E3C3870E0800000000023
:100276000000000000000000000000000000000078
:100286000000000000000000000000000000000068
:100296000000000000000000000000000000000058
:1002A6000000000000000000000000000000000048
:1002B6000000000000000000000000000000000038
:1002C600000000000000000000000000F0FEFF0734
:1002D600000000F8FEFF010000000000FFFFFF0025
:1002E6000000000001FFFEF800000007FFFEF0001E
:1002F60000000000000000000000000000000000F8
:1003060000000000000000000000000000000000E7
:1003160000000000000000000000000000000000D7
:1003260000000000000000000000000000000000C7
:1003360000000000000000000000000000000000B7
:1003460000000000000000000000000001030F3E56
:1003560078F0E0E0C78F8E9000000000FFFFFF00FE
:10036600000000908E8FC7E0E0F0783E0F0301009A
:100376000000000000000000000000000000000077
:100386000000000000000000000000000000000067
:100396000000000000000000000000000000000057
:1003A6000000000000000000000000000000000047
:1003B6000000000000000000000000000000000037
:1003C6000000000000000000000000000000000027
:1003D6000000077FFFF10103030303030307030381
:1003E6000303030301F1FF7F070000000000000084
:1003F60000000000000000000000000000000000F7
:1004060000000000000000000000000000000000E6
:1004160000000000000000000000000000000000D6
:1004260000000000000000000000000000000000C6
:1004360000000000000000000000000000000000B6
:10044600F0F8FC3E0E0F070707070E3EFCF8E0C06B
:10045600E0E0E0707F7F7060E0C0C0C0C0C0C0C098
:10046600C0C0E060707F7F70E0E0E0C0E0F8FC3E76
:100476000E070707070F0E3EFCF8F000000000000D
:100486000000000000000000000000000000000066
:100496000000000000000000000000000000000056
:1004A6000000000000000000000000000000000046
:1004B6000000000000000000000000000000000036
:1004C6000000000000000000000000001F1F3F3970
:1004D6007070E0E0E0C0C080800000010101010111
:1004E60000008080C0C0E0E0E07070393F1F1F0050
:1004F60000000000000000000000000000000000F6
:1005060000000000000000000000000000000000E5
:1005160000000000000000000000000000000000D5
:1005260000000000000000000000000000000000C5
:1005360000000000000000000000000000000000B5
:1005460000000000000000000000000000000000A5
:1005560000000000010103030707070E0C1C0C0E28
:100566000707070303010100000000000000000068
:100576000000000000000000000000000000000075
:100586000000000000000000000000000000000065
:10059600000000000000000000000000000000074E
:1005A60005070000000000000000002F0000000703
:1005B600000700147F147F14242A7F2A12C4C8104F
:1005C600264636495522500005030000001C2241EC
:1005D600000041221C0014083E081408083E0808C2
:1005E6000000503000101010101000606000002055
:1005F600100804023E5149453E00427F40004261D8
:100606005149462141454B311814127F1027454563
:1006160045393C4A4949300171090503364949497A
:1006260036064949291E00363600000056360000B7
:100636000814224100141414141400412214080250
:1006460001510906324959513E7E1111117E7F49E9
:100656004949363E414141227F4141221C7F494959
:1006660049417F090909013E4149497A7F0808083D
:100676007F00417F41002040413F017F0814224115
:100686007F404040407F020C027F7F0408107F3E7F
:100696004141413E7F090909063E4151215E7F09DC
:1006A600192946464949493101017F01013F404028
:1006B600403F1F2040201F3F4038403F631408142E
:1006C6006307087008076151494543007F414100AF
:1006D600552A552A550041417F0004020102044073
:1006E60040404040000102040020545454787F48A2
:1006F6004444383844444420384444487F385454A9
:100706005418087E0901020C5252523E7F08040416
:100716007800447D40002040443D007F102844007E
:1007260000417F40007C041804787C080404783873
:10073600444444387C14141408081414187C7C08A7
:100746000404084854545420043F4440203C40408C
:10075600207C1C2040201C3C4030403C4428102873
:10076600440C5050503C4464544C44000A232048E6
:10077600573A2000436F6D6D4D6F64756C0020769F
:1007860000312E3130000A232053573A2000546599
:100796007374487700312E3030000A493A20537975
:1007A6007374656D2073746172742E2E000A493A53
:1007B600312E62797465202578000A493A322E6214
:1007C600797465202578000A493A332E6279746572
:1007D600202578000A493A342E62797465202578F6
:1007E600000A493A352E62797465202578000A494F
:1007F6003A362E62797465202578000A493A372EF2
:1008060062797465202578000A493A382E6279742F
:1008160065202578000A3D3D3D3D3D3D3D3D3D3D44
:100826003D3D3D3D3D3D3D3D3D3D3D3D3D3D3D3DF2
:100836003D3D3D3D3D3D3D3D3D3D3D3D3D3D3D3DE2
:100846003D3D3D000A45453A206E656A73656D205B
:100856007265616479202578000A45453A207370EF
:1008660061746E6120616472657361000A45453A80
:1008760020737061746E656A207A61636174656B5A
:1008860000000A6372656174652070726F63657338
:1008960073206E722E2564202E2E000001000100AA
:1008A6000A2D000A2B000A493A2053656E644275E8
:1008B60066666572662829000A493A205072696A96
:1008C6006D757420737472696E673A20000A453A32
:1008D600204E65646F7374617465636E792062750A
:1008E600666665722C20737472696E673A000A45F3
:1008F6003A207772697465207761736E7420737518
:100906006363657366756C6C000A453A2077726F8F
:100916006E67206F7065726174696F6E20287265EC
:1009260061642F777269746529000A453A676F6FAB
:10093600642C206E65787420737465702030782579
:1009460078000A453A77726F6E672C206F6E636582
:1009560020616761696E000A453A2077726974659D
:10096600206661696C656421000A453A2053594E38
:100976004328332E6279746529203A202578000AA7
:10098600453A20414444524553532028322E627939
:10099600746529000A3D3D3D3D3D3D3D3D3D3D3DA6
:1009A6003D000A6672657175656E63653A20257548
:1009B600000A74656D70657261747572653A2030EF
:1009C6007825782C2025752E2575B043000A766F7C
:1009D6006C746167653A20256C64207C20256C6404
:1009E600207C20256C64000A63757272656E743A09
:1009F60020256C64207C20256C64207C20256C647A
:100A06000000496E696369616C697A616365204FAC
:100A16004B006672656B76656E63653A20202564C9
:100A2600202020202020004E656A73656D20706F9F
:100A360076696E656E2062FD742074616B6F76FD5B
:100A46002C206A616BFD206279636820706F646C8C
:100A560065206F737461746EED6368206C6964ED74
:100A6600206DEC6C2062FD742E204A6520746F2088
:100A76006A656A696368206F6D796C2C2061206EE7
:100A860065206D6F6A652073656C68E16EED202DDB
:100A96002052696368617264204665796E6D616E85
:100AA6000020202020202020202020202020202060
:100AB60020202025752F25750000000317032E031F
:100AC60045035C0373038A03A10320202020202012
:100AD6002020202020202020202020202020202010
:100AE6000000202020202020524D494920424F411D
:100AF600524420202020200020202020203D3D3D63
:100B06003D3D3D3D3D3D3D3D3D20202020002048D2
:100B160057207665722E3A2000312E313000205350
:100B260057207665722E3A2000312E303000202074
:100B360020202020202020202020202020202020AF
:100B46002020202020202020002049503A202575F2
:100B56002E25752E25752E25752020202020202057
:100B66002020202000204D41433A202530325825B0
:100B760030325825303258253032582530325825F3
:100B860030325820202000202020202020205245CE
:100B960053554D4520202020002055206C696E6558
:100BA600733A202575202020202020202020002098
:100BB60049206C696E65733A202575202020202017
:100BC6002020202000204672657175656E63653AA7
:100BD6002025752E257520487A20202020202000EB
:100BE6002054656D70657261747572653A2025755D
:100BF6002E2575B0432020202020200020202020F4
:100C0600202020564F4C54414745202020202020AC
:100C160020002020202020203D3D3D3D3D3D3D3D06
:100C26003D202020202020002020202020204C3184
:100C36003A2025752E2575205B565D202020200044
:100C46002020202020204C323A2025752E25752084
:100C56005B565D20202020002020202020204C33C1
:100C66003A2025752E2575205B565D202020200014
:100C76002020202020202043555252454E5420202B
:100C8600202020202020002020202020203D3D3D27
:100C96003D3D3D3D3D3D20202020202020002020C0
:100CA600202020204C313A2025752E2575205B41C9
:100CB6005D202020202020002020202020204C32D3
:100CC6003A2025752E2575205B415D2020202020A9
:100CD60020002020202020204C333A2025752E2568
:100CE60075205B415D202020202020002020202030
:100CF60020202020504F5745522020202020202001
:100D06002020002020202020204C313A20256C6411
:100D16002E2564205B575D202020002020202020E7
:100D2600204C323A20256C642E2564205B575D20CA
:100D36002020002020202020204C333A20256C64DF
:100D46002E2564205B575D202020002020202020B7
:100D5600202020454E455247592020202020202083
:100D660020002020202020204C313A202575205BB1
:100D760057685D2020202020002020202020204CA5
:100D8600323A202575205B57685D20202020200000
:100D96002020202020204C333A202575205B5768E0
:100DA6005D20202020200020202020202020504FC1
:100DB60057455220464143544F52202020002020C0
:100DC600202020203D3D3D3D3D3D3D3D3D3D3D3DC1
:100DD6003D3D2020002020202020202056524D532B
:100DE600202020202020202020202000202020201D
:100DF60020204C313A20256C75205B565D20202042
:100E06002020002020202020204C323A20256C75FE
:100E1600205B565D2020202020002020202020203E
:100E26004C333A20256C75205B565D20202020200F
:100E3600002020202020202049524D532020202011
:100E460020202020202020002020202020204C317F
:100E56003A20256C75205B415D2020202020002053
:100E660020202020204C323A20256C75205B415DE5
:100E76002020202020002020202020204C333A2033
:100E8600256C75205B415D2020202020002020203D
:100E960020202020414354202020202020202020D4
:100EA600202020002020202020204C313A20256CB4
:100EB60064205B575D202020202000202020202059
:100EC600204C323A20256C64205B575D2020202080
:100ED60020002020202020204C333A20256C64203E
:100EE6005B575D202020202000202020202020206D
:100EF600415050202020202020202020202020008B
:100F06002020202020204C313A20256C64205B567E
:100F1600415D2020202020002020202020204C324F
:100F26003A20256C64205B56415D2020202020005D
:100F36002020202020204C333A20256C64205B564C
:100F4600415D202020202000202020202020454117
:100F5600504F532C2045414E45472020202000204D
:100F660020202020203D3D3D3D3D3D3D3D3D3D3D3C
:100F76003D202020200020204C313A20256C642082
:100F86002C20256C64202020202020200020204CAE
:100F9600323A20256C64202C20256C6420202020E9
:100FA6002020200020204C333A20256C64202C2061
:100FB600256C6420202020202020000001002D4EDA
:100FC600414E00494E46000001008C05A208010072
:100FD6008D05A40817000003D00A17001703D00ACE
:100FE60017002E03D00A17004503D00A17005C032A
:100FF600D00A17007303D00A17008A03D00A170015
:10100600A103D00A0100C505C20F0000F894EE271F
:10101600EFBBF1E0F5BFE5BFF8E1A895A4B7A77F60
:10102600A4BFF0936000E09360008DE0A2E0BB27D0
:10103600ED938A95E9F780E098E0A0E0B1E0ED93C2
:101046000197E9F7EEECFFE085919591009761F045
:10105600A591B59105901590BF01F00105900D92EF
:101066000197E1F7FB01F0CFE0E0EEBBEFEFEDBF5C
:10107600E8E0EEBFC0E0D3E00C9441080E94BC0853
:101086000E94020C0E94FD0B0E944C0C0E94230F32
:101096000E94C312F894E4E6F0E0FA93EA930E9401
:1010A6002C1A0E94A20A0E948D17E3E3FEE00E941A
:1010B60094170E948D17E2EBF0E10E949417E8EC7A
:1010C600F0E060E070E00E94401BE1E2FCE00E947C
:1010D6009417E8EEF3E060E070E00E94401BEBE05E
:1010E600FCE00E949417E4EFF1E060E070E00E94FB
:1010F600401BEBECF2E10E949417E0EDF7E0FA9367
:10110600EA930E942C1AE0E0EA93ECE7F0E00E94F2
:101116009817E2E7F7E00E949817EAE7F7E00E94DF
:101126009817E4E8F7E00E949817E7E8F7E00E94CE
:101136009817ECE8F7E00E949817E4E9F7E00E94B8
:101146009817E4E8F7E00E949817EBE9F7E00E94A9
:101156009817EEEDF0E00E949F170E94C30AE0E0A8
:10116600EA93E0EAF7E00E949F170E94B910FDCFCC
:10117600FFCFE0E8E0936100E0E0E0936100E2B9D0
:10118600E1B9E5B9E4B9E8B9E7B9EBB9EAB9E4BD5B
:10119600E5BDE6BDE7BDE8BDE0938000E0938100D4
:1011A600E0938500E0938400E0938700E093860057
:1011B600E0938900E0938800E0938B00E0938A0037
:1011C600E093B600E093B000E093B100E093B20084
:1011D600E093B300E093B400E0936900EDBBE093C5
:1011E6006800E0936E00E0936F00E0937000E09378
:1011F600C000E8E0E093C100E6E0E093C200E0E072
:10120600E093C500E5E0E093C400E0E8E0BFE0E07D
:10121600E0937B000895E881E03011F40C94160900
:101226000E942F0902C00E941A09219608950E9461
:101236004509E0E0E0931705E0931805E8EDE09333
:10124600C100E1E0E0939F04E0E0E093A104E093B5
:10125600B304E093B40408950E944E09E9E1F5E071
:10126600A0E0B0E0A083B183E8EDE093C900E1E03F
:10127600E093A004E0E0E093A204E5EBF4E0A083B1
:10128600B1830895E3EAF4E0FA93EA93E7EBF4E036
:101296000E94A3170895EBEAF4E0FA93EA93E7EEC7
:1012A600F4E00E94A3170895AA81A23010F00C94CE
:1012B6006509EA810E94AB17EA0FFB1FA881B98175
:1012C600A083B183239608950E94581BEC81E030D9
:1012D60011F40C9486090E94B1170E94681A0E94A4
:1012E600681AE050F04467457F4F7F936F93FF93F2
:1012F600EF930E94B617AF91BF918F919F910E9475
:10130600BF1731E019C00E94B617E050F044674598
:101316007F4F7F936F93FF93EF930E94B117A0E1E6
:10132600B0E080E090E00E94721AAF91BF918F9179
:101336009F910E94BF1730E0E985E03011F40C94CC
:10134600B2090093CC001093CD00E091C000ED7F70
:10135600E093C000A0ECB0E00E94C7170DC0009358
:10136600C4001093C500E091C800ED7FE093C8006B
:10137600A8ECB0E00E94C7170E945F1B2A9608954A
:101386000E94CF17E156FB4FE081E03011F00C943C
:10139600CD09F6CFE981E03011F40C94DD09E09136
:1013A600C800E07211F00C94D909F9CFE881E093F6
:1013B600CE000AC0E091C000E07211F00C94E4097E
:1013C600F9CFE881E093C600229608950E94CF17D0
:1013D6000E94D217EA81EA930E94C60B22960895CC
:1013E6000E94D917A1E0A083E881EA930E94CF1753
:1013F6000E94D2170E94810BEA930E94C30921968C
:101406000895E881F981E491E03011F40C94280AFA
:10141600EA81E03011F40C941C0AE091C800E072F5
:1014260011F00C94170AF9CF0E94DE17E093CE0054
:101436000BC0E091C000E07211F00C94230AF9CFC2
:101446000E94DE17E093C600DCCF239608950E9423
:10145600D917E081E03011F40C94600A0E94E61777
:101466000E94611AE955FB4FDF010E94231B30974A
:1014760011F40C94550AE881E03011F40C944C0AEE
:10148600EBEAF4E0FA93EA930E94810BE093CE0034
:1014960008C0E3EAF4E0FA93EA930E94810BE09332
:1014A600C6000AC00E94D917A0E0A0830E94E617D2
:1014B600E156FB4FA1E0A08306C00E94E617E15665
:1014C600FB4FA1E0A083219608951A93E981E030AD
:1014D60011F40C94710A1091CE0002C01091C6004E
:1014E600E9810E94AB170E94E917309711F40C941A
:1014F600870AE9810E94AB170E94E917FF93EF93D1
:101506001A93EF91FF9109951881229608950E94EA
:10151600EE17E0E00E94FC1718950E94EE17E1E036
:101526000E94FC1718950E94EE17E0E00E940D1825
:1015360018950E94EE17E1E00E940D1818951A936F
:10154600E2E0E4BDE5E0E5BDE0E0E6BDEBE6E7BDF3
:10155600E0E0E8BDE2E0E0936E00E2E3F0E0E09375
:101566001B05F0931C0510E01A3010F00C94C10A0C
:101576000E941E18A0E0A0831F5FF6CF1991089560
:10158600789408950E94581B10E01A3010F00C94BD
:10159600120B0E941E189F01D901EC91E03011F048
:1015A6000C94100BE1E0EC93EC81FD81D9011196CE
:1015B600ED93FC930E94241810F00C94E80A0E9404
:1015C6003018EE83FF83688779870E94241810F00D
:1015D6000C94F20AE1E0F0E060E070E002C00E94E4
:1015E6003518D90113960E94321B0E94241810F058
:1015F6000C94020BE1E0F0E060E070E002C00E94B3
:101606003518D90117960E94321BE8E8F8E00E94C7
:101616003E180E945F1B2A9608951F5FB6CF0E9450
:101626005F1B2A9608950E94EE170E94561BE091B2
:101636001B05F0911C05309711F40C942C0BABE1B3
:10164600B5E0ED91FD913197FE93EE930E944B1814
:101656001895E0E0E0936E0010E01A3010F00C945C
:10166600600B0E941E189F01D901AC91A13011F0A8
:101676000C945E0BD90117960E942D1B3197604082
:1016860070400E94371B0E94521B11F00C945E0B97
:10169600D901E2E0EC9311964D915C91FA0109951E
:1016A600D90113960E94271BD90117960E94321B57
:1016B600D901E1E0EC931F5FD0CFE2E0E0936E004A
:1016C6000E944B181895F894EA81FB81AC81BD8184
:1016D600ED93FC93E881F981AC81BD811296ED937F
:1016E600FC93AC81BD8116960E945C18AC81BD81CD
:1016F60014960E945C187894269608951A9310E022
:10170600F894A981BA8114960E94231B309711F48C
:101716000C94C10BA981BA810D901C90A981BA8144
:1017260016960E94231BD001AE0FBF1F1C91A981E4
:10173600BA8116960E9461180E94671812960E9436
:10174600231B0E161F0610F40C94B90BE981FA81BF
:101756003696BF0100801180E981FA81A281B381AA
:10176600F001EA1BFB0BDB01ED93FC93A981BA8127
:101776001496ED91FD913197FE93EE937894E12FB7
:10178600188123960895F894E981FA8104801580DA
:10179600A981BA8112960E94231B0E161F0610F00D
:1017A6000C94F90BA981BA810E94231BFF93EF9336
:1017B6000E94671814960E94231B0E0E1F1EA981F5
:1017C600BA8112960E94231BD0010E94D91AAF91AA
:1017D600BF91EA0FFB1FA881A083A981BA81149645
:1017E6000E9461187894EFEF239608957894E0E0CC
:1017F600239608953E98469A3F98479A0895569A92
:101806005E9A579A5F9A0A9A12980B9A13980895B5
:10181600EBB1A0E8EA27EBB9E0918B05E03011F4D3
:101826000C941D0CEBB1A0E4EA27EBB9E0E0E093E1
:101836008B0503C0E1E0E0938B050895379910C04E
:10184600E0918C05E03011F40C94320CE6EAF8E0F5
:101856000E946E180E94FD12E0E0E0938C0503C022
:10186600E1E0E0938C05369910C0E0918D05E030FB
:1018760011F40C94470CE9EAF8E00E946E180E94F5
:10188600F812E0E0E0938D0503C0E1E0E0938D05FA
:1018960008951A93EAB1EC7FEAB9EBB1E360EBB9CC
:1018A600529AEBB1E360EBB9E1E0EA930E940E09CC
:1018B600E1E0EA93E0E8F5E260E070E00E94401BB8
:1018C600E0E0EA930E946709E1E0EA93EEE8FCE0D3
:1018D600FA93EA930E94570910E0143010F00C9422
:1018E6007B0C0E947518EB56FB4F10831F5FF5CFDC
:1018F60010E0163010F00C94890CA9E9B4E00E94AF
:101906007518EA0FFB1F10831F5FF3CFE0E0E0932B
:10191600BF0519910895E091BE05E03011F00C94D1
:10192600A00CA881A33511F00C949F0CE0E0E09385
:10193600BD05E1E0E093BE055BC0E13011F00C941B
:10194600AB0CE881E0939905E2E0E093BE0550C058
:10195600E23011F00C94B60CE881E0939A05E3E0CE
:10196600E093BE0545C0E33011F00C94D20CA8817B
:10197600AF3110F40C94C30CE0E0E093BE050EC04A
:10198600E881E0939D05E03011F40C94CE0CE4E080
:10199600E093BE0503C0E5E0E093BE0529C0E43050
:1019A60011F00C94F10CAEE9B5E0E091BD05F0E064
:1019B600EA0FFB1FA881A083E091BD05EF5FE093CE
:1019C600BD05E150A091BD05E0919D05AE1710F44F
:1019D6000C94F00CE5E0E093BE050AC0E53011F08A
:1019E6000C94FB0CE881E093BC05E6E0E093BE05B1
:1019F60021960895E0919A05E23011F00C94070DB6
:101A0600E0E0E093990502C0E1E00895E0E0089582
:101A16001A930A9303E5E1E0EA93E3E5EA930E9469
:101A2600E909E1E0EA93E091BF05EF5FE093BF05C6
:101A3600EA930E94E909E091BF050E27E1E0EA93E7
:101A4600EE81E068EA930E94E909ED810E27E1E064
:101A5600EA93EB81EA930E94E909EA810E2710E0F6
:101A6600EA811E1710F00C944C0DE1E0EA93AC816C
:101A7600BD81EE27A10FBE1FEC91EA930E94E909F2
:101A8600AB81BC81EE27A10FBE1FEC910E271F5F15
:101A9600E7CFE1E0EA930A930E94E909E1E0EA93DD
:101AA6000E94F30919810881269608950E94581B01
:101AB60008EB13E0E091C005EF5FE093C005E1504D
:101AC600E03011F00C948C0DA0E03799A1E0EA2FDC
:101AD600EE0FAE2FE0E03699E1E0EA2B3E2FE0E292
:101AE600EA93EDB7FEB7FA93EA933F93E1E0EA9300
:101AF6000E940B0D3F913AEAE0E1EA93EDB7FEB79B
:101B0600FA93EA933F93E1E0EA930E940B0D3F912B
:101B160094C0E13011F00C949F0DE0E3EA93F801D4
:101B2600E659FF4F0E947818E1E3EA93F801EA5478
:101B3600FF4F0E94781881C0E23011F00C94B90D65
:101B4600E0E4EA93F801E854FF4F0E947818E1E4D4
:101B5600EA93F801E654FF4F0E947818E2E4EA930C
:101B6600F801E454FF4F0E94781867C0E33011F083
:101B76000C94D30DE3E4EA93F801E254FF4F0E947C
:101B86007818E4E4EA93F801E054FF4F0E947818CD
:101B9600E5E4EA93F801EE53FF4F0E9478184DC032
:101BA600E43011F00C94ED0DE6E4EA93F801EC5301
:101BB600FF4F0E947818E7E4EA93F801E853FF4FD5
:101BC6000E947818E8E4EA93F801E453FF4F0E9474
:101BD600781833C0E53011F00C94070EE9E4EA9367
:101BE600F801E053FF4F0E947818EAE4EA93F801FF
:101BF600EC52FF4F0E947818EBE4EA93F801E852A2
:101C0600FF4F0E94781819C0E63011F00C94200E90
:101C1600ECE4EA93F801BE960E947818EDE4EA93A4
:101C2600F801F2960E947818EEE4EA93F801F69627
:101C36000E947818E0E0E093C005E2E0EA93EDB791
:101C4600FEB73197FA93EA934F933F93E0E0EA9316
:101C56000E940B0D3F914F910E945F1B24960895A1
:101C6600A091BE05A63011F00C943B0E0E94FD0C0F
:101C76000E94590D0895249A259A2698279AE3E5F5
:101C8600ECBD0895E881EEBDEDB5E07811F00C9459
:101C96004D0EFACFEEB5219608950E943E0E089598
:101CA6000E94561B10E000E02B98EA85F0E0EF70EA
:101CB6002E2FE9855E2FEB85E795E0E0E795AE2FC1
:101CC600EE81E295E07FEA2BE22B0E947E1888EBFC
:101CD6008A95F1F7113C11F00C940A0F5A930E9461
:101CE600450E1E2F123C11F00C94040FEB85E030CC
:101CF60011F00C94920E30E03E3110F00C94910EDF
:101D060084E191E00197F1F7E0E00E947E1811343A
:101D160011F00C948F0E02C03F5FEECF01C011E4AC
:101D2600113411F00C94FF0E30E0EE81A1E00E9418
:101D36004D1A3E1710F00C94D60E88EB8A95F1F7E3
:101D4600EB85E03011F00C94B40EE0E00E947E18B2
:101D5600E02FAF81B885F0E0EA0FFB1F10830F5F1D
:101D660020C0AB85A13011F00C94D00E2197A88528
:101D7600B985EE27A00FBE1F1C911A930E94450E2F
:101D8600E8830F5FA881A13411F40C94CE0EE4EF22
:101D9600F8E00E946E18219604C0EFE0F9E00E9478
:101DA6006E183F5FC2CFAB85A13011F00C94FE0ECA
:101DB60030E03E3110F00C94F60E88EB8A95F1F780
:101DC600E0E00E947E181E3411F40C94F00EE0E35D
:101DD600F9E00E943E1807C004C0E8E4F9E00E945A
:101DE6006E183F5FE6CF113411F40C94FE0EEDE54C
:101DF600F9E00E946E1804C0EFE6F9E00E943E1872
:101E060006C0E0E0EA93E5E8F9E00E949F172B9A06
:101E160088EB8A95F1F7E02F0E945D1B2C960895BA
:101E2600E0E0EA93EC81FD81FA93EA93EC81FD818F
:101E3600FA93EA93ED81EA930E94530E259608954C
:101E46000E9483180E94500EE0E0E5B9E0EBE4B989
:101E5600239A2B9A0991199108950E94581BEC8197
:101E6600ADEDEA9FF001E854FC4F9F01E2E6F0E099
:101E7600FA93EA93F901E659FF4F0E948818E1E0C8
:101E8600FCE0FA93EA93F901EC54FF4F0E9488189C
:101E9600E8ECF1E0FA93EA93F90176960E948E183F
:101EA600E4EBF2E0FA93EA93F9017A960E948E182F
:101EB600E0EAF3E0FA93EA93F9017E960E948E181F
:101EC600ECECF1E0FA93EA93F901B2960E948E18CF
:101ED600E8EBF2E0FA93EA93F901B6960E948E18BF
:101EE600E4EAF3E0FA93EA93F901BA960E948E18AF
:101EF600E6ECF1E0FA93EA93F901BE960E9488189F
:101F0600E2EBF2E0FA93EA93F901F2960E9488185E
:101F1600EEE9F3E0FA93EA93F901F6960E9488183F
:101F2600E0EDF1E0FA93EA93F901FA960E948E1831
:101F3600ECEBF2E0FA93EA93F901FE960E948E1812
:101F4600E8EAF3E0FA93EA93F901EE5BFF4F0E94A9
:101F56008E18E8EEF1E0FA93EA93F901EE5AFF4F94
:101F66000E948E18E4EDF2E0FA93EA93F901EA5A38
:101F7600FF4F0E948E18E0ECF3E0FA93EA93F90122
:101F8600E65AFF4F0E948E18ECEEF1E0FA93EA93C0
:101F9600F901E25AFF4F0E948E18E8EDF2E0FA933B
:101FA600EA93F901EE59FF4F0E948E18E4ECF3E034
:101FB600FA93EA93F901EA59FF4F0E948E18D90164
:101FC600AC54BF4F0E94231BDF01ECE4F0E00E94FB
:101FD600971AD901AA54BF4FED93FC9310E0133022
:101FE60010F00C94AB100E949418EE0FFF1FEA0F2E
:101FF600FB1FFF93EF93D90156960E9475180E9416
:102006009818ACEABEE180E090E00E94721A0E9445
:10201600A4180E94AF1AAF91BF91ED93FC930E9452
:10202600AB18EE0FFF1FEA0FFB1FFF93EF93D901CB
:1020360092960E9475180E949818A9E1B3E080E074
:1020460090E00E94721ADF01CB01E0E1F7E260E066
:1020560070E00E94AF1AAF91BF91ED93FC930E947E
:10206600AF180E94631AEA0FFB1FFF93EF93D90183
:10207600DA960E9475180E94B318ACE9B1E080E0C8
:1020860090E00E94921A0E94A4180E94D41AAF915E
:10209600BF910E94321BD901A053BF4F0E947518F1
:1020A6000E94631AEA0FFB1FFF93EF93D901AE5A02
:1020B600BF4F0E9475180E94B3187F936F93FF93CA
:1020C600EF93D901A25ABF4F0E9475180E94B31808
:1020D600AF91BF918F919F910E94451B0E943C1A20
:1020E600AF91BF910E94321B0E9494180E94BA18A9
:1020F600749714F00C9483100E9494180E94BD18D3
:102106000E94AB180E94BA18329714F00C948F10E4
:102116000E94AB180E94BD180E94AF180E94B31807
:10212600E230A0E0FA07A0E06A07A0E07A0714F020
:102136000C94A9100E94AF180E94631AAE0FBF1F1D
:10214600E0E0F0E060E070E00E94321B1F5F47CFE6
:10215600E1E0E09394040E945F1B259608952B9876
:10216600E0E0EA930E94300F2B9A0895E0919404E0
:10217600E03011F40C941C112297E8EBF3E0E883AD
:10218600F983EAE9F9E00E946E18E8EAF9E00E94AC
:10219600C2180E94C7180E94CC1884E00E943F17FC
:1021A6002696E7EBF9E00E94C218AC54BF4F0E9496
:1021B600231B0E94CC18AE81BF810E94D1180E94B9
:1021C600D918AA85BB850E94D1180E94E0180E94E2
:1021D600E718E3EDF9E00E94C2180E94EC180E948D
:1021E600F118AE81BF810E94F6180E94F118AA85E7
:1021F600BB85A454BF4F0E94FB180E94E718EDEE62
:10220600F9E00E94C218A254BF4F0E94FB18AE818B
:10221600BF81A054BF4F0E94FB18AA85BB85AE5351
:10222600BF4F0E94FB180E94E718E0E0E093940479
:10223600229608950E94FE18133010F00C942E1169
:102246000E9494180E94BA18309711F40C942C111D
:102256000F5F1F5FF1CFE02F0E945F1B249608954A
:102266000E94FE18133010F00C9444110E94AB1813
:102276000E94BA18309711F40C9442110F5F1F5F39
:10228600F1CFE02F0E945F1B249608950A9A099ABF
:10229600249A119888EB8A95F1F7119A2C9A0E9444
:1022A6003E0E88EB8A95F1F70E94641188EB8A95B9
:1022B600F1F70E94D11188EB8A95F1F70E949712E7
:1022C6000895E3EAEA930E948F12E1EAEA930E94F4
:1022D6008F12E0ECEA930E948F12E4E2EA930E94E6
:1022E6008F12E1E8EA930E948F12EFE2EA930E94CE
:1022F6008F12EFE2EA930E948F12E7EAEA930E94B6
:102306008F120E94D1110E940519E0EB0E94091953
:10231600E5E0EA930E948F12E8E0FAE0FA93EA9386
:102326000E946412EFEAEA930E948F1208951A93AC
:1023360010E0183010F00C94B1110E9410191A9385
:102346000E94F211E12FA981BA81F0E00E94BA1829
:10235600FA93EA930E9452121F5FEBCF18812396DD
:1023660008956597FE01FA93EA93E7EAFAE0FA938D
:10237600EA93EA8D0E941519ED8D0E9415190E94A7
:102386001B190E941019E7E0EA930E94F211FE0160
:10239600FA93EA930E945212679608951A930A9343
:1023A6000E94051910E0183010F00C94EF11E12F7F
:1023B600E06B0E940919E1E0EA930E948F1200E0A7
:1023C600043810F00C94ED11E0E0EA930E949312A9
:1023D6000F5FF6CF1F5FE7CF0991199108950E940D
:1023E6000519EA81E061EA83EA930E948F12AA81C5
:1023F600A03111F00C940312E981E460E98302C074
:10240600E981E983E981EA930E948F12E881E06B12
:10241600E883EA930E948F12239608951A9310E098
:10242600A981A03B11F00C941B12E0E0E9830CC0DB
:10243600A981A03210F40C942512AC3710F00C943C
:10244600251202C0E0E4E98310E0153010F00C9488
:102456004B12A981A03210F00C943D12E981A5E03F
:10246600EA9FF001EC55FA4FDF010E9475180E94B1
:1024760020190CC0E981E052A5E0EA9FF001E6557B
:10248600FA4FDF010E9475180E9420191F5FDDCFE9
:10249600E0E0EA930E949312188122960895A8819B
:1024A600B981EC91E03011F40C946212EA930E9427
:1024B6001112E881F9813196E883F983F0CF2296EB
:1024C6000895E881F981E491E03011F40C947712D3
:1024D600E881F981E491EA930E941112E881F98179
:1024E6003196E883F983EDCF229608952C98E981F9
:1024F600E03011F40C948112129801C0129A85E210
:102506008A95F1F7E881EA930E94450E85E28A955D
:10251600F1F72C9A22960895E1E00E942619089573
:10252600E0E00E94261908950E94581B20E030E042
:102536002830E0E03E0710F00C94BF120E941019FC
:102546002A930E94F21110E0103810F00C94BC127D
:10255600A0E8A29FF001A39FF00DA12FB0E0EA0F23
:10256600FB1FEC55FE4FE491EA930E9493121F5F06
:10257600EBCF2F5F3F4FDCCF0E945F1B2496089561
:102586001A93E0E0E093C1050E944911199108955C
:10259600609780E1A0E0B0E0E0ECFAE00E94641B06
:1025A6001A93E091C105A1E1EA9FF001E25BFE4FBB
:1025B6003F960E943C1BFF93EF93FE013196FA93E0
:1025C600EA93EF91FF910995FE013196FA93EA930A
:1025D6000E949A11E091C105EF5FEA93E5E0EA9364
:1025E6000E94B4111881619608950E942D190E94C7
:1025F600021308950E942D190E9416130895A981A9
:10260600BA81AC91E881AE1710F00C941013A98131
:10261600BA81EC91EF5FEC9304C0A981BA81E0E046
:10262600EC9323960895A981BA81EC91E03011F0DC
:102636000C942013E881EC9305C0A981BA81EC9132
:10264600E150EC93239608950E9483180E94341952
:10265600E8EEFAE00E943B190E9444190E944B19C9
:10266600E4E1FBE00E943B190E944B19EFE1FBE01D
:102676000E9450190E944B19E8EFFAE00E94501987
:102686000E945719E4E2FBE00E943B190E94571989
:10269600EFE2FBE00E9450190E945719E8EFFAE0BA
:1026A6000E9450190E945C190E946319EFE4FBE036
:1026B600FA93EA93E09195040E941519E091960425
:1026C6000E941519E09197040E941519E09198044B
:1026D6000E94151980E10E94081764960E946819E5
:1026E600EBE6FBE0FA93EA93E09199040E94151950
:1026F600E0919A040E941519E0919B040E94151915
:10270600E0919C040E941519E0919D040E94151900
:10271600E0919E040E94151988E10E9408176C96A4
:102726000E946F1908950E9483180E943419EDE8DB
:10273600FBE00E943B190E9444190E944B19EFE9E5
:10274600FBE0FA93EA930E941D110E9415190E945C
:1027560081190E945719E5EBFBE0FA93EA930E9470
:1027660033110E9415190E9481190E945C190E945A
:102776006319EBECFBE0FA93EA93D8010E94C718C1
:10278600DF01E8EEF3E00E94971A0E94CC18D80108
:102796000E94C718DF01E8EEF3E00E94D91A0E94F2
:1027A600CC180E941B190E946819E6EEFBE0FA930A
:1027B600EA93D8010E94D1180E94D918D8010E9424
:1027C600D1180E94E0180E941B190E946F190895E3
:1027D6000E9483180E943419E2E0FCE00E943B1933
:1027E6000E948819E8E1FCE00E943B190E944B19FF
:1027F600E7E3FBE00E943B190E945719EEE2FCE07A
:10280600FA93EA93D8010E94EC180E948D19D80118
:102816000E94EC180E9491190E941B190E9495199A
:10282600E6E4FCE0FA93EA93D8010E94F6180E94C7
:102836008D19D8010E94F6180E9491190E941B1941
:102846000E949C19EEE5FCE0FA93EA93D801A454A1
:10285600BF4F0E94231B0E948D19D8010E94F618B3
:102866000E9491190E941B190E946819E7E3FBE078
:102876000E943B190E949F19E7E3FBE00E94A419FE
:1028860008950E9483180E943419E6E7FCE00E942E
:102896003B190E948819EDE8FCE00E943B190E9452
:1028A6004B190E94AE190E945719E4EAFCE0FA930C
:1028B600EA930E94B1190E94D9180E94B1190E9488
:1028C600E0180E941B190E949519EEEBFCE0FA93A2
:1028D600EA930E94BA190E94D9180E94BA190E9456
:1028E600E0180E941B190E949C19E8EDFCE0FA937F
:1028F600EA930E94C3190E94D9180E94C3190E9424
:10290600E0180E941B190E9468190E94AE190E94C5
:102916009F19E8E3FBE00E94A41908950E9483181A
:102926000E943419E2EFFCE00E943B190E948819CC
:10293600EDE8FCE00E943B190E944B190E94AE197B
:102946000E945719E9E0FDE0FA93EA930E94CC1938
:102956000E94D4190E94CC190E94D9190E941B19F1
:102966000E949519E1E2FDE0FA93EA930E94E019CC
:102976000E94D4190E94E0190E94D9190E941B19BD
:102986000E949C19E9E3FDE0FA93EA93D801A45367
:10299600BF4F0E94271BDF01CB010E9430180E9407
:1029A600D4190E94CC190E94D9190E941B190E94A1
:1029B60068190E94AE190E949F19E8E3FBE00E9485
:1029C600A4190895E091C000E07211F00C94EC1483
:1029D600F9CFE881E093C60021960895EA81EA934B
:1029E6000E94E514A881B9810E9461182396089572
:1029F6001A930A93AA81BB8112960E94231B3097D1
:102A060011F40C943215AA81BB8114960E94231BE3
:102A16008F01309711F00C9411150EC00230E0E0D2
:102A26001E0710F40C943115F80131978F01AA8115
:102A3600BB811496ED93FC93AA81BB8112960E94EA
:102A460061183197AC81A083AA81BB810E94231BA8
:102A5600FF2312F40C9431150E94611806C0AA8156
:102A6600BB81EFEFFFEFED93FC931981088125966B
:102A760008952B970E94561B10E0A989BA890E94D7
:102A86005C18EF89F88D3196EF8BF88F3197E491CA
:102A96002E2FE03011F40C940017E12FE03011F0E6
:102AA6000C945E15253211F00C945B1511E002C0F2
:102AB6000E94E819A1C1E13011F00C94801525326D
:102AC60011F00C946A150E94E81910E095C112E005
:102AD60040E000E02D3211F00C94731501E08CC13A
:102AE6002B3211F00C9479154BE286C1203211F08D
:102AF6000C947F1540E280C104C0E23011F00C94C2
:102B06008D1550E013E0203311F00C948C150068FD
:102B160073C104C0E33011F00C94AA15203310F4ED
:102B26000C949A152A3310F00C949A1501C007C01C
:102B3600AAE05A9F502DE22FE0535E0F5DC12C365E
:102B460011F00C94A915026015E056C104C0E530D9
:102B560011F00C94FF16E22FE33611F00C94BD151C
:102B66000E94F119ED89FE89A481AA930E94F719A2
:102B760042C104C0E33711F00C94CA150E94F11942
:102B86000E94FF190E9470171E2F0DC004C0E03767
:102B960011F00C94DC150E94F1190E94FF190E9495
:102BA6007A171E2F08600F77E0E0E88B30E07EC0D2
:102BB60004C0E43611F00C94E11504C0E93611F0B6
:102BC6000C94E715046004C0E53711F00C94001668
:102BD600EAE0E88B01FF08C0E0E0FAEC6AE97BE393
:102BE6000E94091A1AE026C0E0E1F7E260E070E010
:102BF6000E94091A15E01EC004C0E83511F00C94B5
:102C06000616086004C0E83711F00C94FE16E0E1E1
:102C1600E88B01FF08C0E0E0F0E060E070E10E94B0
:102C2600091A18E007C0E0E0F0E160E070E00E94F9
:102C3600091A14E001FF0AC00E94F119AD89BE8984
:102C460014960E94271B0E940E1A19C002FF0CC080
:102C56000E94F119AD89BE8914960E94231B0E9419
:102C66006D1A0E940E1A0BC00E94F119AD89BE8919
:102C760014960E94231B662777270E940E1A02FFCE
:102C860015C0AF85AA2312F00C945216EC85FD856B
:102C96006E857F850E94451A0E940E1A4DE24030CD
:102CA60011F40C9458161F5F01C00B7F00FD13C072
:102CB600151710F00C946E1607FF08C002FF04C02B
:102CC6000B7F242F115001C020E301C020E20E9497
:102CD600E8195150EDCF312FE889E03011F00C940E
:102CE6008F16303011F40C948E1603FF06C0EE8159
:102CF600FF812591EE83FF8305C0AE81BF812D91B3
:102D0600AE83BF830E94E819503011F40C948C16E0
:102D160051503150E6CF63C00E94131A0E94AF1A79
:102D26002E2F2A3010F40C949E1603FF02C0295C45
:102D360001C0295A01C0205D04FF01C02CC0213307
:102D460010F00C94B516A885B9858A859B85A130A7
:102D5600E0E0BE07E0E08E07E0E09E0711F40C9489
:102D6600B51601C00CC0531710F40C94BD1600FD27
:102D760001C001C017C020E207FF0DC020E30061BB
:102D860002FF09C00B7F4A930E94F719503011F4D5
:102D96000C94CE1651500E94E819503011F40C9440
:102DA600D516515031500E94131A0E94EA1A0E94F9
:102DB6000E1AE889A885B9858A859B85FF27662727
:102DC60077270E94AF1A0E94091AE885F9856A8555
:102DD6007B850E94521B11F40C94F2169DCF00FFC6
:102DE6000AC0503011F40C94FE165150E0E2EA93FA
:102DF6000E94F719F6CF10E044CEA989BA890E943D
:102E0600231B0E945D1B69960895FF92F82E269754
:102E16000E94581B0E941C1A309711F00C941A1726
:102E2600EFEFFFEF0E945F1B2A96FF900895DE01E9
:102E360016960E94381A8D010E941C1AEE83FF8393
:102E4600E0E0E887E987DE011A960E94231AEBEF95
:102E5600F4E1FA93EA93FE013A96FA93EA930E9412
:102E66003C159F01AE81BF81E0E0EC93F9010E9421
:102E76005F1B2A96FF900895FF92F82E26971A93C5
:102E86000A93DE0114960E94381A8D01E0E0EC8365
:102E9600ED83EE83EF83DE0118960E94231AE1EF9D
:102EA600F4E1FA93EA93FE013896FA93EA930E94C4
:102EB6003C15198108812896FF900895E991F991AA
:102EC600A991B991CD016D916623E9F71197059006
:102ED6000D920020E1F7FC010895A991B991EE2722
:102EE600FF276D91662311F03196FBCF0895AA272F
:102EF600BB27E991F9910590002011F01196FBCFBF
:102F0600FD010895E991F99130971AF4E095F0954D
:102F160031960895E8EBFBE060E070E00E94401B0C
:102F26000895FA93EA930C94C50AFA93EA930E94D9
:102F3600040AE0E0EA930895FA93EA930C94040AEB
:102F4600FA93EA93E0E3F0E0FA93EA930C94660BC3
:102F5600A7E1B5E0F0E0EE0FFF1F0895ED81FE81D9
:102F66006F81788508950E94B117A8E0B0E080E0EF
:102F760090E00E94721A08950E94AF1AE150F04044
:102F8600604070408F0108950A2EAC91E32FEE0F3A
:102F9600EA2BA02DEC930895E981F0E008950E94B4
:102FA600611AED55FB4FFA93EA930895E881F0E034
:102FB600EF55FB4F0895E881F9813196E883F9834F
:102FC6003197E4910895E881F0E00895AE0FBF1FB0
:102FD6000E94231B08950A921A92FA926A937A9390
:102FE6008A939A93AA93BA93EA93FA93EFB7EA93DA
:102FF6000895EA930E942A0AE991EFBFF991E991AF
:10300600B991A9919991899179916991F9901990BC
:1030160009900895EA930E94680AE991EFBFF99131
:10302600E991B991A9919991899179916991F990CB
:10303600199009900895ABE01A9FF001E35EFA4FEC
:103046000895AE81BF8188859985AA30E0E0BE07E4
:10305600E0E08E07E0E09E070895EAE0F0E060E039
:1030660070E00895AE81BF81888599850E943018E9
:103076000E94AF1A0895FA93EA93E12FFF27662775
:1030860077270E94401B84E00E943F1726960895EA
:103096000E945D1B2696E991EFBFF991E991B991DE
:1030A600A9919991899179916991F99019900990CD
:1030B6000895E0E0F0E0ED93FC930895ED91FD9125
:1030C6003196FE93EE930895E981FA810680178082
:1030D600A981BA810895FA93EA9380E00E943F1786
:1030E60022960895E12FF0E00895FA93EA93E2E03C
:1030F600EA930C940B0DEA930E94450E1E2F089539
:103106001A930A9308EB13E00895FA93EA93E1E021
:10311600EA930C94130FFA93EA93E2E0EA930C9481
:10312600130FD901A854BF4FDDCF0E94631AAE0F0B
:10313600BF1F0E94271BDF01CB01E8E00E94551A42
:103146000895DF01CB01E0EAF6E861E070E008955A
:10315600D901A254BF4FC6CFD901AC53BF4FC2CF7E
:103166000E94631AAE0FBF1F0E94271B0895EE0F21
:10317600FF1F2CCFEE0FFF1FAE0FBF1F9ACFFA9384
:10318600EA93AA81BB810895A659BF4F0E94231BCB
:103196000895662777270E94401B0895AA54BF4FBB
:1031A6000E94231BDF01EAE0F0E008950E94AA1ABC
:1031B6000E946D1A0E94401B08950E94DC1A0E940C
:1031C6006D1A0E94401B08958CE00E943F172E96B0
:1031D6000895A854BF4F0E94231B08950E946D1A9C
:1031E6000E94401B0895A654BF4F0E94231B0895BA
:1031F6000E94231BF3CF0E94581B00E028EB33E00C
:1032060010E00895EFE7EA930C948F12EA930E9478
:103216008F12E0E1EA930C948F12E0E0EA93E1E08A
:10322600EA930895FF27662777270E94401B089593
:1032360088E00E9408172C960895EA0FFB1FE49178
:10324600EA930C949312EA93E981EA930E94791225
:1032560021960895E1ECF5E0FA93EA93E4E0EA9327
:103266000895AA81BB810E94231BFA93EA930895CD
:10327600FA93EA9380E00E9408172496EA81FB817C
:103286000895A281B381BA93AA93EEEFFAE0F0CF44
:10329600A481B581BA93AA930895FA93EA930E94FA
:1032A6006117EA81FB810895A681B781BA93AA9333
:1032B6000895A085B185BA93AA93E4E3FBE0D8CF3D
:1032C600A285B385BA93AA930895EA81FB81A48562
:1032D600B585BA93AA930895EA81FB81A685B78539
:1032E600BA93AA93E4E3FBE0FA93EA9380E00E94A0
:1032F60008172496198108812496089584E00E946F
:1033060008172896EA81FB810895A281B381BA93B2
:10331600AA930895DF01EAE0F0E048CFDF01EAE092
:10332600F0E04BCFEA81FB81A085B185BA93AA93E1
:103336000895EA81FB81C4CFA685B785BA93AA937F
:103346000895FA93EA9380E00E940817249619815B
:10335600088124960895E8E3FBE08ACFD801A254B9
:10336600BF4F0E94231BDF01E4E6F0E00895D80179
:10337600A054BF4F0E94231BDF01E4E6F0E008954E
:10338600D801AE53BF4F0E94231BDF01E4E6F0E0F5
:103396000895D801AC53BF4F0E94271BDF01CB0114
:1033A6005CCE0E94D41A0E94401B08950E94EE1A19
:1033B600FA93EA930E948517ECCED801A853BF4F23
:1033C6000E94271BDF01CB0148CE2A93EA89FB899D
:1033D600FA93EA93EE89FF8909950895ED89FE89A6
:1033E6003497ED8BFE8B0895EA89FB89FA93EA936D
:1033F600EE89FF8909950895AD89BE8914960E94C4
:10340600231BEE83FF83FA93EA930895E887F987EF
:103416006A877B870895EC87FD876E877F87089587
:10342600E885F9856A857B85AC85BD858E859F8512
:103436000895DE011C960E94381A0E94231B0895E7
:103446000E94381A0E94231BFA93EA931A930A934E
:103456000895E991F991309639F08DEC9AE001974B
:10346600F1F7A8953197C9F708950024AF0DB01D5F
:103476000895EA1BFB0B680B790B0895F195E1950E
:10348600F0400895F09560957095E195FF4F6F4F68
:103496007F4F0895EE230E2EEA2F19F0EE0F0A94B1
:1034A600E9F70895EE230E2EFD01BC0131F0769565
:1034B6006795F795E7950A94D1F70895EE0FFF1FE4
:1034C600EE0FFF1FEE0FFF1F0895EE0FFF1F661F83
:1034D600771F08956F2F660F660B762F08957A9FD4
:1034E600702D6B9F700DF89F700DE99F700D6A9F90
:1034F600602D710DFB9F600D711DE89F600D711DA4
:103506008827FA9FF02D610D781FEB9FF00D611D46
:10351600781FEA9FE02DF10D681F781F08957DD072
:10352600DEDF0EF4AFDF08950024112490E1AA0F28
:10353600BB1F001C111C0E1A1F0A18F40E0E1F1EAC
:1035460001C0A1609A9599F7FD01D001089557D061
:10355600EBDF0EF493DF08953F934F935F930024C0
:1035660011244427552730E2AA0FBB1F881F991F35
:10357600001C111C441F551F0E1A1F0A460B570B21
:1035860028F40E0E1F1E461F571F01C0A1603A9554
:1035960059F7FD01BC01D001CA015F914F913F91DE
:1035A60008953BD0D9DF0EF46DDF0895BDDFFD0130
:1035B6000895E894B7FF04C0A095B0951196689455
:1035C600F7FD5CDFB1DFFD010EF458DF0895C4DFBF
:1035D600FD01BC010895E89497FF09C0A095B09538
:1035E60080959095AF5FBF4F8F4F9F4F689477FD43
:1035F60049DFB2DFFD01BC010EF444DF0895E89413
:10360600F7FF02C03BDF6894B7FF06C0A095B095F0
:10361600119600F8039400FA0895E89477FF02C023
:1036260031DF689497FF0BC00024A095B095809574
:1036360090951196801D901D00F8039400FA089548
:10364600ED91FC9111970895ED91FD916D917C910D
:1036560013970895ED91FD916D917D910895ED93E8
:10366600FD936D937C9308957E936E93FE93EE93F4
:1036760008950590F491E02D08957A936A93FA934C
:10368600EA930895182E862F612D192E972F712DE6
:103696001B2EBF2FF12D1A2EAE2FE12D0895309738
:1036A6006040704008955A934A933A932A931A9326
:1036B6000A9308955D814C813B812A811981088195
:1036C6000895AC0FBD1F05900D928A95E1F70895F8
:00000001FF
