:0C0000000C94AB060C9400000C94000063
:10000C000C9400000C9400000C9400000C94000064
:10001C000C9400000C9400000C9400000C94000054
:10002C000C9400000C9400000C9400000C94000044
:10003C000C9400000C9415080C9400000C94000017
:10004C000C9400000C94C8090C9400000C94BC098E
:10005C000C9400000C9400000C9400000C94000014
:10006C000C9400000C94CC090C9400000C94C20964
:10007C000A2323232323232323232323232323235D
:10008C002323232323232323232323232323232334
:10009C00232323232323232323230A23204B6E757B
:1000AC006572722041470A2320524D204949202D68
:1000BC0020496E672E204C2E4D656C696368617209
:1000CC002C20496E672E20502E4B65726E646C206E
:1000DC0000000A2323232323232323232323232343
:1000EC0023232323232323232323232323232323D4
:1000FC002323232323232323232323230000000050
:10010C0001000100010002000100030001000400D5
:10011C0002000600020062000200C6010200C801D3
:10012C000400CC010400B2020200B4020400B802C4
:10013C0004009E030200A0030400A4030400010CAD
:10014C000200424F41524400000000000000000039
:10015C000028104D4F44554C455300000000000042
:10016C0000005D10524553554D4500000000000045
:10017C000000008310564F4C5441474500000000CE
:10018C0000000000EA1043555252454E5400000046
:10019C0000000000001E11504F5745524641435479
:1001AC004F52000000001A12504F57455220414345
:1001BC00540000000000005011504F574552204190
:1001CC0050500000000000008711454E4552475921
:1001DC00204143540000000000BE11454E455247DB
:1001EC0059204150500000000000EA1100000000AE
:1001FC0000000000000000000000000000000000F3
:10020C0000000000000000000000000000000000E2
:10021C0000000000000000000000000000000000D2
:10022C00000000008080C0606030181C18306060D6
:10023C00C0808000000000000000000000000000F2
:10024C0000000000000000000000000000000000A2
:10025C000000000000000000000000000000000092
:10026C000000000000000000000000000000000082
:10027C000000000000000000000000000000000072
:10028C000000000000000000000000000000000062
:10029C000000000000000000000000000080E07082
:1002AC00383C1E1F1F9F0C0C0E0EFEFEFE0E0E0C7D
:1002BC000C9F1F1F1E3C3870E080000000000000E7
:1002CC000000000000000000000000000000000022
:1002DC000000000000000000000000000000000012
:1002EC000000000000000000000000000000000002
:1002FC0000000000000000000000000000000000F2
:10030C0000000000000000000000000000000000E1
:10031C0000000000000000000000F0FEFF070000DD
:10032C0000F8FEFF010000000000FFFFFF000000CE
:10033C00000001FFFEF800000007FFFEF0000000C7
:10034C0000000000000000000000000000000000A1
:10035C000000000000000000000000000000000091
:10036C000000000000000000000000000000000081
:10037C000000000000000000000000000000000071
:10038C000000000000000000000000000000000061
:10039C000000000000000000000001030F3E78F098
:1003AC00E0E0C78F8E9000000000FFFFFF00000010
:1003BC0000908E8FC7E0E0F0783E0F030100000044
:1003CC000000000000000000000000000000000021
:1003DC000000000000000000000000000000000011
:1003EC000000000000000000000000000000000001
:1003FC0000000000000000000000000000000000F1
:10040C0000000000000000000000000000000000E0
:10041C0000000000000000000000000000000000D0
:10042C00077FFFF101030303030303070303030324
:10043C00030301F1FF7F0700000000000000000033
:10044C0000000000000000000000000000000000A0
:10045C000000000000000000000000000000000090
:10046C000000000000000000000000000000000080
:10047C000000000000000000000000000000000070
:10048C000000000000000000000000000000F0F878
:10049C00FC3E0E0F070707070E3EFCF8E0C0E0E03D
:1004AC00E0707F7F7060E0C0C0C0C0C0C0C0C0C082
:1004BC00E060707F7F70E0E0E0C0E0F8FC3E0E078B
:1004CC000707070F0E3EFCF8F000000000000000CC
:1004DC000000000000000000000000000000000010
:1004EC000000000000000000000000000000000000
:1004FC0000000000000000000000000000000000F0
:10050C0000000000000000000000000000000000DF
:10051C00000000000000000000001F1F3F39707039
:10052C00E0E0E0C0C080800000010101010100009A
:10053C008080C0C0E0E0E07070393F1F1F000000F9
:10054C00000000000000000000000000000000009F
:10055C00000000000000000000000000000000008F
:10056C00000000000000000000000000000000007F
:10057C00000000000000000000000000000000006F
:10058C00000000000000000000000000000000005F
:10059C00000000000000000000000000000000004F
:1005AC000000010103030707070E0C1C0C0E0707C4
:1005BC000703030101000000000000000000000020
:1005CC00000000000000000000000000000000001F
:1005DC00000000000000000000000000000000000F
:1005EC0000000000000000000000000000070507EC
:1005FC000000000000000000002F000000070007B2
:10060C0000147F147F14242A7F2A12C4C810264693
:10061C0036495522500005030000001C2241000001
:10062C0041221C0014083E081408083E080800006B
:10063C0050300010101010100060600000201008E6
:10064C0004023E5149453E00427F400042615149FF
:10065C00462141454B311814127F10274545453929
:10066C003C4A494930017109050336494949360666
:10067C004949291E00363600000056360000081481
:10068C0022410014141414140041221408020151C4
:10069C000906324959513E7E1111117E7F49494953
:1006AC00363E414141227F4141221C7F494949410B
:1006BC007F090909013E4149497A7F0808087F00F2
:1006CC00417F41002040413F017F081422417F407F
:1006DC004040407F020C027F7F0408107F3E414166
:1006EC00413E7F090909063E4151215E7F091929C6
:1006FC0046464949493101017F01013F4040403F95
:10070C001F2040201F3F4038403F631408146307EC
:10071C00087008076151494543007F414100552A43
:10072C00552A550041417F0004020102044040401B
:10073C004040000102040020545454787F48444443
:10074C00383844444420384444487F38545454186E
:10075C00087E0901020C5252523E7F0804047800B4
:10076C00447D40002040443D007F1028440000415F
:10077C007F40007C041804787C08040478384444D6
:10078C0044387C14141408081414187C7C080404D1
:10079C00084854545420043F4440203C4040207CA2
:1007AC001C2040201C3C4030403C44281028440C69
:1007BC005050503C4464544C44000A232048573A4F
:1007CC002000436F6D6D4D6F64756C0020760031A9
:1007DC002E3130000A232053573A2000546573748D
:1007EC00487700312E3030000A493A20537973741F
:1007FC00656D2073746172742E2E000A493A312E85
:10080C0062797465202578000A493A322E6279742F
:10081C0065202578000A493A332E627974652025C3
:10082C0078000A493A342E62797465202578000ADA
:10083C00493A352E62797465202578000A493A3692
:10084C002E62797465202578000A493A372E627930
:10085C007465202578000A493A382E62797465202F
:10086C002578000A3D3D3D3D3D3D3D3D3D3D3D3DF9
:10087C003D3D3D3D3D3D3D3D3D3D3D3D3D3D3D3D9C
:10088C003D3D3D3D3D3D3D3D3D3D3D3D3D3D3D3D8C
:10089C003D000A45453A206E656A73656D207265A8
:1008AC00616479202578000A45453A20737061749B
:1008BC006E6120616472657361000A45453A20736C
:1008CC007061746E656A207A61636174656B000097
:1008DC000A6372656174652070726F63657373204F
:1008EC006E722E2564202E2E0000496E696369619C
:1008FC006C697A616365204F4B006672656B766537
:10090C006E63653A20202564202020202020004E94
:10091C00656A73656D20706F76696E656E2062FD19
:10092C00742074616B6F76FD2C206A616BFD206204
:10093C0079636820706F646C65206F737461746E7A
:10094C00ED6368206C6964ED206DEC6C2062FD74C5
:10095C002E204A6520746F206A656A696368206F6F
:10096C006D796C2C2061206E65206D6F6A6520732B
:10097C00656C68E16EED202D2052696368617264CC
:10098C00204665796E6D616E00202020202020208D
:10099C00202020202020202020202025752F257588
:1009AC0000000A453A207772697465207761736E8E
:1009BC00742073756363657366756C6C000A453AD5
:1009CC002077726F6E67206F7065726174696F6EDD
:1009DC002028726561642F777269746529000A4555
:1009EC003A676F6F642C206E657874207374657031
:1009FC002030782578000A453A77726F6E672C2084
:100A0C006F6E636520616761696E000A453A2077F5
:100A1C0072697465206661696C656421000A453AE7
:100A2C002053594E4328332E6279746529203A207D
:100A3C002578000A453A2041444452455353202816
:100A4C00322E6279746529000A3D3D3D3D3D3D3DA8
:100A5C003D3D3D3D3D000A6D6573736D6F64756C76
:100A6C00206E722E2575000A74656D706572617446
:100A7C007572653A2025642E2564B043000A7066B1
:100A8C003A20256C64207C20256C64207C20256C0D
:100A9C006400000317032E0345035C0373038A03EE
:100AAC00A1032020202020202020202020202020D6
:100ABC00202020202020202000002020202020206A
:100ACC002020002020202020203D3D3D3D3D3D3D6F
:100ADC003D3D3D3D3D202020200020202020202099
:100AEC00202020202020202020202020202000201A
:100AFC0020202020202020202020202020202020EA
:100B0C0025752F257500204857207665722E3A20C2
:100B1C0000312E313000205357207665722E3A204A
:100B2C0000312E30300020202020202020202020BA
:100B3C0020202020202020202020200020202020C9
:100B4C00417661696C61626C653A202575202020C4
:100B5C00202020002020202053656C656374656480
:100B6C003A204D2575202020202020002055206C77
:100B7C00696E65733A2025752020202020202020C6
:100B8C0020002049206C696E65733A202575202061
:100B9C002020202020202000202020202020202069
:100BAC002020202020202020202020202020202039
:100BBC00202000204672657175656E63653A2025AC
:100BCC00752E257520487A202020202020002054C6
:100BDC00656D70657261747572653A2025752E2588
:100BEC0075B043202020202020002025366C752C49
:100BFC002025752E2575205B565D2020204D2575F2
:100C0C002020002025366C752C2025752E253032A1
:100C1C0075205B415D204D2575202000204C2575ED
:100C2C003A20256C642E2564205B575D207C2025A2
:100C3C006C642E2564205B56415D002025366C6467
:100C4C002C20256C642E2564205B575D204D25756A
:100C5C002020002025366C642C2025336C64205B0E
:100C6C0057685D204D257520002025366C642C209E
:100C7C0025366C64204D25752020000001000100F4
:100C8C00010001000A2D000A2B000A493A62757412
:100C9C00746F6E733A206C6F6E672070726573732D
:100CAC00000A493A627574746F6E733A2073686FF8
:100CBC00727420707265737300000A493A20507286
:100CCC00696A6D757420737472696E673A20000AD4
:100CDC00453A204E65646F7374617465636E792058
:100CEC006275666665722C20737472696E673A0061
:100CFC00010001000A493A2053656E64427566662C
:100D0C0065726628290001002D4E414E00494E4661
:100D1C00000017000003AE0A17001703AE0A1700F5
:100D2C002E03AE0A17004503AE0A17005C03AE0A89
:100D3C0017007303AE0A17008A03AE0A1700A1034B
:100D4C00AE0A01004108120D0000F894EE27EFBB2B
:100D5C00F1E0F5BFE5BFF8E1A895A4B7A77FA4BF64
:100D6C00F0936000E09360008DE0A2E0BB27ED9370
:100D7C008A95E9F780E098E0A0E0B1E0ED93019767
:100D8C00E9F7EEE1FDE085919591009761F0A59171
:100D9C00B59105901590BF01F00105900D9201974A
:100DAC00E1F7FB01F0CFE0E0EEBBEFEFEDBFE8E0E9
:100DBC00EEBFC0E0D3E00C94E3067DD00E9490120D
:100DCC000E94700A0E94A5120E94880C0E94850F36
:100DDC00F894E4E6F0E0FA93EA930E945019BDD03F
:100DEC00E8EBFBE060E070E00E94501AE3EEF2E109
:100DFC000E94E616EAEFF0E060E070E00E94501A04
:100E0C00E2E0FFE00E94E616EEE1F0E060E070E068
:100E1C000E94501AEEE4F2E10E94E616E4EFF1E0D3
:100E2C0060E070E00E94501AEBE8FFE00E94E616CA
:100E3C00E8EEF3E060E070E00E94501AE3E9F2E1C2
:100E4C000E94E616E0EDF7E0FA93EA930E9450193F
:100E5C00E0E0EA93ECE7F0E00E94EA16E6ECF7E05B
:100E6C000E94EA16EEECF7E00E94EA16E8EDF7E0D5
:100E7C000E94EA16EBEDF7E00E94EA16E0EEF7E0CE
:100E8C000E94EA16E8EEF7E00E94EA16E8EDF7E0B9
:100E9C000E94EA16EFEEF7E00E94EA16EEEDF0E0A3
:100EAC000E94F11679D0E0E0EA93E4EFF7E00E94BB
:100EBC00F116FFCFFFCFE0E8E0936100E0E0E093B4
:100ECC006100E2B9E1B9E5B9E4B9E8B9E7B9EBB960
:100EDC00EAB9E4BDE5BDE6BDE7BDE8BDE093800041
:100EEC00E0938100E0938500E0938400E093870019
:100EFC00E0938600E0938900E0938800E0938B00F8
:100F0C00E0938A00E093B600E093B000E093B10068
:100F1C00E093B200E093B300E093B400E093690077
:100F2C00EDBBE0936800E0936E00E0936F00E093FC
:100F3C007000E093C000E8E0E093C100E6E0E093CD
:100F4C00C200E0E0E093C500E5E0E093C400E0E817
:100F5C00E0BFE0E0E0937B0008951A93E2E0E4BD8B
:100F6C00E5E0E5BDE0E0E6BDEBE6E7BDE0E0E8BDD1
:100F7C00E2E0E0936E00E2E3F0E0E0931A07F09316
:100F8C001B0710E01A3030F40E94F516A0E0A08385
:100F9C001F5FF8CF19910895789408950E945B1AF9
:100FAC0010E01A30D8F50E94F5169F01D901EC918A
:100FBC00E03091F5E1E0EC93EC81FD81D9011196E3
:100FCC00ED93FC930E94FB1630F40E940717EE83FE
:100FDC00FF83688779870E94FB1628F4E1E0F0E034
:100FEC0060E070E002C00E940C17D90113960E94B9
:100FFC00381A0E94FB1628F4E1E0F0E060E070E0A3
:10100C0002C00E940C17D90117960E94381AECEDF9
:10101C00F8E00E94141702C11F5FC3CFFFC00E94EB
:10102C0021170E94591AE0911A07F0911B0730976B
:10103C0041F0AAE1B7E0ED91FD913197FE93EE936B
:10104C0031C0E0E0E0936E0010E01A3040F50E94F1
:10105C00F5169F01D901AC91A130F9F4D90117967D
:10106C000E94331A3197604070400E943D1A0E94D2
:10107C00551A99F4D901E2E0EC9311964D915C91DB
:10108C00FA010995D90113960E942D1AD9011796C8
:10109C000E94381AD901E1E0EC931F5FD6CFE2E051
:1010AC00E0936E000E94601A2696E991EFBFF991C9
:1010BC00E991B991A9919991899179916991F99055
:1010CC00199009901895E881E03011F018D001C002
:1010DC0002D00C947E0B28D0E0E0E0930208E09361
:1010EC000308E8EDE093C100E1E0E0938A07E0E05B
:1010FC00E0938C07E0939E07E0939F0708951BD025
:10110C00E4E0F8E0A0E0B0E0A083B183E8EDE09388
:10111C00C900E1E0E0938B07E0E0E0938D07E0EAA3
:10112C00F7E0A083B1830895EEE8F7E0FA93EA9331
:10113C00E2EAF7E006C0E6E9F7E0FA93EA93E2EDBB
:10114C00F7E0FA93EA93E0E3F0E0FA93EA9331D113
:10115C000895AA81A23048F4EA810E942F17EA0F61
:10116C00FB1FA881B981A083B1830C94C40B0E948E
:10117C005B1AEC81E030C1F00E9435170E948F1988
:10118C000E948F19E050F04467457F4F7F936F9317
:10119C00FF93EF930E943A17AF91BF918F919F915C
:1011AC000E94421731E019C00E943A17E050F044F7
:1011BC0067457F4F7F936F93FF93EF930E94351793
:1011CC00A0E1B0E080E090E00E949919AF91BF914E
:1011DC008F919F910E94421730E0E985E03061F0D9
:1011EC000093CC001093CD00E091C000ED7FE09314
:1011FC00C000A0ECB0E00BC00093C4001093C5007D
:10120C00E091C800ED7FE093C800A8ECB0E00A2E96
:10121C00AC91E32FEE0FEA2BA02DEC930E94621AF7
:10122C002A9608950E944A17E657F84FE081E0305D
:10123C00C9F3E981E03041F0E091C800E072E1F3DC
:10124C00E881E093CE0007C0E091C000E072E1F3CA
:10125C00E881E093C6000C94750B0E944A170E941B
:10126C004D17EA81EA930E943B0A0C94750B0E947D
:10127C005417A1E0A083E881EA930E944A170E94C8
:10128C004D17B2D0EA93CEDF0C947E0BE881F98136
:10129C00E491E030A9F0EA81E03049F0E091C80037
:1012AC00E072E1F30E945917E093CE0008C0E09180
:1012BC00C000E072E1F30E945917E093C600E6CF3C
:1012CC000C94C40B0E945417E081E03049F10E9449
:1012DC0061170E948819EE56F84FDF010E94291AF7
:1012EC00309799F0E881E03041F0E6E9F7E0FA93C5
:1012FC00EA937AD0E093CE0007C0EEE8F7E0FA93D9
:10130C00EA9372D0E093C6000AC00E945417A0E082
:10131C00A0830E946117E657F84FA1E0A08306C096
:10132C000E946117E657F84FA1E0A0830C947E0B46
:10133C001A93E981E03019F01091CE0002C010919F
:10134C00C600E9810E942F170E946417309759F04C
:10135C00E9810E942F170E946417FF93EF931A9351
:10136C00EF91FF91099518810C94750B0E94211730
:10137C00E0E0EA93A7DF0FC00E942117E1E0EA93B7
:10138C00A1DF09C00E942117E0E003C00E942117D1
:10139C00E1E0EA93CDDFE991EFBFF991E991B991E1
:1013AC00A9919991899179916991F99019900990E4
:1013BC001895F894EA81FB81AC81BD81ED93FC9387
:1013CC00E881F981AC81BD811296ED93FC93AC81DF
:1013DC00BD8116960E946917AC81BD8114960E943E
:1013EC0069177894269608951A9310E0F894A981B9
:1013FC00BA8114960E94291A309791F1A981BA8169
:10140C000D901C90A981BA8116960E94291AD001C0
:10141C00AE0FBF1F1C91A981BA8116960E946E1740
:10142C000E94741712960E94291A0E161F0680F03D
:10143C00E981FA813696BF0100801180E981FA8139
:10144C00A281B381F001EA1BFB0BDB01ED93FC9352
:10145C00A981BA811496ED91FD913197FE93EE938B
:10146C007894E12F18810C94C40BF894E981FA81DB
:10147C0004801580A981BA8112960E94291A0E1631
:10148C001F0620F5A981BA810E94291AFF93EF93B8
:10149C000E94741714960E94291A0E0E1F1EA98101
:1014AC00BA8112960E94291AD0010E94FB19AF91A1
:1014BC00BF91EA0FFB1FA881A083A981BA81149662
:1014CC000E946E177894EFEF0C94C40B7894E0E0C4
:1014DC000C94C40B3E98469A3F98479A0895569A96
:1014EC005E9A579A5F9A0A9A12980B9A13980895D3
:1014FC00249A259A2698279AE3E5ECBD0895E8816D
:10150C00EEBDEDB5E078E9F3EEB5F2C00A9A099AB2
:10151C00249A119888EB8A95F1F7119A2C9AE8DFA6
:10152C0088EB8A95F1F709D088EB8A95F1F745D0CD
:10153C0088EB8A95F1F7DED00895E3EAEA93D1D0EF
:10154C00E1EAEA93CED0E0ECEA93CBD0E4E2EA9382
:10155C00C8D0E1E8EA93C5D0EFE2EA93C2D0EFE25B
:10156C00EA93BFD0E7EAEA93BCD027D00E947B175E
:10157C00E0EB0E947F17E5E0EA93B3D0E6EFF8E0EA
:10158C00FA93EA938AD0EFEAEA93ABD008951A93D0
:10159C0010E0183080F4E0E0EA93E1E0EA931A936B
:1015AC0026D0E12FA981BA810E948617FA93EA937B
:1015BC0066D01F5FEECF1881E1C01A930A930E9488
:1015CC007B1710E0183088F4E12FE06B0E947F1736
:1015DC00E1E0EA9386D000E0043828F4E0E0EA93F6
:1015EC0082D00F5FF9CF1F5FEDCF0C94410F0E949B
:1015FC007B17EA81E061EA83EA9373D0AA81A03178
:10160C0019F4E981E46001C0E981E983EA9369D0C6
:10161C00E881E06BE883EA9364D0B0C01A9310E0E1
:10162C00A981A03B11F4E0E006C0A981A03210F022
:10163C00AC3710F0E0E4E98310E01530D8F4A98160
:10164C00A03238F4E981A5E0EA9FF001E850FA4FA6
:10165C0007C0E981E052A5E0EA9FF001E250FA4FA1
:10166C00DF010E948A17EA0FFB1FE491EA933BD03B
:10167C001F5FE3CFE0E0EA9336D0188130C0A88139
:10168C00B981EC91E03041F0EA93C8DFE881F9814F
:10169C003196E883F983F3CF22C0E881F981E49194
:1016AC00E03059F0E881F981E491EA93B7DFE88101
:1016BC00F9813196E883F983F0CF11C02C98E98138
:1016CC00E03011F0129801C0129A85E28A95F1F778
:1016DC00E881EA9314DF85E28A95F1F72C9A229639
:1016EC000895E1E001C0E0E0EA93E981EA93E6DFE6
:1016FC00219608950E945B1A20E030E02830E0E04B
:10170C003E07E0F4E0E0EA93E1E0EA932A936FDF2E
:10171C0010E0103880F4A0E8A29FF001A39FF00D18
:10172C00A12FB0E0EA0FFB1FE850FE4FE491EA93C3
:10173C00DADF1F5FEECF2F5F3F4FE0CF0E94621AC0
:10174C0024960895A981BA81AC91E881AE1728F44A
:10175C00A981BA81EC91EF5F03C0A981BA81E0E065
:10176C00EC930CC0A981BA81EC91E03011F4E881C2
:10177C0004C0A981BA81EC91E150EC9323960895B1
:10178C000E947E0A08950E94591A10E000E0EA8532
:10179C00F0E0EF702E2FE9855E2FEB85E795E0E00A
:1017AC00E795AE2FEE81E295E07FEA2BE22B0E94CB
:1017BC008D1788EB8A95F1F7113C11F00C946F0C96
:1017CC005A930E94850A1E2F123C11F00C94660C41
:1017DC00EB85E03079F430E03E3158F484E191E06F
:1017EC000197F1F7E0E00E948D17113411F03F5F83
:1017FC00F3CF01C011E4113411F00C94610C30E002
:10180C00EE81A1E00E9468193E1798F588EB8A9545
:10181C00F1F7EB85E03061F4E0E00E948D17E02FEA
:10182C00AF81B885F0E0EA0FFB1F10830F5F1FC07C
:10183C00AB85A130C1F42197A885B985EE27A00FFF
:10184C00BE1F1C911A930E94850AE8830F5FA88122
:10185C00A13439F0EEEAF9E00E949217EFEF2196ED
:10186C003EC0219604C0E9ECF9E00E9492173F5F5C
:10187C00C7CFAB85A130F1F430E03E3198F488EB62
:10188C008A95F1F7E0E00E948D171E3429F0EAEEFC
:10189C00F9E00E94141706C0E2E0FAE00E949217E9
:1018AC003F5FEBCF113431F0E7E1FAE00E94921781
:1018BC00EFEF15C004C0E9E2FAE00E94141708C06B
:1018CC00E0E0EA93EFE3FAE00E94F116EFEF07C0D5
:1018DC0002C0EFEF04C088EB8A95F1F7E0E00E94BC
:1018EC00601A2C960895E0E0EA93EC81FD81FA935E
:1018FC00EA93EC81FD81FA93EA93ED81EA9343DF5D
:10190C00259608950E94C60BE8EBF3E0FA93EA9350
:10191C00E0E0EA93E7E5F3E0FA93EA930E9481169C
:10192C00249A239A229A219A209A2C9A2B9A2A9AB0
:10193C00299A289A000000000895EF97EF97EF97E7
:10194C002F970E94591AFE01EE52FF4FE0810E9420
:10195C0099179F01FE013696AF010E949F17E0E098
:10196C00EA93ECECF0E0FA93EA930E948116E2E63B
:10197C00F0E0FA93EA935A934A930E94A417D90180
:10198C00EC93AC91AF3F09F42DC2E1E0FCE0FA938B
:10199C00EA93FA0132960E94A817E1E3F8E0FA9371
:1019AC00EA93FA013C960E94AB17E2E3F8E0FA9353
:1019BC00EA93FA0174960E94AB17E4E3F8E0FA9309
:1019CC00EA93FA017C960E94AB17E1E4F8E0FA93F3
:1019DC00EA93FA01BC960E94AB17E2E4F8E0FA93A2
:1019EC00EA93FA01F4960E94AB17E4E4F8E0FA9358
:1019FC00EA93FA01FC960E94AB17E6ECF1E0FA933D
:101A0C00EA93FA0134960E94A817E2EBF2E0FA93FB
:101A1C00EA93FA0136960E94A817EEE9F3E0FA93DE
:101A2C00EA93FA0138960E94A817E1E0F8E0FA93DD
:101A3C00EA93FA01E45BFF4F0E94AB17E2E0F8E097
:101A4C00FA93EA93FA01EC5AFF4F0E94AB17E4E0C9
:101A5C00F8E0FA93EA93FA01E45AFF4F0E94AB17AD
:101A6C00E1E2F8E0FA93EA93FA01E459FF4F0E949D
:101A7C00AB17E2E2F8E0FA93EA93FA01EC58FF4F65
:101A8C000E94AB17E4E2F8E0FA93EA93FA01E45807
:101A9C00FF4F0E94AB17E1E7F8E0FA93EA93FA01E3
:101AAC00E457FF4F0E94AB17E2E7F8E0FA93EA9392
:101ABC00FA01EC56FF4F0E94AB17E4E7F8E0FA93FB
:101ACC00EA93FA01E456FF4F0E94AB17E1E7F8E006
:101ADC00FA93EA93FA01E455FF4F0E94AB17E2E741
:101AEC00F8E0FA93EA93FA01EC54FF4F0E94AB171B
:101AFC00E4E7F8E0FA93EA93FA01E454FF4F0E940A
:101B0C00AB17DA010E94291AD9011396ED93FC93B5
:101B1C00FA01A281B381ECE4F0E00E94BE19D90174
:101B2C001196ED93FC9310E0143010F00C94F80E19
:101B3C002897D901AB59BF4F0E948A170E94B11741
:101B4C00FF93EF93DA011C960E948A170E94B61736
:101B5C00AF91BF910E94381AD901AB58BF4F0E9468
:101B6C008A170E94B117FF93EF93DA019C960E949B
:101B7C008A170E94B617AF91BF910E94381AD901EB
:101B8C00AB57BF4F0E948A170E94B117FF93EF9378
:101B9C00DA01A45BBF4F0E948A170E94C217AF9153
:101BAC00BF910E94381AD901AB56BF4F0E948A17B9
:101BBC000E94B117FF93EF93DA01A459BF4F0E9413
:101BCC008A170E94C217AF91BF910E94381AD9018F
:101BDC00AB55BF4F0E948A170E94B117FF93EF932A
:101BEC00DA01A457BF4F0E948A170E94C217DF0167
:101BFC00CB01E8E00E947019AF91BF910E94381A96
:101C0C00D901AB54BF4F0E948A170E94B117FF93A2
:101C1C00EF93DA01A455BF4F0E948A170E94C21796
:101C2C00DF01CB01E8E00E947019AF91BF910E94D7
:101C3C00381AD901AB53BF4F0E948A170E94B117B3
:101C4C000E94CC170E94D1171C960E948A170E94E2
:101C5C00B617EC83FD836E837F83D90115960E94A2
:101C6C008A17EE0FFF1FEA0FFB1FFF93EF93EC8118
:101C7C00FD816E817F81A1E1B3E080E090E00E9464
:101C8C00D817AF91BF91ED93FC93DA019C960E940B
:101C9C008A170E94B617EC83FD836E837F83D9016C
:101CAC001D960E948A17EE0FFF1FEA0FFB1FFF9372
:101CBC00EF93EC81FD816E817F81A9E1B3E080E03F
:101CCC0090E00E94D817AF91BF91ED93FC93DA018D
:101CDC00A45BBF4F0E948A170E94C2170E944B1A26
:101CEC000E94E3170E94B117FF93EF930E94E6172F
:101CFC00AF91BF910E94381AF9013196EC5AFF4FFF
:101D0C00DF010E948A170E94B1170E94CC170E9413
:101D1C00D117A457BF4F0E948A170E94C2170E9466
:101D2C004B1A0E94F7170E94B117FF93EF930E9472
:101D3C00E617AF91BF910E94381AD9011596E12F81
:101D4C000E948617749730F4D90115960E948A1751
:101D5C000E94FA17D9011D96E12F0E94861735971C
:101D6C0030F4D9011D960E948A170E94FA170E941E
:101D7C00E3170E94FF170E94041834F40E94E31723
:101D8C000E94FF170E940E18D90195960E948A177F
:101D9C000E94FF170E94041844F4D90195960E94E2
:101DAC008A170E94FF170E940E180E94F7170E94B4
:101DBC00FF170E94041834F40E94F7170E94FF17B3
:101DCC000E940E180E9415180E94FF170E940418FA
:101DDC0034F40E9415180E94FF170E940E182896C2
:101DEC001F5FA2CEE1E0E0930E070E94601AEF960F
:101DFC00EF96EF9666960895E0910D07EF5FE093EE
:101E0C000D07E150A0910D07A43031F4E0E0E09310
:101E1C000D071FD0E0930C07E0910D07E03011F493
:101E2C002B980BC0E13011F42A9807C0E23011F462
:101E3C00299803C0E33009F42898E0910D07EA9340
:101E4C007CDD2C9A2B9A2A9A299A289A0000000059
:101E5C0008951A930A9300E010E0143058F4A5ED9D
:101E6C001A9FF001E854FC4FA081AF3F09F00F5FBF
:101E7C001F5FF3CFE02F0991199108950E941B1851
:101E8C00133050F4D9011596E12F0E948617309724
:101E9C0009F00F5F1F5FF4CFE02F0C94A7130E9483
:101EAC001B18133050F4D9011D96E12F0E94861790
:101EBC00309709F00F5F1F5FF4CFE02F0C94A7133E
:101ECC001A93E981E150AA81BB81F0E0AE0FBF1FEC
:101EDC00EC91E07811F0E1E001C0E0E01E2F103051
:101EEC0039F0AA81BB810E942D1A0E94601904C08E
:101EFC00AA81BB810E942D1A18810C94A913E0E0D1
:101F0C00E09306080E948C0A0895609780E1A0E097
:101F1C00B0E0EEE9FAE00E94671AE0910608EA9355
:101F2C00FE013196FA93EA9367D00E9422180E9420
:101F3C00CD0A609608950E9426180E94A80B089559
:101F4C000E9426180E94B80B0895A897EAA50E9433
:101F5C002D180E94B3167097F8F40E942218E6EC24
:101F6C00FAE00E943518ECA50E942D180E943A1830
:101F7C00E9ECFAE00E943D18A8A5B9A50E94411809
:101F8C000E944618E8A5F9A5A281B381BA93AA9339
:101F9C00EFECFAE00E944E18AB960895A8971A93AE
:101FAC001CA5173068F4E12FA9A5BAA50E948617C5
:101FBC00FA93EA93E6EEFAE00E944E181F5FF1CF17
:101FCC00FE013196FA93EA93EBEFFAE0FA93EA9377
:101FDC00EFA50E9454180E9407170E945B18E9A5F0
:101FEC00FAA5A685B785BA93AA93FE0133960E94EB
:101FFC0062181881AD9608951A93EB81EA93EA81E1
:10200C00FB81FA93EA93A1DFEB81A1E1EA9FF00156
:10201C00E25BFE4F3F960E94421AFF93EF93E981D9
:10202C00FA81FA93EA93EF91FF9109951E2F1A9377
:10203C00EC81EA93EB81FC81FA93EA93AFDF188190
:10204C000C94A913A8970E942218E2E1FBE00E94CD
:10205C003518EDE1FBE0FA93EA930E943A18E8ECAC
:10206C00FAE00E943D180E9468180E9446180E94CF
:10207C002218E2E2FBE00E943518EDE2FBE0FA9355
:10208C00EA930E943A18E8ECFAE00E943D180E948C
:10209C006F180E9476180E947F18E8A5F9A5A485F0
:1020AC00B585BA93AA930E944618E7E024C0A89776
:1020BC000E946818E2E3FBE00E944E180E9422186E
:1020CC00E8E4FBE0FA93EA93E0910C070E9486188F
:1020DC000E946F180E9476180E942218E0E6FBE01E
:1020EC00FA93EA930E94901884E00E942016289696
:1020FC000E947F18E6E0AA960895A8971A930A936F
:10210C000E9493188F010E949618E8E7FBE0FA935F
:10211C00EA930E94440F0E948618EAA5FBA50E9430
:10212C009B180E94A0180E949618EEE8FBE0FA9308
:10213C00EA930E94550F0E948618EAA5FBA5A6817A
:10214C00B7810E94A318EAA5FBA5A085B185BA9317
:10215C00AA93E4EAFBE00E944E180E949618EFEB5B
:10216C00FBE0FA93EA93F801A381B481E8EEF3E083
:10217C000E94A618A381B481E8EEF3E00E94AE1889
:10218C00EAA5FBA5A285B3850E94A3180E94961808
:10219C00EAEDFBE0FA93EA93F801A181B281EAE05F
:1021AC00F0E00E94A618A181B281EAE0F0E00E9462
:1021BC00AE18EAA5FBA5A485B5850E94A318E7E097
:1021CC0019810881AC9608950E94B3180E94B71823
:1021DC00E2E3FBE00E944E1820E030E02330E0E028
:1021EC003E0728F50E94BB18E6EFFBE0FA93EA9352
:1021FC00D801AB59BF4FF9010E94FF170E94C018BC
:10220C000E94C618DF01EAE0F0E00E94CB180E94A1
:10221C00C618DF01EAE0F0E00E94D3180E94DA1839
:10222C000E94E5180E94E8182F5F3F4FD7CF2BC1B3
:10223C000E94B3180E94B7180E94EC1820E030E0FE
:10224C002330E0E03E0728F50E94BB18EFE0FCE0ED
:10225C00FA93EA93D801AB58BF4FF9010E94FF17CC
:10226C000E94C0180E94EF18DF01E4E6F0E00E9423
:10227C00CB180E94EF18DF01E4E6F0E00E94D318BF
:10228C000E94DA180E94E5180E94E8182F5F3F4F51
:10229C00D7CFF9C00E94B3180E94B7180E94EC184F
:1022AC0020E030E02330E0E03E0750F50E94BB1800
:1022BC00E7E4FCE0FA93EA93D801AB57BF4FF9017E
:1022CC000E94FF170E94C0185596F9010E94FF1733
:1022DC000E94F4180E94F6190E94501AD8015596C3
:1022EC00F9010E94FF170E94F4180E94F9180E942D
:1022FC00DA180E94E5180E94E8182F5F3F4FD2CFE2
:10230C00C2C00E94B3180E94B7180E94EC1820E0BB
:10231C0030E02330E0E03E0750F50E94BB18E7E4C4
:10232C00FCE0FA93EA93D801AB56BF4FF9010E9437
:10233C00FF170E94C0189596F9010E94FF170E9482
:10234C00F4180E94F6190E94501AD8019596F901BA
:10235C000E94FF170E94F4180E94F9180E94DA18C4
:10236C000E94E5180E94E8182F5F3F4FD2CF8BC018
:10237C000E94B3180E94B7180E94EC1820E030E0BD
:10238C002330E0E03E07F8F40E94BB18EFE5FCE0D8
:10239C00FA93EA93D801AB55BF4FF9010E94FF178E
:1023AC000E94C018D596F9010E94FF170E940419CB
:1023BC000E9490180E9409190E94E5180E94E818C2
:1023CC002F5F3F4FDDCF5FC00E94B3180E94B7183C
:1023DC000E94EC1820E030E02330E0E03E0718F5D6
:1023EC000E94BB18EFE5FCE0FA93EA93D801AB54DA
:1023FC00BF4FF9010E94FF170E940419F801319692
:10240C00EC5BFF4FDF01F9010E94FF170E940419DA
:10241C000E9490180E9409190E94E5180E94E81861
:10242C002F5F3F4FD9CF2FC00E94B3180E94B7180F
:10243C000E94EC1820E030E02330E0E03E0718F575
:10244C000E94BB18E5E7FCE0FA93EA93D801AB5382
:10245C00BF4FF9010E94FF170E940419F801319631
:10246C00EC5AFF4FDF01F9010E94FF170E9404197B
:10247C000E9490180E9409190E94E5180E94E81801
:10248C002F5F3F4FD9CFE6E00E94621AAE960895B7
:10249C0037991CC0E0910A08EF5FE0930A08A091FD
:1024AC000A08AF3190F0E6E9FCE00E949217E0E0F8
:1024BC00E0930A08E1E0E0930C08EFE0F7E0FA9310
:1024CC00EA93E3E0EA930E94A80B14C0A0910A08D7
:1024DC00A33020F0A0910C08A03009F006C0EDEA62
:1024EC00FCE00E9492170E94A60FE0E0E0930C081B
:1024FC00E0930A08369904C0E0910B08EF5F07C01F
:10250C00A0910B08A33010F00E94A10FE0E0E09323
:10251C000B0808950E94750A0895EBB1A0E8EA270C
:10252C00EBB9E0910D08E03031F0EBB1A0E4EA2713
:10253C00EBB9E0E001C0E1E0E0930D0808951A93D7
:10254C00EAB1EC7FEAB9EBB1E360EBB9529AEBB1CB
:10255C00E360EBB9E1E0EA930E946908E1E0EA93F9
:10256C00E0E8F5E260E070E00E94501AE0E0EA93E7
:10257C000E94BD08E1E0EA93E7EFF3E1FA93EA93F6
:10258C000E94AF0810E0143038F40E948A17E05F04
:10259C00F84F10831F5FF7CF10E0163048F4A4E11A
:1025AC00B7E00E948A17EA0FFB1F10831F5FF5CF5D
:1025BC00E0E0E0933F0819910895A0913E08A63001
:1025CC0009F462D101D008950E945B1A08EB13E064
:1025DC00E0914008EF5FE0934008E150E03019F5DE
:1025EC00A0E03799A1E0EA2FEE0FAE2FE0E036998C
:1025FC00E1E0EA2B3E2FE0E2EA93EDB7FEB7FA9367
:10260C00EA933F93E1E0EA93A0D03F913AEAE0E10C
:10261C00EA93EDB7FEB7FA93EA933F93E1E0EA93BE
:10262C0094D03F9180C0E13069F4E0E3EA93F80183
:10263C0033960E941419E1E3EA93F80131960E9453
:10264C00141971C0E23099F4E0E4EA93F80135967C
:10265C000E941419E1E4EA93F80137960E941419C8
:10266C00E2E4EA93F80139960E9414195CC0E33055
:10267C0099F4E3E4EA93F8013D960E941419E4E41A
:10268C00EA93F8013F960E941419E5E4EA93F801E5
:10269C0071960E94141947C0E43099F4E6E4EA9369
:1026AC00F80175960E941419E7E4EA93F8017996FB
:1026BC000E941419E8E4EA93F8017D960E9414191B
:1026CC0032C0E53099F4E9E4EA93F801F5960E94FA
:1026DC001419EAE4EA93F801F9960E941419EBE450
:1026EC00EA93F801FD960E9414191DC0E630D9F446
:1026FC00ECE4EA93F8013196EC5AFF4F0E9414195E
:10270C00EDE4EA93F8013196E85AFF4F0E94141950
:10271C00EEE4EA93F8013196E45AFF4F0E94141943
:10272C00E0E0E0934008E2E0EA93EDB7FEB73197C2
:10273C00FA93EA934F933F93E0E0EA9306D03F91EC
:10274C004F910E94621A249608951A930A9303E5F6
:10275C00E1E0EA93E3E5EA930E943309E1E0EA93CE
:10276C00E0913F08EF5FE0933F08EA930E94330942
:10277C00E0913F080E27E1E0EA93EE81E068EA93EE
:10278C000E943309ED810E27E1E0EA93EB81EA9395
:10279C000E943309EA810E2710E0EA811E17A0F48B
:1027AC00E1E0EA93AC81BD81EE27A10FBE1FEC9155
:1027BC00EA930E943309AB81BC81EE27A10FBE1FA7
:1027CC00EC910E271F5FE9CFE1E0EA930A930E9498
:1027DC003309E1E0EA930E943D09198108812696AC
:1027EC000895E0913E08E03051F4A881A33531F40E
:1027FC00E0E0E0933D08E1E0E0933E0843C0E130C7
:10280C0029F4E881E0931908E2E03AC0E23029F4B7
:10281C00E881E0931A08E3E033C0E33081F4A88147
:10282C00AF3110F0E0E008C0E881E0931D08E03023
:10283C0011F0E4E001C0E5E0E0933E0823C0E43091
:10284C00C9F4AEE1B8E0E0913D08F0E0EA0FFB1FFF
:10285C00A881A083E0913D08EF5FE0933D08E15033
:10286C00A0913D08E0911D08AE1718F0E5E0E0934B
:10287C003E0808C0E53031F4E881E0933C08E6E01E
:10288C00E0933E080C945D14E0911A08E23021F4B8
:10289C00E0E0E093190802C0E1E00895E0E008955B
:1028AC00E091C000E072E1F3E881E093C60021966C
:1028BC000895EA81EA93F4DFA881B9810E946E172A
:1028CC00239608951A930A93AA81BB8112960E94AB
:1028DC00291A309729F1AA81BB8114960E94291AD2
:1028EC008F01309761F00230E0E01E07C0F0F80174
:1028FC0031978F01AA81BB811496ED93FC93AA8129
:10290C00BB8112960E946E173197AC81A083AA816D
:10291C00BB810E94291AFF2312F00E946E1706C079
:10292C00AA81BB81EFEFFFEFED93FC931981088136
:10293C000C948D162B970E94591A10E0A989BA890C
:10294C000E946917EF89F88D3196EF8BF88F3197CC
:10295C00E4912E2FE03011F40C941816E12FE03096
:10296C0039F4253211F411E002C00E941A1959C130
:10297C00E130A9F4253219F40E941A1951C112E060
:10298C0040E000E02D3211F401E04BC12B3211F488
:10299C004BE247C1203211F440E243C102C0E230A5
:1029AC0039F450E013E0203311F400683AC102C04E
:1029BC00E33091F4203310F02A3308F007C0AAE07A
:1029CC005A9F502DE22FE0535E0F2BC12C3619F479
:1029DC00026015E026C104C0E53011F00C94171606
:1029EC00E22FE33649F40E942319ED89FE89A48174
:1029FC00AA930E94291914C1E33741F40E942319A8
:102A0C000E9431190E94A9161E2F0AC0E03769F4E2
:102A1C000E9423190E9431190E94B3161E2F0860C0
:102A2C000F77E0E0E88B30E06FC0E43611F0E93668
:102A3C0011F4046002C0E537A1F4EAE0E88B01FF71
:102A4C0008C0E0E0FAEC6AE97BE30E943B191AE06B
:102A5C0023C0E0E1F7E260E070E00E943B1915E072
:102A6C001BC0E83511F4086004C0E83711F00C9471
:102A7C001616E0E1E88B01FF08C0E0E0F0E060E052
:102A8C0070E10E943B1918E007C0E0E0F0E160E063
:102A9C0070E00E943B1914E001FF08C00E9423194A
:102AAC00AD89BE8914960E942D1A15C002FF0AC06A
:102ABC000E942319AD89BE8914960E94291A0E947E
:102ACC00941909C00E942319AD89BE8914960E94DD
:102ADC00291A66277727EC87FD876E877F8702FF89
:102AEC0013C0AF85AA235AF4EC85FD856E857F85CE
:102AFC000E946019EC87FD876E877F874DE240301E
:102B0C0011F01F5F01C00B7F00FD11C0151778F489
:102B1C0007FF08C002FF04C00B7F242F115001C017
:102B2C0020E301C020E20E941A195150EFCF312F3F
:102B3C00E889E030B9F43030A1F003FF06C0EE8133
:102B4C00FF812591EE83FF8305C0AE81BF812D915E
:102B5C00AE83BF830E941A19503009F05150315086
:102B6C00EACF54C00E9440190E94D1192E2F2A304E
:102B7C0030F003FF02C0295C01C0295A01C0205D5E
:102B8C0004FD22C0213360F4A885B9858A859B8514
:102B9C00A130E0E0BE07E0E08E07E0E09E0709F41C
:102BAC0009C0531710F000FF01C013C020E207FF4B
:102BBC000BC020E3006102FF07C00B7F4A930E9409
:102BCC002919503009F051500E941A19503009F04F
:102BDC00515031500E9440190E94FE19EC87FD871C
:102BEC006E877F87E889A885B9858A859B85FF27AD
:102BFC00662777270E94D1190E943B19E885F98531
:102C0C006A857B850E94551A09F0ACCF00FF08C07D
:102C1C00503031F05150E0E2EA930E942919F8CF7C
:102C2C0010E090CEA989BA890E94291A0E94601AD4
:102C3C0069960895FF92F82E26970E945B1A0E94BF
:102C4C004919309719F4EFEFFFEF23C0DE01169608
:102C5C000E945C198D010E944919EE83FF83E0E00C
:102C6C00E887E987DE011A960E945C190E944118D8
:102C7C001A930A93E8E6F4E1FA93EA93FE013A9682
:102C8C00FA93EA9357DE9F01AE81BF81E0E0EC93AB
:102C9C00F9010E94621A2A96FF900895FF92F82E6D
:102CAC0026971A930A93DE0114960E945C198D01E3
:102CBC00E0E0EC83ED83EE83EF83DE0118960E9457
:102CCC005C190E9441181A930A93EFE5F4E1FA9308
:102CDC00EA93FE013896FA93EA932CDE1981088167
:102CEC002896FF900895E991F99130971AF4E095A0
:102CFC00F09531960895B981A881109631F0FC8138
:102D0C00EB816A8161931197E9F7EB81FC81259640
:102D1C000895E991F991A991B991CD016D9166232D
:102D2C00E9F7119705900D920020E1F7FC01089549
:102D3C00E991F991A991B991CD0105900D920020DD
:102D4C00E1F7FC010895A991B991EE27FF276D9148
:102D5C00662311F03196FBCF0895AA27BB27E99182
:102D6C00F9910590002011F01196FBCFFD0108950B
:102D7C007991E991F991A991B991CD01772351F00C
:102D8C007A9561916D936623C9F7772319F07A953B
:102D9C006D93FBCFFC0108956991E991F991A9918B
:102DAC00B991CD01662351F06A9505900D920020E2
:102DBC00C9F7662319F06A950D92FBCFFC010895B3
:102DCC00FA93EA930C94D407FA93EA930E944C0971
:102DDC00E0E0EA930895FA93EA930C944C09ABE083
:102DEC001A9FF001E45EF84F0895AE81BF8188858B
:102DFC009985AA30E0E0BE07E0E08E07E0E09E0790
:102E0C000895EAE0F0E060E070E00895AE81BF81E3
:102E1C0088859985F6DF0E94D1190895FA93EA9373
:102E2C00E12FFF27662777270E94501A84E00E9423
:102E3C005416269608950A921A92FA926A937A93E5
:102E4C008A939A93AA93BA93EA93FA93EFB7EA9375
:102E5C000895A2E0B8E0F0E0EE0FFF1F0895ED81B9
:102E6C00FE816F8178850895FADFA8E0B0E080E0FC
:102E7C0090E00E94991908950E94D119E150F040F8
:102E8C00604070408F010895E981F0E008950E9440
:102E9C008819E257F84FFA93EA930895E881F0E025
:102EAC00E457F84F0895E881F9813196E883F98366
:102EBC003197E4910895E881F0E00895AE0FBF1FBB
:102ECC000E94291A0895E0E0F0E0ED93FC93089538
:102EDC00ED91FD913196FE93EE930895E981FA817F
:102EEC0006801780A981BA810895EFE7EA930C94C4
:102EFC00770BEA930E94770BE0E1EA930C94770B43
:102F0C00F0E0EE0FFF1FDACFE12FF0E00895EA9327
:102F1C000E94850A1E2F0895FA93EA9380E00E947E
:102F2C00541622960895A5EDEA9FF001E854FC4F43
:102F3C000895FE013696FA93EA930895E1E0EA9338
:102F4C000C94790CFA93EA93F9CFFA93EA93E3E0B1
:102F5C00EA930C94790C0E948A19EA0FFB1F0895CE
:102F6C000E948819AE0FBF1F0E942D1ADF01CB01E2
:102F7C00E8E00E947C1908950E948819EA0FFB1F53
:102F8C00FA93EA93E8E0EA930C94660F0F01DA01E6
:102F9C001496E12FB5CFD0010E9494190E94381AD3
:102FAC00DA0108950E949919DF01CB01E0E1F7E203
:102FBC0060E070E00E94D1190895D9015596A4CF14
:102FCC000E94461AACE9B1E080E090E00E94B91989
:102FDC00DF01CB01E0EAF6E861E070E00E94F6194F
:102FEC000895D901D59690CFEE0FFF1FAE0FBF1FDE
:102FFC006ACF0E948A19AE0FBF1F08950E942D1A26
:10300C00E230A0E0FA07A0E06A07A0E07A07089592
:10301C00E0E0F0E060E070E00E94381A0895F901F9
:10302C003196EC5BFF4FDF016FCF0E945B1A00E023
:10303C0028EB33E010E00895FE01FA93EA9308952B
:10304C00E6E0F8E0FA93EA93E9E0EA930895A1E167
:10305C00EA9FF001E25BFE4FFA93EA930895FA932C
:10306C00EA930E949E16E8CF0E948F16E5CFFA9342
:10307C00EA930C948F160E94291AFA93EA930895F6
:10308C00FE013296FA93EA93E5E1EA930C94BE16AC
:10309C00FA93EA93E5E1EA930C94D216EF5FFF27DB
:1030AC00662777270E94501A08950E94501A88E0CC
:1030BC000E9420162C960895FA93EA93E5E1EA9380
:1030CC000C94BE16E8A5F9A5A481B581BA93AA9370
:1030DC000895E8A5F9A5A681B781BA93AA93D0CF94
:1030EC00E8A5F9A5A085B185BA93AA93E2E3FBE024
:1030FC00CFCFE8A5F9A5A285B385BA93AA93C0CF83
:10310C00FF27662777270E94501A84E00E9420161A
:10311C0028960895E0910F07C1CFE0910F0703CFD8
:10312C00FE013296FA93EA930895A481B581BA937D
:10313C00AA930895FE013496BFCFBA93AA93FACFFF
:10314C000E94BE19662777270E94501AF80108952D
:10315C000E94FB1966277727A8CFA8970E945B1AB5
:10316C00DCCF8F01ECA5FDA5E0CFFE013496FA93E0
:10317C00EA9308950E942D1A0E94501AD8010895BE
:10318C001596F901EE0FFF1F99CE0E94BE19662706
:10319C0077270E94501AD80108950E94FB196627C0
:1031AC0077270E94501AB6CF80E10E9420166496B1
:1031BC00F9013396ACA5BDA5EE0FFF1F7FCEFA9398
:1031CC00EA93B7CEE5E1EA930C94BE16E8EAFBE08D
:1031DC005FCF1D96F901EE0FFF1F70CE0E942D1AC6
:1031EC00DF01CB010ECE0E94021AFA93EA930E94E1
:1031FC007916662777270E94501A8CCF0E942D1AB9
:10320C000E94501A08958CE00E9420166096F901D5
:10321C003396ACA5BDA5EE0FFF1F50CEFA93EA93E3
:10322C00E2E0EA930C94AB132A93EA89FB89FA93B4
:10323C00EA93EE89FF8909950895ED89FE89349703
:10324C00ED8BFE8B0895EA89FB89FA93EA93EE895C
:10325C00FF8909950895AD89BE8914960E94291A93
:10326C00EE83FF83FA93EA930895E887F9876A87D8
:10327C007B870895E885F9856A857B85AC85BD8556
:10328C008E859F850895DE011C960E945C190E9414
:10329C00291A0895E991F991309639F08DEC9AE05C
:1032AC000197F1F7A8953197C9F708950024AF0D50
:1032BC00B01D0895F09560957095E195FF4F6F4F97
:1032CC007F4F0895EE230E2EEA2F19F0EE0F0A947D
:1032DC00E9F70895EE230E2EFD01BC0131F0759532
:1032EC006795F795E7950A94D1F70895EE230E2E7E
:1032FC00FD01BC0131F076956795F795E7950A9439
:10330C00D1F70895EE0FFF1FEE0FFF1FEE0FFF1FFB
:10331C000895EE0FFF1F661F771F08956F2F660F1E
:10332C00660B762F08957A9F702D6B9F700DF89F0A
:10333C00700DE99F700D6A9F602D710DFB9F600DE4
:10334C00711DE89F600D711D8827FA9FF02D610D8E
:10335C00781FEB9FF00D611D781FEA9FE02DF10D9A
:10336C00681F781F08955CD0DEDF0EF4A3DF08958C
:10337C000024112490E1AA0FBB1F001C111C0E1A73
:10338C001F0A18F40E0E1F1E01C0A1609A9599F722
:10339C00FD01D00108953F934F935F9300241124B6
:1033AC004427552730E2AA0FBB1F881F991F001C0A
:1033BC00111C441F551F0E1A1F0A460B570B28F4DD
:1033CC000E0E1F1E461F571F01C0A1603A9559F7DC
:1033DC00FD01BC01D001CA015F914F913F9108954D
:1033EC001FD0D9DF0EF466DF0895C2DFFD0108950A
:1033FC00D2DFFD01BC010895E89497FF09C0A095A8
:10340C00B09580959095AF5FBF4F8F4F9F4F68944D
:10341C0077FD50DFC0DFFD01BC010EF44BDF0895DA
:10342C00E89477FF02C046DF689497FF0BC0002436
:10343C00A095B095809590951196801D901D00F8E3
:10344C00039400FA0895ED91FC9111970895ED9174
:10345C00FD916D917C9113970895ED91FD916D9176
:10346C007D910895ED93FD936D937C9308957E93D8
:10347C006E93FE93EE9308950590F491E02D0895CC
:10348C00E881F9816A817B810895E883F9836A83F5
:10349C007B8308957A936A93FA93EA93089530970D
:1034AC006040704008955A934A933A932A931A9322
:1034BC000A9308955D814C813B812A811981088191
:1034CC000895AC0FBD1F05900D928A95E1F70895F4
:00000001FF
