:040000000C944A070B
:100004000C9400000C9400000C9400000C9400006C
:100014000C9400000C9400000C9400000C9400005C
:100024000C9400000C9400000C9400000C9400004C
:100034000C9400000C9400000C9400000C94A40890
:100044000C9400000C9400000C9400000C946909BA
:100054000C9400000C945D090C9400000C940000B6
:100064000C9400000C9400000C9400000C946D0996
:100074000C9400000C9463090A23232323232323D1
:10008400232323232323232323232323232323233C
:10009400232323232323232323232323232323232C
:1000A40023230A23204B6E756572722041470A236D
:1000B40020524D204949202D20496E672E204C2E78
:1000C4004D656C69636861722C20496E672E2050FF
:1000D4002E4B65726E646C2000000A2323232323B5
:1000E40023232323232323232323232323232323DC
:1000F40023232323232323232323232323232323CC
:10010400232323230000424F4152440000000000F7
:100114000000000000520B4D4F44554C4553000065
:100124000000000000007D0B524553554D45000072
:1001340000000000000000C20B564F4C54414745DC
:1001440000000000000000002E0C43555252454EA2
:10015400540000000000000000550C504F57455259
:10016400464143544F5200000000180D504F57456C
:1001740052204143540000000000007C0C504F57B3
:10018400455220415050000000000000A60C454E8E
:1001940045524759204143540000000000D00C450B
:1001A4004E45524759204150500000000000F20CC7
:1001B400000000000000000000000000000000003B
:1001C400000000000000000000000000000000002B
:1001D400000000000000000000000000000000001B
:1001E40000000000000000008080C0606030181C27
:1001F40018306060C0808000000000000000000033
:1002040000000000000000000000000000000000EA
:1002140000000000000000000000000000000000DA
:1002240000000000000000000000000000000000CA
:1002340000000000000000000000000000000000BA
:1002440000000000000000000000000000000000AA
:10025400000000000000000000000000000000009A
:100264000080E070383C1E1F1F9F0C0C0E0EFEFE1B
:10027400FE0E0E0C0C9F1F1F1E3C3870E080000009
:10028400000000000000000000000000000000006A
:10029400000000000000000000000000000000005A
:1002A400000000000000000000000000000000004A
:1002B400000000000000000000000000000000003A
:1002C400000000000000000000000000000000002A
:1002D4000000000000000000000000000000F0FE2C
:1002E400FF07000000F8FEFF010000000000FFFF10
:1002F400FF000000000001FFFEF800000007FFFE01
:10030400F0000000000000000000000000000000F9
:1003140000000000000000000000000000000000D9
:1003240000000000000000000000000000000000C9
:1003340000000000000000000000000000000000B9
:1003440000000000000000000000000000000000A9
:100354000000000000000000000000000000010395
:100364000F3E78F0E0E0C78F8E9000000000FFFFA2
:10037400FF00000000908E8FC7E0E0F0783E0F038E
:100384000100000000000000000000000000000068
:100394000000000000000000000000000000000059
:1003A4000000000000000000000000000000000049
:1003B4000000000000000000000000000000000039
:1003C4000000000000000000000000000000000029
:1003D4000000000000000000000000000000000019
:1003E40000000000077FFFF1010303030303030779
:1003F40003030303030301F1FF7F07000000000070
:1004040000000000000000000000000000000000E8
:1004140000000000000000000000000000000000D8
:1004240000000000000000000000000000000000C8
:1004340000000000000000000000000000000000B8
:1004440000000000000000000000000000000000A8
:100454000000F0F8FC3E0E0F070707070E3EFCF8FD
:10046400E0C0E0E0E0707F7F7060E0C0C0C0C0C06A
:10047400C0C0C0C0E060707F7F70E0E0E0C0E0F822
:10048400FC3E0E070707070F0E3EFCF8F0000000C5
:100494000000000000000000000000000000000058
:1004A4000000000000000000000000000000000048
:1004B4000000000000000000000000000000000038
:1004C4000000000000000000000000000000000028
:1004D40000000000000000000000000000001F1FDA
:1004E4003F397070E0E0E0C0C0808000000101018D
:1004F400010100008080C0C0E0E0E07070393F1F5F
:100504001F000000000000000000000000000000C8
:1005140000000000000000000000000000000000D7
:1005240000000000000000000000000000000000C7
:1005340000000000000000000000000000000000B7
:1005440000000000000000000000000000000000A7
:100554000000000000000000000000000000000097
:10056400000000000000010103030707070E0C1C34
:100574000C0E070707030301010000000000000040
:100584000000000000000000000000000000000067
:100594000000000000000000000000000000000057
:1005A4000000000000000000000000000000000047
:1005B400000705070000000000000000002F0000F5
:1005C4000007000700147F147F14242A7F2A12C412
:1005D400C810264636495522500005030000001C69
:1005E4002241000041221C0014083E081408083E61
:1005F4000808000050300010101010100060600057
:100604000020100804023E5149453E00427F40004C
:1006140042615149462141454B311814127F10273C
:10062400454545393C4A4949300171090503364974
:10063400494936064949291E003636000000563617
:10064400000008142241001414141414004122144C
:10065400080201510906324959513E7E1111117E99
:100664007F494949363E414141227F4141221C7F15
:10067400494949417F090909013E4149497A7F08AD
:1006840008087F00417F41002040413F017F08145A
:1006940022417F404040407F020C027F7F040810CB
:1006A4007F3E4141413E7F090909063E4151215E99
:1006B4007F09192946464949493101017F01013F12
:1006C4004040403F1F2040201F3F4038403F6314BC
:1006D40008146307087008076151494543007F41C6
:1006E4004100552A552A550041417F000402010268
:1006F4000440404040400001020400205454547817
:100704007F484444383844444420384444487F387B
:1007140054545418087E0901020C5252523E7F0868
:1007240004047800447D40002040443D007F1028AC
:10073400440000417F40007C041804787C080404D1
:100744007838444444387C14141408081414187C6D
:100754007C080404084854545420043F4440203C7A
:100764004040207C1C2040201C3C4030403C44281D
:100774001028440C5050503C4464544C4400190517
:1007840000000000170700000000181E000103030A
:10079400140600010A0A140600011E1E19060000B0
:1007A40000001906000000000A232048573A2000E0
:1007B400436F6D6D4D6F64756C00207600312E3083
:1007C40030000A232053573A200054657374487745
:1007D400000A493A2053797374656D207374617209
:1007E400742E2E000A493A312E62797465202578D8
:1007F400000A493A322E62797465202578000A4944
:100804003A332E62797465202578000A493A342EE9
:1008140062797465202578000A493A352E62797424
:1008240065202578000A493A362E627974652025B8
:1008340078000A493A372E62797465202578000ACF
:10084400493A382E62797465202578000A3D3D3D89
:100854003D3D3D3D3D3D3D3D3D3D3D3D3D3D3D3DC4
:100864003D3D3D3D3D3D3D3D3D3D3D3D3D3D3D3DB4
:100874003D3D3D3D3D3D3D3D3D3D000A45453A2024
:100884006E656A73656D20726561647920257800F0
:100894000A45453A20737061746E61206164726523
:1008A4007361000A45453A20737061746E656A206D
:1008B4007A61636174656B000A63726561746520B3
:1008C40070726F63657373206E722E2564202E2EF2
:1008D4000000496E696369616C697A616365204FE0
:1008E4004B006672656B76656E63653A20202564FD
:1008F400202020202020004E656A73656D20706FD3
:1009040076696E656E2062FD742074616B6F76FD8E
:100914002C206A616BFD206279636820706F646CBF
:1009240065206F737461746EED6368206C6964EDA7
:10093400206DEC6C2062FD742E204A6520746F20BB
:100944006A656A696368206F6D796C2C2061206E1A
:1009540065206D6F6A652073656C68E16EED202D0E
:100964002052696368617264204665796E6D616EB8
:100974000020202020202020202020202020202093
:1009840020202025752F257500000A453A2077720E
:10099400697465207761736E74207375636365731E
:1009A40066756C6C000A453A2077726F6E67206F2B
:1009B4007065726174696F6E2028726561642F7747
:1009C4007269746529000A453A676F6F642C206E5A
:1009D40065787420737465702030782578000A4532
:1009E4003A77726F6E672C206F6E63652061676162
:1009F400696E000A453A20777269746520666169F8
:100A04006C656421000A453A2053594E4328332E1D
:100A14006279746529203A202578000A453A2041F4
:100A24004444524553532028322E62797465290078
:100A34000A453A20434D4420312E423A202578007D
:100A4400773A2564000A2564202D20000A3D3D3DA7
:100A54003D3D3D3D3D3D3D3D3D000A6D6573736D3E
:100A64006F64756C206E722E2575000A74656D7046
:100A7400657261747572653A2025642E2564B043ED
:100A8400000A70663A20256C64207C20256C642062
:100A94007C20256C6400000317032E0345035C03CC
:100AA40073038A03A103202020202020202020205B
:100AB4002020202020202020202020200000202072
:100AC400202020202020002020202020203D3D3DEB
:100AD4003D3D3D3D3D3D3D3D3D202020200020202D
:100AE4002020202020202020202020202020202002
:100AF4002020002020202020202020202020202012
:100B04002020202025752F25750020485720766544
:100B1400722E3A2000312E30300020535720766553
:100B2400722E3A2000202020202020202020202067
:100B340020202020202020202020002020202041B0
:100B44007661696C61626C653A20257520202020ED
:100B5400202000202020202825642C25642C2564B6
:100B64002C25642920202020202000202020205310
:100B7400656C65637465643A204D257520202020DA
:100B84002020002055206C696E65733A202575205D
:100B94002020202020202020002049206C696E6520
:100BA400733A20257520202020202020202000209A
:100BB4002020202020202020202020202020202031
:100BC40020202020202020202000204672657175DE
:100BD400656E63653A2025752E257520487A202098
:100BE40020202020002054656D7065726174757238
:100BF400653A2025752E2575B0432020202020201D
:100C0400002025366C752C2025752E2575205B5605
:100C14005D2020204D25752020002025366C752C64
:100C24002025752E25303275205B415D204D2575BC
:100C3400202000204C25753A20256C642E25642044
:100C44005B575D207C20256C642E2564205B564117
:100C54005D002025366C642C20256C642E256420D0
:100C64005B575D204D25752020002025366C642CB3
:100C74002025336C64205B57685D204D257520006A
:100C84002025366C642C2025366C64204D25752077
:100C9400200001000100010001000A2D000A2B00C0
:100CA4000A493A627574746F6E733A206C6F6E679A
:100CB400207072657373000A493A627574746F6EBA
:100CC400733A2073686F72742070726573730000D6
:100CD4000A6379636C652D3E6475726174696F6E25
:100CE4003A202564000A54533A206B6F6E656320E2
:100CF4007465737475212028737465702025642EBF
:100D040029000A6379636C65207377697463686981
:100D14006E673A2073746570202564202D3E20256B
:100D240064202D2025643A25303264000A3D3D3D7F
:100D34003D3D3D3D3D3D3D3D3D3D3D3D3D3D3D3DDF
:100D44003D3D3D3D3D3D3D3D3D3D3D3D3D3D3D3DCF
:100D54003D3D3D3D3D3D3D3D3D3D3D3D3D3D3D3DBF
:100D64003D3D3D3D3D3D3D3D3D3D3D3D3D3D3D3DAF
:100D74003D3D3D3D3D3D3D3D3D000A5354455020E4
:100D84002564202D2074656D703A25642C206475CB
:100D9400726174696F6E3A2025643A253032642C8E
:100DA40020706F776572206379636C653A202564DF
:100DB4002C20706F776572206F6E3A2025642C208A
:100DC400706F776572206F66663A202564000A7337
:100DD400746570202564202D2025643A2530326402
:100DE4002C2025642C202564000A53574954434879
:100DF400204F4E000A535749544348204F4646005B
:100E04000A493A205072696A6D7574207374726964
:100E14006E673A20000A453A204E65646F73746128
:100E24007465636E79206275666665722C207374CE
:100E340072696E673A00010001000A493A2053655D
:100E44006E644275666665726628290001002D4E3F
:100E5400414E00494E46000017000003AA0A17003D
:100E64001703AA0A17002E03AA0A17004503AA0AA1
:100E740017005C03AA0A17007303AA0A17008A035F
:100E8400AA0A1700A103AA0A01004C08500E000088
:100E9400F894EE27EFBBF1E0F5BFE5BFF8E1A895C4
:100EA400A4B7A77FA4BFF0936000E09360008DE037
:100EB400A2E0BB27ED938A95E9F780E098E0A0E0F3
:100EC400B1E0ED930197E9F7ECE5FEE085919591AA
:100ED400009761F0A591B59105901590BF01F001BF
:100EE40005900D920197E1F7FB01F0CFE0E0EEBB36
:100EF400EFEFEDBFE8E0EEBFC0E0D3E00C94820773
:100F040062D00E94840D0E94990D0E94C2090E9421
:100F1400060B0E94420BF894E4E6F0E0FA93EA939D
:100F24000E948913A2D0EEE1F0E060E070E00E943C
:100F34004314E2E4FDE00E945511E7E8FDE00E945D
:100F44005511E1EBFDE0FA93EA93B0D0E0EDF7E060
:100F5400FA93EA930E948913E0E0EA93ECE7F0E065
:100F64000E946011ECEAF7E00E946011E4EBF7E004
:100F74000E946011EEEBF7E00E946011E1ECF7E0F3
:100F84000E946011E6ECF7E00E946011EEECF7E0DD
:100F94000E946011EEEBF7E00E946011E1ECF7E0D3
:100FA4000E946011EEEDF0E0FA93EA930E94EF08DC
:100FB4007BD0E0E0EA93E5EDF7E0FA93EA930E9450
:100FC400EF08FFCFFFCFE0E8E0936100E0E0E093BB
:100FD4006100E2B9E1B9E5B9E4B9E8B9E7B9EBB957
:100FE400EAB9E4BDE5BDE6BDE7BDE8BDE093800038
:100FF400E0938100E0938500E0938400E093870010
:10100400E0938600E0938900E0938800E0938B00EE
:10101400E0938A00E093B600E093B000E093B1005F
:10102400E093B200E093B300E093B400E09369006E
:10103400EDBBE0936800E0936E00E0936F00E093F3
:101044007000E093C000E8E0E093C100E6E0E093C4
:10105400C200E0E0E093C500E5E0E093C400E0E80E
:10106400E0BFE0E0E0937B0008951A93E2E0E4BD82
:10107400E5E0E5BDE0E0E6BDEBE6E7BDE0E0E8BDC8
:10108400E2E0E0936E00E2E3F0E0E0931A07F0930D
:101094001B0710E01A3030F40E946711A0E0A0830F
:1010A4001F5FF8CF19910895789408950E944E1403
:1010B40010E01A3010F00C94A0080E9467119F01F0
:1010C400D901EC91E030C1F5E1E0EC93EC81FD81D4
:1010D400D9011196ED93FC930E946D1130F40E9496
:1010E4007911EE83FF83688779870E946D1128F454
:1010F400E1E0F0E060E070E002C00E947E11D901FE
:1011040013960E9435140E946D1128F4E1E0F0E07A
:1011140060E070E002C00E947E11D90117960E941F
:101124003514ECEBF8E0FA93EA93E12F0E94861170
:101134000E94B710269602C01F5FBBCF0E945514B1
:101144002A9608950E948D110E944C14E0911A076A
:10115400F0911B07309729F0AAE1B7E00E949B1198
:101164002BC010E01A3040F50E9467119F01D9018D
:10117400AC91A130F9F4D90117960E94301431973B
:10118400604070400E943A140E94481499F4D901B6
:10119400E2E0EC9311964D915C91FA010995D90125
:1011A40013960E942A14D90117960E943514D90166
:1011B400E1E0EC931F5FD6CF0E9453142696E99189
:1011C400EFBFF991E991B991A99199918991799197
:1011D4006991F990199009901895E881F981E49141
:1011E400E030A9F0EA81E03049F0E091C800E07213
:1011F400E1F30E94A111E093CE0008C0E091C00089
:10120400E072E1F30E94A111E093C600E6CF0C94D2
:10121400F80A0E94A911E457F84FE081E03059F12F
:101224000E94A9110E94A113EE56F84FDF010E94FB
:101234002614309799F0E881E03041F0E6E9F7E0D0
:10124400FA93EA935BD0E093CE0007C0EEE8F7E0B0
:10125400FA93EA9353D0E093C6000CC00E94A911FC
:10126400E457F84FA0E0A0830E94A911E657F84F75
:10127400A1E0A08306C00E94A911E657F84FA1E09F
:10128400A0830C94B20A1A93E981E03019F010910A
:10129400CE0002C01091C6000E94AC11309741F0FC
:1012A4000E94AC11FF93EF931A93EF91FF9109956C
:1012B40018810C94A90A0E948D11E0E0EA93A9DF39
:1012C4000FC00E948D11E1E0EA93A3DF09C00E94E0
:1012D4008D11E0E003C00E948D11E1E0EA93D3DFB9
:1012E400E991EFBFF991E991B991A9919991899106
:1012F40079916991F9901990099018951A9310E0D1
:10130400F894A981BA8114960E942614309799F111
:10131400A981BA810D901C90A981BA8116960E9468
:101324002614D001AE0FBF1F1C91A981BA81169655
:101334000E94B711E981FA8106801780A981BA81D8
:1013440012960E9426140E161F0680F0E981FA8177
:101354003696BF0100801180E981FA81A281B381B0
:10136400F001EA1BFB0BDB01ED93FC93A981BA812D
:1013740014960E949B117894E12F18810C94F80A1A
:1013840056985E9A57985F9A08953E9A469A3F9A5D
:10139400479A0A9A12980B9A13980895209A219AB8
:1013A400229A239A249A259A26982E9A279AE3E534
:1013B4000C94040BE881EEBDEDB5E078E9F3EEB5ED
:1013C400CFC00A9A099A249A119888EB8A95F1F762
:1013D400119A2C9AE3DF88EB8A95F1F709D088EB10
:1013E4008A95F1F72FD088EB8A95F1F7BBD0089551
:1013F400E3EAEA93AED0E1EAEA93ABD0E0ECEA9315
:10140400A8D0E4E2EA93A5D0E1E8EA93A2D0EFE21F
:10141400EA939FD0EFE2EA939CD0E7EAEA9399D06B
:1014240011D00E94BD11E0EB0E94C111E5E0EA93E6
:1014340090D0E6EDF8E0FA93EA9367D0EFEAEA9306
:1014440088D008951A930A930E94BD1110E01830B1
:1014540088F4E12FE06B0E94C111E1E0EA9379D0B6
:1014640000E0043828F4E0E0EA9375D00F5FF9CF88
:101474001F5FEDCF0991199108950E94BD11EA8172
:10148400E061EA83EA9365D0AA81A03119F4E98185
:10149400E46001C0E981E983EA935BD0E881E06B11
:1014A400E883EA9356D0A2C01A9310E0A981A03B26
:1014B40011F4E0E006C0A981A03210F0AC3710F0BE
:1014C400E0E4E98310E01530D8F4A981A03238F4BF
:1014D400E981A5E0EA9FF001EC54FA4F07C0E981E5
:1014E400E052A5E0EA9FF001E654FA4FDF010E94C2
:1014F400C811EA0FFB1FE491EA932DD01F5FE3CFDD
:10150400E0E0EA9328D0188122C0E881F981E491CF
:10151400E03059F0E881F981E491EA93C5DFE8818C
:10152400F9813196E883F983F0CF11C02C98E981D1
:10153400E03011F0129801C0129A85E28A95F1F711
:10154400E881EA9337DF85E28A95F1F72C9A2296AF
:101554000895E1E001C0E0E0EA93E981EA93E6DF7F
:10156400219608950E944E1420E030E02830E0E0F7
:101574003E07E0F4E0E0EA93E1E0EA932A937DDFBA
:1015840010E0103880F4A0E8A29FF001A39FF00DB2
:10159400A12FB0E0EA0FFB1FEC54FE4FE491EA9355
:1015A400DADF1F5FEECF2F5F3F4FE0CF0E9455146D
:1015B40024960895A981BA81AC91E881AE1728F4E4
:1015C400A981BA81EC91EF5F03C0A981BA81E0E0FF
:1015D400EC930CC0A981BA81EC91E03011F4E8815C
:1015E40004C0A981BA81EC91E150EC93239608954B
:1015F4000E94D009EDB5EE7FEDBDECB5ED7FECBDFD
:10160400ECB5E160ECBD0895F3DFE8EBF3E0FA93A9
:10161400EA93E0E0EA93E7E5F3E0FA93EA930E94C1
:10162400F010249A239A229A219A209A2C9A2B9A7F
:101634002A9A299A289A0000000008950E94CB1142
:10164400133050F4D90115960E94C8110E94D71185
:1016540009F00F5F1F5FF4CF0EC00E94CB1113304F
:1016640050F4D9011D960E94C8110E94D71109F0A7
:101674000F5F1F5FF4CFE02F0E9455142596089545
:10168400E0E0E09306080E94E30908950E94DF1158
:101694000E94DC0A08950E94DF110E94EC0A08955A
:1016A400A8970E94E611EEE0FBE00E94EA110E9476
:1016B400EF110E94F6110E94FF110E9404120E9471
:1016C400E611EEE1FBE00E94EA110E94EF110E9494
:1016D400F6110E940C120E9411120E9418120E940C
:1016E4002012E8A5F9A5A485B585BA93AA930E940A
:1016F4000412E7E043C0A897E8A5F9A50E94FF11EA
:101704000E9418120E94E611EFE3FBE0FA93EA93B9
:10171400E0910C070E9486110E9487102896E8A584
:10172400F9A50E940C120E94E611E7E5FBE0FA938A
:10173400EA93E091B8030E942712E0918D040E947D
:101744002712E09162050E942712E09137060E9459
:1017540027120E942C120E9411120E9404120E944D
:10176400E611EFE6FBE00E943112EF5F0E94861162
:101774000E94871028960E942012E6E0AA960895F7
:10178400A8971A930A930E9436120E943F12E7E820
:10179400FBE00E943112EA930E94200B0E94861102
:1017A4000E9487102896EAA5FBA50E94FF110E94BB
:1017B40044120E943F12EDE9FBE00E943112EA93C9
:1017C4000E942F0B0E9486110E9487102896EAA57A
:1017D400FBA5A681B7810E944C12EAA5FBA5A085B2
:1017E400B185BA93AA93E3EBFBE00E944F120E94E7
:1017F40041110E943F12EEECFBE0FA93EA93F801E8
:10180400A381B481E8EEF3E00E945412A381B48171
:10181400E8EEF3E00E945C12A285B3850E944C12AC
:101824000E943F12E9EEFBE0FA93EA93F801A181EA
:10183400B281EAE0F0E00E945412A181B281EAE0B0
:10184400F0E00E945C12A485B5850E944C12E7E08A
:1018540019810881AC9608950E9469120E946D1244
:101864000E94181220E030E02330E0E03E07D0F47C
:101874000E947012E5E0FCE0FA93EA93D801AB59B8
:10188400BF4F0E9475120E9480120E948C120E9407
:1018940080120E9494120E94A3120E942D112F5FA5
:1018A4003F4FE2CFE8C00E9469120E946D120E946D
:1018B400B2120E94B5122330E0E03E07D0F40E9439
:1018C4007012EEE1FCE0FA93EA93D801AB58BF4FF3
:1018D4000E9475120E94BA120E948C120E94BA12BF
:1018E4000E9494120E94A3120E942D112F5F3F4F59
:1018F400E2CFC1C00E9469120E946D120E94B2120E
:101904000E94B5122330E0E03E07E8F40E94701212
:10191400E6E5FCE0FA93EA93D801AB57BF4F0E9487
:1019240075120E94C6120E94F3130E944314D80138
:101934000E94C6120E94D1120E94A3120E942D116D
:101944002F5F3F4FDFCF97C00E9469120E946D1234
:101954000E94B2120E94B5122330E0E03E07E8F480
:101964000E947012E6E5FCE0FA93EA93D801AB56C4
:10197400BF4F0E9475120E94E4120E94F3130E944A
:101984004314D8010E94E4120E94D1120E94A312AF
:101994000E942D112F5F3F4FDFCF6DC00E9469124F
:1019A4000E946D120E94B2120E94B5122330E0E030
:1019B4003E07A8F40E947012EEE6FCE0FA93EA9364
:1019C400D801AB55BF4F0E947512D5960E94EF12F5
:1019D4000E94F9120E942D112F5F3F4FE7CF4BC099
:1019E4000E9469120E946D120E94B2120E94B512E6
:1019F4002330E0E03E07C8F40E947012EEE6FCE0FB
:101A0400FA93EA93D801AB54BF4F0E94EF12F80146
:101A14003196EC5BFF4FDF010E94EF120E94F91236
:101A24000E942D112F5F3F4FE3CF25C00E94691202
:101A34000E946D120E94B2120E94B5122330E0E09F
:101A44003E07C8F40E947012E4E8FCE0FA93EA93BB
:101A5400D801AB53BF4F0E94EF12F8013196EC5AF4
:101A6400FF4FDF010E94EF120E94F9120E942D1114
:101A74002F5F3F4FE3CFE6E00E945514AE960895E2
:101A84004F991CC0E0910A08EF5FE0930A08A09107
:101A94000A08AF3190F0E4EAFCE00E940613E0E0AB
:101AA400E0930A08E1E0E0930C08EFE0F7E0FA9332
:101AB400EA93E3E0EA930E94DC0A14C0A0910A08C6
:101AC400A33020F0A0910C08A03009F006C0EBEB85
:101AD400FCE00E9406130E944D0BE0E0E0930C082A
:101AE400E0930A084E9904C0E0910B08EF5F07C029
:101AF400A0910B08A33010F00E94480BE0E0E093A3
:101B04000B0808950E94C7090895E8B1A0E8EA27E0
:101B1400E8B9E0910D08E03031F0E8B1A0E4EA273B
:101B2400E8B9E0E001C0E1E0E0930D0808950E9407
:101B3400C709E0E0E0930E08E0930F080E940D133C
:101B4400E4EDFCE0FA93EA93E0911408F0911508AF
:101B54000E94201384E00E94B7100C94EE10E091D0
:101B64001208E03059F0E9EEFCE00E942513EF5F23
:101B74000E9486110E94B7100C94EE10E091100898
:101B8400F09111083097E1F0E6E0FDE00E942513A2
:101B94000E942A13E0910E08EF5F0E942A130E940C
:101BA40030130E9437130E9430130E943A1380E1CD
:101BB4000E94B7106296A0E1B8E00E949B110895BC
:101BC4000E943D1331960E943F140E944513EA1768
:101BD400FB0779F5E0E3FDE00E940613EEE7FDE084
:101BE4000E942513EF5F0E942A13E09113080E94BC
:101BF40027120E944513ECE3F0E00E9437130E9481
:101C04004513ECE3F0E00E943A13E09116080E94B9
:101C14002A13E09117080E942A13E09118080E94E1
:101C24002A138CE10E94B7106E96E0E3FDE00E9457
:101C34000613E2EDFDE00E942513EF5F0E942A13D4
:101C44000E944513ECE3F0E00E9437130E94451311
:101C5400ECE3F0E00E943A13E09117080E942A1383
:101C6400E09118080E942A1384E10E94B710669636
:101C7400A4E1B8E00E949B113097D9F5A0910E0819
:101C8400A63021F4E1E0E093120830C0E0910E08A0
:101C9400EF5FE0930E080E943D136491E0910E08FB
:101CA400E150A6E0EA9FF001EE57F84FA491E62F29
:101CB400EA1BF0E0E7FDFFEFFA93EA930E94D810E5
:101CC400AAE0B0E00E94B313ACE3B0E00E94B31307
:101CD400DF01E9E1F0E00E94BB13E0931008F09308
:101CE40011080E940D13E0E0E0930F081298139876
:101CF4000895E0911608E030D9F1E0910F08E03042
:101D0400D1F4E0911808E150E0931808E03091F420
:101D14000E943D133596049000921808E1E0E09388
:101D24000F08129A139AE0E0E0931908EDEEFDE033
:101D34000E9406131DC0A0910F08A130C9F4E091C0
:101D44001708E150E0931708E03091F40E943D1326
:101D54003496049000921708E0E0E0930F0812987C
:101D64001398E1E0E0931908E8EFFDE00E94061300
:101D74000895E091C000E072E1F3E881E093C600C9
:101D840021960895EA81EA93F4DFA881B9810E943B
:101D9400B711239608951A930A93AA81BB811296C8
:101DA4000E942614309729F1AA81BB8114960E94BF
:101DB40026148F01309761F00230E0E01E07C0F076
:101DC400F80131978F01AA81BB811496ED93FC939E
:101DD400AA81BB8112960E94B7113197AC81A0836E
:101DE400AA81BB810E942614FF2312F00E94B7111E
:101DF40006C0AA81BB81EFEFFFEFED93FC9319813D
:101E040008810C94FC102B970E944C1410E0A989B3
:101E1400BA89E0E0F0E0ED93FC93EF89F88D319618
:101E2400EF8BF88F3197E4912E2FE03011F40C945E
:101E34007F10E12FE03039F4253211F411E002C0B3
:101E44000E944A1359C1E130A9F4253219F40E94C1
:101E54004A1351C112E040E000E02D3211F401E0D8
:101E64004BC12B3211F44BE247C1203211F440E252
:101E740043C102C0E23039F450E013E0203311F4DE
:101E840000683AC102C0E33091F4203310F02A33E1
:101E940008F007C0AAE05A9F502DE22FE0535E0FCE
:101EA4002BC12C3619F4026015E026C104C0E530BC
:101EB40011F00C947E10E22FE33649F40E94531380
:101EC400ED89FE89A481AA930E94591314C1E337B2
:101ED40041F40E9453130E9461130E9418111E2F93
:101EE4000AC0E03769F40E9453130E9461130E94F0
:101EF40022111E2F08600F77E0E0E88B30E06FC0FE
:101F0400E43611F0E93611F4046002C0E537A1F4B7
:101F1400EAE0E88B01FF08C0E0E0FAEC6AE97BE361
:101F24000E946B131AE023C0E0E1F7E260E070E086
:101F34000E946B1315E01BC0E83511F4086004C05F
:101F4400E83711F00C947D10E0E1E88B01FF08C044
:101F5400E0E0F0E060E070E10E946B1318E007C07D
:101F6400E0E0F0E160E070E00E946B1314E001FF38
:101F740008C00E945313AD89BE8914960E942A1486
:101F840015C002FF0AC00E945313AD89BE8914967E
:101F94000E9426140E94AE1309C00E945313AD89F7
:101FA400BE8914960E94261466277727EC87FD873E
:101FB4006E877F8702FF13C0AF85AA235AF4EC858E
:101FC400FD856E857F850E949913EC87FD876E875A
:101FD4007F874DE2403011F01F5F01C00B7F00FD91
:101FE40011C0151778F407FF08C002FF04C00B7F67
:101FF400242F115001C020E301C020E20E944A13A3
:102004005150EFCF312FE889E030B9F43030A1F0EE
:1020140003FF06C0EE81FF812591EE83FF8305C097
:10202400AE81BF812D91AE83BF830E944A1350308D
:1020340009F051503150EACF54C00E9470130E94ED
:10204400CE132E2F2A3030F003FF02C0295C01C0CA
:10205400295A01C0205D04FD22C0213360F4A88503
:10206400B9858A859B85A130E0E0BE07E0E08E0754
:10207400E0E09E0709F409C0531710F000FF01C007
:1020840013C020E207FF0BC020E3006102FF07C07A
:102094000B7F4A930E945913503009F051500E940B
:1020A4004A13503009F0515031500E9470130E946D
:1020B400FB13EC87FD876E877F87E889A885B98540
:1020C4008A859B85FF27662777270E94CE130E9467
:1020D4006B13E885F9856A857B850E94481409F0AD
:1020E400ACCF00FF08C0503031F05150E0E2EA9329
:1020F4000E945913F8CF10E090CEA989BA890E94A2
:1021040026140E94531469960895FF92F82E269778
:102114000E944E140E947913309719F4EFEFFFEFE9
:102124001FC0DE0116960E9495138D010E9479133B
:10213400EE83FF83E0E0E887E987DE011A960E94D8
:102144008013EDECFEE0FA93EA93FE013A96FA93DB
:10215400EA9359DE9F01AE81BF81E0E0EC93F9017F
:102164000E9455142A96FF900895FF92F82E269700
:102174001A930A93DE0114960E9495138D01E0E0F0
:10218400EC83ED83EE83EF83DE0118960E948013C7
:10219400E4ECFEE0FA93EA93FE013896FA93EA93AC
:1021A40032DE198108812896FF900895E991F9910A
:1021B40030971AF4E095F0953196089599818881C5
:1021C400009641F0BD81AC81FB81EA8105900D92BE
:1021D4000197E1F7FD81EC8126960895B981A881E4
:1021E400109631F0FC81EB816A8161931197E9F7D4
:1021F400EB81FC8125960895E991F991A991B99112
:10220400CD016D916623E9F7119705900D92002099
:10221400E1F7FC010895E991F991A991B991CD01F2
:1022240005900D920020E1F7FC010895A991B99160
:10223400EE27FF276D91662311F03196FBCF0895A9
:10224400AA27BB27E991F9910590002011F0119676
:10225400FBCFFD0108957991E991F991A991B99183
:10226400CD01772351F07A9561916D936623C9F777
:10227400772319F07A956D93FBCFFC01089569914A
:10228400E991F991A991B991CD01662351F06A952B
:1022940005900D920020C9F7662319F06A950D92F6
:1022A400FBCFFC010895FA93EA930E945808E8EEE4
:1022B400F3E060E070E00E9443140895FA93EA9317
:1022C4000E94EF08E0E0EA930895ABE01A9FF00162
:1022D400E45EF84F0895AE81BF8188859985AA3060
:1022E400E0E0BE07E0E08E07E0E09E070895EAE044
:1022F400F0E060E070E00895AE81BF818885998543
:10230400F6DF0E94CE130895FF27662777270E94E1
:10231400431484E008950A921A92FA926A937A9383
:102324008A939A93AA93BA93EA93FA93EFB7EA93A8
:102334000895ED91FD913197FE93EE930895E88110
:10234400F9813196E883F9833197E4910895E8811E
:10235400F0E00895E981A2E0B8E0F0E0EE0FFF1F9D
:10236400AE0FBF1F0E9426140895ED91FD91319682
:10237400FE93EE930895EFE7EA930C94AB0AEA9385
:102384000E94AB0AE0E1EA930C94AB0AE12FF0E07F
:1023940008950E944E1400E0EC81A5EDEA9FF0013F
:1023A400E854FC4F9F0110E00895EE0FFF1FAE0F9D
:1023B400BF1F0E94261430970895E6E0F8E0FA93D0
:1023C400EA93E9E0EA930895FE01FA93EA93089503
:1023D400FA93EA930E940D11F7CFE9E1FBE0FA9337
:1023E400EA930E94FE10F0CFE4ECFAE0FA93EA9349
:1023F4000E94FE10E8A5F9A50895A481B581BA93B9
:10240400AA930895FE013296FA93EA93E5E1EA93DA
:102414000C942D11A681B781BA93AA93F3CFE8A5A2
:10242400F9A5A085B185BA93AA930895E9E2FBE0E2
:10243400FA93EA93E5E1EA930C944111E8A5F9A52E
:10244400A285B385BA93AA93DDCF0E94A8130E94F4
:102454004314089580E10E94871064960895FA93C6
:10246400EA93E0910F070895E0910F07A5EDEA9F25
:10247400F001E854FC4F8F010895FE013296FA935F
:10248400EA930895FE013496FA93EA93E5E1EA9318
:102494000C942D11BA93AA93F5CFFA93EA93E5E13C
:1024A400EA9308950E94BB13662777270E9443147A
:1024B400F80108950E94F813662777270E944314B1
:1024C40088E00E9487102C96EAA5FBA50895A8979A
:1024D4000E944E14C9CFECA5FDA58FCFFE01349602
:1024E400FA93EA930895F9010E94A313AE0FBF1F54
:1024F4000E942A140E944314D80108951596F901E4
:10250400EE0FFF1FAE0FBF1F0E942614DF01EAE08B
:10251400F0E008950E94BB13662777270E944314B6
:10252400D80108950E94F813662777270E94431460
:10253400E0910F07EF5FFF27662777270E94431478
:1025440089CFF9013396ACA5BDA5EE0FFF1FAE0FE1
:10255400BF1F0E942614FA93EA93FE0136969DCF7C
:10256400E7EBFBE09ACF0E94411120E030E00895B0
:102574001D96F901EE0FFF1FAE0FBF1F0E94261418
:10258400DF01E4E6F0E008955596F9010E94A313F3
:10259400AE0FBF1F0E942A14DF01CB01A8CE0E94F8
:1025A400FF13FA93EA930E94D810662777270E94B4
:1025B4004314E0910F07EF5FFF27662777270E94F8
:1025C400431448CF9596F9010E94A313AE0FBF1F81
:1025D4000E942A14DF01CB018ACEF9010E94A313C1
:1025E400AE0FBF1F0E942A140E9443140895E09165
:1025F4000F07EF5FFF27662777270E9443148CE0BD
:102604000E94871060969DCFFA93EA9380E00E941F
:10261400B71022960895E3E1F8E0FA93EA93E09183
:102624000E08A6E0EA9FF001EE57F84FFA93EA93FA
:10263400E6E0F0E0FA93EA930C94E010662777273B
:102644000E9443140895FA93EA93E0910E080895C2
:10265400FF27662777270E9443140895A091100846
:10266400B0911108ECE3F0E008950E94BB13E6CFAB
:102674000E94F813E3CFE0910E08A6E0EA9FF00170
:10268400EE57F84F0895A0911408B09115080895D5
:102694002A93EA89FB89FA93EA93EE89FF890995DB
:1026A4000895ED89FE893497ED8BFE8B0895EA89B0
:1026B400FB89FA93EA93EE89FF8909950895AD8918
:1026C400BE8914960E942614EE83FF83FA93EA933C
:1026D4000895E887F9876A877B870895E885F985EF
:1026E4006A857B85AC85BD858E859F850895DE01D1
:1026F4001C960E9495130E94261408950E94951317
:102704000E942614FA93EA931A930A930895E9917E
:10271400F991309639F08DEC9AE00197F1F7A8958C
:102724003197C9F708950024AF0DB01D0895F095B1
:1027340060957095E195FF4F6F4F7F4F0895EE0FB1
:10274400FF1FEE0FFF1FEE0FFF1F0895FE2FFF0F59
:10275400FF0B6F2F7F2F08956F2F660F660B762F59
:102764000895FA9FF02DEB9FF00DEA9FE02DF10DF7
:1027740008950024112490E1AA0FBB1F001C111C12
:102784000E1A1F0A18F40E0E1F1E01C0A1609A959E
:1027940099F7FD01D00108953F934F935F9300246F
:1027A40011244427552730E2AA0FBB1F881F991F05
:1027B400001C111C441F551F0E1A1F0A460B570BF1
:1027C40028F40E0E1F1E461F571F01C0A1603A9524
:1027D40059F7FD01BC01D001CA015F914F913F91AE
:1027E40008951FD0D9DF0EF4A2DF0895C2DFFD01E2
:1027F4000895D2DFFD01BC010895E89497FF09C054
:10280400A095B09580959095AF5FBF4F8F4F9F4F28
:10281400689477FD8CDFC0DFFD01BC010EF487DF17
:102824000895E89477FF02C082DF689497FF0BC095
:102834000024A095B095809590951196801D901DCB
:1028440000F8039400FA0895ED91FC91119708950E
:10285400ED91FD916D917C9113970895ED91FD910A
:102864006D917D910895ED93FD936D937C930895FF
:102874007E936E93FE93EE9308950590F491E02D6C
:1028840008957A936A93FA93EA930895309760408F
:10289400704008955A934A933A932A931A930A9349
:1028A40008955D814C813B812A81198108810895B5
:00000001FF
