:0A0000000C94BF060C9400000C9451
:10000A0000000C9400000C9400000C9400000C9466
:10001A0000000C9400000C9400000C9400000C9456
:10002A0000000C9400000C9400000C9400000C9446
:10003A0000000C9400000C948D090C9400000C94A0
:10004A0000000C9400000C940D090C9400000C9410
:10005A0001090C9400000C9400000C9400000C940C
:10006A0000000C9400000C9413090C9400000C94EA
:10007A0007090A2323232323232323232323232395
:10008A002323232323232323232323232323232336
:10009A002323232323232323232323230A23204B1A
:1000AA006E756572722041470A2320524D204949D4
:1000BA00202D20496E672E204C2E4D656C69636891
:1000CA0061722C20496E672E20502E4B65726E6429
:1000DA006C2000000A2323232323232323232323FF
:1000EA0023232323232323232323232323232323D6
:1000FA00232323232323232323232323232300000C
:10010A0000000100010001000200010003000100DB
:10011A00040002000600020062000200C60102009A
:10012A00C8010400CC010400B2020200B4020400B7
:10013A00B80204009E030200A0030400A403040002
:10014A00010C0200424F415244000000000000002E
:10015A00000000A111524553554D45000000000012
:10016A00000000002312564F4C544147450000003E
:10017A000000000000891243555252454E540000B7
:10018A00000000000000BB12504F5745520000000B
:10019A0000000000000000ED12504F574552464142
:1001AA0043544F52000000004413454E45524759EC
:1001BA000000000000000000002113000000000001
:1001CA000000000000000000000000000000000025
:1001DA000000000000000000000000000000000015
:1001EA000000000000000000000000000000000005
:1001FA00000000008080C0606030181C1830606009
:10020A00C080800000000000000000000000000024
:10021A0000000000000000000000000000000000D4
:10022A0000000000000000000000000000000000C4
:10023A0000000000000000000000000000000000B4
:10024A0000000000000000000000000000000000A4
:10025A000000000000000000000000000000000094
:10026A000000000000000000000000000080E070B4
:10027A00383C1E1F1F9F0C0C0E0EFEFEFE0E0E0CAF
:10028A000C9F1F1F1E3C3870E08000000000000019
:10029A000000000000000000000000000000000054
:1002AA000000000000000000000000000000000044
:1002BA000000000000000000000000000000000034
:1002CA000000000000000000000000000000000024
:1002DA000000000000000000000000000000000014
:1002EA0000000000000000000000F0FEFF07000010
:1002FA0000F8FEFF010000000000FFFFFF00000001
:10030A00000001FFFEF800000007FFFEF0000000F9
:10031A0000000000000000000000000000000000D3
:10032A0000000000000000000000000000000000C3
:10033A0000000000000000000000000000000000B3
:10034A0000000000000000000000000000000000A3
:10035A000000000000000000000000000000000093
:10036A000000000000000000000001030F3E78F0CA
:10037A00E0E0C78F8E9000000000FFFFFF00000042
:10038A0000908E8FC7E0E0F0783E0F030100000076
:10039A000000000000000000000000000000000053
:1003AA000000000000000000000000000000000043
:1003BA000000000000000000000000000000000033
:1003CA000000000000000000000000000000000023
:1003DA000000000000000000000000000000000013
:1003EA000000000000000000000000000000000003
:1003FA00077FFFF101030303030303070303030357
:10040A00030301F1FF7F0700000000000000000065
:10041A0000000000000000000000000000000000D2
:10042A0000000000000000000000000000000000C2
:10043A0000000000000000000000000000000000B2
:10044A0000000000000000000000000000000000A2
:10045A000000000000000000000000000000F0F8AA
:10046A00FC3E0E0F070707070E3EFCF8E0C0E0E06F
:10047A00E0707F7F7060E0C0C0C0C0C0C0C0C0C0B4
:10048A00E060707F7F70E0E0E0C0E0F8FC3E0E07BD
:10049A000707070F0E3EFCF8F000000000000000FE
:1004AA000000000000000000000000000000000042
:1004BA000000000000000000000000000000000032
:1004CA000000000000000000000000000000000022
:1004DA000000000000000000000000000000000012
:1004EA00000000000000000000001F1F3F3970706C
:1004FA00E0E0E0C0C08080000001010101010000CD
:10050A008080C0C0E0E0E07070393F1F1F0000002B
:10051A0000000000000000000000000000000000D1
:10052A0000000000000000000000000000000000C1
:10053A0000000000000000000000000000000000B1
:10054A0000000000000000000000000000000000A1
:10055A000000000000000000000000000000000091
:10056A000000000000000000000000000000000081
:10057A000000010103030707070E0C1C0C0E0707F6
:10058A000703030101000000000000000000000052
:10059A000000000000000000000000000000000051
:1005AA000000000000000000000000000000000041
:1005BA00000000000000000000000000000705071E
:1005CA000000000000000000002F000000070007E4
:1005DA0000147F147F14242A7F2A12C4C8102646C6
:1005EA0036495522500005030000001C2241000034
:1005FA0041221C0014083E081408083E080800009E
:10060A005030001010101010006060000020100818
:10061A0004023E5149453E00427F40004261514931
:10062A00462141454B311814127F1027454545395B
:10063A003C4A494930017109050336494949360698
:10064A004949291E003636000000563600000814B3
:10065A0022410014141414140041221408020151F6
:10066A000906324959513E7E1111117E7F49494985
:10067A00363E414141227F4141221C7F494949413D
:10068A007F090909013E4149497A7F0808087F0024
:10069A00417F41002040413F017F081422417F40B1
:1006AA004040407F020C027F7F0408107F3E414198
:1006BA00413E7F090909063E4151215E7F091929F8
:1006CA0046464949493101017F01013F4040403FC7
:1006DA001F2040201F3F4038403F6314081463071F
:1006EA00087008076151494543007F414100552A76
:1006FA00552A550041417F0004020102044040404E
:10070A004040000102040020545454787F48444475
:10071A00383844444420384444487F3854545418A0
:10072A00087E0901020C5252523E7F0804047800E6
:10073A00447D40002040443D007F10284400004191
:10074A007F40007C041804787C0804047838444408
:10075A0044387C14141408081414187C7C08040403
:10076A00084854545420043F4440203C4040207CD4
:10077A001C2040201C3C4030403C44281028440C9B
:10078A005050503C4464544C44000A232048573A81
:10079A002000436F6D6D4D6F64756C0020760031DB
:1007AA002E3130000A232053573A200054657374BF
:1007BA00487700312E3030000A493A205379737451
:1007CA00656D2073746172742E2E000A493A312EB7
:1007DA0062797465202578000A493A322E62797462
:1007EA0065202578000A493A332E627974652025F6
:1007FA0078000A493A342E62797465202578000A0D
:10080A00493A352E62797465202578000A493A36C4
:10081A002E62797465202578000A493A372E627962
:10082A007465202578000A493A382E627974652061
:10083A002578000A3D3D3D3D3D3D3D3D3D3D3D3D2B
:10084A003D3D3D3D3D3D3D3D3D3D3D3D3D3D3D3DCE
:10085A003D3D3D3D3D3D3D3D3D3D3D3D3D3D3D3DBE
:10086A003D000A45453A206E656A73656D207265DA
:10087A00616479202578000A45453A2073706174CD
:10088A006E6120616472657361000A45453A20739E
:10089A007061746E656A207A61636174656B0000C9
:1008AA000A6372656174652070726F636573732081
:1008BA006E722E2564202E2E0000010001000A2DE2
:1008CA00000A2B000A493A2053656E64427566662F
:1008DA006572662829000A493A205072696A6D755C
:1008EA007420737472696E673A20000A453A204E82
:1008FA0065646F7374617465636E79206275666688
:10090A0065722C20737472696E673A000A453A2040
:10091A007772697465207761736E74207375636387
:10092A00657366756C6C000A453A2077726F6E675C
:10093A00206F7065726174696F6E202872656164D8
:10094A002F777269746529000A453A676F6F642CBC
:10095A00206E65787420737465702030782578006D
:10096A000A453A77726F6E672C206F6E6365206155
:10097A006761696E000A453A207772697465206674
:10098A0061696C656421000A453A2053594E43282F
:10099A00332E6279746529203A202578000A453A6F
:1009AA0020414444524553532028322E62797465BB
:1009BA0029000A3D3D3D3D3D3D3D3D3D3D3D3D001E
:1009CA000A6672657175656E63653A2025752E250E
:1009DA007520487A000A74656D7065726174757263
:1009EA00653A2025642E2564B043000A766F6C743C
:1009FA006167653A20256C64207C20256C64207C24
:100A0A0020256C64000A63757272656E743A20253B
:100A1A006C64207C20256C64207C20256C6400009A
:100A2A00496E696369616C697A616365204F4B003D
:100A3A006672656B76656E63653A202025642020B0
:100A4A0020202020004E656A73656D20706F7669DC
:100A5A006E656E2062FD742074616B6F76FD2C20CA
:100A6A006A616BFD206279636820706F646C65202F
:100A7A006F737461746EED6368206C6964ED206D48
:100A8A00EC6C2062FD742E204A6520746F206A6522
:100A9A006A696368206F6D796C2C2061206E65200D
:100AAA006D6F6A652073656C68E16EED202D2052CA
:100ABA00696368617264204665796E6D616E0020B3
:100ACA00202020202020202020202020202020201C
:100ADA002025752F25750000000317032E034503F3
:100AEA005C0373038A03A1032020202020202020F6
:100AFA00202020202020202020202020202000002C
:100B0A002020202020202020002020202020203DDE
:100B1A003D3D3D3D3D3D3D3D3D3D3D2020202000AC
:100B2A0020202020202020202020202020202020BB
:100B3A0020202020002020202020202020202020CB
:100B4A0020202020202025752F2575002048572099
:100B5A007665722E3A2000312E313000205357200C
:100B6A007665722E3A2000312E3030002020202067
:100B7A00202020202020202020202020202020206B
:100B8A0020002049503A202533752E2533752E250D
:100B9A0033752E2533752020202020202020002088
:100BAA004D41433A202530325825303258253032CB
:100BBA0058253032582530325825303258202020D6
:100BCA00002055206C696E65733A20257520202017
:100BDA00202020202020002049206C696E65733A6D
:100BEA0020257520202020202020202000202020C1
:100BFA0020202020202020202020202020202020EB
:100C0A002020202020202000204672657175656E04
:100C1A0063653A2025752E257520487A20202020E4
:100C2A002020002054656D70657261747572653A92
:100C3A002025752E2575B043202020202020002055
:100C4A0020202020204C313A2025752E2575205B46
:100C5A00565D20202020002020202020204C313AE0
:100C6A002025752E25303275205B415D20202020FD
:100C7A00202000204C313A20256C642E2564205B0C
:100C8A00575D207C20256C642E2564205B56415DCF
:100C9A00002020202020204C313A20256C642E256B
:100CAA0064205B575D202020002020202020204C3B
:100CBA00313A202575205B57685D202020202000CE
:100CCA002020202020204C313A2025752020202069
:100CDA0020202020000001002D4E414E00494E46A2
:100CEA00000001001906C40801001A06C608170008
:100CFA000003F20A17001703F20A17002E03F20A7A
:100D0A0017004503F20A17005C03F20A170073037F
:100D1A00F20A17008A03F20A1700A103F20A09006D
:100D2A00B8030A0B1700C103130B1500D8032A0BCB
:100D3A000B00ED03560B0B00F803660B16000304B9
:100D4A00760B1B001904F70B16003404760B1700F8
:100D5A004A04FB0B17006104FB0B17007804FB0B1A
:100D6A0017008F04FB0B1700A604FB0B01005106AA
:100D7A00E00C0000F894EE27EFBBF1E0F5BFE5BF09
:100D8A00F8E1A895A4B7A77FA4BFF0936000E09309
:100D9A0060008DE0A2E0BB27ED938A95E9F780E039
:100DAA0098E0A0E0B1E0ED930197E9F7ECEEFCE002
:100DBA0085919591009761F0A591B591059015904F
:100DCA00BF01F00105900D920197E1F7FB01F0CF09
:100DDA00E0E0EEBBEFEFEDBFE8E0EEBFC0E0D3E04E
:100DEA000C94F7060E9470070E94460A0E94410A64
:100DFA000E94900A0E94260C0E94C810F894E4E609
:100E0A00F0E0FA93EA930E9483180E941909E8EB2A
:100E1A00FBE060E070E00E947719EDEAFEE00E94D4
:100E2A003716E8ECF0E060E070E00E947719E5E63A
:100E3A00FAE00E943716E8EEF3E060E070E00E9404
:100E4A007719EFE4FAE00E943716E4EFF1E060E088
:100E5A0070E00E947719EEECF0E10E943716E0ED9F
:100E6A00F7E0FA93EA930E948318E0E0EA93ECE74A
:100E7A00F0E00E943B16E4E9F7E00E943B16ECE939
:100E8A00F7E00E943B16E6EAF7E00E943B16E9EA21
:100E9A00F7E00E943B16EEEAF7E00E943B16E6EB0B
:100EAA00F7E00E943B16E6EAF7E00E943B16EDEBFC
:100EBA00F7E00E943B16EEEDF0E00E9442160E9417
:100ECA003A09E0E0EA93E2ECF7E00E9442160E9457
:100EDA00B40EFDCFFFCFE0E8E0936100E0E0E093DD
:100EEA006100E2B9E1B9E5B9E4B9E8B9E7B9EBB942
:100EFA00EAB9E4BDE5BDE6BDE7BDE8BDE093800023
:100F0A00E0938100E0938500E0938400E0938700FA
:100F1A00E0938600E0938900E0938800E0938B00D9
:100F2A00E0938A00E093B600E093B000E093B1004A
:100F3A00E093B200E093B300E093B400E093690059
:100F4A00EDBBE0936800E0936E00E0936F00E093DE
:100F5A007000E093C000E8E0E093C100E6E0E093AF
:100F6A00C200E0E0E093C500E5E0E093C400E0E8F9
:100F7A00E0BFE0E0E0937B000895E881E03011F4FF
:100F8A000C94CA070E94E30702C00E94CE0721966A
:100F9A0008950E94F907E0E0E093A405E093A5050F
:100FAA00E8EDE093C100E1E0E0932C05E0E0E09396
:100FBA002E05E0934005E093410508950E9402083A
:100FCA00E6EAF5E0A0E0B0E0A083B183E8EDE093C3
:100FDA00C900E1E0E0932D05E0E0E0932F05E2E4AB
:100FEA00F5E0A083B1830895E0E3F5E0FA93EA938C
:100FFA00E4E4F5E00E9446160895E8E3F5E0FA9382
:10100A00EA93E4E7F5E00E9446160895AA81A23021
:10101A0010F00C941908EA810E944E16EA0FFB1F81
:10102A00A881B981A083B183239608950E94821969
:10103A00EC81E03011F40C943A080E9454160E9494
:10104A00B6180E94B618E050F04467457F4F7F9368
:10105A006F93FF93EF930E945916AF91BF918F91AF
:10106A009F910E94621631E019C00E945916E05001
:10107A00F04467457F4F7F936F93FF93EF930E94EE
:10108A005416A0E1B0E080E090E00E94C018AF9151
:10109A00BF918F919F910E94621630E0E985E030FE
:1010AA0011F40C9466080093CC001093CD00E091E3
:1010BA00C000ED7FE093C000A0ECB0E00E946A1689
:1010CA000DC00093C4001093C500E091C800ED7FE5
:1010DA00E093C800A8ECB0E00E946A160E94891941
:1010EA002A960895E881F981E491E03011F40C948C
:1010FA009B08EA81E03011F40C948F08E091C80053
:10110A00E07211F00C948A08F9CF0E947216E093EB
:10111A00CE000BC0E091C000E07211F00C9496086A
:10112A00F9CF0E947216E093C600DCCF2396089589
:10113A000E947A16E25DFA4FE081E03011F40C94D5
:10114A00D7080E947A160E94AF18EC5CFA4FDF01AA
:10115A000E945019309711F40C94CA08E881E030C3
:10116A0011F40C94C108E8E3F5E0FA93EA930E94BB
:10117A00F809E093CE0008C0E0E3F5E0FA93EA93B9
:10118A000E94F809E093C6000CC00E947A16E25D3C
:10119A00FA4FA0E0A0830E947A16E45DFA4FA1E01C
:1011AA00A08306C00E947A16E45DFA4FA1E0A083EC
:1011BA00219608951A93E981E03011F40C94E80815
:1011CA001091CE0002C01091C600E9810E944E160D
:1011DA000E947D16309711F40C94FE08E9810E9452
:1011EA004E160E947D16FF93EF931A93EF91FF918B
:1011FA0009951881229608950E948216E0E00E94BD
:10120A00901618950E948216E1E00E949016189591
:10121A000E948216E0E00E94A11618950E9482168A
:10122A00E1E00E94A11618951A93E2E0E4BDE5E018
:10123A00E5BDE0E0E6BDEBE6E7BDE0E0E8BDE2E003
:10124A00E0936E00E2E3F0E0E093A805F093A905CD
:10125A0010E01A3010F00C9438090E94B216A0E07F
:10126A00A0831F5FF6CF19910895789408950E947C
:10127A00821910E01A3010F00C9489090E94B216F3
:10128A009F01D901EC91E03011F00C948709E1E05B
:10129A00EC93EC81FD81D9011196ED93FC930E94A8
:1012AA00B81610F00C945F090E94C416EE83FF83EF
:1012BA00688779870E94B81610F00C946909E1E0F2
:1012CA00F0E060E070E002C00E94C916D9011396EE
:1012DA000E945F190E94B81610F00C947909E1E097
:1012EA00F0E060E070E002C00E94C916D9011796CA
:1012FA000E945F19EAEAF8E00E94D2160E94891950
:10130A002A9608951F5FB6CF0E9489192A960895D2
:10131A000E9482160E948019E091A805F091A90501
:10132A00309711F40C94A309A8EAB5E0ED91FD9168
:10133A003197FE93EE930E94DF161895E0E0E09352
:10134A006E0010E01A3010F00C94D7090E94B21601
:10135A009F01D901AC91A13011F00C94D509D901A2
:10136A0017960E945A193197604070400E9464197A
:10137A000E947C1911F00C94D509D901E2E0EC9392
:10138A0011964D915C91FA010995D90113960E9423
:10139A005419D90117960E945F19D901E1E0EC931B
:1013AA001F5FD0CFE2E0E0936E000E94DF1618952F
:1013BA00F894EA81FB81AC81BD81ED93FC93E881CD
:1013CA00F981AC81BD811296ED93FC93AC81BD810C
:1013DA0016960E94F016AC81BD8114960E94F016F2
:1013EA007894269608951A9310E0F894A981BA8100
:1013FA0014960E945019309711F40C943C0AA98152
:10140A00BA810D901C90A981BA8116960E94501932
:10141A00D001AE0FBF1F1C91A981BA8116960E94F6
:10142A00F516E981FA8106801780A981BA81129698
:10143A000E9450190E161F0610F40C94340AE98102
:10144A00FA813696BF0100801180E981FA81A28172
:10145A00B381F001EA1BFB0BDB01ED93FC93A9813D
:10146A00BA811496ED91FD913197FE93EE9378949B
:10147A00E12F1881239608953E98469A3F98479AF5
:10148A000895569A5E9A579A5F9A0A9A12980B9AF0
:10149A0013980895EBB1A0E8EA27EBB9E091180692
:1014AA00E03011F40C94610AEBB1A0E4EA27EBB93D
:1014BA00E0E0E093180603C0E1E0E093180608951F
:1014CA00379910C0E0911906E03011F40C94760AAD
:1014DA00E8ECF8E00E94FB160E94EA10E0E0E093D4
:1014EA00190603C0E1E0E0931906369910C0E091AD
:1014FA001A06E03011F40C948B0AEBECF8E00E9427
:10150A00FB160E94E510E0E0E0931A0603C0E1E052
:10151A00E0931A0608951A93EAB1EC7FEAB9EBB19F
:10152A00E360EBB9529AEBB1E360EBB9E1E0EA931D
:10153A000E94C207E1E0EA93E0E8F5E260E070E0C9
:10154A000E947719E0E0EA930E941B08E1E0EA931F
:10155A00E2EDFAE0FA93EA930E940B0810E01430E5
:10156A0010F00C94BF0A0E940217EE5DFA4F108326
:10157A001F5FF5CF10E0163010F00C94CD0AA6E2EA
:10158A00B5E00E940217EA0FFB1F10831F5FF3CF1B
:10159A00E0E0E0934C0619910895E0914B06E030A3
:1015AA0011F00C94E40AA881A33511F00C94E30A13
:1015BA00E0E0E0934A06E1E0E0934B065BC0E130ED
:1015CA0011F00C94EF0AE881E0932606E2E0E0933A
:1015DA004B0650C0E23011F00C94FA0AE881E0930D
:1015EA002706E3E0E0934B0645C0E33011F00C9484
:1015FA00160BA881AF3110F40C94070BE0E0E093CE
:10160A004B060EC0E881E0932A06E03011F40C94F0
:10161A00120BE4E0E0934B0603C0E5E0E0934B06CF
:10162A0029C0E43011F00C94350BABE2B6E0E0913E
:10163A004A06F0E0EA0FFB1FA881A083E0914A0660
:10164A00EF5FE0934A06E150A0914A06E0912A062C
:10165A00AE1710F40C94340BE5E0E0934B060AC085
:10166A00E53011F00C943F0BE881E0934906E6E07F
:10167A00E0934B0621960895249A259A2698279A4C
:10168A00E3E5ECBD0895E881EEBDEDB5E07811F033
:10169A000C94500BFACFEEB5219608950E94410B97
:1016AA0008950E94801910E000E02B98EA85F0E086
:1016BA00EF702E2FE9855E2FEB85E795E0E0E79541
:1016CA00AE2FEE81E295E07FEA2BE22B0E9405170E
:1016DA0088EB8A95F1F7113C11F00C940D0C5A9392
:1016EA000E94480B1E2F123C11F00C94070CEB853C
:1016FA00E03011F00C94950B30E03E3110F00C9470
:10170A00940B84E191E00197F1F7E0E00E9405175C
:10171A00113411F00C94920B02C03F5FEECF01C05E
:10172A0011E4113411F00C94020C30E0EE81A1E0C6
:10173A000E949B183E1710F00C94D90B88EB8A95DF
:10174A00F1F7EB85E03011F00C94B70BE0E00E9462
:10175A000517E02FAF81B885F0E0EA0FFB1F108371
:10176A000F5F20C0AB85A13011F00C94D30B2197E9
:10177A00A885B985EE27A00FBE1F1C911A930E9457
:10178A00480BE8830F5FA881A13411F40C94D10BA4
:10179A00E6E1F9E00E94FB16219604C0E1E3F9E0D4
:1017AA000E94FB163F5FC2CFAB85A13011F00C94AB
:1017BA00010C30E03E3110F00C94F90B88EB8A955D
:1017CA00F1F7E0E00E9405171E3411F40C94F30BB4
:1017DA00E2E5F9E00E94D21607C004C0EAE6F9E0A1
:1017EA000E94FB163F5FE6CF113411F40C94010CF2
:1017FA00EFE7F9E00E94FB1604C0E1E9F9E00E9474
:10180A00D21606C0E0E0EA93E7EAF9E00E9442163F
:10181A002B9A88EB8A95F1F7E02F0E9487192C966C
:10182A000895E0E0EA93EC81FD81FA93EA93EC8172
:10183A00FD81FA93EA93ED81EA930E94560B25966D
:10184A0008950E94530B239A2B9A08956C97D150AE
:10185A000E948019FE01EE5DFE4FE081A5E6EA9F37
:10186A00F001E354FB4F9F01FE013696AF01E2E619
:10187A00F0E0FA93EA93FA0138960E940A17E1E037
:10188A00FCE0FA93EA93FA013A960E940A17E8EC06
:10189A00F1E0FA93EA93FA013C960E941017E4EBFE
:1018AA00F2E0FA93EA93FA0170960E941017E0EABE
:1018BA00F3E0FA93EA93FA0174960E941017E1E3AF
:1018CA00F8E0FA93EA93FA01E45AFF4F0E941617D6
:1018DA00E2E3F8E0FA93EA93FA01EC59FF4F0E9427
:1018EA001617E4E3F8E0FA93EA93FA01E459FF4F92
:1018FA000E941617ECECF1E0FA93EA93FA01789653
:10190A000E941017E8EBF2E0FA93EA93FA017C9648
:10191A000E941017E4EAF3E0FA93EA93FA01B09608
:10192A000E941017E1E4F8E0FA93EA93FA01E45806
:10193A00FF4F0E941617E2E4F8E0FA93EA93FA01DD
:10194A00EC57FF4F0E941617E4E4F8E0FA93EA9383
:10195A00FA01E457FF4F0E941617E6ECF1E0FA93FA
:10196A00EA93FA01B4960E940A17E2EBF2E0FA93BC
:10197A00EA93FA01B6960E940A17EEE9F3E0FA939F
:10198A00EA93FA01B8960E940A17E0EDF1E0FA9399
:10199A00EA93FA01BC960E941017ECEBF2E0FA9374
:1019AA00EA93FA01F0960E941017E8EAF3E0FA9334
:1019BA00EA93FA01F4960E941017E8EDF1E0FA931F
:1019CA00EA93FA01F8960E941017E4ECF2E0FA930F
:1019DA00EA93FA01FC960E941017E0EBF3E0FA93FF
:1019EA00EA93FA01E05CFF4F0E941017E1E0F8E089
:1019FA00FA93EA93FA01E456FF4F0E941617E2E0BF
:101A0A00F8E0FA93EA93FA01EC55FF4F0E94161791
:101A1A00E4E0F8E0FA93EA93FA01E455FF4F0E94F2
:101A2A001617E1E2F8E0FA93EA93FA01E454FF4F59
:101A3A000E941617E2E2F8E0FA93EA93FA01EC53ED
:101A4A00FF4F0E941617E4E2F8E0FA93EA93FA01CC
:101A5A00E453FF4F0E941617E8EEF1E0FA93EA9377
:101A6A00FA01EC5BFF4F0E941017E4EDF2E0FA93E3
:101A7A00EA93FA01E85BFF4F0E941017E0ECF3E0EB
:101A8A00FA93EA93FA01E45BFF4F0E941017ECEE17
:101A9A00F1E0FA93EA93FA01E05BFF4F0E94101714
:101AAA00E8EDF2E0FA93EA93FA01EC5AFF4F0E944A
:101ABA001017E4ECF3E0FA93EA93FA01E85AFF4FBD
:101ACA000E941017E1E7F8E0FA93EA93FA01E45268
:101ADA00FF4F0E941617E2E7F8E0FA93EA93FA0139
:101AEA00EC51FF4F0E941617E4E7F8E0FA93EA93E5
:101AFA00FA01E451FF4F0E941617E1E7F8E0FA9362
:101B0A00EA93FA01E450FF4F0E941617E2E7F8E061
:101B1A00FA93EA93FA01EC5FFE4F0E941617E4E784
:101B2A00F8E0FA93EA93FA01E45FFE4F0E9416176F
:101B3A00DA0118960E945019D9011296ED93FC9376
:101B4A00FA01A285B385ECE4F0E00E94E518D90118
:101B5A00ED93FC9310E0143010F00C94A50E289726
:101B6A00DA01A45ABF4F0E9402170E941C1714964A
:101B7A000E940217EE0FFF1FEA0FFB1FFF93EF935E
:101B8A00EC81FD816E817F81ACEABEE180E090E06C
:101B9A000E94C0180E942D170E94F818AF91BF9199
:101BAA00ED93FC93DA01A458BF4F0E9402170E94DA
:101BBA001C171C960E940217EE0FFF1FEA0FFB1F4D
:101BCA00FF93EF93EC81FD816E817F81A9E1B3E000
:101BDA0080E090E00E94C018DF01CB01E0E1F7E26B
:101BEA0060E070E00E94F818AF91BF91ED93FC930A
:101BFA00DA01A456BF4F0E9402170E943417549666
:101C0A000E9402170E944417FF93EF930E944917FC
:101C1A000E941D19AF91BF910E945F19D901AC5A58
:101C2A00BF4F0E9402170E9444170F01DA019496CF
:101C3A000E9402170E945217D0010E94BB180E94EC
:101C4A005F19DA01A452BF4F0E9402170E9434178B
:101C5A00D4960E9402170E944417FF93EF930E94A2
:101C6A0049170E941D19AF91BF910E945F190E94E6
:101C7A0055170E945217749710F00C94480E0E9440
:101C8A0055170E9458170E945D170E9452173597E0
:101C9A0010F00C94540E0E945D170E945817D90137
:101CAA0054960E9402170E9460170E94651714F04A
:101CBA000C94670ED90154960E9402170E9460176D
:101CCA000E946F17D90194960E9402170E9460170A
:101CDA000E94651714F00C947A0ED90194960E940A
:101CEA0002170E9460170E946F17D901D4960E94AA
:101CFA0002170E9460170E94651714F00C948D0E4B
:101D0A00D901D4960E9402170E9460170E946F1789
:101D1A00D901AC5BBF4F0E9402170E9460170E9454
:101D2A00651714F00C94A20ED901AC5BBF4F0E9448
:101D3A0002170E9460170E946F1728961F5F0BCF29
:101D4A00E1E0E09321050E948719A396DF5F0895D9
:101D5A002B98E0E0EA930E942B0C2B9A0895E091CD
:101D6A002105E03011F40C94170F2297EDEBF4E003
:101D7A00E883F983ECEBF9E00E94FB16EAECF9E060
:101D8A00FA93EA93EA81FB810E9476170E947B17F5
:101D9A00EE81FF810E9476170E9482170E94C61563
:101DAA002A96EFEDF9E00E948A170E948F170E9487
:101DBA007B17AE81BF810E948F170E9422190E9451
:101DCA0095170E94C6152A96E5EFF9E00E948A1730
:101DDA0014960E949F17AE81BF8116960E949F1784
:101DEA00AA85BB8518960E949F178CE00E94C6158B
:101DFA002E96EFE0FAE00E948A171C960E949F171F
:101E0A00AE81BF811E960E949F17AA85BB855096F8
:101E1A000E949F178CE00E94C6152E96E0E0E09380
:101E2A002105229608950E94A617133010F00C94EB
:101E3A00290F0E9455170E945217309711F40C94DB
:101E4A00270F0F5F1F5FF1CFE02F0E948919249699
:101E5A0008950E94A617133010F00C943F0F0E94A9
:101E6A005D170E945217309711F40C943D0F0F5FC3
:101E7A001F5FF1CFE02F0E948919249608951A93C3
:101E8A00E981E150AA81BB81F0E0AE0FBF1FEC915E
:101E9A00E07811F40C94530FE1E001C0E0E01E2F4A
:101EAA00103011F40C94600FAA81BB810E9454195E
:101EBA000E94931804C0AA81BB810E9450191881FC
:101ECA00249608950A9A099A249A119888EB8A9571
:101EDA00F1F7119A2C9A0E94410B88EB8A95F1F737
:101EEA000E94820F88EB8A95F1F70E94D40F88EB43
:101EFA008A95F1F70E949A100895E3EAEA930E94FC
:101F0A009210E1EAEA930E949210E0ECEA930E94AE
:101F1A009210E4E2EA930E949210E1E8EA930E94A6
:101F2A009210EFE2EA930E949210EFE2EA930E9483
:101F3A009210E7EAEA930E9492100E94D40F0E943C
:101F4A00AD17E0EB0E94B117E5E0EA930E94921008
:101F5A00EAE2FAE0FA93EA930E946710EFEAEA9358
:101F6A000E94921008951A9310E0183010F00C9401
:101F7A00D10FE0E0EA93E1E0EA931A930E94F50FA9
:101F8A00E12FA981BA81F0E00E945217FA93EA93ED
:101F9A000E9455101F5FE9CF1881239608951A935E
:101FAA000A930E94AD1710E0183010F00C94F20F4B
:101FBA00E12FE06B0E94B117E1E0EA930E949210D0
:101FCA0000E0043810F00C94F00FE0E0EA930E946D
:101FDA0096100F5FF6CF1F5FE7CF09911991089509
:101FEA000E94AD17EA81E061EA83EA930E949210A7
:101FFA00AA81A03111F00C940610E981E460E9830A
:10200A0002C0E981E983E981EA930E949210E8819A
:10201A00E06BE883EA930E949210239608951A933C
:10202A0010E0A981A03B11F00C941E10E0E0E983B6
:10203A000CC0A981A03210F40C942810AC3710F00F
:10204A000C94281002C0E0E4E98310E0153010F087
:10205A000C944E10A981A03210F00C944010E98122
:10206A00A5E0EA9FF001EA53FA4FDF010E94021746
:10207A000E94B8170CC0E981E052A5E0EA9FF0017E
:10208A00E453FA4FDF010E9402170E94B8171F5F3C
:10209A00DDCFE0E0EA930E94961018812296089517
:1020AA00A881B981EC91E03011F40C946510EA939F
:1020BA000E941410E881F9813196E883F983F0CF00
:1020CA0022960895E881F981E491E03011F40C94A4
:1020DA007A10E881F981E491EA930E941410E88168
:1020EA00F9813196E883F983EDCF229608952C98E9
:1020FA00E981E03011F40C948410129801C0129A0C
:10210A0085E28A95F1F7E881EA930E94480B85E215
:10211A008A95F1F72C9A22960895E1E00E94BE175B
:10212A000895E0E00E94BE1708950E94821920E0F7
:10213A0030E02830E0E03E0710F00C94C410E0E0F4
:10214A00EA93E1E0EA932A930E94F50F10E010382F
:10215A0010F00C94C110A0E8A29FF001A39FF00D0B
:10216A00A12FB0E0EA0FFB1FEA53FE4FE491EA9376
:10217A000E9496101F5FEBCF2F5F3F4FDACF0E946E
:10218A00891924960895E0E0E0934D060E94670FAE
:10219A000895609780E1A0E0B0E0E2EEFAE00E94E4
:1021AA008E19E0914D06EA93FE013196FA93EA936D
:1021BA000E9479110E94C5170E94B80F609608956F
:1021CA000E94C9170E94EF1008950E94C9170E9421
:1021DA0003110895A981BA81AC91E881AE1710F074
:1021EA000C94FD10A981BA81EC91EF5FEC9304C0C5
:1021FA00A981BA81E0E0EC9323960895A981BA8176
:10220A00EC91E03011F00C940D11E881EC9305C0CB
:10221A00A981BA81EC91E150EC9323960895A8978D
:10222A00EAA50E94D0170E941016709710F40C9419
:10223A002011AB9608950E94C517E8EBF3E00E94BF
:10224A00D817ECA50E94D0170E94DD17EDE0FBE03D
:10225A000E94E017A8A5B9A50E94E4170E94E917F1
:10226A00E8A5F9A5A281B381BA93AA93E1ECF3E0B8
:10227A000E94F117AB960895A8971A931CA51730D8
:10228A0010F00C945611E12FA9A5BAA5F0E00E940E
:10229A005217FA93EA93E8EDF3E00E94F1171F5FF1
:1022AA00EECFFE013196FA93EA93EFE3FBE0FA935D
:1022BA00EA93EFA5EF5F0E94F717E7E0F0E060E02E
:1022CA0070E00E94771988E00E948B152C96E9A588
:1022DA00FAA5A685B785BA93AA93FE0133960E94FA
:1022EA00F1171881AD9608951A93EB81EA93EA8162
:1022FA00FB81FA93EA930E941411EB81A1E1EA9F10
:10230A00F001E25BFE4F3F960E946919FF93EF933B
:10231A00E981FA81FA93EA93EF91FF9109951E2FC9
:10232A001A93EC81EA93EB81FC81FA93EA930E9477
:10233A004111188124960895A8970E94C517EDEEB9
:10234A00F3E00E94D817E1E6FBE0FA93EA930E94D1
:10235A00DD17EEE0FBE00E94E017E8A5F9A50E9470
:10236A00FD170E94E9170E94C517E8EFF3E00E94E3
:10237A00D817E1E7FBE0FA93EA930E94DD17EEE053
:10238A00FBE00E94E017E8A5F9A5A681B7810E94A3
:10239A000218E8A5F9A5A085B185BA93AA93E3E046
:1023AA00F4E00E94F1170E94C517ECE8FBE0FA93EB
:1023BA00EA93E09122050E94F717E09123050E9413
:1023CA00F717E09124050E94F717E09125050E946E
:1023DA00F71780E10E948B156496E8A5F9A5A285F6
:1023EA00B3850E9402180E94C517E9EAFBE0FA9336
:1023FA00EA93E09126050E94F717E09127050E94CB
:10240A00F717E09128050E94F717E09129050E9425
:10241A00F717E0912A050E94F717E0912B050E9411
:10242A00F71788E10E948B156C96E8A5F9A5A48593
:10243A00B5850E940218E7E0AA960895A8971A930C
:10244A000A930DEB14E00E940518EBECFBE0FA93FB
:10245A00EA930E94180F0E94F7170E940A180E9416
:10246A00FD170E9411180E940518E1EEFBE0FA938D
:10247A00EA930E942E0F0E94F7170E940A18A6815B
:10248A00B7810E941418EAA5FBA5A085B185BA9365
:10249A00AA93E9E1F4E00E94F1170E940518E2E12B
:1024AA00FCE0FA93EA93F8010E9476170E947B17E0
:1024BA00F8010E9476170E9482170E948B152C96AB
:1024CA00EAA5FBA5A285B3850E9414180E940518E7
:1024DA00EDE2FCE0FA93EA93D8010E948F170E947A
:1024EA007B17D8010E948F170E9482170E948B15B2
:1024FA002C96EAA5FBA5A485B5850E941418E7E0E9
:10250A0019810881AC9608950E941718E4E3F4E053
:10251A000E94F11720E030E02330E0E03E0710F09F
:10252A000C94B8120E941F18E9E4FCE0FA93EA93AB
:10253A00D8011496F9010E945217DF01EAE0F0E08F
:10254A000E947B17D8011496F9010E945217DF01E5
:10255A00EAE0F0E00E9482170E9424180E942C18D8
:10256A002F5F3F4FD9CF0E94311808950E94171844
:10257A00EAE4F4E00E94F11720E030E02330E0E0E2
:10258A003E0710F00C94EA120E941F18E1E6FCE0E4
:10259A00FA93EA93D8011C96F9010E945217DF01B7
:1025AA00E4E6F0E00E947B17D8011C96F9010E942C
:1025BA005217DF01E4E6F0E00E9482170E94241815
:1025CA000E942C182F5F3F4FD9CF0E9431180895CF
:1025DA000E941718E8E7F4E00E94F11720E030E0C3
:1025EA002330E0E03E0710F00C941E130E941F18DF
:1025FA00EBE9FCE0FA93EA93D8015496F9010E94B8
:10260A0060170E9436180E941D190E947719D80176
:10261A005496F9010E9460170E9436180E942919DF
:10262A000E9495170E9424180E942C182F5F3F4F72
:10263A00D7CF0E94311808950E941718EFE8F4E0E6
:10264A000E94F11720E030E02330E0E03E0710F06E
:10265A000C9441130E941F18E3EBFCE0FA93EA93EF
:10266A00D801D496F9010E9460170E943B180E9473
:10267A002C182F5F3F4FE8CF0E94311808950E940F
:10268A001718E6EAF4E00E94F11720E030E0233060
:10269A00E0E03E0710F00C9465130E941F18EAEC64
:1026AA00FCE0FA93EA93D801AC5ABF4FF9010E94B1
:1026BA0060170E943B180E942C182F5F3F4FE7CFEC
:1026CA000E9431180895E091C000E07211F00C9454
:1026DA006F13F9CFE881E093C60021960895EA8145
:1026EA00EA930E946813A881B9810E94F51623967D
:1026FA0008951A930A93AA81BB8112960E945019CF
:10270A00309711F40C94B513AA81BB8114960E94D8
:10271A0050198F01309711F00C9494130EC00230A7
:10272A00E0E01E0710F40C94B413F80131978F01FE
:10273A00AA81BB811496ED93FC93AA81BB81129660
:10274A000E94F5163197AC81A083AA81BB810E94B1
:10275A005019FF2312F40C94B4130E94F51606C004
:10276A00AA81BB81EFEFFFEFED93FC9319810881FA
:10277A00259608952B970E94801910E0A989BA8995
:10278A000E94F016EF89F88D3196EF8BF88F31970A
:10279A00E4912E2FE03011F40C948315E12FE030F0
:1027AA0011F00C94E113253211F00C94DE1311E0B0
:1027BA0002C00E944818A1C1E13011F00C94031420
:1027CA00253211F00C94ED130E94481810E095C1BF
:1027DA0012E040E000E02D3211F00C94F61301E013
:1027EA008CC12B3211F00C94FC134BE286C12032BF
:1027FA0011F00C94021440E280C104C0E23011F0DE
:10280A000C94101450E013E0203311F00C940F14C0
:10281A00006873C104C0E33011F00C942D14203306
:10282A0010F40C941D142A3310F00C941D1401C0DA
:10283A0007C0AAE05A9F502DE22FE0535E0F5DC1F8
:10284A002C3611F00C942C14026015E056C104C009
:10285A00E53011F00C948215E22FE33611F00C9456
:10286A0040140E945118ED89FE89A481AA930E94FE
:10287A00571842C104C0E33711F00C944D140E945A
:10288A0051180E945F180E9406161E2F0DC004C020
:10289A00E03711F00C945F140E9451180E945F18DF
:1028AA000E9410161E2F08600F77E0E0E88B30E0D8
:1028BA007EC004C0E43611F00C94641404C0E936F6
:1028CA0011F00C946A14046004C0E53711F00C94FA
:1028DA008314EAE0E88B01FF08C0E0E0FAEC6AE959
:1028EA007BE30E9469181AE026C0E0E1F7E260E0A3
:1028FA0070E00E94691815E01EC004C0E83511F0A6
:10290A000C948914086004C0E83711F00C948115FE
:10291A00E0E1E88B01FF08C0E0E0F0E060E070E190
:10292A000E94691818E007C0E0E0F0E160E070E09A
:10293A000E94691814E001FF0AC00E945118AD896B
:10294A00BE8914960E9454190E946E1819C002FF7B
:10295A000CC00E945118AD89BE8914960E94501964
:10296A000E94BB180E946E180BC00E945118AD89B4
:10297A00BE8914960E945019662777270E946E18FE
:10298A0002FF15C0AF85AA2312F00C94D514EC856A
:10299A00FD856E857F850E9493180E946E184DE210
:1029AA00403011F40C94DB141F5F01C00B7F00FD53
:1029BA0013C0151710F00C94F11407FF08C002FF9A
:1029CA0004C00B7F242F115001C020E301C020E274
:1029DA000E9448185150EDCF312FE889E03011F0AC
:1029EA000C941215303011F40C94111503FF06C023
:1029FA00EE81FF812591EE83FF8305C0AE81BF8101
:102A0A002D91AE83BF830E944818503011F40C9464
:102A1A000F1551503150E6CF63C00E9473180E94BF
:102A2A00F8182E2F2A3010F40C94211503FF02C037
:102A3A00295C01C0295A01C0205D04FF01C02CC0D5
:102A4A00213310F00C943815A885B9858A859B85A1
:102A5A00A130E0E0BE07E0E08E07E0E09E0711F457
:102A6A000C94381501C00CC0531710F40C9440157F
:102A7A0000FD01C001C017C020E207FF0DC020E31E
:102A8A00006102FF09C00B7F4A930E945718503019
:102A9A0011F40C94511551500E944818503011F4F9
:102AAA000C945815515031500E9473180E942519E0
:102ABA000E946E18E889A885B9858A859B85FF27B3
:102ACA00662777270E94F8180E946918E885F98511
:102ADA006A857B850E947C1911F40C9475159DCF2B
:102AEA0000FF0AC0503011F40C9481155150E0E2F5
:102AFA00EA930E945718F6CF10E044CEA989BA8902
:102B0A000E9450190E94871969960895FF92F82E1B
:102B1A0026970E9482190E947C18309711F00C9413
:102B2A009D15EFEFFFEF0E9489192A96FF900895ED
:102B3A00DE0116960E948F188D010E947C18EE8382
:102B4A00FF83E0E0E887E987DE011A960E948F1882
:102B5A000E94E4171A930A93EEE7F3E1FA93EA93D1
:102B6A00FE013A96FA93EA930E94BF139F01AE813F
:102B7A00BF81E0E0EC93F9010E9489192A96FF903F
:102B8A000895FF92F82E26971A930A93DE01149657
:102B9A000E948F188D01E0E0EC83ED83EE83EF83D2
:102BAA00DE0118960E948F180E94E4171A930A935E
:102BBA00E4E7F3E1FA93EA93FE013896FA93EA938B
:102BCA000E94BF13198108812896FF900895E99100
:102BDA00F991A991B991CD016D916623E9F7119700
:102BEA0005900D920020E1F7FC010895E991F99111
:102BFA00A991B991CD0161916D936623E1F7FC0129
:102C0A000895A991B991EE27FF276D91662311F0D6
:102C1A003196FBCF0895AA27BB27E991F991059030
:102C2A00002011F01196FBCFFD0108957991E991E9
:102C3A00F991A991B991CD01772351F07A956191D2
:102C4A006D936623C9F7772319F07A956D93FBCFB5
:102C5A00FC010895E991F99130971AF4E095F095FD
:102C6A0031960895FA93EA930C943C09FA93EA93FD
:102C7A000E947708E0E0EA930895FA93EA930C94A5
:102C8A007708FA93EA93E0E3F0E0FA93EA930C9474
:102C9A00DD09A4EAB5E0F0E0EE0FFF1F0895ED812B
:102CAA00FE816F81788508950E945416A8E0B0E0ED
:102CBA0080E090E00E94C01808950E94F818E15040
:102CCA00F040604070408F0108950A2EAC91E32FC6
:102CDA00EE0FEA2BA02DEC930895E881F981319645
:102CEA00E883F9833197E4910895E881F0E0089543
:102CFA00AE0FBF1F0E94501908950A921A92FA92B3
:102D0A006A937A938A939A93AA93BA93EA93FA93D1
:102D1A00EFB7EA930895EA930E949D08E991EFBFFD
:102D2A00F991E991B991A9919991899179916991C9
:102D3A00F990199009900895EA930E94DF08E991A1
:102D4A00EFBFF991E991B991A991999189917991F5
:102D5A006991F990199009900895ABE01A9FF001D2
:102D6A00E655FA4F0895AE81BF8188859985AA30C4
:102D7A00E0E0BE07E0E08E07E0E09E070895EAE0A3
:102D8A00F0E060E070E00895AE81BF8188859985A2
:102D9A000E94C4160E94F8180895FA93EA93E12F44
:102DAA00FF27662777270E94771984E00E94C615B5
:102DBA00269608950E9487192696E991EFBFF99100
:102DCA00E991B991A9919991899179916991F9902A
:102DDA00199009900895E0E0F0E0ED93FC930895CE
:102DEA00ED91FD913196FE93EE930895FA93EA934D
:102DFA0080E00E94C61522960895E12FF0E008951A
:102E0A00EA930E94480B1E2F0895FA93EA93E1E091
:102E1A00EA930C94160CFA93EA93E2E0EA930C9480
:102E2A00160CFA93EA93E3E0EA930C94160C0E94C8
:102E3A00AF18AE0FBF1F0E945419DF01CB01E8E0A3
:102E4A000E94A318EC83FD836E837F83D9010895C2
:102E5A00DF01CB01E0EAF6E861E070E008950E9444
:102E6A00AF18EA0FFB1FFA93EA93E8E0EA930E948D
:102E7A00440F0E94BB180E947219D90108950E943A
:102E8A00B118EA0FFB1F08950E946D19ACE9B1E071
:102E9A0080E090E00E94E018DBCFEE0FFF1F28CF02
:102EAA00D9011496AACFEE0FFF1FAE0FBF1F93CF03
:102EBA00D9011C96A2CF0E94B118AE0FBF1F089568
:102ECA000E945419E230A0E0FA07A0E06A07A0E0E5
:102EDA007A070895E0E0F0E060E070E00E945F1990
:102EEA000895A281B381E8EEF3E008950E94E518FF
:102EFA00662777270E94771908950E942219662764
:102F0A0077270E94771988E00895FA93EA93AA81AD
:102F1A00BB8108950E945019DF01EAE0F0E00895AC
:102F2A00FA93EA930E942F16662777270E94771949
:102F3A0088E008950E945019662777270E9477191A
:102F4A0008950E94821900E02DEB34E010E0089504
:102F5A00EFE7EA930C949210EA930E949210E0E150
:102F6A00EA930C949210EA0FFB1FE491EA930C94F3
:102F7A009610EA93E981EA930E947C1021960895BB
:102F8A00FE01FA93EA930895EDE4F6E0FA93EA93E0
:102F9A00E6E0EA930895A1E1EA9FF001E25BFE4FC1
:102FAA00FA93EA930895FA93EA930E94FB15E8CFFD
:102FBA000E94EC15E5CFFA93EA930C94EC150E9463
:102FCA005019FA93EA930895FE013296FA93EA9316
:102FDA00E5E1EA930C941B16FA93EA93E5E1EA9386
:102FEA000C941B16FF27662777270E9477190895E6
:102FFA00A481B581BA93AA930895BA93AA93E4CF08
:10300A00FE013296FA93EA93089584E00E948B15A2
:10301A002896EAA5FBA50895FE013496DDCFBA935A
:10302A00AA93FACFA8970E9482190DEB14E0ECA597
:10303A00FDA5DECFFE013496FA93EA9308950E9425
:10304A008B152C96F9013396ACA5BDA526CFFA931C
:10305A00EA93FE013696C0CFE6E00E948919AE9641
:10306A0008950E945419DF01CB0189CE0E94541998
:10307A000E94771984E00E948B152896F9013396ED
:10308A00ACA5BDA50ACF2A93EA89FB89FA93EA93EC
:10309A00EE89FF8909950895ED89FE893497ED8BAC
:1030AA00FE8B0895EA89FB89FA93EA93EE89FF89F0
:1030BA0009950895AD89BE8914960E945019EE8328
:1030CA00FF83FA93EA930895E887F9876A877B87EB
:1030DA000895EC87FD876E877F870895E885F985CF
:1030EA006A857B85AC85BD858E859F850895DE01C1
:1030FA001C960E948F180E9450190895E991F9911F
:10310A00309639F08DEC9AE00197F1F7A89531974E
:10311A00C9F708950024AF0DB01D0895F095609584
:10312A007095E195FF4F6F4F7F4F0895EE230E2E56
:10313A00EA2F19F0EE0F0A94E9F70895EE230E2EFE
:10314A00FD01BC0131F076956795F795E7950A94EC
:10315A00D1F70895EE0FFF1FEE0FFF1FEE0FFF1FAF
:10316A000895EE0FFF1F661F771F08956F2F660FD2
:10317A00660B762F08957A9F702D6B9F700DF89FBE
:10318A00700DE99F700D6A9F602D710DFB9F600D98
:10319A00711DE89F600D711D8827FA9FF02D610D42
:1031AA00781FEB9FF00D611D781FEA9FE02DF10D4E
:1031BA00681F781F08955CD0DEDF0EF4AFDF089534
:1031CA000024112490E1AA0FBB1F001C111C0E1A27
:1031DA001F0A18F40E0E1F1E01C0A1609A9599F7D6
:1031EA00FD01D00108953F934F935F93002411246A
:1031FA004427552730E2AA0FBB1F881F991F001CBE
:10320A00111C441F551F0E1A1F0A460B570B28F490
:10321A000E0E1F1E461F571F01C0A1603A9559F78F
:10322A00FD01BC01D001CA015F914F913F91089500
:10323A001FD0D9DF0EF472DF0895C2DFFD010895B1
:10324A00D2DFFD01BC010895E89497FF09C0A0955B
:10325A00B09580959095AF5FBF4F8F4F9F4F689401
:10326A0077FD5CDFC0DFFD01BC010EF457DF089576
:10327A00E89477FF02C052DF689497FF0BC00024DE
:10328A00A095B095809590951196801D901D00F897
:10329A00039400FA0895ED91FC9111970895ED9128
:1032AA00FD916D917C9113970895ED91FD916D912A
:1032BA007D910895ED93FD936D937C9308957E938C
:1032CA006E93FE93EE9308950590F491E02D089580
:1032DA00E881F9816A817B810895E883F9836A83A9
:1032EA007B8308957A936A93FA93EA9308953097C1
:1032FA006040704008955A934A933A932A931A93D6
:10330A000A9308955D814C813B812A811981088144
:10331A000895AC0FBD1F05900D928A95E1F70895A7
:00000001FF
