:020000000C945E
:100002005B070C9400000C9400000C9400000C940C
:1000120000000C9400000C9400000C9400000C945E
:1000220000000C9400000C9400000C9400000C944E
:1000320000000C9400000C9400000C9400000C943E
:10004200290A0C9400000C9400000C9400000C94FB
:10005200A9090C9400000C949D090C9400000C94C6
:1000620000000C9400000C9400000C9400000C940E
:10007200AF090C9400000C94A3090A232323232321
:10008200232323232323232323232323232323233E
:10009200232323232323232323232323232323232E
:1000A200232323230A23204B6E7565727220414756
:1000B2000A2320524D204949202D20496E672E20C7
:1000C2004C2E4D656C69636861722C20496E672EF7
:1000D20020502E4B65726E646C2000000A2323238D
:1000E20023232323232323232323232323232323DE
:1000F20023232323232323232323232323232323CE
:100102002323232323230000000001000100010018
:1001120002000100030001000400020006000200C8
:1001220062000200C6010200C8010400CC01040002
:10013200B2020200B4020400B80204009E030200EC
:10014200A0030400A4030400010C0200424F415228
:100152004400000000000000000000D1115245538D
:10016200554D450000000000000000006A12564F85
:100172004C544147450000000000000000E01243DB
:10018200555252454E540000000000000000321348
:10019200504F574552000000000000000000008050
:1001A200130000000000000000000000000000003A
:1001B200000000000000000000000000000000003D
:1001C200000000000000000000000000000000002D
:1001D200000000000000000000008080C06060306D
:1001E200181C18306060C080800000000000000011
:1001F20000000000000000000000000000000000FD
:1002020000000000000000000000000000000000EC
:1002120000000000000000000000000000000000DC
:1002220000000000000000000000000000000000CC
:1002320000000000000000000000000000000000BC
:1002420000000000000000000000000000000000AC
:1002520000000080E070383C1E1F1F9F0C0C0E0E29
:10026200FEFEFE0E0E0C0C9F1F1F1E3C3870E0801F
:10027200000000000000000000000000000000007C
:10028200000000000000000000000000000000006C
:10029200000000000000000000000000000000005C
:1002A200000000000000000000000000000000004C
:1002B200000000000000000000000000000000003C
:1002C200000000000000000000000000000000002C
:1002D200F0FEFF07000000F8FEFF01000000000032
:1002E200FFFFFF000000000001FFFEF80000000712
:1002F200FFFEF0000000000000000000000000000F
:1003020000000000000000000000000000000000EB
:1003120000000000000000000000000000000000DB
:1003220000000000000000000000000000000000CB
:1003320000000000000000000000000000000000BB
:1003420000000000000000000000000000000000AB
:1003520001030F3E78F0E0E0C78F8E9000000000AE
:10036200FFFFFF00000000908E8FC7E0E0F0783EB4
:100372000F03010000000000000000000000000068
:10038200000000000000000000000000000000006B
:10039200000000000000000000000000000000005B
:1003A200000000000000000000000000000000004B
:1003B200000000000000000000000000000000003B
:1003C200000000000000000000000000000000002B
:1003D200000000000000077FFFF101030303030395
:1003E200030703030303030301F1FF7F0700000078
:1003F20000000000000000000000000000000000FB
:1004020000000000000000000000000000000000EA
:1004120000000000000000000000000000000000DA
:1004220000000000000000000000000000000000CA
:1004320000000000000000000000000000000000BA
:1004420000000000F0F8FC3E0E0F070707070E3E03
:10045200FCF8E0C0E0E0E0707F7F7060E0C0C0C008
:10046200C0C0C0C0C0C0E060707F7F70E0E0E0C08C
:10047200E0F8FC3E0E070707070F0E3EFCF8F000FF
:10048200000000000000000000000000000000006A
:10049200000000000000000000000000000000005A
:1004A200000000000000000000000000000000004A
:1004B200000000000000000000000000000000003A
:1004C200000000000000000000000000000000002A
:1004D2001F1F3F397070E0E0E0C0C0808000000163
:1004E2000101010100008080C0C0E0E0E0707039CD
:1004F2003F1F1F000000000000000000000000007D
:1005020000000000000000000000000000000000E9
:1005120000000000000000000000000000000000D9
:1005220000000000000000000000000000000000C9
:1005320000000000000000000000000000000000B9
:1005420000000000000000000000000000000000A9
:100552000000000000000000010103030707070E6E
:100562000C1C0C0E0707070303010100000000002A
:100572000000000000000000000000000000000079
:100582000000000000000000000000000000000069
:100592000000000000000000000000000000000059
:1005A2000000000705070000000000000000002F07
:1005B20000000007000700147F147F14242A7F2AFA
:1005C20012C4C810264636495522500005030000C1
:1005D200001C2241000041221C0014083E0814089D
:1005E200083E080800005030001010101010006083
:1005F20060000020100804023E5149453E00427F3F
:10060200400042615149462141454B311814127F45
:100612001027454545393C4A4949300171090503CE
:100622003649494936064949291E00363600000036
:100632005636000008142241001414141414004108
:100642002214080201510906324959513E7E111104
:10065200117E7F494949363E414141227F41412233
:100662001C7F494949417F090909013E4149497AAB
:100672007F0808087F00417F41002040413F017F01
:10068200081422417F404040407F020C027F7F04D9
:1006920008107F3E4141413E7F090909063E415112
:1006A200215E7F09192946464949493101017F01E5
:1006B200013F4040403F1F2040201F3F4038403F05
:1006C2006314081463070870080761514945430021
:1006D2007F414100552A552A550041417F000402BD
:1006E20001020440404040400001020400205454F2
:1006F20054787F4844443838444444203844444879
:100702007F3854545418087E0901020C5252523E4A
:100712007F0804047800447D40002040443D007F6F
:100722001028440000417F40007C041804787C08B3
:1007320004047838444444387C141414080814140B
:10074200187C7C080404084854545420043F444054
:10075200203C4040207C1C2040201C3C4030403C3F
:1007620044281028440C5050503C4464544C4400DB
:100772000A232048573A2000436F6D6D4D6F647510
:100782006C00207600312E3130000A232053573A74
:10079200200054657374487700312E3030000A49C6
:1007A2003A2053797374656D2073746172742E2EBE
:1007B200000A493A312E62797465202578000A4987
:1007C2003A322E62797465202578000A493A332E2E
:1007D20062797465202578000A493A342E62797468
:1007E20065202578000A493A352E627974652025FC
:1007F20078000A493A362E62797465202578000A13
:10080200493A372E62797465202578000A493A38C8
:100812002E62797465202578000A3D3D3D3D3D3DBF
:100822003D3D3D3D3D3D3D3D3D3D3D3D3D3D3D3DF6
:100832003D3D3D3D3D3D3D3D3D3D3D3D3D3D3D3DE6
:100842003D3D3D3D3D3D3D000A45453A206E656AD0
:1008520073656D207265616479202578000A4545CB
:100862003A20737061746E61206164726573610015
:100872000A45453A20737061746E656A207A616335
:100882006174656B00000A63726561746520707241
:100892006F63657373206E722E2564202E2E000006
:1008A200010001000A2D000A2B000A493A20536573
:1008B2006E64427566666572662829000A493A20A6
:1008C2005072696A6D757420737472696E673A202A
:1008D200000A453A204E65646F7374617465636EF5
:1008E20079206275666665722C20737472696E6710
:1008F2003A000A453A207772697465207761736E0F
:10090200742073756363657366756C6C000A453A8F
:100912002077726F6E67206F7065726174696F6E97
:100922002028726561642F777269746529000A450F
:100932003A676F6F642C206E6578742073746570EB
:100942002030782578000A453A77726F6E672C203E
:100952006F6E636520616761696E000A453A2077B0
:1009620072697465206661696C656421000A453AA2
:100972002053594E4328332E6279746529203A2038
:100982002578000A453A20414444524553532028D1
:10099200322E6279746529000A3D3D3D3D3D3D3D63
:1009A2003D3D3D3D3D000A6672657175656E63654C
:1009B2003A2025752E257520487A000A74656D70D7
:1009C200657261747572653A2025642E2564B043A0
:1009D200000A766F6C746167653A20256C64207C2E
:1009E20020256C64207C20256C64000A6375727279
:1009F200656E743A20256C64207C20256C64207C12
:100A020020256C640000496E696369616C697A61D2
:100A12006365204F4B006672656B76656E63653A5F
:100A220020202564202020202020004E656A736546
:100A32006D20706F76696E656E2062FD7420746140
:100A42006B6F76FD2C206A616BFD206279636820F2
:100A5200706F646C65206F737461746EED636820EF
:100A62006C6964ED206DEC6C2062FD742E204A6589
:100A720020746F206A656A696368206F6D796C2CD7
:100A82002061206E65206D6F6A652073656C68E178
:100A92006EED202D2052696368617264204665798B
:100AA2006E6D616E0020202020202020202020203A
:100AB2002020202020202025752F257500000003EE
:100AC20017032E0345035C0373038A03A10320204B
:100AD2002020202020202020202020202020202014
:100AE200202020200000202020202020524D494993
:100AF20020424F415244202020202000202020204C
:100B0200203D3D3D3D3D3D3D3D3D3D3D3D20202087
:100B12002000204857207665722E3A2000312E316F
:100B22003000205357207665722E3A2000312E3045
:100B320030002020202020202020202020202020C3
:100B420020202020202020002049503A2025303328
:100B5200752E253033752E253033752E253033759D
:100B62002000204D41433A2025303258253032585A
:100B720025303258253032582530325825303258F7
:100B82002020200020202020202020524553554D97
:100B92004520202020002055206C696E65733A2084
:100BA2002575202020202020202020002049206C94
:100BB200696E65733A202575202020202020202090
:100BC2002000202020202020202020202020202043
:100BD20020202020202020202020202000204672BB
:100BE200657175656E63653A2025752E25752048F9
:100BF2007A202020202020002054656D70657261CB
:100C0200747572653A2025752E2575B04320202013
:100C12002020200020202020202020564F4C54410C
:100C22004745202020202020200020202020202096
:100C32003D3D3D3D3D3D3D3D3D20202020202000CD
:100C42002020202020204C313A2025752E25752089
:100C52005B565D20202020002020202020204C32C6
:100C62003A2025752E2575205B565D202020200018
:100C72002020202020204C333A2025752E25752057
:100C82005B565D20202020002020202020202043B1
:100C9200555252454E542020202020202020002052
:100CA20020202020203D3D3D3D3D3D3D3D3D20203D
:100CB2002020202020002020202020204C313A20FB
:100CC20025752E25303275205B415D2020202020A5
:100CD20020002020202020204C323A2025752E256D
:100CE200303275205B415D20202020202000202012
:100CF200202020204C333A2025752E2530327520B5
:100D02005B415D2020202020200020202020202068
:100D120020504F57455220202020202020202020E4
:100D220000204C313A20256C642E2564205B575DEF
:100D3200207C20256C642E2564205B56415D0020BA
:100D42002020202041435449564520504F574552B8
:100D52002020202020002020202020204C313A205A
:100D6200256C642E2564205B575D20202000202006
:100D7200202020204C323A20256C642E2564205BF2
:100D8200575D202020002020202020204C333A20B4
:100D9200256C642E2564205B575D202020002020D6
:100DA200202041435449564520454E45524759203B
:100DB20020202020002020202020204C313A2025F5
:100DC20075205B57685D20202020200020202020F5
:100DD20020204C323A202575205B57685D20202068
:100DE2002020002020202020204C333A202575206E
:100DF2005B57685D2020202020002020202020201A
:100E020020504F57455220464143544F52202020F4
:100E1200002020202020203D3D3D3D3D3D3D3D3DEB
:100E22003D3D3D3D3D20200001002D4E414E0049FB
:100E32004E4600000100E005A2080100E105A408F9
:100E420017000003D00A17001703D00A17002E0359
:100E5200D00A17004503D00A17005C03D00A170016
:100E62007303D00A17008A03D00A1700A103D00A1D
:100E72001600B803E80A1600CE03FE0A0B00E403CC
:100E8200140B0B00EF03240B1600FA03340B1600AD
:100E92001004340B12002604860B16003804FE0AD6
:100EA2001B004E04C40B1B006904C40B010018068E
:100EB2002A0E0000F894EE27EFBBF1E0F5BFE5BF84
:100EC200F8E1A895A4B7A77FA4BFF0936000E093D0
:100ED20060008DE0A2E0BB27ED938A95E9F780E000
:100EE20098E0A0E0B1E0ED930197E9F7E6E3FEE0D8
:100EF20085919591009761F0A591B5910590159016
:100F0200BF01F00105900D920197E1F7FB01F0CFCF
:100F1200E0E0EEBBEFEFEDBFE8E0EEBFC0E0D3E014
:100F22000C9493070E940C080E94E20A0E94DD0AB8
:100F32000E942C0B0E94C20C0E947511F894E4E6E8
:100F4200F0E0FA93EA930E942F190E94B509E8EBA8
:100F5200FBE060E070E00E94231AE9E4FFE00E94F7
:100F6200A516E8ECF0E060E070E00E94231AE1E0F0
:100F7200FBE00E94A516E8EEF3E060E070E00E945C
:100F8200231AEBEEFAE00E94A516E4EFF1E060E02E
:100F920070E00E94231AEBE7F1E10E94A516E0ED52
:100FA200F7E0FA93EA930E942F19E0E0EA93ECE764
:100FB200F0E00E94A916E2E7F7E00E94A916EAE72C
:100FC200F7E00E94A916E4E8F7E00E94A916E7E814
:100FD200F7E00E94A916ECE8F7E00E94A916E4E9FE
:100FE200F7E00E94A916E4E8F7E00E94A916EBE9EF
:100FF200F7E00E94A916EEEDF0E00E94B0160E9402
:10100200D609E0E0EA93E0EAF7E00E94B0160E9417
:10101200500FFDCFFFCFE0E8E0936100E0E0E09306
:101022006100E2B9E1B9E5B9E4B9E8B9E7B9EBB908
:10103200EAB9E4BDE5BDE6BDE7BDE8BDE0938000E9
:10104200E0938100E0938500E0938400E0938700C1
:10105200E0938600E0938900E0938800E0938B00A0
:10106200E0938A00E093B600E093B000E093B10011
:10107200E093B200E093B300E093B400E093690020
:10108200EDBBE0936800E0936E00E0936F00E093A5
:101092007000E093C000E8E0E093C100E6E0E09376
:1010A200C200E0E0E093C500E5E0E093C400E0E8C0
:1010B200E0BFE0E0E0937B000895E881E03011F4C6
:1010C2000C9466080E947F0802C00E946A0821965A
:1010D20008950E949508E0E0E0936B05E0936C05AB
:1010E200E8EDE093C100E1E0E093F304E0E0E09397
:1010F200F504E0930705E093080508950E949E0811
:10110200EDE6F5E0A0E0B0E0A083B183E8EDE09386
:10111200C900E1E0E093F404E0E0E093F604E9E0E2
:10112200F5E0A083B1830895E7EFF4E0FA93EA9340
:10113200EBE0F5E00E94B4160895EFEFF4E0FA93C5
:10114200EA93EBE3F5E00E94B4160895AA81A23077
:1011520010F00C94B508EA810E94BC16EA0FFB1F3E
:10116200A881B981A083B183239608950E942E1A83
:10117200EC81E03011F40C94D6080E94C2160E9451
:1011820062190E946219E050F04467457F4F7F93D5
:101192006F93FF93EF930E94C716AF91BF918F9108
:1011A2009F910E94D01631E019C00E94C716E050EC
:1011B200F04467457F4F7F936F93FF93EF930E94B5
:1011C200C216A0E1B0E080E090E00E946C19AF91FD
:1011D200BF918F919F910E94D01630E0E985E03057
:1011E20011F40C9402090093CC001093CD00E0910D
:1011F200C000ED7FE093C000A0ECB0E00E94D816E2
:101202000DC00093C4001093C500E091C800ED7FAB
:10121200E093C800A8ECB0E00E94D8160E94351AEC
:101222002A960895E881F981E491E03011F40C9452
:101232003709EA81E03011F40C942B09E091C800DF
:10124200E07211F00C942609F9CF0E94E016E093A7
:10125200CE000BC0E091C000E07211F00C94320994
:10126200F9CF0E94E016E093C600DCCF23960895E2
:101272000E94E816EB50FB4FE081E03011F40C9431
:1012820073090E94E8160E945B19E550FB4FDF01CB
:101292000E94FC19309711F40C946609E881E03041
:1012A20011F40C945D09EFEFF4E0FA93EA930E94D3
:1012B200940AE093CE0008C0E7EFF4E0FA93EA93D1
:1012C2000E94940AE093C6000CC00E94E816EB50FC
:1012D200FB4FA0E0A0830E94E816ED50FB4FA1E077
:1012E200A08306C00E94E816ED50FB4FA1E0A08348
:1012F200219608951A93E981E03011F40C9484093F
:101302001091CE0002C01091C600E9810E94BC1665
:101312000E94EB16309711F40C949A09E9810E940D
:10132200BC160E94EB16FF93EF931A93EF91FF9175
:1013320009951881229608950E94F016E0E00E9415
:10134200FE1618950E94F016E1E00E94FE1618950E
:101352000E94F016E0E00E940F1718950E94F01606
:10136200E1E00E940F1718951A93E2E0E4BDE5E070
:10137200E5BDE0E0E6BDEBE6E7BDE0E0E8BDE2E0CA
:10138200E0936E00E2E3F0E0E0936F05F093700506
:1013920010E01A3010F00C94D4090E942017A0E03B
:1013A200A0831F5FF6CF19910895789408950E9443
:1013B2002E1A10E01A3010F00C94250A0E94201701
:1013C2009F01D901EC91E03011F00C94230AE1E085
:1013D200EC93EC81FD81D9011196ED93FC930E946F
:1013E200261710F00C94FB090E943217EE83FF833C
:1013F200688779870E94261710F00C94050AE1E0AD
:10140200F0E060E070E002C00E943717D901139645
:101412000E940B1A0E94261710F00C94150AE1E0A4
:10142200F0E060E070E002C00E943717D901179621
:101432000E940B1AE8E8F8E00E9440170E94351A51
:101442002A9608951F5FB6CF0E94351A2A960895EC
:101452000E94F0160E942C1AE0916F05F09170051F
:10146200309711F40C943F0AAFE6B5E0ED91FD918F
:101472003197FE93EE930E944D171895E0E0E093AA
:101482006E0010E01A3010F00C94730A0E942017BC
:101492009F01D901AC91A13011F00C94710AD901CC
:1014A20017960E94061A3197604070400E94101AE7
:1014B2000E94281A11F00C94710AD901E2E0EC930F
:1014C20011964D915C91FA010995D90113960E94EA
:1014D200001AD90117960E940B1AD901E1E0EC9388
:1014E2001F5FD0CFE2E0E0936E000E944D17189587
:1014F200F894EA81FB81AC81BD81ED93FC93E88194
:10150200F981AC81BD811296ED93FC93AC81BD81D2
:1015120016960E945E17AC81BD8114960E945E17DA
:101522007894269608951A9310E0F894A981BA81C6
:1015320014960E94FC19309711F40C94D80AA981D0
:10154200BA810D901C90A981BA8116960E94FC194D
:10155200D001AE0FBF1F1C91A981BA8116960E94BD
:101562006317E981FA8106801780A981BA811296F0
:101572000E94FC190E161F0610F40C94D00AE98181
:10158200FA813696BF0100801180E981FA81A28139
:10159200B381F001EA1BFB0BDB01ED93FC93A98104
:1015A200BA811496ED91FD913197FE93EE93789462
:1015B200E12F1881239608953E98469A3F98479ABC
:1015C2000895569A5E9A579A5F9A0A9A12980B9AB7
:1015D20013980895EBB1A0E8EA27EBB9E091DF0593
:1015E200E03011F40C94FD0AEBB1A0E4EA27EBB968
:1015F200E0E0E093DF0503C0E1E0E093DF0508955A
:10160200379910C0E091E005E03011F40C94120B10
:10161200E6EAF8E00E9469170E94A711E0E0E09371
:10162200E00503C0E1E0E093E005369910C0E091E7
:10163200E105E03011F40C94270BE9EAF8E00E948E
:1016420069170E94A211E0E0E093E10503C0E1E026
:10165200E093E10508951A93EAB1EC7FEAB9EBB1A0
:10166200E360EBB9529AEBB1E360EBB9E1E0EA93E4
:101672000E945E08E1E0EA93E0E8F5E260E070E0F3
:101682000E94231AE0E0EA930E94B708E1E0EA939D
:10169200EEE6FBE0FA93EA930E94A70810E014300A
:1016A20010F00C945B0B0E947017E751FB4F1083F4
:1016B2001F5FF5CF10E0163010F00C94690BADEE01
:1016C200B4E00E947017EA0FFB1F10831F5FF3CF75
:1016D200E0E0E093130619910895E0911206E030DC
:1016E20011F00C94800BA881A33511F00C947F0BA0
:1016F200E0E0E0931106E1E0E09312065BC0E13026
:1017020011F00C948B0BE881E093ED05E2E0E0939D
:10171200120650C0E23011F00C94960BE881E0936F
:10172200EE05E3E0E093120645C0E33011F00C94BD
:10173200B20BA881AF3110F40C94A30BE0E0E0935C
:1017420012060EC0E881E093F105E03011F40C942A
:10175200AE0BE4E0E093120603C0E5E0E09312066C
:1017620029C0E43011F00C94D10BA2EFB5E0E09166
:101772001106F0E0EA0FFB1FA881A083E091110699
:10178200EF5FE0931106E150A0911106E091F1059F
:10179200AE1710F40C94D00BE5E0E09312060AC0E9
:1017A200E53011F00C94DB0BE881E0931006E6E0E3
:1017B200E093120621960895249A259A2698279A4C
:1017C200E3E5ECBD0895E881EEBDEDB5E07811F0FA
:1017D2000C94EC0BFACFEEB5219608950E94DD0B26
:1017E20008950E942C1A10E000E02B98EA85F0E0A0
:1017F200EF702E2FE9855E2FEB85E795E0E0E79508
:10180200AE2FEE81E295E07FEA2BE22B0E94731766
:1018120088EB8A95F1F7113C11F00C94A90C5A93BC
:101822000E94E40B1E2F123C11F00C94A30CEB85CA
:10183200E03011F00C94310C30E03E3110F00C9499
:10184200300C84E191E00197F1F7E0E00E94731718
:10185200113411F00C942E0C02C03F5FEECF01C088
:1018620011E4113411F00C949E0C30E0EE81A1E0F1
:101872000E9447193E1710F00C94750C88EB8A955C
:10188200F1F7EB85E03011F00C94530CE0E00E948C
:101892007317E02FAF81B885F0E0EA0FFB1F1083CA
:1018A2000F5F20C0AB85A13011F00C946F0C219713
:1018B200A885B985EE27A00FBE1F1C911A930E941E
:1018C200E40BE8830F5FA881A13411F40C946D0C32
:1018D200E4EFF8E00E946917219604C0EFE0F9E016
:1018E2000E9469173F5FC2CFAB85A13011F00C9403
:1018F2009D0C30E03E3110F00C94950C88EB8A95EB
:10190200F1F7E0E00E9473171E3411F40C948F0C6F
:10191200E0E3F9E00E94401707C004C0E8E4F9E000
:101922000E9469173F5FE6CF113411F40C949D0CAD
:10193200EDE5F9E00E94691704C0EFE6F9E00E94C4
:10194200401706C0E0E0EA93E5E8F9E00E94B0162D
:101952002B9A88EB8A95F1F7E02F0E94331A2C9686
:101962000895E0E0EA93EC81FD81FA93EA93EC8139
:10197200FD81FA93EA93ED81EA930E94F20B259698
:1019820008950E94EF0B239A2B9A08956C97D150D9
:101992000E942C1AFE01EE5DFE4FE081A5E6EA9F51
:1019A200F001EC57FB4F9F01FE013696AF01E2E6D4
:1019B200F0E0FA93EA93FA0138960E947817E1E090
:1019C200FCE0FA93EA93FA013A960E947817E8EC5F
:1019D200F1E0FA93EA93FA013C960E947E17E4EB57
:1019E200F2E0FA93EA93FA0170960E947E17E0EA17
:1019F200F3E0FA93EA93FA0174960E947E17E1E308
:101A0200F8E0FA93EA93FA01E45AFF4F0E9484172E
:101A1200E2E3F8E0FA93EA93FA01EC59FF4F0E94ED
:101A22008417E4E3F8E0FA93EA93FA01E459FF4FEA
:101A32000E948417ECECF1E0FA93EA93FA017896AB
:101A42000E947E17E8EBF2E0FA93EA93FA017C96A1
:101A52000E947E17E4EAF3E0FA93EA93FA01B09661
:101A62000E947E17E1E4F8E0FA93EA93FA01E4585F
:101A7200FF4F0E948417E2E4F8E0FA93EA93FA0136
:101A8200EC57FF4F0E948417E4E4F8E0FA93EA93DC
:101A9200FA01E457FF4F0E948417E6ECF1E0FA9353
:101AA200EA93FA01B4960E947817E2EBF2E0FA9315
:101AB200EA93FA01B6960E947817EEE9F3E0FA93F8
:101AC200EA93FA01B8960E947817E0EDF1E0FA93F2
:101AD200EA93FA01BC960E947E17ECEBF2E0FA93CD
:101AE200EA93FA01F0960E947E17E8EAF3E0FA938D
:101AF200EA93FA01F4960E947E17E8EDF1E0FA9378
:101B0200EA93FA01F8960E947E17E4ECF2E0FA9367
:101B1200EA93FA01FC960E947E17E0EBF3E0FA9357
:101B2200EA93FA01E05CFF4F0E947E17E1E0F8E0E1
:101B3200FA93EA93FA01E456FF4F0E948417E2E017
:101B4200F8E0FA93EA93FA01EC55FF4F0E948417EA
:101B5200E4E0F8E0FA93EA93FA01E455FF4F0E94B9
:101B62008417E1E2F8E0FA93EA93FA01E454FF4FB2
:101B72000E948417E2E2F8E0FA93EA93FA01EC5346
:101B8200FF4F0E948417E4E2F8E0FA93EA93FA0125
:101B9200E453FF4F0E948417E8EEF1E0FA93EA93D0
:101BA200FA01EC5BFF4F0E947E17E4EDF2E0FA933C
:101BB200EA93FA01E85BFF4F0E947E17E0ECF3E044
:101BC200FA93EA93FA01E45BFF4F0E947E17ECEE70
:101BD200F1E0FA93EA93FA01E05BFF4F0E947E176D
:101BE200E8EDF2E0FA93EA93FA01EC5AFF4F0E9411
:101BF2007E17E4ECF3E0FA93EA93FA01E85AFF4F16
:101C02000E947E17E1E7F8E0FA93EA93FA01E452C0
:101C1200FF4F0E948417E2E7F8E0FA93EA93FA0191
:101C2200EC51FF4F0E948417E4E7F8E0FA93EA933D
:101C3200FA01E451FF4F0E948417E1E7F8E0FA93BA
:101C4200EA93FA01E450FF4F0E948417E2E7F8E0BA
:101C5200FA93EA93FA01EC5FFE4F0E948417E4E7DD
:101C6200F8E0FA93EA93FA01E45FFE4F0E948417C8
:101C7200DA0118960E94FC19D9011296ED93FC9391
:101C8200FA01A285B385ECE4F0E00E949119D90132
:101C9200ED93FC9310E0143010F00C94410F289750
:101CA200DA01A45ABF4F0E9470170E948A17149635
:101CB2000E947017EE0FFF1FEA0FFB1FFF93EF93B7
:101CC200EC81FD816E817F81ACEABEE180E090E033
:101CD2000E946C190E949B170E94A419AF91BF9198
:101CE200ED93FC93DA01A458BF4F0E9470170E9433
:101CF2008A171C960E947017EE0FFF1FEA0FFB1F38
:101D0200FF93EF93EC81FD816E817F81A9E1B3E0C6
:101D120080E090E00E946C19DF01CB01E0E1F7E284
:101D220060E070E00E94A419AF91BF91ED93FC9323
:101D3200DA01A456BF4F0E9470170E94A217549650
:101D42000E9470170E94B217FF93EF930E94B71779
:101D52000E94C919AF91BF910E940B1AD901AC5AC6
:101D6200BF4F0E9470170E94B2170F01DA019496BA
:101D72000E9470170E94C017D0010E9467190E942A
:101D82000B1ADA01A452BF4F0E9470170E94A217C9
:101D9200D4960E9470170E94B217FF93EF930E948D
:101DA200B7170E94C919AF91BF910E940B1A0E94E6
:101DB200C3170E94C017749710F00C94E40E0E948F
:101DC200C3170E94C6170E94CB170E94C0173597EF
:101DD20010F00C94F00E0E94CB170E94C617D90186
:101DE20054960E9470170E94CE170E94D31714F0C7
:101DF2000C94030FD90154960E9470170E94CE17BB
:101E02000E94DD17D90194960E9470170E94CE1786
:101E12000E94D31714F00C94160FD90194960E94C5
:101E220070170E94CE170E94DD17D901D4960E9426
:101E320070170E94CE170E94D31714F00C94290F2A
:101E4200D901D4960E9470170E94CE170E94DD1706
:101E5200D901AC5BBF4F0E9470170E94CE170E943F
:101E6200D31714F00C943E0FD901AC5BBF4F0E9404
:101E720070170E94CE170E94DD1728961F5F0BCFA6
:101E8200E1E0E093E8040E94331AA396DF5F08952D
:101E92002B98E0E0EA930E94C70C2B9A0895E091F8
:101EA200E804E03011F40C94AF0F2297E4E8F4E078
:101EB200E883F983EAE9F9E00E946917E8EAF9E0C0
:101EC200FA93EA930E94E4170E94E917EE81FF81D8
:101ED2000E94F2170E9434162A96EDEBF9E00E9456
:101EE200FE170E9403180E940918AE81BF810E944A
:101EF20003180E94CE190E9410180E9434162A96C6
:101F0200E3EDF9E00E94FE1714960E941A18AE81C2
:101F1200BF8116960E941A18AA85BB8518960E9440
:101F22001A188CE00E9434162E96EDEEF9E00E940B
:101F3200FE171C960E941A18AE81BF811E960E943F
:101F42001A18AA85BB8550960E941A188CE00E9426
:101F520034162E96E0E0E093E804229608950E945B
:101F62002118133010F00C94C10F0E94C3170E9465
:101F7200C017309711F40C94BF0F0F5F1F5FF1CFA2
:101F8200E02F0E94351A249608950E9421181330DA
:101F920010F00C94D70F0E94CB170E94C0173097F5
:101FA20011F40C94D50F0F5F1F5FF1CFE02F0E9449
:101FB200351A249608951A93E981E150AA81BB81CA
:101FC200F0E0AE0FBF1FEC91E07811F40C94EB0F30
:101FD200E1E001C0E0E01E2F103011F40C94F80F84
:101FE200AA81BB810E94001A0E943F1902C00E946E
:101FF20028181881249608950A9A099A249A119801
:1020020088EB8A95F1F7119A2C9A0E94DD0B88EBE6
:102012008A95F1F70E94181088EB8A95F1F70E94D1
:10202200831088EB8A95F1F70E9449110895E3EA3B
:10203200EA930E944111E1EAEA930E944111E0EC25
:10204200EA930E944111E4E2EA930E944111E1E81D
:10205200EA930E944111EFE2EA930E944111EFE2FA
:10206200EA930E944111E7EAEA930E9441110E9419
:1020720083100E942D18E0EB0E943118E5E0EA93EC
:102082000E944111E8E0FAE0FA93EA930E941611E5
:10209200EFEAEA930E94411108951A9310E0183072
:1020A20010F00C9465100E9438181A930E94A41024
:1020B200E12FA981BA81F0E00E94C017FA93EA9356
:1020C2000E9404111F5FEBCF188123960895659734
:1020D2000E943D18E7EAFAE0FA93EA93EA8D0E9439
:1020E2004118ED8D0E9441180E9447180E9438182D
:1020F200E7E0EA930E94A4100E943D180E94041196
:10210200679608951A930A930E942D1810E01830CA
:1021120010F00C94A110E12FE06B0E943118E1E065
:10212200EA930E94411100E0043810F00C949F10D1
:10213200E0E0EA930E9445110F5FF6CF1F5FE7CF01
:102142000991199108950E942D18EA81E061EA83AC
:10215200EA930E944111AA81A03111F00C94B510AA
:10216200E981E460E98302C0E981E983E981EA93D4
:102172000E944111E881E06BE883EA930E944111D9
:10218200239608951A9310E0A981A03B11F00C94B4
:10219200CD10E0E0E9830CC0A981A03210F40C94C8
:1021A200D710AC3710F00C94D71002C0E0E4E983EA
:1021B20010E0153010F00C94FD10A981A03210F03F
:1021C2000C94EF10E981A5E0EA9FF001EC55FA4F7B
:1021D200DF010E9470170E944C180CC0E981E05286
:1021E200A5E0EA9FF001E655FA4FDF010E94701761
:1021F2000E944C181F5FDDCFE0E0EA930E94451178
:10220200188122960895A881B981EC91E03011F4E9
:102212000C941411EA930E94C310E881F98131965B
:10222200E883F983F0CF22960895E881F981E49159
:10223200E03011F40C942911E881F981E491EA93D8
:102242000E94C310E881F9813196E883F983EDCFCA
:10225200229608952C98E981E03011F40C94331100
:10226200129801C0129A85E28A95F1F7E881EA9301
:102272000E94E40B85E28A95F1F72C9A2296089542
:10228200E1E00E9452180895E0E00E945218089579
:102292000E942E1A20E030E02830E0E03E0710F0E5
:1022A2000C9471110E9438182A930E94A41010E015
:1022B200103810F00C946E11A0E8A29FF001A39FB9
:1022C200F00DA12FB0E0EA0FFB1FEC55FE4FE49199
:1022D200EA930E9445111F5FEBCF2F5F3F4FDCCF88
:1022E2000E94351A24960895E0E0E09314060E94B5
:1022F200FD0F0895609780E1A0E0B0E0E0ECFAE025
:102302000E943A1AE0911406A1E1EA9FF001E25B11
:10231200FE4F3F960E94151AFF93EF930E943D18BD
:10232200EF91FF9109950E943D180E944E10E09195
:102332001406EF5FEA93E5E0EA930E946810609664
:1023420008950E9459180E94AC1108950E945918CC
:102352000E94C0110895A981BA81AC91E881AE179B
:1023620010F00C94BA11A981BA81EC91EF5FEC9351
:1023720004C0A981BA81E0E0EC9323960895A98173
:10238200BA81EC91E03011F00C94CA11E881EC931F
:1023920005C0A981BA81EC91E150EC93239608958E
:1023A200A897A8A5B9A50E946018E8EBF3E00E94DF
:1023B2006518E8A5F9A5A281B381BA93AA93EEECB8
:1023C200F3E00E9465180E943D18E4EEF3E00E94DB
:1023D2006B18EFE1FBE00E9470180E943D18E9EFD4
:1023E200FAE00E947018E8A5F9A50E9474180E94EC
:1023F20079180E943D18EFEEF3E00E946B18EFE2AD
:10240200FBE00E9470180E943D18E9EFFAE00E947A
:102412007018E8A5F9A50E947C180E947918E8A511
:10242200F9A50E948118EAEFF3E00E9465180E9464
:102432003D18EAE4FBE0FA93EA93E091E9040E9492
:102442004118E091EA040E944118E091EB040E94D5
:102452004118E091EC040E94411880E10E94F915B4
:102462006496E8A5F9A50E9486180E9479180E9430
:102472003D18E4E6FBE0FA93EA93E091ED040E9452
:102482004118E091EE040E944118E091EF040E948D
:102492004118E091F0040E944118E091F1040E9479
:1024A2004118E091F2040E94411888E10E94F91556
:1024B2006C96E8A5F9A50E948B180E947918E8A5E8
:1024C200F9A50E949018E0E1F4E00E946518AA962E
:1024D2000895A8970E949518AAA5BBA50E94601806
:1024E200E6E2F4E00E946518EAA5FBA5A281B381A9
:1024F200BA93AA93E8E3F4E00E9465180E949A183E
:10250200E8E9FBE0FA93EA930E94B00F0E944118B7
:102512000E949F180E9474180E94A6180E949A187E
:10252200EEEAFBE0FA93EA930E94C60F0E9441187A
:102532000E949F180E947C180E94A618EAA5FBA57B
:102542000E948118EEE4F4E00E9465180E949A1835
:10255200EFEDFBE0FA93EA93F801A281B3810E94C6
:10256200E917F8010E94F2170E94F9152C96EAA5C4
:10257200FBA50E9486180E94A6180E949A18EAEFEC
:10258200FBE0FA93EA93D8010E9403180E9409180B
:10259200D8010E9403180E94A918EAA5FBA50E946F
:1025A2008B180E94A618EAA5FBA50E949018E9E6DE
:1025B200F4E00E94651819810881AC9608950E9482
:1025C20095180E942818FA93EA93E6E1FCE00E942B
:1025D200B0180E94E417BA93AA93ECE2FCE00E94BE
:1025E200B0180E94B7180E94BA180E94BD18E2E4FF
:1025F200FCE0FA93EA93F801A481B5810E94C01825
:10260200F801A481B5810E94C3180E94C618EAE5A8
:10261200FCE0FA93EA93F801A681B7810E94C01800
:10262200F801A681B7810E94C3180E94C918E2E787
:10263200FCE0FA93EA93F801A085B1850E94C018E4
:10264200F801A681B7810E94C3180E94CC180E948B
:10265200BA180E94CF180E94BA18198108812496CC
:1026620008950E9495180E942818FA93EA93EAE8BE
:10267200FCE00E94B0180E94E4170E94D2180E9447
:10268200B7180E94D7180E94BD18E8EBFCE0FA9335
:10269200EA93F801A485B5850E94DA18F801A485A9
:1026A200B5850E94DD180E94C618E4EDFCE0FA939D
:1026B200EA93F801A685B7850E94DA18F801A68583
:1026C200B7850E94DD180E94C918E0EFFCE0FA937A
:1026D200EA93F801A089B1890E94DA18F801A08969
:1026E200B1890E94DD180E94CC180E94D7180E945E
:1026F200CF180E94D71819810881249608950E9444
:1027020095180E942818FA93EA93E1E4FDE00E94EA
:10271200B0180E94E4170E94D2180E94B7180E94B3
:10272200D7180E94BD18E8E5FDE0FA93EA930E94EB
:10273200E0180E94E6180E94E0180E94EB180E941E
:10274200F9152C960E94C618E0E7FDE0FA93EA9389
:102752000E94EE180E94E6180E94EE180E94EB18E2
:102762000E94F9152C960E94C918E8E8FDE0FA9338
:10277200EA93F801A48DB58D868D978D0E9432174C
:102782000E94E6180E94E0180E94EB180E94F915B8
:102792002C960E94CC180E94D7180E94CF180E9433
:1027A200D7181981088124960895E091C000E0723B
:1027B20011F00C94DD13F9CFE881E093C600219665
:1027C2000895EA81EA930E94D613A881B9810E94F2
:1027D2006317239608951A930A93AA81BB811296CE
:1027E2000E94FC19309711F40C942314AA81BB8126
:1027F20014960E94FC198F01309711F00C94021468
:102802000EC00230E0E01E0710F40C942214F8010E
:1028120031978F01AA81BB811496ED93FC93AA8113
:10282200BB8112960E9463173197AC81A0830E94EC
:102832002818FF2312F40C942214AA81BB810E944F
:10284200631706C0AA81BB81EFEFFFEFED93FC9304
:1028520019810881259608952B970E942C1A10E061
:10286200A989BA890E945E17EF89F88D3196EF8B9C
:10287200F88F3197E4912E2FE03011F40C94F1157A
:10288200E12FE03011F00C944F14253211F00C942A
:102892004C1411E002C00E94F418A1C1E13011F001
:1028A2000C947114253211F00C945B140E94F418EC
:1028B20010E095C112E040E000E02D3211F00C94DE
:1028C200641401E08CC12B3211F00C946A144BE2B7
:1028D20086C1203211F00C94701440E280C104C011
:1028E200E23011F00C947E1450E013E0203311F02A
:1028F2000C947D14006873C104C0E33011F00C9491
:102902009B14203310F40C948B142A3310F00C9483
:102912008B1401C007C0AAE05A9F502DE22FE0534A
:102922005E0F5DC12C3611F00C949A14026015E012
:1029320056C104C0E53011F00C94F015E22FE336D5
:1029420011F00C94AE140E94FD18ED89FE89A48149
:10295200AA930E94031942C104C0E33711F00C94F8
:10296200BB140E94FD180E940B190E9474161E2FA0
:102972000DC004C0E03711F00C94CD140E94FD1874
:102982000E940B190E947E161E2F08600F77E0E04E
:10299200E88B30E07EC004C0E43611F00C94D2140F
:1029A20004C0E93611F00C94D814046004C0E53771
:1029B20011F00C94F114EAE0E88B01FF08C0E0E0AA
:1029C200FAEC6AE97BE30E9415191AE026C0E0E1FD
:1029D200F7E260E070E00E94151915E01EC004C025
:1029E200E83511F00C94F714086004C0E83711F0D0
:1029F2000C94EF15E0E1E88B01FF08C0E0E0F0E0A5
:102A020060E070E10E94151918E007C0E0E0F0E113
:102A120060E070E00E94151914E001FF0AC00E94F4
:102A2200FD18AD89BE8914960E94001A0E941A19D7
:102A320019C002FF0CC00E94FD18AD89BE89149610
:102A42000E94FC190E9467190E941A190BC00E9469
:102A5200FD18AD89BE8914960E94FC196627772756
:102A62000E941A1902FF15C0AF85AA2312F00C9416
:102A72004315EC85FD856E857F850E943F190E9476
:102A82001A194DE2403011F40C9449151F5F01C030
:102A92000B7F00FD13C0151710F00C945F1507FF94
:102AA20008C002FF04C00B7F242F115001C020E395
:102AB20001C020E20E94F4185150EDCF312FE88975
:102AC200E03011F00C948015303011F40C947F1525
:102AD20003FF06C0EE81FF812591EE83FF8305C0CF
:102AE200AE81BF812D91AE83BF830E94F418503016
:102AF20011F40C947D1551503150E6CF63C00E9401
:102B02001F190E94A4192E2F2A3010F40C948F152D
:102B120003FF02C0295C01C0295A01C0205D04FFE5
:102B220001C02CC0213310F00C94A615A885B985DC
:102B32008A859B85A130E0E0BE07E0E08E07E0E0F9
:102B42009E0711F40C94A61501C00CC0531710F483
:102B52000C94AE1500FD01C001C017C020E207FFB2
:102B62000DC020E3006102FF09C00B7F4A930E945F
:102B72000319503011F40C94BF1551500E94F418EF
:102B8200503011F40C94C615515031500E941F1947
:102B92000E94D1190E941A19E889A885B9858A85E7
:102BA2009B85FF27662777270E94A4190E94151983
:102BB200E885F9856A857B850E94281A11F40C94B0
:102BC200E3159DCF00FF0AC0503011F40C94EF15AD
:102BD2005150E0E2EA930E940319F6CF10E044CE8E
:102BE200A989BA890E94FC190E94331A699608952C
:102BF200FF92F82E26970E942E1A0E9428193097CB
:102C020011F00C940B16EFEFFFEF0E94351A2A9683
:102C1200FF900895DE0116960E943B198D010E94D5
:102C22002819EE83FF83E0E0E887E987DE011A9640
:102C32000E943B190E9460181A930A93ECEEF3E18A
:102C4200FA93EA93FE013A96FA93EA930E942D14BC
:102C52009F01AE81BF81E0E0EC93F9010E94351A39
:102C62002A96FF900895FF92F82E26971A930A93B8
:102C7200DE0114960E943B198D01E0E0EC83ED83A6
:102C8200EE83EF83DE0118960E943B190E946018C2
:102C92001A930A93E2EEF3E1FA93EA93FE0138966D
:102CA200FA93EA930E942D14198108812896FF90C5
:102CB2000895E991F991A991B991CD016D91662398
:102CC200E9F7119705900D920020E1F7FC010895B4
:102CD200E991F991A991B991CD0161916D93662321
:102CE200E1F7FC010895A991B991EE27FF276D91B3
:102CF200662311F03196FBCF0895AA27BB27E991ED
:102D0200F9910590002011F01196FBCFFD01089575
:102D12007991E991F991A991B991CD01772351F076
:102D22007A9561916D936623C9F7772319F07A95A5
:102D32006D93FBCFFC010895E991F99130971AF454
:102D4200E095F09531960895FA93EA930C94D80998
:102D5200FA93EA930E941309E0E0EA930895FA9342
:102D6200EA930C941309FA93EA93E0E3F0E0FA93FE
:102D7200EA930C94790AABE6B5E0F0E0EE0FFF1FA0
:102D82000895ED81FE816F81788508950E94C216B3
:102D9200A8E0B0E080E090E00E946C1908950E94E3
:102DA200A419E150F040604070408F0108950A2E4E
:102DB200AC91E32FEE0FEA2BA02DEC930895E8815E
:102DC200F9813196E883F9833197E4910895E88196
:102DD200F0E00895AE0FBF1F0E94FC1908950A92F9
:102DE2001A92FA926A937A938A939A93AA93BA93CB
:102DF200EA93FA93EFB7EA930895EA930E943909A6
:102E0200E991EFBFF991E991B991A99199918991CC
:102E120079916991F990199009900895EA930E9425
:102E22007B09E991EFBFF991E991B991A991999142
:102E3200899179916991F990199009900895ABE07F
:102E42001A9FF001EF58FA4F0895AE81BF8188852D
:102E52009985AA30E0E0BE07E0E08E07E0E09E0739
:102E62000895EAE0F0E060E070E00895AE81BF818D
:102E7200888599850E9432170E94A4190895FA93B1
:102E8200EA93E12FFF27662777270E94231A84E01F
:102E92000E943416269608950E94331A2696E991C6
:102EA200EFBFF991E991B991A9919991899179919C
:102EB2006991F990199009900895E0E0F0E0ED939E
:102EC200FC930895ED91FD913196FE93EE93089552
:102ED200FA93EA9380E00E94341622960895E12F35
:102EE200F0E00895EA930E94E40B1E2F0895FA93EE
:102EF200EA93E1E0EA930C94B20CFA93EA93E2E0EB
:102F0200EA930C94B20CFA93EA93E3E0EA930C94FA
:102F1200B20C0E945B19AE0FBF1F0E94001ADF01A4
:102F2200CB01E8E00E944F19EC83FD836E837F831F
:102F3200D9010895DF01CB01E0EAF6E861E070E033
:102F420008950E945B19EA0FFB1FFA93EA93E8E0E7
:102F5200EA930E94DC0F0E9467190E941E1AD9018F
:102F620008950E945D19EA0FFB1F08950E94191A25
:102F7200ACE9B1E080E090E00E948C19DBCFEE0F6B
:102F8200FF1F28CFD9011496AACFEE0FFF1FAE0F55
:102F9200BF1F93CFD9011C96A2CF0E945D19AE0F1D
:102FA200BF1F08950E94001AE230A0E0FA07A0E0D5
:102FB2006A07A0E07A070895E0E0F0E060E070E0E0
:102FC2000E940B1A0895EA81FB81A281B3810895C0
:102FD200E8EEF3E00E949119662777270E94231AF0
:102FE2000895A281B381E8EEF3E00E94CE1966272C
:102FF20077270E94231A88E00895FA93EA93AA8118
:10300200BB8108950E94FC19DF01EAE0F0E0089517
:103012000E949119662777270E94231A0895FA932E
:10302200EA930E949D16662777270E94231A88E05A
:1030320008950E94FC19662777270E94231A089593
:103042000E942E1A00E024E834E010E00895AA81DC
:10305200BB810E94FC190895EFE7EA930C94411199
:10306200EA930E944111E0E1EA930C944111E0E0FD
:10307200EA93E1E0EA930895FE01FA93EA93089550
:10308200FF27662777270E94231A089588E00E9467
:10309200F9152C960895EA0FFB1FE491EA930C941C
:1030A2004511EA93E981EA930E942B112196089532
:1030B200E4E1F6E0FA93EA93E4E0EA9308950E94E9
:1030C200FC19FA93EA930895FA93EA93E5E1EA93F5
:1030D2000C948916FA93EA930E946916CDCFFA935B
:1030E200EA930C945A16A481B581BA93AA930895CF
:1030F200FE013296E9CFA681B781BA93AA930895C9
:10310200A085B185BA93AA930895A285B385BA938F
:10311200AA930895A485B585BA93AA930895A6851E
:10312200B785BA93AA9308951A930A9304E814E010
:103132000895FE013296FA93EA93089584E00E947C
:10314200F9152896EAA5FBA50895FE013496BCCF91
:103152000E94CE19662777270E94231A97CFFA93E7
:10316200EA9380E00E94F91524960895EA81FB8192
:10317200BACFE7ECFBE0F3CFEA81FB81BCCFEAE018
:10318200F0E046CFEAE0F0E0E3CFEA81FB81B8CF9E
:10319200EA81FB81BACFEA81FB81BCCFEA81FB8164
:1031A200BECFBA93AA93E1EAFCE0D9CFE8ECFBE008
:1031B200D6CFE4E6F0E02CCFE4E6F0E0C9CFF801A8
:1031C200A489B589868997894CCE0E94C9190E9423
:1031D200231A08950E94D51922CFF801A08DB18D2E
:1031E200828D938D3ECE2A93EA89FB89FA93EA93E4
:1031F200EE89FF8909950895ED89FE893497ED8B53
:10320200FE8B0895EA89FB89FA93EA93EE89FF8996
:1032120009950895AD89BE8914960E94FC19EE8322
:10322200FF83FA93EA930895E887F9876A877B8791
:103232000895EC87FD876E877F870895E885F98575
:103242006A857B85AC85BD858E859F850895DE0167
:103252001C960E943B190E94FC190895E991F9916C
:10326200309639F08DEC9AE00197F1F7A8953197F5
:10327200C9F708950024AF0DB01D0895F09560952B
:103282007095E195FF4F6F4F7F4F0895EE230E2EFD
:10329200EA2F19F0EE0F0A94E9F70895EE230E2EA5
:1032A200FD01BC0131F076956795F795E7950A9493
:1032B200D1F70895EE0FFF1FEE0FFF1FEE0FFF1F56
:1032C2000895EE0FFF1F661F771F08956F2F660F79
:1032D200660B762F08957A9F702D6B9F700DF89F65
:1032E200700DE99F700D6A9F602D710DFB9F600D3F
:1032F200711DE89F600D711D8827FA9FF02D610DE9
:10330200781FEB9FF00D611D781FEA9FE02DF10DF4
:10331200681F781F08955CD0DEDF0EF4AFDF0895DA
:103322000024112490E1AA0FBB1F001C111C0E1ACD
:103332001F0A18F40E0E1F1E01C0A1609A9599F77C
:10334200FD01D00108953F934F935F930024112410
:103352004427552730E2AA0FBB1F881F991F001C64
:10336200111C441F551F0E1A1F0A460B570B28F437
:103372000E0E1F1E461F571F01C0A1603A9559F736
:10338200FD01BC01D001CA015F914F913F910895A7
:103392001FD0D9DF0EF472DF0895C2DFFD01089558
:1033A200D2DFFD01BC010895E89497FF09C0A09502
:1033B200B09580959095AF5FBF4F8F4F9F4F6894A8
:1033C20077FD5CDFC0DFFD01BC010EF457DF08951D
:1033D200E89477FF02C052DF689497FF0BC0002485
:1033E200A095B095809590951196801D901D00F83E
:1033F200039400FA0895ED91FC9111970895ED91CF
:10340200FD916D917C9113970895ED91FD916D91D0
:103412007D910895ED93FD936D937C9308957E9332
:103422006E93FE93EE9308950590F491E02D089526
:10343200E881F9816A817B810895E883F9836A834F
:103442007B8308957A936A93FA93EA930895309767
:103452006040704008955A934A933A932A931A937C
:103462000A9308955D814C813B812A8119810881EB
:103472000895AC0FBD1F05900D928A95E1F708954E
:00000001FF
