:100000000C9489060C9400000C9400000C940000E1
:100010000C9400000C9400000C9400000C94000060
:100020000C9400000C9400000C9400000C94000050
:100030000C9400000C9400000C9400000C94000040
:100040000C94F3070C9400000C9400000C94000036
:100050000C94A6090C9400000C949A090C940000CE
:100060000C9400000C9400000C9400000C94000010
:100070000C94AA090C9400000C94A0090A232323D1
:100080002323232323232323232323232323232340
:100090002323232323232323232323232323232330
:1000A0002323232323230A23204B6E75657272209A
:1000B00041470A2320524D204949202D20496E678F
:1000C0002E204C2E4D656C69636861722C20496E40
:1000D000672E20502E4B65726E646C2000000A2340
:1000E00023232323232323232323232323232323E0
:1000F00023232323232323232323232323232323D0
:1001000023232323232323230000424F415244006F
:1001100000000000000000000009104D4F44554C45
:10012000455300000000000000003E1052455355AA
:100130004D450000000000000000006410564F4CC8
:10014000544147450000000000000000CD10435519
:100150005252454E540000000000000000011150B2
:100160004F574552464143544F5200000000FD1185
:10017000504F5745522041435400000000000033C7
:1001800011504F57455220415050000000000000D0
:100190006A11454E45524759204143540000000022
:1001A00000A111454E4552475920415050000000D2
:1001B0000000CD1100000000000000000000000061
:1001C000000000000000000000000000000000002F
:1001D000000000000000000000000000000000001F
:1001E0000000000000000000000000008080C060EF
:1001F0006030181C18306060C08080000000000073
:1002000000000000000000000000000000000000EE
:1002100000000000000000000000000000000000DE
:1002200000000000000000000000000000000000CE
:1002300000000000000000000000000000000000BE
:1002400000000000000000000000000000000000AE
:10025000000000000000000000000000000000009E
:10026000000000000080E070383C1E1F1F9F0C0C37
:100270000E0EFEFEFE0E0E0C0C9F1F1F1E3C387055
:10028000E08000000000000000000000000000000E
:10029000000000000000000000000000000000005E
:1002A000000000000000000000000000000000004E
:1002B000000000000000000000000000000000003E
:1002C000000000000000000000000000000000002E
:1002D000000000000000000000000000000000001E
:1002E0000000F0FEFF07000000F8FEFF0100000024
:1002F0000000FFFFFF000000000001FFFEF800000B
:100300000007FFFEF00000000000000000000000F9
:1003100000000000000000000000000000000000DD
:1003200000000000000000000000000000000000CD
:1003300000000000000000000000000000000000BD
:1003400000000000000000000000000000000000AD
:10035000000000000000000000000000000000009D
:10036000000001030F3E78F0E0E0C78F8E900000A0
:100370000000FFFFFF00000000908E8FC7E0E0F05C
:10038000783E0F03010000000000000000000000A4
:10039000000000000000000000000000000000005D
:1003A000000000000000000000000000000000004D
:1003B000000000000000000000000000000000003D
:1003C000000000000000000000000000000000002D
:1003D000000000000000000000000000000000001D
:1003E0000000000000000000077FFFF1010303038D
:1003F0000303030703030303030301F1FF7F070064
:1004000000000000000000000000000000000000EC
:1004100000000000000000000000000000000000DC
:1004200000000000000000000000000000000000CC
:1004300000000000000000000000000000000000BC
:1004400000000000000000000000000000000000AC
:10045000000000000000F0F8FC3E0E0F0707070741
:100460000E3EFCF8E0C0E0E0E0707F7F7060E0C02E
:10047000C0C0C0C0C0C0C0C0E060707F7F70E0E09E
:10048000E0C0E0F8FC3E0E070707070F0E3EFCF841
:10049000F00000000000000000000000000000006C
:1004A000000000000000000000000000000000004C
:1004B000000000000000000000000000000000003C
:1004C000000000000000000000000000000000002C
:1004D000000000000000000000000000000000001C
:1004E00000001F1F3F397070E0E0E0C0C080800056
:1004F00000010101010100008080C0C0E0E0E07067
:1005000070393F1F1F0000000000000000000000C5
:1005100000000000000000000000000000000000DB
:1005200000000000000000000000000000000000CB
:1005300000000000000000000000000000000000BB
:1005400000000000000000000000000000000000AB
:10055000000000000000000000000000000000009B
:100560000000000000000000000001010303070775
:10057000070E0C1C0C0E0707070303010100000007
:10058000000000000000000000000000000000006B
:10059000000000000000000000000000000000005B
:1005A000000000000000000000000000000000004B
:1005B0000000000000070507000000000000000028
:1005C000002F00000007000700147F147F14242A66
:1005D0007F2A12C4C810264636495522500005030A
:1005E0000000001C2241000041221C0014083E08AB
:1005F0001408083E080800005030001010101010B9
:10060000006060000020100804023E5149453E0091
:10061000427F400042615149462141454B31181407
:10062000127F1027454545393C4A49493001710937
:1006300005033649494936064949291E0036360020
:10064000000056360000081422410014141414143B
:1006500000412214080201510906324959513E7ED7
:100660001111117E7F494949363E414141227F4166
:1006700041221C7F494949417F090909013E4149FD
:10068000497A7F0808087F00417F41002040413FB0
:10069000017F081422417F404040407F020C027FCE
:1006A0007F0408107F3E4141413E7F090909063E13
:1006B0004151215E7F0919294646494949310101C5
:1006C0007F01013F4040403F1F2040201F3F4038F6
:1006D000403F6314081463070870080761514945D7
:1006E00043007F414100552A552A550041417F0072
:1006F0000402010204404040404000010204002086
:10070000545454787F48444438384444442038444E
:1007100044487F3854545418087E0901020C525240
:10072000523E7F0804047800447D40002040443D50
:10073000007F1028440000417F40007C04180478AA
:100740007C0804047838444444387C1414140808A1
:100750001414187C7C080404084854545420043FA2
:100760004440203C4040207C1C2040201C3C403029
:10077000403C44281028440C5050503C4464544C95
:1007800044000A232048573A2000436F6D6D4D6F97
:1007900064756C00207600312E3130000A2320531E
:1007A000573A200054657374487700312E3030007A
:1007B0000A493A2053797374656D207374617274B9
:1007C0002E2E000A493A312E627974652025780070
:1007D0000A493A322E62797465202578000A493A2E
:1007E000332E62797465202578000A493A342E62E6
:1007F000797465202578000A493A352E6279746546
:10080000202578000A493A362E62797465202578C9
:10081000000A493A372E62797465202578000A4922
:100820003A382E62797465202578000A3D3D3D3DB9
:100830003D3D3D3D3D3D3D3D3D3D3D3D3D3D3D3DE8
:100840003D3D3D3D3D3D3D3D3D3D3D3D3D3D3D3DD8
:100850003D3D3D3D3D3D3D3D3D000A45453A206E17
:10086000656A73656D207265616479202578000A78
:1008700045453A20737061746E61206164726573DE
:1008800061000A45453A20737061746E656A207A8A
:1008900061636174656B00000A6372656174652051
:1008A00070726F63657373206E722E2564202E2E16
:1008B0000000496E696369616C697A616365204F04
:1008C0004B006672656B76656E63653A2020256421
:1008D000202020202020004E656A73656D20706FF7
:1008E00076696E656E2062FD742074616B6F76FDB3
:1008F0002C206A616BFD206279636820706F646CE4
:1009000065206F737461746EED6368206C6964EDCB
:10091000206DEC6C2062FD742E204A6520746F20DF
:100920006A656A696368206F6D796C2C2061206E3E
:1009300065206D6F6A652073656C68E16EED202D32
:100940002052696368617264204665796E6D616EDC
:1009500000202020202020202020202020202020B7
:1009600020202025752F257500000A453A20777232
:10097000697465207761736E742073756363657342
:1009800066756C6C000A453A2077726F6E67206F4F
:100990007065726174696F6E2028726561642F776B
:1009A0007269746529000A453A676F6F642C206E7E
:1009B00065787420737465702030782578000A4556
:1009C0003A77726F6E672C206F6E63652061676186
:1009D000696E000A453A207772697465206661691C
:1009E0006C656421000A453A2053594E4328332E42
:1009F0006279746529203A202578000A453A204119
:100A00004444524553532028322E6279746529009C
:100A10000A3D3D3D3D3D3D3D3D3D3D3D3D000A6D79
:100A20006573736D6F64756C206E722E2575000A88
:100A300074656D70657261747572653A2025642EF7
:100A40002564B043000A70663A20256C64207C203F
:100A5000256C64207C20256C6400000317032E03A2
:100A600045035C0373038A03A10320202020202078
:100A70002020202020202020202020202020202076
:100A800000002020202020202020002020202020C6
:100A9000203D3D3D3D3D3D3D3D3D3D3D3D202020FA
:100AA0002000202020202020202020202020202066
:100AB0002020202020200020202020202020202056
:100AC000202020202020202025752F25750020485B
:100AD00057207665722E3A2000312E313000205397
:100AE00057207665722E3A2000312E3030002020BB
:100AF00020202020202020202020202020202020F6
:100B00002020200020202020417661696C61626CE9
:100B1000653A20257520202020202000202020203C
:100B200053656C65637465643A204D2575202020FB
:100B3000202020002055206C696E65733A202575B1
:100B4000202020202020202020002049206C696EB9
:100B500065733A20257520202020202020202000A9
:100B60002020202020202020202020202020202085
:100B70002020202020202020202000204672657187
:100B800075656E63653A2025752E257520487A2097
:100B90002020202020002054656D706572617475DE
:100BA00072653A2025752E2575B04320202020201F
:100BB00020002025366C752C2025752E2575205B90
:100BC000565D2020204D25752020002025366C758F
:100BD0002C2025752E25303275205B415D204D255A
:100BE00075202000204C25753A20256C642E256444
:100BF000205B575D207C20256C642E2564205B568D
:100C0000415D002025366C642C20256C642E256403
:100C1000205B575D204D25752020002025366C6413
:100C20002C2025336C64205B57685D204D25752092
:100C3000002025366C642C2025366C64204D2575EB
:100C40002020000001000100010001000A2D000A1F
:100C50002B000A493A627574746F6E733A206C6F98
:100C60006E67207072657373000A493A6275747416
:100C70006F6E733A2073686F72742070726573734D
:100C800000000A493A205072696A6D7574207374C5
:100C900072696E673A20000A453A204E65646F73A8
:100CA00074617465636E79206275666665722C2066
:100CB000737472696E673A00010001000A493A20B4
:100CC00053656E6442756666657266282900010088
:100CD0002D4E414E00494E460000170000036A0A9F
:100CE000170017036A0A17002E036A0A1700450344
:100CF0006A0A17005C036A0A170073036A0A17007E
:100D00008A036A0A1700A1036A0A01004108CE0C8F
:100D10000000F894EE27EFBBF1E0F5BFE5BFF8E186
:100D2000A895A4B7A77FA4BFF0936000E0936000EC
:100D30008DE0A2E0BB27ED938A95E9F780E098E08B
:100D4000A0E0B1E0ED930197E9F7EAEDFCE08591D1
:100D50009591009761F0A591B59105901590BF010F
:100D6000F00105900D920197E1F7FB01F0CFE0E073
:100D7000EEBBEFEFEDBFE8E0EEBFC0E0D3E00C94D8
:100D8000C1067DD00E9473120E944E0A0E948812F2
:100D90000E94660C0E94660FF894E4E6F0E0FA9375
:100DA000EA930E943A19BDD0E8EBFBE060E070E006
:100DB0000E943A1AE6ECF2E10E94C916EAEFF0E06E
:100DC00060E070E00E943A1AEFEDFEE00E94C91662
:100DD000EEE1F0E060E070E00E943A1AE1E3F2E157
:100DE0000E94C916E4EFF1E060E070E00E943A1A58
:100DF000ECE6FFE00E94C916E8EEF3E060E070E088
:100E00000E943A1AE6E7F2E10E94C916E0EDF7E027
:100E1000FA93EA930E943A19E0E0EA93ECE7F0E0F3
:100E20000E94CD16E2E8F7E00E94CD16EAE8F7E06E
:100E30000E94CD16E4E9F7E00E94CD16E7E9F7E05D
:100E40000E94CD16ECE9F7E00E94CD16E4EAF7E047
:100E50000E94CD16E4E9F7E00E94CD16EBEAF7E038
:100E60000E94CD16EEEDF0E00E94D41679D0E0E0BD
:100E7000EA93E0EBF7E00E94D416FFCFFFCFE0E863
:100E8000E0936100E0E0E0936100E2B9E1B9E5B927
:100E9000E4B9E8B9E7B9EBB9EAB9E4BDE5BDE6BD47
:100EA000E7BDE8BDE0938000E0938100E09385001A
:100EB000E0938400E0938700E0938600E09389004C
:100EC000E0938800E0938B00E0938A00E093B60003
:100ED000E093B000E093B100E093B200E093B30080
:100EE000E093B400E0936900EDBBE0936800E09309
:100EF0006E00E0936F00E0937000E093C000E8E0C4
:100F0000E093C100E6E0E093C200E0E0E093C500BA
:100F1000E5E0E093C400E0E8E0BFE0E0E0937B00C0
:100F200008951A93E2E0E4BDE5E0E5BDE0E0E6BD4A
:100F3000EBE6E7BDE0E0E8BDE2E0E0936E00E2E36F
:100F4000F0E0E0931A07F0931B0710E01A3030F43A
:100F50000E94D816A0E0A0831F5FF8CF19910895D2
:100F6000789408950E94451A10E01A30D8F50E942E
:100F7000D8169F01D901EC91E03091F5E1E0EC93B6
:100F8000EC81FD81D9011196ED93FC930E94DE1650
:100F900030F40E94EA16EE83FF83688779870E9407
:100FA000DE1628F4E1E0F0E060E070E002C00E94AC
:100FB000EF16D90113960E94221A0E94DE1628F419
:100FC000E1E0F0E060E070E002C00E94EF16D901BD
:100FD00017960E94221AE8E9F8E00E94F71602C16B
:100FE0001F5FC3CFFFC00E9404170E94431AE09105
:100FF0001A07F0911B07309741F0AAE1B7E0ED9195
:10100000FD913197FE93EE9331C0E0E0E0936E00E6
:1010100010E01A3040F50E94D8169F01D901AC911A
:10102000A130F9F4D90117960E941D1A319760403A
:1010300070400E94271A0E943F1A99F4D901E2E0F9
:10104000EC9311964D915C91FA010995D901139693
:101050000E94171AD90117960E94221AD901E1E0BD
:10106000EC931F5FD6CFE2E0E0936E000E944A1A35
:101070002696E991EFBFF991E991B991A9919991DA
:10108000899179916991F990199009901895E88161
:10109000E03011F018D001C002D00C945C0B28D0C5
:1010A000E0E0E0930208E0930308E8EDE093C1007C
:1010B000E1E0E0938A07E0E0E0938C07E0939E078D
:1010C000E0939F0708951BD0E4E0F8E0A0E0B0E0D3
:1010D000A083B183E8EDE093C900E1E0E0938B07E2
:1010E000E0E0E0938D07E0EAF7E0A083B1830895A4
:1010F000EEE8F7E0FA93EA93E2EAF7E006C0E6E901
:10110000F7E0FA93EA93E2EDF7E0FA93EA93E0E38B
:10111000F0E0FA93EA9331D10895AA81A23048F41D
:10112000EA810E941217EA0FFB1FA881B981A083F0
:10113000B1830C94A20B0E94451AEC81E030C1F0FF
:101140000E9418170E9479190E947919E050F04402
:1011500067457F4F7F936F93FF93EF930E941D1717
:10116000AF91BF918F919F910E94251731E019C0D7
:101170000E941D17E050F04467457F4F7F936F93A7
:10118000FF93EF930E941817A0E1B0E080E090E099
:101190000E948319AF91BF918F919F910E94251753
:1011A00030E0E985E03061F00093CC001093CD0091
:1011B000E091C000ED7FE093C000A0ECB0E00BC078
:1011C0000093C4001093C500E091C800ED7FE09348
:1011D000C800A8ECB0E00A2EAC91E32FEE0FEA2B8A
:1011E000A02DEC930E944C1A2A9608950E942D1768
:1011F000E657F84FE081E030C9F3E981E03041F093
:10120000E091C800E072E1F3E881E093CE0007C00E
:10121000E091C000E072E1F3E881E093C6000C9435
:10122000530B0E942D170E943017EA81EA930E9407
:10123000190A0C94530B0E943717A1E0A083E88190
:10124000EA930E942D170E943017B2D0EA93CEDFA6
:101250000C945C0BE881F981E491E030A9F0EA811B
:10126000E03049F0E091C800E072E1F30E943C17E1
:10127000E093CE0008C0E091C000E072E1F30E946C
:101280003C17E093C600E6CF0C94A20B0E943717E0
:10129000E081E03049F10E9444170E947219EE5635
:1012A000F84FDF010E94131A309799F0E881E0307F
:1012B00041F0E6E9F7E0FA93EA937AD0E093CE00C2
:1012C00007C0EEE8F7E0FA93EA9372D0E093C60025
:1012D0000AC00E943717A0E0A0830E944417E65777
:1012E000F84FA1E0A08306C00E944417E657F84FCC
:1012F000A1E0A0830C945C0B1A93E981E03019F013
:101300001091CE0002C01091C600E9810E94121710
:101310000E944717309759F0E9810E9412170E94E6
:101320004717FF93EF931A93EF91FF910995188157
:101330000C94530B0E940417E0E0EA93A7DF0FC060
:101340000E940417E1E0EA93A1DF09C00E9404179C
:10135000E0E003C00E940417E1E0EA93CDDFE991E9
:10136000EFBFF991E991B991A991999189917991F9
:101370006991F990199009901895F894EA81FB8188
:10138000AC81BD81ED93FC93E881F981AC81BD8195
:101390001296ED93FC93AC81BD8116960E944C177A
:1013A000AC81BD8114960E944C17789426960895BE
:1013B0001A9310E0F894A981BA8114960E94131A26
:1013C000309791F1A981BA810D901C90A981BA81C1
:1013D00016960E94131AD001AE0FBF1F1C91A9814F
:1013E000BA8116960E9451170E94571712960E94B2
:1013F000131A0E161F0680F0E981FA813696BF0196
:1014000000801180E981FA81A281B381F001EA1B99
:10141000FB0BDB01ED93FC93A981BA811496ED914E
:10142000FD913197FE93EE937894E12F18810C94FF
:10143000A20BF894E981FA8104801580A981BA8110
:1014400012960E94131A0E161F0620F5A981BA8162
:101450000E94131AFF93EF930E94571714960E944D
:10146000131A0E0E1F1EA981BA8112960E94131A1A
:10147000D0010E94E519AF91BF91EA0FFB1FA8812F
:10148000A083A981BA8114960E9451177894EFEF36
:101490000C94A20B7894E0E00C94A20B3E98469A30
:1014A0003F98479A0895569A5E9A579A5F9A0A9A71
:1014B00012980B9A13980895249A259A2698279A99
:1014C000E3E5ECBD0895E881EEBDEDB5E078E9F324
:1014D000EEB5F2C00A9A099A249A119888EB8A9577
:1014E000F1F7119A2C9AE8DF88EB8A95F1F709D089
:1014F00088EB8A95F1F745D088EB8A95F1F7DED035
:101500000895E3EAEA93D1D0E1EAEA93CED0E0ECA1
:10151000EA93CBD0E4E2EA93C8D0E1E8EA93C5D0FD
:10152000EFE2EA93C2D0EFE2EA93BFD0E7EAEA93B0
:10153000BCD027D00E945E17E0EB0E946217E5E066
:10154000EA93B3D0E2EBF8E0FA93EA938AD0EFEAB9
:10155000EA93ABD008951A9310E0183080F4E0E0DD
:10156000EA93E1E0EA931A9326D0E12FA981BA81A8
:101570000E946917FA93EA9366D01F5FEECF188135
:10158000E1C01A930A930E945E1710E0183088F4A5
:10159000E12FE06B0E946217E1E0EA9386D000E061
:1015A000043828F4E0E0EA9382D00F5FF9CF1F5FA0
:1015B000EDCF0C941E0F0E945E17EA81E061EA8372
:1015C000EA9373D0AA81A03119F4E981E46001C0E3
:1015D000E981E983EA9369D0E881E06BE883EA93E3
:1015E00064D0B0C01A9310E0A981A03B11F4E0E0F0
:1015F00006C0A981A03210F0AC3710F0E0E4E98316
:1016000010E01530D8F4A981A03238F4E981A5E0C2
:10161000EA9FF001EC54FA4F07C0E981E052A5E0DF
:10162000EA9FF001E654FA4FDF010E946D17EA0FBE
:10163000FB1FE491EA933BD01F5FE3CFE0E0EA9326
:1016400036D0188130C0A881B981EC91E03041F0EA
:10165000EA93C8DFE881F9813196E883F983F3CF13
:1016600022C0E881F981E491E03059F0E881F98104
:10167000E491EA93B7DFE881F9813196E883F98351
:10168000F0CF11C02C98E981E03011F0129801C020
:10169000129A85E28A95F1F7E881EA9314DF85E2F0
:1016A0008A95F1F72C9A22960895E1E001C0E0E0D6
:1016B000EA93E981EA93E6DF219608950E94451AAC
:1016C00020E030E02830E0E03E07E0F4E0E0EA939C
:1016D000E1E0EA932A936FDF10E0103880F4A0E88D
:1016E000A29FF001A39FF00DA12FB0E0EA0FFB1F16
:1016F000EC54FE4FE491EA93DADF1F5FEECF2F5FE9
:101700003F4FE0CF0E944C1A24960895A981BA81D8
:10171000AC91E881AE1728F4A981BA81EC91EF5F12
:1017200003C0A981BA81E0E0EC930CC0A981BA8121
:10173000EC91E03011F4E88104C0A981BA81EC9108
:10174000E150EC93239608950E945C0A08950E944C
:10175000431A10E000E0EA85F0E0EF702E2FE985F3
:101760005E2FEB85E795E0E0E795AE2FEE81E29501
:10177000E07FEA2BE22B0E94701788EB8A95F1F745
:10178000113C11F00C944D0C5A930E94630A1E2FC9
:10179000123C11F00C94440CEB85E03079F430E00D
:1017A0003E3158F484E191E00197F1F7E0E00E94C6
:1017B0007017113411F03F5FF3CF01C011E4113401
:1017C00011F00C943F0C30E0EE81A1E00E94521920
:1017D0003E1798F588EB8A95F1F7EB85E03061F4D8
:1017E000E0E00E947017E02FAF81B885F0E0EA0FCB
:1017F000FB1F10830F5F1FC0AB85A130C1F4219781
:10180000A885B985EE27A00FBE1F1C911A930E94D0
:10181000630AE8830F5FA881A13439F0EAE6F9E0B2
:101820000E947517EFEF21963EC0219604C0E5E8AF
:10183000F9E00E9475173F5FC7CFAB85A130F1F487
:1018400030E03E3198F488EB8A95F1F7E0E00E94B1
:1018500070171E3429F0E6EAF9E00E94F71606C078
:10186000EEEBF9E00E9475173F5FEBCF113431F0DA
:10187000E3EDF9E00E947517EFEF15C004C0E5EE47
:10188000F9E00E94F71608C0E0E0EA93EBEFF9E018
:101890000E94D416EFEF07C002C0EFEF04C088EB40
:1018A0008A95F1F7E0E00E944A1A2C960895E0E04C
:1018B000EA93EC81FD81FA93EA93EC81FD81FA933E
:1018C000EA93ED81EA9343DF0C94450F3DDFE8EBAB
:1018D000F3E0FA93EA93E0E0EA93E7E5F3E0FA93C2
:1018E000EA930E946416249A239A229A219A209AB3
:1018F0002C9A2B9A2A9A299A289A00000000089577
:10190000EF97EF97EF972F970E94431AFE013696B5
:101910009F01FE01EE52FF4FE0810E947C17AF0154
:101920000E948217E0E0EA93ECECF0E0FA93EA938D
:101930000E946416E2E6F0E0FA93EA933A932A935F
:101940000E948717DA01EC93AC91AF3F09F42DC2E6
:10195000E1E0FCE0FA93EA93F90132960E948B17DA
:10196000E1E3F8E0FA93EA93F9013C960E948E17BE
:10197000E2E3F8E0FA93EA93F90174960E948E1775
:10198000E4E3F8E0FA93EA93F9017C960E948E175B
:10199000E1E4F8E0FA93EA93F901BC960E948E170D
:1019A000E2E4F8E0FA93EA93F901F4960E948E17C4
:1019B000E4E4F8E0FA93EA93F901FC960E948E17AA
:1019C000E6ECF1E0FA93EA93F90134960E948B1762
:1019D000E2EBF2E0FA93EA93F90136960E948B1754
:1019E000EEE9F3E0FA93EA93F90138960E948B1737
:1019F000E1E0F8E0FA93EA93F901E45BFF4F0E941B
:101A00008E17E2E0F8E0FA93EA93F901EC5AFF4FFF
:101A10000E948E17E4E0F8E0FA93EA93F901E45AA1
:101A2000FF4F0E948E17E1E2F8E0FA93EA93F90182
:101A3000E459FF4F0E948E17E2E2F8E0FA93EA932E
:101A4000F901EC58FF4F0E948E17E4E2F8E0FA9398
:101A5000EA93F901E458FF4F0E948E17E1E7F8E09E
:101A6000FA93EA93F901E457FF4F0E948E17E2E7D9
:101A7000F8E0FA93EA93F901EC56FF4F0E948E17B3
:101A8000E4E7F8E0FA93EA93F901E456FF4F0E9485
:101A90008E17E1E7F8E0FA93EA93F901E455FF4F76
:101AA0000E948E17E2E7F8E0FA93EA93F901EC540A
:101AB000FF4F0E948E17E4E7F8E0FA93EA93F901EA
:101AC000E454FF4F0E948E17D9010E94131ADA01C5
:101AD0001396ED93FC93F901A281B381ECE4F0E05D
:101AE0000E94A819DA011196ED93FC9310E01430CE
:101AF00010F00C94D50E2897DA01AB59BF4F0E9415
:101B00006D170E949417FF93EF93D9011C960E94C2
:101B10006D170E949917AF91BF910E94221ADA01A6
:101B2000AB58BF4F0E946D170E949417FF93EF931D
:101B3000D9019C960E946D170E949917AF91BF9191
:101B40000E94221ADA01AB57BF4F0E946D170E9404
:101B50009417FF93EF93D901A45BBF4F0E946D17B9
:101B60000E94A517AF91BF910E94221ADA01AB56CD
:101B7000BF4F0E946D170E949417FF93EF93D901F6
:101B8000A459BF4F0E946D170E94A517AF91BF9136
:101B90000E94221ADA01AB55BF4F0E946D170E94B6
:101BA0009417FF93EF93D901A457BF4F0E946D176D
:101BB0000E94A517DF01CB01E8E00E945A19AF91FE
:101BC000BF910E94221ADA01AB54BF4F0E946D17D9
:101BD0000E949417FF93EF93D901A455BF4F0E9421
:101BE0006D170E94A517DF01CB01E8E00E945A198A
:101BF000AF91BF910E94221ADA01AB53BF4F0E94EE
:101C00006D170E9494170E94AF170E94B4171C967C
:101C10000E946D170E949917EC83FD836E837F836A
:101C2000DA0115960E946D17EE0FFF1FEA0FFB1FDA
:101C3000FF93EF93EC81FD816E817F81A1E1B3E0A1
:101C400080E090E00E94BB17AF91BF91ED93FC93B1
:101C5000D9019C960E946D170E949917EC83FD8311
:101C60006E837F83DA011D960E946D17EE0FFF1FB2
:101C7000EA0FFB1FFF93EF93EC81FD816E817F8163
:101C8000A9E1B3E080E090E00E94BB17AF91BF9163
:101C9000ED93FC93D901A45BBF4F0E946D170E9486
:101CA000A5170E94351A0E94C6170E949417FF9329
:101CB000EF930E94C917AF91BF910E94221AFA01B7
:101CC0003196EC5AFF4FDF010E946D170E94941766
:101CD0000E94AF170E94B417A457BF4F0E946D1700
:101CE0000E94A5170E94351A0E94DA170E949417C5
:101CF000FF93EF930E94C917AF91BF910E94221AE0
:101D0000DA011596E12F0E946917749730F4DA0111
:101D100015960E946D170E94DD17DA011D96E12FBE
:101D20000E946917359730F4DA011D960E946D17ED
:101D30000E94DD170E94C6170E94E2170E94E71753
:101D400034F40E94C6170E94E2170E94F117DA01CC
:101D500095960E946D170E94E2170E94E71744F4BF
:101D6000DA0195960E946D170E94E2170E94F11702
:101D70000E94DA170E94E2170E94E71734F40E94CB
:101D8000DA170E94E2170E94F1170E94F8170E94CA
:101D9000E2170E94E71734F40E94F8170E94E21736
:101DA0000E94F11728961F5FA2CEE1E0E0930E0794
:101DB0000E944A1AEF96EF96EF9666960895E09184
:101DC0000D07EF5FE0930D07E150A0910D07A430E0
:101DD00031F4E0E0E0930D071FD0E0930C07E091B1
:101DE0000D07E03011F42B980BC0E13011F42A9864
:101DF00007C0E23011F4299803C0E33009F42898B1
:101E0000E0910D07EA937CDD2C9A2B9A2A9A299A65
:101E1000289A0000000008951A930A9300E010E049
:101E2000143058F4A5ED1A9FF001E854FC4FA0813E
:101E3000AF3F09F00F5F1F5FF3CFE02F09911991BA
:101E400008950E94FE179F0110E0133050F4D9014D
:101E50001596E12F0E946917309709F00F5F1F5FF9
:101E6000F4CF10C00E94FE179F0110E0133050F411
:101E7000D9011D96E12F0E946917309709F00F5F75
:101E80001F5FF4CFE02F0E944C1A259608951A93F5
:101E9000E981E150AA81BB81F0E0AE0FBF1FEC9158
:101EA000E07811F0E1E001C0E0E01E2F103039F0E1
:101EB000AA81BB810E94171A0E944A1904C0AA81F4
:101EC000BB810E94171A18810C948C13E0E0E093F8
:101ED00006080E946A0A0895609780E1A0E0B0E0D9
:101EE000EAE5FAE00E94511AE0910608EA93FE0141
:101EF0003196FA93EA9367D00E9403180E94AB0AC6
:101F0000609608950E9407180E94860B08950E940B
:101F100007180E94960B0895A897EAA50E940E182C
:101F20000E9496167097F8F40E940318E2E8FAE00F
:101F30000E941618ECA50E940E180E941B18E5E8D6
:101F4000FAE00E941E18A8A5B9A50E9422180E94B6
:101F50002718E8A5F9A5A281B381BA93AA93EBE863
:101F6000FAE00E942F18AB960895A8971A931CA523
:101F7000173068F4E12FA9A5BAA50E946917FA9352
:101F8000EA93E2EAFAE00E942F181F5FF1CFFE0108
:101F90003196FA93EA93E7EBFAE0FA93EA93EFA526
:101FA0000E9435180E94EA160E943C18E9A5FAA57D
:101FB000A685B785BA93AA93FE0133960E9443186B
:101FC0001881AD9608951A93EB81EA93EA81FB811B
:101FD000FA93EA93A1DFEB81A1E1EA9FF001E65FCA
:101FE000FE4F3F960E942C1AFF93EF93E981FA81EE
:101FF000FA93EA93EF91FF9109951E2F1A93EC81C2
:10200000EA93EB81FC81FA93EA93AFDF18810C9499
:102010008C13A8970E940318EEECFAE00E941618A1
:10202000E9EDFAE0FA93EA930E941B18E4E8FAE07B
:102030000E941E180E9449180E9427180E94031827
:10204000EEEDFAE00E941618E9EEFAE0FA93EA9350
:102050000E941B18E4E8FAE00E941E180E94501823
:102060000E9457180E946018E8A5F9A5A485B585B7
:10207000BA93AA930E942718E7E024C0A8970E9469
:102080004918EEEEFAE00E942F180E940318E4E0CF
:10209000FBE0FA93EA93E0910C070E9467180E9414
:1020A00050180E9457180E940318ECE1FBE00E94B0
:1020B00071180E94351884E00E94031628960E9429
:1020C0006018E6E0AA960895A8971A930A930E94CA
:1020D00076188F010E947918E4E3FBE00E947118E2
:1020E000EA930E94210F0E946718EAA5FBA50E94AF
:1020F0007E180E9483180E947918EAE4FBE00E948F
:102100007118EA930E94320F0E946718EAA5FBA596
:10211000A681B7810E948618EAA5FBA5A085B18596
:10212000BA93AA93E0E6FBE00E942F180E94791868
:10213000EBE7FBE0FA93EA93F801A381B481E8EEC0
:10214000F3E00E948918A381B481E8EEF3E00E94D5
:102150009118EAA5FBA5A285B3850E9486180E9466
:102160007918E6E9FBE0FA93EA93F801A181B281DC
:10217000EAE0F0E00E948918A181B281EAE0F0E093
:102180000E949118EAA5FBA5A485B5850E94861832
:10219000E7E019810881AC9608950E9496180E9484
:1021A0009A18EEEEFAE00E942F1820E030E023307B
:1021B000E0E03E0728F50E949E18E2EBFBE0FA9370
:1021C000EA93D801AB59BF4FF9010E94E2170E9470
:1021D000A3180E94A918DF01EAE0F0E00E94AE18FF
:1021E0000E94A918DF01EAE0F0E00E94B6180E9400
:1021F000BF180E94CA180E94CD182F5F3F4FD7CF3B
:102200002BC10E9496180E949A180E94D11820E0B3
:1022100030E02330E0E03E0728F50E949E18EBEC0A
:10222000FBE0FA93EA93D801AB58BF4FF9010E9443
:10223000E2170E94A3180E94D418DF01E4E6F0E040
:102240000E94AE180E94D418DF01E4E6F0E00E947C
:10225000B6180E94BF180E94CA180E94CD182F5F9E
:102260003F4FD7CFF9C00E9496180E949A180E943B
:10227000D11820E030E02330E0E03E0750F50E9426
:102280009E18E3E0FCE0FA93EA93D801AB57BF4F06
:10229000F9010E94E2170E94A3185596F9010E94C5
:1022A000E2170E94D9180E94E0190E943A1AD80138
:1022B0005596F9010E94E2170E94D9180E94DE1873
:1022C0000E94BF180E94CA180E94CD182F5F3F4F6E
:1022D000D2CFC2C00E9496180E949A180E94D118AC
:1022E00020E030E02330E0E03E0750F50E949E18E9
:1022F000E3E0FCE0FA93EA93D801AB56BF4FF90153
:102300000E94E2170E94A3189596F9010E94E21715
:102310000E94D9180E94E0190E943A1AD801959695
:10232000F9010E94E2170E94D9180E94DE180E944B
:10233000BF180E94CA180E94CD182F5F3F4FD2CFFE
:102340008BC00E9496180E949A180E94D11820E013
:1023500030E02330E0E03E07F8F40E949E18EBE105
:10236000FCE0FA93EA93D801AB55BF4FF9010E9404
:10237000E2170E94A318D596F9010E94E2170E9465
:10238000EB180E94F0180E94F3180E94CA180E94CD
:10239000CD182F5F3F4FDDCF5FC00E9496180E947F
:1023A0009A180E94D11820E030E02330E0E03E0788
:1023B00018F50E949E18EBE1FCE0FA93EA93D8012D
:1023C000AB54BF4FF9010E94E2170E94EB18F801CD
:1023D0003196EC5BFF4FDF01F9010E94E2170E948A
:1023E000EB180E94F0180E94F3180E94CA180E946D
:1023F000CD182F5F3F4FD9CF2FC00E9496180E9453
:102400009A180E94D11820E030E02330E0E03E0727
:1024100018F50E949E18E1E3FCE0FA93EA93D801D4
:10242000AB53BF4FF9010E94E2170E94EB18F8016D
:102430003196EC5AFF4FDF01F9010E94E2170E942A
:10244000EB180E94F0180E94F3180E94CA180E940C
:10245000CD182F5F3F4FD9CFE6E00E944C1AAE96C1
:10246000089537991CC0E0910A08EF5FE0930A08CD
:10247000A0910A08AF3190F0E2E5FCE00E947517E8
:10248000E0E0E0930A08E1E0E0930C08EFE0F7E019
:10249000FA93EA93E3E0EA930E94860B14C0A091BA
:1024A0000A08A33020F0A0910C08A03009F006C063
:1024B000E9E6FCE00E9475170E94870FE0E0E093D8
:1024C0000C08E0930A08369904C0E0910B08EF5F0E
:1024D00007C0A0910B08A33010F00E94820FE0E02B
:1024E000E0930B0808950E94530A0895EBB1A0E809
:1024F000EA27EBB9E0910D08E03031F0EBB1A0E450
:10250000EA27EBB9E0E001C0E1E0E0930D080895AF
:102510001A93EAB1EC7FEAB9EBB1E360EBB9529AF6
:10252000EBB1E360EBB9E1E0EA930E944708E1E038
:10253000EA93E0E8F5E260E070E00E943A1AE0E039
:10254000EA930E949B08E1E0EA93EAEDF3E1FA9353
:10255000EA930E948D0810E0143038F40E946D1741
:10256000E05FF84F10831F5FF7CF10E0163048F49C
:10257000A4E1B7E00E946D17EA0FFB1F10831F5FF5
:10258000F5CFE0E0E0933F0819910895A0913E084F
:10259000A63009F462D101D008950E94451A08EBD3
:1025A00013E0E0914008EF5FE0934008E150E03035
:1025B00019F5A0E03799A1E0EA2FEE0FAE2FE0E089
:1025C0003699E1E0EA2B3E2FE0E2EA93EDB7FEB761
:1025D000FA93EA933F93E1E0EA93A0D03F913AEA7D
:1025E000E0E1EA93EDB7FEB7FA93EA933F93E1E0B7
:1025F000EA9394D03F9180C0E13069F4E0E3EA933C
:10260000F80133960E94FE18E1E3EA93F80131964F
:102610000E94FE1871C0E23099F4E0E4EA93F801F8
:1026200035960E94FE18E1E4EA93F80137960E947D
:10263000FE18E2E4EA93F80139960E94FE185CC0A5
:10264000E33099F4E3E4EA93F8013D960E94FE1822
:10265000E4E4EA93F8013F960E94FE18E5E4EA9369
:10266000F80171960E94FE1847C0E43099F4E6E440
:10267000EA93F80175960E94FE18E7E4EA93F801E0
:1026800079960E94FE18E8E4EA93F8017D960E948C
:10269000FE1832C0E53099F4E9E4EA93F801F596C2
:1026A0000E94FE18EAE4EA93F801F9960E94FE18E7
:1026B000EBE4EA93F801FD960E94FE181DC0E63097
:1026C000D9F4ECE4EA93F8013196EC5AFF4F0E94FA
:1026D000FE18EDE4EA93F8013196E85AFF4F0E94A4
:1026E000FE18EEE4EA93F8013196E45AFF4F0E9497
:1026F000FE18E0E0E0934008E2E0EA93EDB7FEB7B1
:102700003197FA93EA934F933F93E0E0EA9306D030
:102710003F914F910E944C1A249608951A930A9360
:1027200003E5E1E0EA93E3E5EA930E941109E1E0C1
:10273000EA93E0913F08EF5FE0933F08EA930E943D
:102740001109E0913F080E27E1E0EA93EE81E0688D
:10275000EA930E941109ED810E27E1E0EA93EB81F3
:10276000EA930E941109EA810E2710E0EA811E1700
:10277000A0F4E1E0EA93AC81BD81EE27A10FBE1F7A
:10278000EC91EA930E941109AB81BC81EE27A10F65
:10279000BE1FEC910E271F5FE9CFE1E0EA930A9399
:1027A0000E941109E1E0EA930E941B091981088146
:1027B00026960895E0913E08E03051F4A881A335B3
:1027C00031F4E0E0E0933D08E1E0E0933E0843C0EF
:1027D000E13029F4E881E0931908E2E03AC0E23000
:1027E00029F4E881E0931A08E3E033C0E33081F490
:1027F000A881AF3110F0E0E008C0E881E0931D0847
:10280000E03011F0E4E001C0E5E0E0933E0823C0D1
:10281000E430C9F4AEE1B8E0E0913D08F0E0EA0F41
:10282000FB1FA881A083E0913D08EF5FE0933D0886
:10283000E150A0913D08E0911D08AE1718F0E5E0C9
:10284000E0933E0808C0E53031F4E881E0933C08AD
:10285000E6E0E0933E080C944014E0911A08E23060
:1028600021F4E0E0E093190802C0E1E00895E0E01F
:102870000895E091C000E072E1F3E881E093C600C2
:1028800021960895EA81EA93F4DFA881B9810E9434
:102890005117239608951A930A93AA81BB81129621
:1028A0000E94131A309729F1AA81BB8114960E94C5
:1028B000131A8F01309761F00230E0E01E07C0F07C
:1028C000F80131978F01AA81BB811496ED93FC9397
:1028D000AA81BB8112960E9451173197AC81A083C7
:1028E000AA81BB810E94131AFF2312F00E94511784
:1028F00006C0AA81BB81EFEFFFEFED93FC93198136
:1029000008810C9470162B970E94431A10E0A98935
:10291000BA890E944C17EF89F88D3196EF8BF88FAA
:102920003197E4912E2FE03011F40C94FB15E12F38
:10293000E03039F4253211F411E002C00E9404198C
:1029400059C1E130A9F4253219F40E94041951C18A
:1029500012E040E000E02D3211F401E04BC12B32D7
:1029600011F44BE247C1203211F440E243C102C0EE
:10297000E23039F450E013E0203311F400683AC13A
:1029800002C0E33091F4203310F02A3308F007C07E
:10299000AAE05A9F502DE22FE0535E0F2BC12C3638
:1029A00019F4026015E026C104C0E53011F00C9462
:1029B000FA15E22FE33649F40E940D19ED89FE89DC
:1029C000A481AA930E94131914C1E33741F40E9411
:1029D0000D190E941B190E948C161E2F0AC0E03789
:1029E00069F40E940D190E941B190E9496161E2F51
:1029F00008600F77E0E0E88B30E06FC0E43611F05C
:102A0000E93611F4046002C0E537A1F4EAE0E88B8E
:102A100001FF08C0E0E0FAEC6AE97BE30E942519B7
:102A20001AE023C0E0E1F7E260E070E00E942519BF
:102A300015E01BC0E83511F4086004C0E83711F058
:102A40000C94F915E0E1E88B01FF08C0E0E0F0E04C
:102A500060E070E10E94251918E007C0E0E0F0E1B5
:102A600060E070E00E94251914E001FF08C00E9498
:102A70000D19AD89BE8914960E94171A15C002FF60
:102A80000AC00E940D19AD89BE8914960E94131ABE
:102A90000E947E1909C00E940D19AD89BE89149645
:102AA0000E94131A66277727EC87FD876E877F873A
:102AB00002FF13C0AF85AA235AF4EC85FD856E850D
:102AC0007F850E944A19EC87FD876E877F874DE2DC
:102AD000403011F01F5F01C00B7F00FD11C01517C2
:102AE00078F407FF08C002FF04C00B7F242F1150A9
:102AF00001C020E301C020E20E9404195150EFCF31
:102B0000312FE889E030B9F43030A1F003FF06C07E
:102B1000EE81FF812591EE83FF8305C0AE81BF81E9
:102B20002D91AE83BF830E940419503009F051509B
:102B30003150EACF54C00E942A190E94BB192E2F8F
:102B40002A3030F003FF02C0295C01C0295A01C0BD
:102B5000205D04FD22C0213360F4A885B9858A85F3
:102B60009B85A130E0E0BE07E0E08E07E0E09E0735
:102B700009F409C0531710F000FF01C013C020E290
:102B800007FF0BC020E3006102FF07C00B7F4A93E1
:102B90000E941319503009F051500E94041950300E
:102BA00009F0515031500E942A190E94E819EC870F
:102BB000FD876E877F87E889A885B9858A859B858B
:102BC000FF27662777270E94BB190E942519E885F1
:102BD000F9856A857B850E943F1A09F0ACCF00FF1A
:102BE00008C0503031F05150E0E2EA930E941319CE
:102BF000F8CF10E090CEA989BA890E94131A0E94DA
:102C00004A1A69960895FF92F82E26970E94451A4F
:102C10000E943319309719F4EFEFFFEF23C0DE0164
:102C200016960E9446198D010E943319EE83FF8388
:102C3000E0E0E887E987DE011A960E9446190E94C3
:102C400022181A930A93EBE4F4E1FA93EA93FE0153
:102C50003A96FA93EA9357DE9F01AE81BF81E0E096
:102C6000EC93F9010E944C1A2A96FF900895FF9266
:102C7000F82E26971A930A93DE0114960E9446199D
:102C80008D01E0E0EC83ED83EE83EF83DE011896A7
:102C90000E9446190E9422181A930A93E2E4F4E172
:102CA000FA93EA93FE013896FA93EA932CDE19819F
:102CB00008812896FF900895E991F99130971AF4C8
:102CC000E095F09531960895B981A881109631F07C
:102CD000FC81EB816A8161931197E9F7EB81FC81BB
:102CE00025960895E991F991A991B991CD016D9138
:102CF0006623E9F7119705900D920020E1F7FC019A
:102D00000895E991F991A991B991CD0105900D929C
:102D10000020E1F7FC010895A991B991EE27FF2762
:102D20006D91662311F03196FBCF0895AA27BB273A
:102D3000E991F9910590002011F01196FBCFFD016A
:102D400008957991E991F991A991B991CD017723EC
:102D500051F07A9561916D936623C9F7772319F045
:102D60007A956D93FBCFFC0108956991E991F991F2
:102D7000A991B991CD01662351F06A9505900D9204
:102D80000020C9F7662319F06A950D92FBCFFC016C
:102D90000895FA93EA930C94B207FA93EA930E9487
:102DA0002A09E0E0EA930895FA93EA930C942A0939
:102DB000ABE01A9FF001E45EF84F0895AE81BF8149
:102DC00088859985AA30E0E0BE07E0E08E07E0E064
:102DD0009E070895EAE0F0E060E070E00895AE81BB
:102DE000BF8188859985F6DF0E94BB190895FA9303
:102DF000EA93E12FFF27662777270E943A1A84E09B
:102E00000E943716269608950A921A92FA926A93A9
:102E10007A938A939A93AA93BA93EA93FA93EFB721
:102E2000EA930895A2E0B8E0F0E0EE0FFF1F0895E6
:102E3000ED81FE816F8178850895FADFA8E0B0E02A
:102E400080E090E00E94831908950E94BB19E15030
:102E5000F040604070408F010895E981F0E00895EE
:102E60000E947219E257F84FFA93EA930895E881A5
:102E7000F0E0E457F84F0895E881F9813196E8834E
:102E8000F9833197E4910895E881F0E00895AE0F59
:102E9000BF1F0E94131A0895E0E0F0E0ED93FC9349
:102EA0000895ED91FD913196FE93EE930895E98199
:102EB000FA8106801780A981BA810895EFE7EA9325
:102EC0000C94550BEA930E94550BE0E1EA930C94A5
:102ED000550BF0E0EE0FFF1FDACFE12FF0E0089581
:102EE000EA930E94630A1E2F0895FA93EA9380E002
:102EF0000E94371622960895A5EDEA9FF001E85446
:102F0000FC4F0895FE013696FA93EA930895E1E0A6
:102F1000EA930C94570CFA93EA93F9CFFA93EA9355
:102F2000E3E0EA930C94570C0E947419EA0FFB1F1C
:102F300008950E947219AE0FBF1F0E94171ADF0179
:102F4000CB01E8E00E94661908950E947219EA0F09
:102F5000FB1FFA93EA93E8E0EA930C94470F0F0102
:102F6000D9011496E12FB5CFD0010E947E190E949D
:102F7000221AD90108950E948319DF01CB01E0E1F3
:102F8000F7E260E070E00E94BB190895DA015596FF
:102F9000A4CF0E94301AACE9B1E080E090E00E943A
:102FA000A319DF01CB01E0EAF6E861E070E00E94DE
:102FB000E0190895DA01D59690CFEE0FFF1FAE0FFE
:102FC000BF1F6ACF0E947419AE0FBF1F08950E94E1
:102FD000171AE230A0E0FA07A0E06A07A0E07A073B
:102FE0000895E0E0F0E060E070E00E94221A0895A9
:102FF000FA013196EC5BFF4FDF016FCF0E94451A5B
:1030000000E0EC8179CFFE01FA93EA930895E6E0BF
:10301000F8E0FA93EA93E9E0EA930895A1E1EA9FE0
:10302000F001E65FFE4FFA93EA930895FA93EA936C
:103030000E948116E8CF0E947216E5CFFA93EA93B8
:103040000C9472160E94131AFA93EA930895FE01E3
:103050003296FA93EA93E5E1EA930C94A116FA9377
:10306000EA93E5E1EA930C94B516EF5FFF27662734
:1030700077270E943A1A08950E943A1A88E00E941F
:1030800003162C960895FA93EA93E5E1EA930C94DB
:10309000A116E8A5F9A5A481B581BA93AA930895CC
:1030A000E8A5F9A5A681B781BA93AA93D0CFE8A5E0
:1030B000F9A5A085B185BA93AA93EEEEFAE0CFCF39
:1030C000E8A5F9A5A285B385BA93AA93C0CFFF2737
:1030D000662777270E943A1A84E00E9403162896F2
:1030E0000895FA93EA93E0910F070895E0910F078E
:1030F00003CFFE013296FA93EA930895A481B58135
:10310000BA93AA930895FE013496BDCFBA93AA93B9
:10311000FACF0E94A819662777270E943A1AF80169
:1031200008950E94E51966277727A6CFA8970E94E1
:10313000451ADCCF8F01ECA5FDA5E0CFFE0134964A
:10314000FA93EA9308950E94171A0E943A1AD80136
:1031500008951596F901EE0FFF1F99CE0E94A81948
:10316000662777270E943A1AD80108950E94E51928
:10317000662777270E943A1AE0910F0776CF80E101
:103180000E9403166496F9013396ACA5BDA5EE0F17
:10319000FF1F7DCEFA93EA93B5CEE5E1EA930C9456
:1031A000A116E4E6FBE05BCF1D96F901EE0FFF1FD1
:1031B0006ECE0E94171ADF01CB010CCE0E94EC19D3
:1031C000FA93EA930E945C16662777270E943A1AC0
:1031D000E0910F074ACF0E94171A0E943A1A0895E9
:1031E000E0910F0742CF8CE00E9403166096F90130
:1031F0003396ACA5BDA5EE0FFF1F49CEFA93EA9317
:10320000E2E0EA930C948E132A93EA89FB89FA93FD
:10321000EA93EE89FF8909950895ED89FE8934972F
:10322000ED8BFE8B0895EA89FB89FA93EA93EE8988
:10323000FF8909950895AD89BE8914960E94131AD5
:10324000EE83FF83FA93EA930895E887F9876A8704
:103250007B870895E885F9856A857B85AC85BD8582
:103260008E859F850895DE011C960E9446190E9456
:10327000131A0895E991F991309639F08DEC9AE09E
:103280000197F1F7A8953197C9F708950024AF0D7C
:10329000B01D0895F09560957095E195FF4F6F4FC3
:1032A0007F4F0895EE230E2EEA2F19F0EE0F0A94A9
:1032B000E9F70895EE230E2EFD01BC0131F075955E
:1032C0006795F795E7950A94D1F70895EE230E2EAA
:1032D000FD01BC0131F076956795F795E7950A9465
:1032E000D1F70895EE0FFF1FEE0FFF1FEE0FFF1F28
:1032F0000895EE0FFF1F661F771F08956F2F660F4B
:10330000660B762F08957A9F702D6B9F700DF89F36
:10331000700DE99F700D6A9F602D710DFB9F600D10
:10332000711DE89F600D711D8827FA9FF02D610DBA
:10333000781FEB9FF00D611D781FEA9FE02DF10DC6
:10334000681F781F08955CD0DEDF0EF4A3DF0895B8
:103350000024112490E1AA0FBB1F001C111C0E1A9F
:103360001F0A18F40E0E1F1E01C0A1609A9599F74E
:10337000FD01D00108953F934F935F9300241124E2
:103380004427552730E2AA0FBB1F881F991F001C36
:10339000111C441F551F0E1A1F0A460B570B28F409
:1033A0000E0E1F1E461F571F01C0A1603A9559F708
:1033B000FD01BC01D001CA015F914F913F91089579
:1033C0001FD0D9DF0EF466DF0895C2DFFD01089536
:1033D000D2DFFD01BC010895E89497FF09C0A095D4
:1033E000B09580959095AF5FBF4F8F4F9F4F68947A
:1033F00077FD50DFC0DFFD01BC010EF44BDF089507
:10340000E89477FF02C046DF689497FF0BC0002462
:10341000A095B095809590951196801D901D00F80F
:10342000039400FA0895ED91FC9111970895ED91A0
:10343000FD916D917C9113970895ED91FD916D91A2
:103440007D910895ED93FD936D937C9308957E9304
:103450006E93FE93EE9308950590F491E02D0895F8
:10346000E881F9816A817B810895E883F9836A8321
:103470007B8308957A936A93FA93EA930895309739
:103480006040704008955A934A933A932A931A934E
:103490000A9308955D814C813B812A8119810881BD
:1034A0000895AC0FBD1F05900D928A95E1F7089520
:00000001FF
